{
	"implement/Social.sol": {
		"Social": {
			"abi": [
				{
					"anonymous": false,
					"inputs": [
						{
							"indexed": true,
							"internalType": "address",
							"name": "operator",
							"type": "address"
						},
						{
							"indexed": true,
							"internalType": "address",
							"name": "user",
							"type": "address"
						}
					],
					"name": "user_add_friend",
					"type": "event"
				},
				{
					"anonymous": false,
					"inputs": [
						{
							"indexed": true,
							"internalType": "address",
							"name": "operator",
							"type": "address"
						},
						{
							"indexed": true,
							"internalType": "address",
							"name": "user",
							"type": "address"
						}
					],
					"name": "user_blocked",
					"type": "event"
				},
				{
					"anonymous": false,
					"inputs": [
						{
							"indexed": true,
							"internalType": "address",
							"name": "user",
							"type": "address"
						},
						{
							"indexed": false,
							"internalType": "string",
							"name": "pubkey",
							"type": "string"
						}
					],
					"name": "user_register",
					"type": "event"
				},
				{
					"anonymous": false,
					"inputs": [
						{
							"indexed": true,
							"internalType": "address",
							"name": "operator",
							"type": "address"
						},
						{
							"indexed": true,
							"internalType": "address",
							"name": "user",
							"type": "address"
						}
					],
					"name": "user_removed_from_blocked",
					"type": "event"
				},
				{
					"anonymous": false,
					"inputs": [
						{
							"indexed": true,
							"internalType": "address",
							"name": "operator",
							"type": "address"
						},
						{
							"indexed": true,
							"internalType": "address",
							"name": "user",
							"type": "address"
						}
					],
					"name": "user_removed_from_friends",
					"type": "event"
				},
				{
					"inputs": [
						{
							"internalType": "address",
							"name": "user",
							"type": "address"
						}
					],
					"name": "AddFriend",
					"outputs": [
						{
							"internalType": "bool",
							"name": "",
							"type": "bool"
						}
					],
					"stateMutability": "nonpayable",
					"type": "function"
				},
				{
					"inputs": [
						{
							"internalType": "address",
							"name": "",
							"type": "address"
						},
						{
							"internalType": "uint256",
							"name": "",
							"type": "uint256"
						}
					],
					"name": "BlockList",
					"outputs": [
						{
							"internalType": "address",
							"name": "",
							"type": "address"
						}
					],
					"stateMutability": "view",
					"type": "function"
				},
				{
					"inputs": [
						{
							"internalType": "address",
							"name": "user",
							"type": "address"
						}
					],
					"name": "BlockUser",
					"outputs": [
						{
							"internalType": "bool",
							"name": "",
							"type": "bool"
						}
					],
					"stateMutability": "nonpayable",
					"type": "function"
				},
				{
					"inputs": [
						{
							"internalType": "address",
							"name": "",
							"type": "address"
						},
						{
							"internalType": "address",
							"name": "",
							"type": "address"
						}
					],
					"name": "BlockedUserMapping",
					"outputs": [
						{
							"internalType": "address",
							"name": "user_address",
							"type": "address"
						},
						{
							"internalType": "uint256",
							"name": "created_at",
							"type": "uint256"
						}
					],
					"stateMutability": "view",
					"type": "function"
				},
				{
					"inputs": [
						{
							"internalType": "address",
							"name": "",
							"type": "address"
						},
						{
							"internalType": "uint256",
							"name": "",
							"type": "uint256"
						}
					],
					"name": "FriendsList",
					"outputs": [
						{
							"internalType": "address",
							"name": "",
							"type": "address"
						}
					],
					"stateMutability": "view",
					"type": "function"
				},
				{
					"inputs": [
						{
							"internalType": "address",
							"name": "",
							"type": "address"
						},
						{
							"internalType": "address",
							"name": "",
							"type": "address"
						}
					],
					"name": "FriendsMapping",
					"outputs": [
						{
							"internalType": "address",
							"name": "user_address",
							"type": "address"
						},
						{
							"internalType": "uint256",
							"name": "created_at",
							"type": "uint256"
						}
					],
					"stateMutability": "view",
					"type": "function"
				},
				{
					"inputs": [
						{
							"internalType": "address",
							"name": "user",
							"type": "address"
						}
					],
					"name": "GetPubKey",
					"outputs": [
						{
							"internalType": "string",
							"name": "",
							"type": "string"
						}
					],
					"stateMutability": "view",
					"type": "function"
				},
				{
					"inputs": [
						{
							"internalType": "address",
							"name": "",
							"type": "address"
						}
					],
					"name": "Pubkeys",
					"outputs": [
						{
							"internalType": "string",
							"name": "",
							"type": "string"
						}
					],
					"stateMutability": "view",
					"type": "function"
				},
				{
					"inputs": [
						{
							"internalType": "string",
							"name": "pubkey",
							"type": "string"
						}
					],
					"name": "Register",
					"outputs": [
						{
							"internalType": "bool",
							"name": "",
							"type": "bool"
						}
					],
					"stateMutability": "nonpayable",
					"type": "function"
				},
				{
					"inputs": [
						{
							"internalType": "address",
							"name": "user",
							"type": "address"
						}
					],
					"name": "RemoveBlockedUser",
					"outputs": [
						{
							"internalType": "bool",
							"name": "",
							"type": "bool"
						}
					],
					"stateMutability": "nonpayable",
					"type": "function"
				},
				{
					"inputs": [
						{
							"internalType": "address",
							"name": "user",
							"type": "address"
						}
					],
					"name": "RemoveFriend",
					"outputs": [
						{
							"internalType": "bool",
							"name": "",
							"type": "bool"
						}
					],
					"stateMutability": "nonpayable",
					"type": "function"
				},
				{
					"inputs": [],
					"name": "ViewBlockedUsers",
					"outputs": [
						{
							"internalType": "address[]",
							"name": "",
							"type": "address[]"
						}
					],
					"stateMutability": "view",
					"type": "function"
				},
				{
					"inputs": [],
					"name": "ViewFriends",
					"outputs": [
						{
							"internalType": "address[]",
							"name": "",
							"type": "address[]"
						}
					],
					"stateMutability": "view",
					"type": "function"
				}
			],
			"devdoc": {
				"kind": "dev",
				"methods": {},
				"version": 1
			},
			"evm": {
				"assembly": "    /* \"implement/Social.sol\":93:4136  contract Social is ISocial {... */\n  mstore(0x40, 0x80)\n    /* \"implement/Social.sol\":248:268  abi.encodePacked(\"\") */\n  add(0x20, mload(0x40))\n  tag_1\n  swap1\n  tag_2\n  jump\t// in\ntag_1:\n  mload(0x40)\n  0x20\n  dup2\n  dup4\n  sub\n  sub\n  dup2\n  mstore\n  swap1\n  0x40\n  mstore\n    /* \"implement/Social.sol\":238:269  keccak256(abi.encodePacked(\"\")) */\n  dup1\n  mload\n  swap1\n  0x20\n  add\n  keccak256\n    /* \"implement/Social.sol\":208:269  bytes32 private EMPTYSTRING = keccak256(abi.encodePacked(\"\")) */\n  0x00\n  sstore\n    /* \"implement/Social.sol\":93:4136  contract Social is ISocial {... */\n  callvalue\n  dup1\n  iszero\n  tag_3\n  jumpi\n  0x00\n  dup1\n  revert\ntag_3:\n  pop\n  jump(tag_4)\n    /* \"#utility.yul\":7:155   */\ntag_5:\n    /* \"#utility.yul\":109:120   */\n  0x00\n    /* \"#utility.yul\":146:149   */\n  dup2\n    /* \"#utility.yul\":131:149   */\n  swap1\n  pop\n    /* \"#utility.yul\":7:155   */\n  swap3\n  swap2\n  pop\n  pop\n  jump\t// out\n    /* \"#utility.yul\":161:275   */\ntag_6:\n  pop\n  jump\t// out\n    /* \"#utility.yul\":281:681   */\ntag_7:\n    /* \"#utility.yul\":441:444   */\n  0x00\n    /* \"#utility.yul\":462:546   */\n  tag_12\n    /* \"#utility.yul\":544:545   */\n  0x00\n    /* \"#utility.yul\":539:542   */\n  dup4\n    /* \"#utility.yul\":462:546   */\n  tag_5\n  jump\t// in\ntag_12:\n    /* \"#utility.yul\":455:546   */\n  swap2\n  pop\n    /* \"#utility.yul\":555:648   */\n  tag_13\n    /* \"#utility.yul\":644:647   */\n  dup3\n    /* \"#utility.yul\":555:648   */\n  tag_6\n  jump\t// in\ntag_13:\n    /* \"#utility.yul\":673:674   */\n  0x00\n    /* \"#utility.yul\":668:671   */\n  dup3\n    /* \"#utility.yul\":664:675   */\n  add\n    /* \"#utility.yul\":657:675   */\n  swap1\n  pop\n    /* \"#utility.yul\":281:681   */\n  swap2\n  swap1\n  pop\n  jump\t// out\n    /* \"#utility.yul\":687:1068   */\ntag_2:\n    /* \"#utility.yul\":872:875   */\n  0x00\n    /* \"#utility.yul\":894:1042   */\n  tag_15\n    /* \"#utility.yul\":1038:1041   */\n  dup3\n    /* \"#utility.yul\":894:1042   */\n  tag_7\n  jump\t// in\ntag_15:\n    /* \"#utility.yul\":887:1042   */\n  swap2\n  pop\n    /* \"#utility.yul\":1059:1062   */\n  dup2\n    /* \"#utility.yul\":1052:1062   */\n  swap1\n  pop\n    /* \"#utility.yul\":687:1068   */\n  swap2\n  swap1\n  pop\n  jump\t// out\n    /* \"implement/Social.sol\":93:4136  contract Social is ISocial {... */\ntag_4:\n  dataSize(sub_0)\n  dup1\n  dataOffset(sub_0)\n  0x00\n  codecopy\n  0x00\n  return\nstop\n\nsub_0: assembly {\n        /* \"implement/Social.sol\":93:4136  contract Social is ISocial {... */\n      mstore(0x40, 0x80)\n      callvalue\n      dup1\n      iszero\n      tag_1\n      jumpi\n      0x00\n      dup1\n      revert\n    tag_1:\n      pop\n      jumpi(tag_2, lt(calldatasize, 0x04))\n      shr(0xe0, calldataload(0x00))\n      dup1\n      0x8cdae20a\n      gt\n      tag_16\n      jumpi\n      dup1\n      0xe1384a72\n      gt\n      tag_17\n      jumpi\n      dup1\n      0xe1384a72\n      eq\n      tag_12\n      jumpi\n      dup1\n      0xe17fa73b\n      eq\n      tag_13\n      jumpi\n      dup1\n      0xe905af6c\n      eq\n      tag_14\n      jumpi\n      dup1\n      0xf9a0982d\n      eq\n      tag_15\n      jumpi\n      jump(tag_2)\n    tag_17:\n      dup1\n      0x8cdae20a\n      eq\n      tag_9\n      jumpi\n      dup1\n      0xa5a600a6\n      eq\n      tag_10\n      jumpi\n      dup1\n      0xe05a492d\n      eq\n      tag_11\n      jumpi\n      jump(tag_2)\n    tag_16:\n      dup1\n      0x13962258\n      eq\n      tag_3\n      jumpi\n      dup1\n      0x3dcfd409\n      eq\n      tag_4\n      jumpi\n      dup1\n      0x40b2d3af\n      eq\n      tag_5\n      jumpi\n      dup1\n      0x6c1a2728\n      eq\n      tag_6\n      jumpi\n      dup1\n      0x7aafb9f2\n      eq\n      tag_7\n      jumpi\n      dup1\n      0x8be03f57\n      eq\n      tag_8\n      jumpi\n    tag_2:\n      0x00\n      dup1\n      revert\n        /* \"implement/Social.sol\":964:1792  function AddFriend(address user) public returns (bool) {... */\n    tag_3:\n      tag_18\n      0x04\n      dup1\n      calldatasize\n      sub\n      dup2\n      add\n      swap1\n      tag_19\n      swap2\n      swap1\n      tag_20\n      jump\t// in\n    tag_19:\n      tag_21\n      jump\t// in\n    tag_18:\n      mload(0x40)\n      tag_22\n      swap2\n      swap1\n      tag_23\n      jump\t// in\n    tag_22:\n      mload(0x40)\n      dup1\n      swap2\n      sub\n      swap1\n      return\n        /* \"implement/Social.sol\":4022:4134  function ViewBlockedUsers() public view returns (address[] memory) {... */\n    tag_4:\n      tag_24\n      tag_25\n      jump\t// in\n    tag_24:\n      mload(0x40)\n      tag_26\n      swap2\n      swap1\n      tag_27\n      jump\t// in\n    tag_26:\n      mload(0x40)\n      dup1\n      swap2\n      sub\n      swap1\n      return\n        /* \"implement/Social.sol\":670:846  function Register(string memory pubkey) public returns (bool) {... */\n    tag_5:\n      tag_28\n      0x04\n      dup1\n      calldatasize\n      sub\n      dup2\n      add\n      swap1\n      tag_29\n      swap2\n      swap1\n      tag_30\n      jump\t// in\n    tag_29:\n      tag_31\n      jump\t// in\n    tag_28:\n      mload(0x40)\n      tag_32\n      swap2\n      swap1\n      tag_23\n      jump\t// in\n    tag_32:\n      mload(0x40)\n      dup1\n      swap2\n      sub\n      swap1\n      return\n        /* \"implement/Social.sol\":3309:4016  function RemoveBlockedUser(address user) public returns (bool) {... */\n    tag_6:\n      tag_33\n      0x04\n      dup1\n      calldatasize\n      sub\n      dup2\n      add\n      swap1\n      tag_34\n      swap2\n      swap1\n      tag_20\n      jump\t// in\n    tag_34:\n      tag_35\n      jump\t// in\n    tag_33:\n      mload(0x40)\n      tag_36\n      swap2\n      swap1\n      tag_23\n      jump\t// in\n    tag_36:\n      mload(0x40)\n      dup1\n      swap2\n      sub\n      swap1\n      return\n        /* \"implement/Social.sol\":852:958  function GetPubKey(address user) public view returns (string memory) {... */\n    tag_7:\n      tag_37\n      0x04\n      dup1\n      calldatasize\n      sub\n      dup2\n      add\n      swap1\n      tag_38\n      swap2\n      swap1\n      tag_20\n      jump\t// in\n    tag_38:\n      tag_39\n      jump\t// in\n    tag_37:\n      mload(0x40)\n      tag_40\n      swap2\n      swap1\n      tag_41\n      jump\t// in\n    tag_40:\n      mload(0x40)\n      dup1\n      swap2\n      sub\n      swap1\n      return\n        /* \"implement/Social.sol\":2506:2615  function ViewFriends() public view returns (address[] memory) {... */\n    tag_8:\n      tag_42\n      tag_43\n      jump\t// in\n    tag_42:\n      mload(0x40)\n      tag_44\n      swap2\n      swap1\n      tag_27\n      jump\t// in\n    tag_44:\n      mload(0x40)\n      dup1\n      swap2\n      sub\n      swap1\n      return\n        /* \"implement/Social.sol\":1798:2500  function RemoveFriend(address user) public returns (bool) {... */\n    tag_9:\n      tag_45\n      0x04\n      dup1\n      calldatasize\n      sub\n      dup2\n      add\n      swap1\n      tag_46\n      swap2\n      swap1\n      tag_20\n      jump\t// in\n    tag_46:\n      tag_47\n      jump\t// in\n    tag_45:\n      mload(0x40)\n      tag_48\n      swap2\n      swap1\n      tag_23\n      jump\t// in\n    tag_48:\n      mload(0x40)\n      dup1\n      swap2\n      sub\n      swap1\n      return\n        /* \"implement/Social.sol\":276:317  mapping(address => string) public Pubkeys */\n    tag_10:\n      tag_49\n      0x04\n      dup1\n      calldatasize\n      sub\n      dup2\n      add\n      swap1\n      tag_50\n      swap2\n      swap1\n      tag_20\n      jump\t// in\n    tag_50:\n      tag_51\n      jump\t// in\n    tag_49:\n      mload(0x40)\n      tag_52\n      swap2\n      swap1\n      tag_41\n      jump\t// in\n    tag_52:\n      mload(0x40)\n      dup1\n      swap2\n      sub\n      swap1\n      return\n        /* \"implement/Social.sol\":526:572  mapping(address => address[]) public BlockList */\n    tag_11:\n      tag_53\n      0x04\n      dup1\n      calldatasize\n      sub\n      dup2\n      add\n      swap1\n      tag_54\n      swap2\n      swap1\n      tag_55\n      jump\t// in\n    tag_54:\n      tag_56\n      jump\t// in\n    tag_53:\n      mload(0x40)\n      tag_57\n      swap2\n      swap1\n      tag_58\n      jump\t// in\n    tag_57:\n      mload(0x40)\n      dup1\n      swap2\n      sub\n      swap1\n      return\n        /* \"implement/Social.sol\":323:389  mapping(address => mapping(address => User)) public FriendsMapping */\n    tag_12:\n      tag_59\n      0x04\n      dup1\n      calldatasize\n      sub\n      dup2\n      add\n      swap1\n      tag_60\n      swap2\n      swap1\n      tag_61\n      jump\t// in\n    tag_60:\n      tag_62\n      jump\t// in\n    tag_59:\n      mload(0x40)\n      tag_63\n      swap3\n      swap2\n      swap1\n      tag_64\n      jump\t// in\n    tag_63:\n      mload(0x40)\n      dup1\n      swap2\n      sub\n      swap1\n      return\n        /* \"implement/Social.sol\":450:520  mapping(address => mapping(address => User)) public BlockedUserMapping */\n    tag_13:\n      tag_65\n      0x04\n      dup1\n      calldatasize\n      sub\n      dup2\n      add\n      swap1\n      tag_66\n      swap2\n      swap1\n      tag_61\n      jump\t// in\n    tag_66:\n      tag_67\n      jump\t// in\n    tag_65:\n      mload(0x40)\n      tag_68\n      swap3\n      swap2\n      swap1\n      tag_64\n      jump\t// in\n    tag_68:\n      mload(0x40)\n      dup1\n      swap2\n      sub\n      swap1\n      return\n        /* \"implement/Social.sol\":2621:3303  function BlockUser(address user) public returns (bool) {... */\n    tag_14:\n      tag_69\n      0x04\n      dup1\n      calldatasize\n      sub\n      dup2\n      add\n      swap1\n      tag_70\n      swap2\n      swap1\n      tag_20\n      jump\t// in\n    tag_70:\n      tag_71\n      jump\t// in\n    tag_69:\n      mload(0x40)\n      tag_72\n      swap2\n      swap1\n      tag_23\n      jump\t// in\n    tag_72:\n      mload(0x40)\n      dup1\n      swap2\n      sub\n      swap1\n      return\n        /* \"implement/Social.sol\":395:443  mapping(address => address[]) public FriendsList */\n    tag_15:\n      tag_73\n      0x04\n      dup1\n      calldatasize\n      sub\n      dup2\n      add\n      swap1\n      tag_74\n      swap2\n      swap1\n      tag_55\n      jump\t// in\n    tag_74:\n      tag_75\n      jump\t// in\n    tag_73:\n      mload(0x40)\n      tag_76\n      swap2\n      swap1\n      tag_58\n      jump\t// in\n    tag_76:\n      mload(0x40)\n      dup1\n      swap2\n      sub\n      swap1\n      return\n        /* \"implement/Social.sol\":964:1792  function AddFriend(address user) public returns (bool) {... */\n    tag_21:\n        /* \"implement/Social.sol\":1013:1017  bool */\n      0x00\n        /* \"implement/Social.sol\":1045:1055  msg.sender */\n      caller\n        /* \"implement/Social.sol\":1037:1055  user != msg.sender */\n      0xffffffffffffffffffffffffffffffffffffffff\n      and\n        /* \"implement/Social.sol\":1037:1041  user */\n      dup3\n        /* \"implement/Social.sol\":1037:1055  user != msg.sender */\n      0xffffffffffffffffffffffffffffffffffffffff\n      and\n      sub\n        /* \"implement/Social.sol\":1029:1096  require(user != msg.sender, \"you can not add yourself as a friend\") */\n      tag_78\n      jumpi\n      mload(0x40)\n      0x08c379a000000000000000000000000000000000000000000000000000000000\n      dup2\n      mstore\n      0x04\n      add\n      tag_79\n      swap1\n      tag_80\n      jump\t// in\n    tag_79:\n      mload(0x40)\n      dup1\n      swap2\n      sub\n      swap1\n      revert\n    tag_78:\n        /* \"implement/Social.sol\":1173:1184  EMPTYSTRING */\n      sload(0x00)\n        /* \"implement/Social.sol\":1154:1161  Pubkeys */\n      0x01\n        /* \"implement/Social.sol\":1154:1167  Pubkeys[user] */\n      0x00\n        /* \"implement/Social.sol\":1162:1166  user */\n      dup5\n        /* \"implement/Social.sol\":1154:1167  Pubkeys[user] */\n      0xffffffffffffffffffffffffffffffffffffffff\n      and\n      0xffffffffffffffffffffffffffffffffffffffff\n      and\n      dup2\n      mstore\n      0x20\n      add\n      swap1\n      dup2\n      mstore\n      0x20\n      add\n      0x00\n      keccak256\n        /* \"implement/Social.sol\":1137:1168  abi.encodePacked(Pubkeys[user]) */\n      add(0x20, mload(0x40))\n      tag_81\n      swap2\n      swap1\n      tag_82\n      jump\t// in\n    tag_81:\n      mload(0x40)\n      0x20\n      dup2\n      dup4\n      sub\n      sub\n      dup2\n      mstore\n      swap1\n      0x40\n      mstore\n        /* \"implement/Social.sol\":1127:1169  keccak256(abi.encodePacked(Pubkeys[user])) */\n      dup1\n      mload\n      swap1\n      0x20\n      add\n      keccak256\n        /* \"implement/Social.sol\":1127:1184  keccak256(abi.encodePacked(Pubkeys[user])) != EMPTYSTRING */\n      sub\n        /* \"implement/Social.sol\":1106:1251  require(... */\n      tag_83\n      jumpi\n      mload(0x40)\n      0x08c379a000000000000000000000000000000000000000000000000000000000\n      dup2\n      mstore\n      0x04\n      add\n      tag_84\n      swap1\n      tag_85\n      jump\t// in\n    tag_84:\n      mload(0x40)\n      dup1\n      swap2\n      sub\n      swap1\n      revert\n    tag_83:\n        /* \"implement/Social.sol\":1329:1330  0 */\n      0x00\n        /* \"implement/Social.sol\":1282:1296  FriendsMapping */\n      0x02\n        /* \"implement/Social.sol\":1282:1308  FriendsMapping[msg.sender] */\n      0x00\n        /* \"implement/Social.sol\":1297:1307  msg.sender */\n      caller\n        /* \"implement/Social.sol\":1282:1308  FriendsMapping[msg.sender] */\n      0xffffffffffffffffffffffffffffffffffffffff\n      and\n      0xffffffffffffffffffffffffffffffffffffffff\n      and\n      dup2\n      mstore\n      0x20\n      add\n      swap1\n      dup2\n      mstore\n      0x20\n      add\n      0x00\n      keccak256\n        /* \"implement/Social.sol\":1282:1314  FriendsMapping[msg.sender][user] */\n      0x00\n        /* \"implement/Social.sol\":1309:1313  user */\n      dup5\n        /* \"implement/Social.sol\":1282:1314  FriendsMapping[msg.sender][user] */\n      0xffffffffffffffffffffffffffffffffffffffff\n      and\n      0xffffffffffffffffffffffffffffffffffffffff\n      and\n      dup2\n      mstore\n      0x20\n      add\n      swap1\n      dup2\n      mstore\n      0x20\n      add\n      0x00\n      keccak256\n        /* \"implement/Social.sol\":1282:1325  FriendsMapping[msg.sender][user].created_at */\n      0x01\n      add\n      sload\n        /* \"implement/Social.sol\":1282:1330  FriendsMapping[msg.sender][user].created_at == 0 */\n      eq\n        /* \"implement/Social.sol\":1261:1385  require(... */\n      tag_86\n      jumpi\n      mload(0x40)\n      0x08c379a000000000000000000000000000000000000000000000000000000000\n      dup2\n      mstore\n      0x04\n      add\n      tag_87\n      swap1\n      tag_88\n      jump\t// in\n    tag_87:\n      mload(0x40)\n      dup1\n      swap2\n      sub\n      swap1\n      revert\n    tag_86:\n        /* \"implement/Social.sol\":1450:1451  0 */\n      0x00\n        /* \"implement/Social.sol\":1399:1417  BlockedUserMapping */\n      0x04\n        /* \"implement/Social.sol\":1399:1429  BlockedUserMapping[msg.sender] */\n      0x00\n        /* \"implement/Social.sol\":1418:1428  msg.sender */\n      caller\n        /* \"implement/Social.sol\":1399:1429  BlockedUserMapping[msg.sender] */\n      0xffffffffffffffffffffffffffffffffffffffff\n      and\n      0xffffffffffffffffffffffffffffffffffffffff\n      and\n      dup2\n      mstore\n      0x20\n      add\n      swap1\n      dup2\n      mstore\n      0x20\n      add\n      0x00\n      keccak256\n        /* \"implement/Social.sol\":1399:1435  BlockedUserMapping[msg.sender][user] */\n      0x00\n        /* \"implement/Social.sol\":1430:1434  user */\n      dup5\n        /* \"implement/Social.sol\":1399:1435  BlockedUserMapping[msg.sender][user] */\n      0xffffffffffffffffffffffffffffffffffffffff\n      and\n      0xffffffffffffffffffffffffffffffffffffffff\n      and\n      dup2\n      mstore\n      0x20\n      add\n      swap1\n      dup2\n      mstore\n      0x20\n      add\n      0x00\n      keccak256\n        /* \"implement/Social.sol\":1399:1446  BlockedUserMapping[msg.sender][user].created_at */\n      0x01\n      add\n      sload\n        /* \"implement/Social.sol\":1399:1451  BlockedUserMapping[msg.sender][user].created_at != 0 */\n      eq\n        /* \"implement/Social.sol\":1395:1501  if (BlockedUserMapping[msg.sender][user].created_at != 0) {... */\n      tag_89\n      jumpi\n        /* \"implement/Social.sol\":1467:1490  RemoveBlockedUser(user) */\n      tag_90\n        /* \"implement/Social.sol\":1485:1489  user */\n      dup3\n        /* \"implement/Social.sol\":1467:1484  RemoveBlockedUser */\n      tag_35\n        /* \"implement/Social.sol\":1467:1490  RemoveBlockedUser(user) */\n      jump\t// in\n    tag_90:\n      pop\n        /* \"implement/Social.sol\":1395:1501  if (BlockedUserMapping[msg.sender][user].created_at != 0) {... */\n    tag_89:\n        /* \"implement/Social.sol\":1510:1528  User memory friend */\n      0x00\n        /* \"implement/Social.sol\":1531:1620  User({... */\n      mload(0x40)\n      dup1\n      0x40\n      add\n      0x40\n      mstore\n      dup1\n        /* \"implement/Social.sol\":1564:1568  user */\n      dup5\n        /* \"implement/Social.sol\":1531:1620  User({... */\n      0xffffffffffffffffffffffffffffffffffffffff\n      and\n      dup2\n      mstore\n      0x20\n      add\n        /* \"implement/Social.sol\":1594:1609  block.timestamp */\n      timestamp\n        /* \"implement/Social.sol\":1531:1620  User({... */\n      dup2\n      mstore\n      pop\n        /* \"implement/Social.sol\":1510:1620  User memory friend = User({... */\n      swap1\n      pop\n        /* \"implement/Social.sol\":1666:1672  friend */\n      dup1\n        /* \"implement/Social.sol\":1631:1645  FriendsMapping */\n      0x02\n        /* \"implement/Social.sol\":1631:1657  FriendsMapping[msg.sender] */\n      0x00\n        /* \"implement/Social.sol\":1646:1656  msg.sender */\n      caller\n        /* \"implement/Social.sol\":1631:1657  FriendsMapping[msg.sender] */\n      0xffffffffffffffffffffffffffffffffffffffff\n      and\n      0xffffffffffffffffffffffffffffffffffffffff\n      and\n      dup2\n      mstore\n      0x20\n      add\n      swap1\n      dup2\n      mstore\n      0x20\n      add\n      0x00\n      keccak256\n        /* \"implement/Social.sol\":1631:1663  FriendsMapping[msg.sender][user] */\n      0x00\n        /* \"implement/Social.sol\":1658:1662  user */\n      dup6\n        /* \"implement/Social.sol\":1631:1663  FriendsMapping[msg.sender][user] */\n      0xffffffffffffffffffffffffffffffffffffffff\n      and\n      0xffffffffffffffffffffffffffffffffffffffff\n      and\n      dup2\n      mstore\n      0x20\n      add\n      swap1\n      dup2\n      mstore\n      0x20\n      add\n      0x00\n      keccak256\n        /* \"implement/Social.sol\":1631:1672  FriendsMapping[msg.sender][user] = friend */\n      0x00\n      dup3\n      add\n      mload\n      dup2\n      0x00\n      add\n      exp(0x0100, 0x00)\n      dup2\n      sload\n      dup2\n      0xffffffffffffffffffffffffffffffffffffffff\n      mul\n      not\n      and\n      swap1\n      dup4\n      0xffffffffffffffffffffffffffffffffffffffff\n      and\n      mul\n      or\n      swap1\n      sstore\n      pop\n      0x20\n      dup3\n      add\n      mload\n      dup2\n      0x01\n      add\n      sstore\n      swap1\n      pop\n      pop\n        /* \"implement/Social.sol\":1682:1693  FriendsList */\n      0x03\n        /* \"implement/Social.sol\":1682:1705  FriendsList[msg.sender] */\n      0x00\n        /* \"implement/Social.sol\":1694:1704  msg.sender */\n      caller\n        /* \"implement/Social.sol\":1682:1705  FriendsList[msg.sender] */\n      0xffffffffffffffffffffffffffffffffffffffff\n      and\n      0xffffffffffffffffffffffffffffffffffffffff\n      and\n      dup2\n      mstore\n      0x20\n      add\n      swap1\n      dup2\n      mstore\n      0x20\n      add\n      0x00\n      keccak256\n        /* \"implement/Social.sol\":1711:1715  user */\n      dup4\n        /* \"implement/Social.sol\":1682:1716  FriendsList[msg.sender].push(user) */\n      swap1\n      dup1\n      0x01\n      dup2\n      sload\n      add\n      dup1\n      dup3\n      sstore\n      dup1\n      swap2\n      pop\n      pop\n      0x01\n      swap1\n      sub\n      swap1\n      0x00\n      mstore\n      keccak256(0x00, 0x20)\n      add\n      0x00\n      swap1\n      swap2\n      swap1\n      swap2\n      swap1\n      swap2\n      0x0100\n      exp\n      dup2\n      sload\n      dup2\n      0xffffffffffffffffffffffffffffffffffffffff\n      mul\n      not\n      and\n      swap1\n      dup4\n      0xffffffffffffffffffffffffffffffffffffffff\n      and\n      mul\n      or\n      swap1\n      sstore\n      pop\n        /* \"implement/Social.sol\":1759:1763  user */\n      dup3\n        /* \"implement/Social.sol\":1731:1764  user_add_friend(msg.sender, user) */\n      0xffffffffffffffffffffffffffffffffffffffff\n      and\n        /* \"implement/Social.sol\":1747:1757  msg.sender */\n      caller\n        /* \"implement/Social.sol\":1731:1764  user_add_friend(msg.sender, user) */\n      0xffffffffffffffffffffffffffffffffffffffff\n      and\n      0x389c4d1e49da6f4f6564f4736c370e19d62ccf466d3bbd87e0495b44f89937d0\n      mload(0x40)\n      mload(0x40)\n      dup1\n      swap2\n      sub\n      swap1\n      log3\n        /* \"implement/Social.sol\":1781:1785  true */\n      0x01\n        /* \"implement/Social.sol\":1774:1785  return true */\n      swap2\n      pop\n      pop\n        /* \"implement/Social.sol\":964:1792  function AddFriend(address user) public returns (bool) {... */\n      swap2\n      swap1\n      pop\n      jump\t// out\n        /* \"implement/Social.sol\":4022:4134  function ViewBlockedUsers() public view returns (address[] memory) {... */\n    tag_25:\n        /* \"implement/Social.sol\":4071:4087  address[] memory */\n      0x60\n        /* \"implement/Social.sol\":4106:4115  BlockList */\n      0x05\n        /* \"implement/Social.sol\":4106:4127  BlockList[msg.sender] */\n      0x00\n        /* \"implement/Social.sol\":4116:4126  msg.sender */\n      caller\n        /* \"implement/Social.sol\":4106:4127  BlockList[msg.sender] */\n      0xffffffffffffffffffffffffffffffffffffffff\n      and\n      0xffffffffffffffffffffffffffffffffffffffff\n      and\n      dup2\n      mstore\n      0x20\n      add\n      swap1\n      dup2\n      mstore\n      0x20\n      add\n      0x00\n      keccak256\n        /* \"implement/Social.sol\":4099:4127  return BlockList[msg.sender] */\n      dup1\n      sload\n      dup1\n      0x20\n      mul\n      0x20\n      add\n      mload(0x40)\n      swap1\n      dup2\n      add\n      0x40\n      mstore\n      dup1\n      swap3\n      swap2\n      swap1\n      dup2\n      dup2\n      mstore\n      0x20\n      add\n      dup3\n      dup1\n      sload\n      dup1\n      iszero\n      tag_93\n      jumpi\n      0x20\n      mul\n      dup3\n      add\n      swap2\n      swap1\n      0x00\n      mstore\n      keccak256(0x00, 0x20)\n      swap1\n    tag_94:\n      dup2\n      0x00\n      swap1\n      sload\n      swap1\n      0x0100\n      exp\n      swap1\n      div\n      0xffffffffffffffffffffffffffffffffffffffff\n      and\n      0xffffffffffffffffffffffffffffffffffffffff\n      and\n      dup2\n      mstore\n      0x20\n      add\n      swap1\n      0x01\n      add\n      swap1\n      dup1\n      dup4\n      gt\n      tag_94\n      jumpi\n    tag_93:\n      pop\n      pop\n      pop\n      pop\n      pop\n      swap1\n      pop\n        /* \"implement/Social.sol\":4022:4134  function ViewBlockedUsers() public view returns (address[] memory) {... */\n      swap1\n      jump\t// out\n        /* \"implement/Social.sol\":670:846  function Register(string memory pubkey) public returns (bool) {... */\n    tag_31:\n        /* \"implement/Social.sol\":726:730  bool */\n      0x00\n        /* \"implement/Social.sol\":764:770  pubkey */\n      dup2\n        /* \"implement/Social.sol\":742:749  Pubkeys */\n      0x01\n        /* \"implement/Social.sol\":742:761  Pubkeys[msg.sender] */\n      0x00\n        /* \"implement/Social.sol\":750:760  msg.sender */\n      caller\n        /* \"implement/Social.sol\":742:761  Pubkeys[msg.sender] */\n      0xffffffffffffffffffffffffffffffffffffffff\n      and\n      0xffffffffffffffffffffffffffffffffffffffff\n      and\n      dup2\n      mstore\n      0x20\n      add\n      swap1\n      dup2\n      mstore\n      0x20\n      add\n      0x00\n      keccak256\n        /* \"implement/Social.sol\":742:770  Pubkeys[msg.sender] = pubkey */\n      swap1\n      dup2\n      tag_96\n      swap2\n      swap1\n      tag_97\n      jump\t// in\n    tag_96:\n      pop\n        /* \"implement/Social.sol\":799:809  msg.sender */\n      caller\n        /* \"implement/Social.sol\":785:818  user_register(msg.sender, pubkey) */\n      0xffffffffffffffffffffffffffffffffffffffff\n      and\n      0x63560a6ba7ee6a7fd9c4f8de1e3a8f80fe08b22aee88fbacf030048bcc640b74\n        /* \"implement/Social.sol\":811:817  pubkey */\n      dup4\n        /* \"implement/Social.sol\":785:818  user_register(msg.sender, pubkey) */\n      mload(0x40)\n      tag_98\n      swap2\n      swap1\n      tag_41\n      jump\t// in\n    tag_98:\n      mload(0x40)\n      dup1\n      swap2\n      sub\n      swap1\n      log2\n        /* \"implement/Social.sol\":835:839  true */\n      0x01\n        /* \"implement/Social.sol\":828:839  return true */\n      swap1\n      pop\n        /* \"implement/Social.sol\":670:846  function Register(string memory pubkey) public returns (bool) {... */\n      swap2\n      swap1\n      pop\n      jump\t// out\n        /* \"implement/Social.sol\":3309:4016  function RemoveBlockedUser(address user) public returns (bool) {... */\n    tag_35:\n        /* \"implement/Social.sol\":3366:3370  bool */\n      0x00\n        /* \"implement/Social.sol\":3454:3455  0 */\n      dup1\n        /* \"implement/Social.sol\":3403:3421  BlockedUserMapping */\n      0x04\n        /* \"implement/Social.sol\":3403:3433  BlockedUserMapping[msg.sender] */\n      0x00\n        /* \"implement/Social.sol\":3422:3432  msg.sender */\n      caller\n        /* \"implement/Social.sol\":3403:3433  BlockedUserMapping[msg.sender] */\n      0xffffffffffffffffffffffffffffffffffffffff\n      and\n      0xffffffffffffffffffffffffffffffffffffffff\n      and\n      dup2\n      mstore\n      0x20\n      add\n      swap1\n      dup2\n      mstore\n      0x20\n      add\n      0x00\n      keccak256\n        /* \"implement/Social.sol\":3403:3439  BlockedUserMapping[msg.sender][user] */\n      0x00\n        /* \"implement/Social.sol\":3434:3438  user */\n      dup5\n        /* \"implement/Social.sol\":3403:3439  BlockedUserMapping[msg.sender][user] */\n      0xffffffffffffffffffffffffffffffffffffffff\n      and\n      0xffffffffffffffffffffffffffffffffffffffff\n      and\n      dup2\n      mstore\n      0x20\n      add\n      swap1\n      dup2\n      mstore\n      0x20\n      add\n      0x00\n      keccak256\n        /* \"implement/Social.sol\":3403:3450  BlockedUserMapping[msg.sender][user].created_at */\n      0x01\n      add\n      sload\n        /* \"implement/Social.sol\":3403:3455  BlockedUserMapping[msg.sender][user].created_at != 0 */\n      sub\n        /* \"implement/Social.sol\":3382:3510  require(... */\n      tag_100\n      jumpi\n      mload(0x40)\n      0x08c379a000000000000000000000000000000000000000000000000000000000\n      dup2\n      mstore\n      0x04\n      add\n      tag_101\n      swap1\n      tag_102\n      jump\t// in\n    tag_101:\n      mload(0x40)\n      dup1\n      swap2\n      sub\n      swap1\n      revert\n    tag_100:\n        /* \"implement/Social.sol\":3527:3545  BlockedUserMapping */\n      0x04\n        /* \"implement/Social.sol\":3527:3557  BlockedUserMapping[msg.sender] */\n      0x00\n        /* \"implement/Social.sol\":3546:3556  msg.sender */\n      caller\n        /* \"implement/Social.sol\":3527:3557  BlockedUserMapping[msg.sender] */\n      0xffffffffffffffffffffffffffffffffffffffff\n      and\n      0xffffffffffffffffffffffffffffffffffffffff\n      and\n      dup2\n      mstore\n      0x20\n      add\n      swap1\n      dup2\n      mstore\n      0x20\n      add\n      0x00\n      keccak256\n        /* \"implement/Social.sol\":3527:3563  BlockedUserMapping[msg.sender][user] */\n      0x00\n        /* \"implement/Social.sol\":3558:3562  user */\n      dup4\n        /* \"implement/Social.sol\":3527:3563  BlockedUserMapping[msg.sender][user] */\n      0xffffffffffffffffffffffffffffffffffffffff\n      and\n      0xffffffffffffffffffffffffffffffffffffffff\n      and\n      dup2\n      mstore\n      0x20\n      add\n      swap1\n      dup2\n      mstore\n      0x20\n      add\n      0x00\n      keccak256\n      0x00\n        /* \"implement/Social.sol\":3520:3563  delete BlockedUserMapping[msg.sender][user] */\n      dup1\n      dup3\n      add\n      exp(0x0100, 0x00)\n      dup2\n      sload\n      swap1\n      0xffffffffffffffffffffffffffffffffffffffff\n      mul\n      not\n      and\n      swap1\n      sstore\n      0x01\n      dup3\n      add\n      0x00\n      swap1\n      sstore\n      pop\n      pop\n        /* \"implement/Social.sol\":3579:3588  uint256 i */\n      0x00\n        /* \"implement/Social.sol\":3574:3987  for (uint256 i = 0; i < BlockList[msg.sender].length; i++) {... */\n    tag_103:\n        /* \"implement/Social.sol\":3598:3607  BlockList */\n      0x05\n        /* \"implement/Social.sol\":3598:3619  BlockList[msg.sender] */\n      0x00\n        /* \"implement/Social.sol\":3608:3618  msg.sender */\n      caller\n        /* \"implement/Social.sol\":3598:3619  BlockList[msg.sender] */\n      0xffffffffffffffffffffffffffffffffffffffff\n      and\n      0xffffffffffffffffffffffffffffffffffffffff\n      and\n      dup2\n      mstore\n      0x20\n      add\n      swap1\n      dup2\n      mstore\n      0x20\n      add\n      0x00\n      keccak256\n        /* \"implement/Social.sol\":3598:3626  BlockList[msg.sender].length */\n      dup1\n      sload\n      swap1\n      pop\n        /* \"implement/Social.sol\":3594:3595  i */\n      dup2\n        /* \"implement/Social.sol\":3594:3626  i < BlockList[msg.sender].length */\n      lt\n        /* \"implement/Social.sol\":3574:3987  for (uint256 i = 0; i < BlockList[msg.sender].length; i++) {... */\n      iszero\n      tag_104\n      jumpi\n        /* \"implement/Social.sol\":3679:3683  user */\n      dup3\n        /* \"implement/Social.sol\":3651:3683  BlockList[msg.sender][i] == user */\n      0xffffffffffffffffffffffffffffffffffffffff\n      and\n        /* \"implement/Social.sol\":3651:3660  BlockList */\n      0x05\n        /* \"implement/Social.sol\":3651:3672  BlockList[msg.sender] */\n      0x00\n        /* \"implement/Social.sol\":3661:3671  msg.sender */\n      caller\n        /* \"implement/Social.sol\":3651:3672  BlockList[msg.sender] */\n      0xffffffffffffffffffffffffffffffffffffffff\n      and\n      0xffffffffffffffffffffffffffffffffffffffff\n      and\n      dup2\n      mstore\n      0x20\n      add\n      swap1\n      dup2\n      mstore\n      0x20\n      add\n      0x00\n      keccak256\n        /* \"implement/Social.sol\":3673:3674  i */\n      dup3\n        /* \"implement/Social.sol\":3651:3675  BlockList[msg.sender][i] */\n      dup2\n      sload\n      dup2\n      lt\n      tag_106\n      jumpi\n      tag_107\n      tag_108\n      jump\t// in\n    tag_107:\n    tag_106:\n      swap1\n      0x00\n      mstore\n      keccak256(0x00, 0x20)\n      add\n      0x00\n      swap1\n      sload\n      swap1\n      0x0100\n      exp\n      swap1\n      div\n      0xffffffffffffffffffffffffffffffffffffffff\n      and\n        /* \"implement/Social.sol\":3651:3683  BlockList[msg.sender][i] == user */\n      0xffffffffffffffffffffffffffffffffffffffff\n      and\n      sub\n        /* \"implement/Social.sol\":3647:3977  if (BlockList[msg.sender][i] == user) {... */\n      tag_110\n      jumpi\n        /* \"implement/Social.sol\":3730:3739  BlockList */\n      0x05\n        /* \"implement/Social.sol\":3730:3751  BlockList[msg.sender] */\n      0x00\n        /* \"implement/Social.sol\":3740:3750  msg.sender */\n      caller\n        /* \"implement/Social.sol\":3730:3751  BlockList[msg.sender] */\n      0xffffffffffffffffffffffffffffffffffffffff\n      and\n      0xffffffffffffffffffffffffffffffffffffffff\n      and\n      dup2\n      mstore\n      0x20\n      add\n      swap1\n      dup2\n      mstore\n      0x20\n      add\n      0x00\n      keccak256\n        /* \"implement/Social.sol\":3804:3805  1 */\n      0x01\n        /* \"implement/Social.sol\":3773:3782  BlockList */\n      0x05\n        /* \"implement/Social.sol\":3773:3794  BlockList[msg.sender] */\n      0x00\n        /* \"implement/Social.sol\":3783:3793  msg.sender */\n      caller\n        /* \"implement/Social.sol\":3773:3794  BlockList[msg.sender] */\n      0xffffffffffffffffffffffffffffffffffffffff\n      and\n      0xffffffffffffffffffffffffffffffffffffffff\n      and\n      dup2\n      mstore\n      0x20\n      add\n      swap1\n      dup2\n      mstore\n      0x20\n      add\n      0x00\n      keccak256\n        /* \"implement/Social.sol\":3773:3801  BlockList[msg.sender].length */\n      dup1\n      sload\n      swap1\n      pop\n        /* \"implement/Social.sol\":3773:3805  BlockList[msg.sender].length - 1 */\n      tag_111\n      swap2\n      swap1\n      tag_112\n      jump\t// in\n    tag_111:\n        /* \"implement/Social.sol\":3730:3823  BlockList[msg.sender][... */\n      dup2\n      sload\n      dup2\n      lt\n      tag_113\n      jumpi\n      tag_114\n      tag_108\n      jump\t// in\n    tag_114:\n    tag_113:\n      swap1\n      0x00\n      mstore\n      keccak256(0x00, 0x20)\n      add\n      0x00\n      swap1\n      sload\n      swap1\n      0x0100\n      exp\n      swap1\n      div\n      0xffffffffffffffffffffffffffffffffffffffff\n      and\n        /* \"implement/Social.sol\":3703:3712  BlockList */\n      0x05\n        /* \"implement/Social.sol\":3703:3724  BlockList[msg.sender] */\n      0x00\n        /* \"implement/Social.sol\":3713:3723  msg.sender */\n      caller\n        /* \"implement/Social.sol\":3703:3724  BlockList[msg.sender] */\n      0xffffffffffffffffffffffffffffffffffffffff\n      and\n      0xffffffffffffffffffffffffffffffffffffffff\n      and\n      dup2\n      mstore\n      0x20\n      add\n      swap1\n      dup2\n      mstore\n      0x20\n      add\n      0x00\n      keccak256\n        /* \"implement/Social.sol\":3725:3726  i */\n      dup3\n        /* \"implement/Social.sol\":3703:3727  BlockList[msg.sender][i] */\n      dup2\n      sload\n      dup2\n      lt\n      tag_116\n      jumpi\n      tag_117\n      tag_108\n      jump\t// in\n    tag_117:\n    tag_116:\n      swap1\n      0x00\n      mstore\n      keccak256(0x00, 0x20)\n      add\n      0x00\n        /* \"implement/Social.sol\":3703:3823  BlockList[msg.sender][i] = BlockList[msg.sender][... */\n      0x0100\n      exp\n      dup2\n      sload\n      dup2\n      0xffffffffffffffffffffffffffffffffffffffff\n      mul\n      not\n      and\n      swap1\n      dup4\n      0xffffffffffffffffffffffffffffffffffffffff\n      and\n      mul\n      or\n      swap1\n      sstore\n      pop\n        /* \"implement/Social.sol\":3841:3850  BlockList */\n      0x05\n        /* \"implement/Social.sol\":3841:3862  BlockList[msg.sender] */\n      0x00\n        /* \"implement/Social.sol\":3851:3861  msg.sender */\n      caller\n        /* \"implement/Social.sol\":3841:3862  BlockList[msg.sender] */\n      0xffffffffffffffffffffffffffffffffffffffff\n      and\n      0xffffffffffffffffffffffffffffffffffffffff\n      and\n      dup2\n      mstore\n      0x20\n      add\n      swap1\n      dup2\n      mstore\n      0x20\n      add\n      0x00\n      keccak256\n        /* \"implement/Social.sol\":3841:3868  BlockList[msg.sender].pop() */\n      dup1\n      sload\n      dup1\n      tag_119\n      jumpi\n      tag_120\n      tag_121\n      jump\t// in\n    tag_120:\n    tag_119:\n      0x01\n      swap1\n      sub\n      dup2\n      dup2\n      swap1\n      0x00\n      mstore\n      keccak256(0x00, 0x20)\n      add\n      exp(0x0100, 0x00)\n      dup2\n      sload\n      swap1\n      0xffffffffffffffffffffffffffffffffffffffff\n      mul\n      not\n      and\n      swap1\n      sstore\n      swap1\n      sstore\n        /* \"implement/Social.sol\":3928:3932  user */\n      dup3\n        /* \"implement/Social.sol\":3891:3933  user_removed_from_blocked(msg.sender,user) */\n      0xffffffffffffffffffffffffffffffffffffffff\n      and\n        /* \"implement/Social.sol\":3917:3927  msg.sender */\n      caller\n        /* \"implement/Social.sol\":3891:3933  user_removed_from_blocked(msg.sender,user) */\n      0xffffffffffffffffffffffffffffffffffffffff\n      and\n      0xa70f45b93a0b9d5f3fe03b6f02530661342e6a7a57c8da906f826230d2fdca44\n      mload(0x40)\n      mload(0x40)\n      dup1\n      swap2\n      sub\n      swap1\n      log3\n        /* \"implement/Social.sol\":3958:3962  true */\n      0x01\n        /* \"implement/Social.sol\":3951:3962  return true */\n      swap2\n      pop\n      pop\n      jump(tag_99)\n        /* \"implement/Social.sol\":3647:3977  if (BlockList[msg.sender][i] == user) {... */\n    tag_110:\n        /* \"implement/Social.sol\":3628:3631  i++ */\n      dup1\n      dup1\n      tag_123\n      swap1\n      tag_124\n      jump\t// in\n    tag_123:\n      swap2\n      pop\n      pop\n        /* \"implement/Social.sol\":3574:3987  for (uint256 i = 0; i < BlockList[msg.sender].length; i++) {... */\n      jump(tag_103)\n    tag_104:\n      pop\n        /* \"implement/Social.sol\":4004:4009  false */\n      0x00\n        /* \"implement/Social.sol\":3997:4009  return false */\n      swap1\n      pop\n        /* \"implement/Social.sol\":3309:4016  function RemoveBlockedUser(address user) public returns (bool) {... */\n    tag_99:\n      swap2\n      swap1\n      pop\n      jump\t// out\n        /* \"implement/Social.sol\":852:958  function GetPubKey(address user) public view returns (string memory) {... */\n    tag_39:\n        /* \"implement/Social.sol\":906:919  string memory */\n      0x60\n        /* \"implement/Social.sol\":938:945  Pubkeys */\n      0x01\n        /* \"implement/Social.sol\":938:951  Pubkeys[user] */\n      0x00\n        /* \"implement/Social.sol\":946:950  user */\n      dup4\n        /* \"implement/Social.sol\":938:951  Pubkeys[user] */\n      0xffffffffffffffffffffffffffffffffffffffff\n      and\n      0xffffffffffffffffffffffffffffffffffffffff\n      and\n      dup2\n      mstore\n      0x20\n      add\n      swap1\n      dup2\n      mstore\n      0x20\n      add\n      0x00\n      keccak256\n        /* \"implement/Social.sol\":931:951  return Pubkeys[user] */\n      dup1\n      sload\n      tag_126\n      swap1\n      tag_127\n      jump\t// in\n    tag_126:\n      dup1\n      0x1f\n      add\n      0x20\n      dup1\n      swap2\n      div\n      mul\n      0x20\n      add\n      mload(0x40)\n      swap1\n      dup2\n      add\n      0x40\n      mstore\n      dup1\n      swap3\n      swap2\n      swap1\n      dup2\n      dup2\n      mstore\n      0x20\n      add\n      dup3\n      dup1\n      sload\n      tag_128\n      swap1\n      tag_127\n      jump\t// in\n    tag_128:\n      dup1\n      iszero\n      tag_129\n      jumpi\n      dup1\n      0x1f\n      lt\n      tag_130\n      jumpi\n      0x0100\n      dup1\n      dup4\n      sload\n      div\n      mul\n      dup4\n      mstore\n      swap2\n      0x20\n      add\n      swap2\n      jump(tag_129)\n    tag_130:\n      dup3\n      add\n      swap2\n      swap1\n      0x00\n      mstore\n      keccak256(0x00, 0x20)\n      swap1\n    tag_131:\n      dup2\n      sload\n      dup2\n      mstore\n      swap1\n      0x01\n      add\n      swap1\n      0x20\n      add\n      dup1\n      dup4\n      gt\n      tag_131\n      jumpi\n      dup3\n      swap1\n      sub\n      0x1f\n      and\n      dup3\n      add\n      swap2\n    tag_129:\n      pop\n      pop\n      pop\n      pop\n      pop\n      swap1\n      pop\n        /* \"implement/Social.sol\":852:958  function GetPubKey(address user) public view returns (string memory) {... */\n      swap2\n      swap1\n      pop\n      jump\t// out\n        /* \"implement/Social.sol\":2506:2615  function ViewFriends() public view returns (address[] memory) {... */\n    tag_43:\n        /* \"implement/Social.sol\":2550:2566  address[] memory */\n      0x60\n        /* \"implement/Social.sol\":2585:2596  FriendsList */\n      0x03\n        /* \"implement/Social.sol\":2585:2608  FriendsList[msg.sender] */\n      0x00\n        /* \"implement/Social.sol\":2597:2607  msg.sender */\n      caller\n        /* \"implement/Social.sol\":2585:2608  FriendsList[msg.sender] */\n      0xffffffffffffffffffffffffffffffffffffffff\n      and\n      0xffffffffffffffffffffffffffffffffffffffff\n      and\n      dup2\n      mstore\n      0x20\n      add\n      swap1\n      dup2\n      mstore\n      0x20\n      add\n      0x00\n      keccak256\n        /* \"implement/Social.sol\":2578:2608  return FriendsList[msg.sender] */\n      dup1\n      sload\n      dup1\n      0x20\n      mul\n      0x20\n      add\n      mload(0x40)\n      swap1\n      dup2\n      add\n      0x40\n      mstore\n      dup1\n      swap3\n      swap2\n      swap1\n      dup2\n      dup2\n      mstore\n      0x20\n      add\n      dup3\n      dup1\n      sload\n      dup1\n      iszero\n      tag_133\n      jumpi\n      0x20\n      mul\n      dup3\n      add\n      swap2\n      swap1\n      0x00\n      mstore\n      keccak256(0x00, 0x20)\n      swap1\n    tag_134:\n      dup2\n      0x00\n      swap1\n      sload\n      swap1\n      0x0100\n      exp\n      swap1\n      div\n      0xffffffffffffffffffffffffffffffffffffffff\n      and\n      0xffffffffffffffffffffffffffffffffffffffff\n      and\n      dup2\n      mstore\n      0x20\n      add\n      swap1\n      0x01\n      add\n      swap1\n      dup1\n      dup4\n      gt\n      tag_134\n      jumpi\n    tag_133:\n      pop\n      pop\n      pop\n      pop\n      pop\n      swap1\n      pop\n        /* \"implement/Social.sol\":2506:2615  function ViewFriends() public view returns (address[] memory) {... */\n      swap1\n      jump\t// out\n        /* \"implement/Social.sol\":1798:2500  function RemoveFriend(address user) public returns (bool) {... */\n    tag_47:\n        /* \"implement/Social.sol\":1850:1854  bool */\n      0x00\n        /* \"implement/Social.sol\":1934:1935  0 */\n      dup1\n        /* \"implement/Social.sol\":1887:1901  FriendsMapping */\n      0x02\n        /* \"implement/Social.sol\":1887:1913  FriendsMapping[msg.sender] */\n      0x00\n        /* \"implement/Social.sol\":1902:1912  msg.sender */\n      caller\n        /* \"implement/Social.sol\":1887:1913  FriendsMapping[msg.sender] */\n      0xffffffffffffffffffffffffffffffffffffffff\n      and\n      0xffffffffffffffffffffffffffffffffffffffff\n      and\n      dup2\n      mstore\n      0x20\n      add\n      swap1\n      dup2\n      mstore\n      0x20\n      add\n      0x00\n      keccak256\n        /* \"implement/Social.sol\":1887:1919  FriendsMapping[msg.sender][user] */\n      0x00\n        /* \"implement/Social.sol\":1914:1918  user */\n      dup5\n        /* \"implement/Social.sol\":1887:1919  FriendsMapping[msg.sender][user] */\n      0xffffffffffffffffffffffffffffffffffffffff\n      and\n      0xffffffffffffffffffffffffffffffffffffffff\n      and\n      dup2\n      mstore\n      0x20\n      add\n      swap1\n      dup2\n      mstore\n      0x20\n      add\n      0x00\n      keccak256\n        /* \"implement/Social.sol\":1887:1930  FriendsMapping[msg.sender][user].created_at */\n      0x01\n      add\n      sload\n        /* \"implement/Social.sol\":1887:1935  FriendsMapping[msg.sender][user].created_at != 0 */\n      sub\n        /* \"implement/Social.sol\":1866:1986  require(... */\n      tag_136\n      jumpi\n      mload(0x40)\n      0x08c379a000000000000000000000000000000000000000000000000000000000\n      dup2\n      mstore\n      0x04\n      add\n      tag_137\n      swap1\n      tag_138\n      jump\t// in\n    tag_137:\n      mload(0x40)\n      dup1\n      swap2\n      sub\n      swap1\n      revert\n    tag_136:\n        /* \"implement/Social.sol\":2003:2017  FriendsMapping */\n      0x02\n        /* \"implement/Social.sol\":2003:2029  FriendsMapping[msg.sender] */\n      0x00\n        /* \"implement/Social.sol\":2018:2028  msg.sender */\n      caller\n        /* \"implement/Social.sol\":2003:2029  FriendsMapping[msg.sender] */\n      0xffffffffffffffffffffffffffffffffffffffff\n      and\n      0xffffffffffffffffffffffffffffffffffffffff\n      and\n      dup2\n      mstore\n      0x20\n      add\n      swap1\n      dup2\n      mstore\n      0x20\n      add\n      0x00\n      keccak256\n        /* \"implement/Social.sol\":2003:2035  FriendsMapping[msg.sender][user] */\n      0x00\n        /* \"implement/Social.sol\":2030:2034  user */\n      dup4\n        /* \"implement/Social.sol\":2003:2035  FriendsMapping[msg.sender][user] */\n      0xffffffffffffffffffffffffffffffffffffffff\n      and\n      0xffffffffffffffffffffffffffffffffffffffff\n      and\n      dup2\n      mstore\n      0x20\n      add\n      swap1\n      dup2\n      mstore\n      0x20\n      add\n      0x00\n      keccak256\n      0x00\n        /* \"implement/Social.sol\":1996:2035  delete FriendsMapping[msg.sender][user] */\n      dup1\n      dup3\n      add\n      exp(0x0100, 0x00)\n      dup2\n      sload\n      swap1\n      0xffffffffffffffffffffffffffffffffffffffff\n      mul\n      not\n      and\n      swap1\n      sstore\n      0x01\n      dup3\n      add\n      0x00\n      swap1\n      sstore\n      pop\n      pop\n        /* \"implement/Social.sol\":2051:2060  uint256 i */\n      0x00\n        /* \"implement/Social.sol\":2046:2471  for (uint256 i = 0; i < FriendsList[msg.sender].length; i++) {... */\n    tag_139:\n        /* \"implement/Social.sol\":2070:2081  FriendsList */\n      0x03\n        /* \"implement/Social.sol\":2070:2093  FriendsList[msg.sender] */\n      0x00\n        /* \"implement/Social.sol\":2082:2092  msg.sender */\n      caller\n        /* \"implement/Social.sol\":2070:2093  FriendsList[msg.sender] */\n      0xffffffffffffffffffffffffffffffffffffffff\n      and\n      0xffffffffffffffffffffffffffffffffffffffff\n      and\n      dup2\n      mstore\n      0x20\n      add\n      swap1\n      dup2\n      mstore\n      0x20\n      add\n      0x00\n      keccak256\n        /* \"implement/Social.sol\":2070:2100  FriendsList[msg.sender].length */\n      dup1\n      sload\n      swap1\n      pop\n        /* \"implement/Social.sol\":2066:2067  i */\n      dup2\n        /* \"implement/Social.sol\":2066:2100  i < FriendsList[msg.sender].length */\n      lt\n        /* \"implement/Social.sol\":2046:2471  for (uint256 i = 0; i < FriendsList[msg.sender].length; i++) {... */\n      iszero\n      tag_140\n      jumpi\n        /* \"implement/Social.sol\":2155:2159  user */\n      dup3\n        /* \"implement/Social.sol\":2125:2159  FriendsList[msg.sender][i] == user */\n      0xffffffffffffffffffffffffffffffffffffffff\n      and\n        /* \"implement/Social.sol\":2125:2136  FriendsList */\n      0x03\n        /* \"implement/Social.sol\":2125:2148  FriendsList[msg.sender] */\n      0x00\n        /* \"implement/Social.sol\":2137:2147  msg.sender */\n      caller\n        /* \"implement/Social.sol\":2125:2148  FriendsList[msg.sender] */\n      0xffffffffffffffffffffffffffffffffffffffff\n      and\n      0xffffffffffffffffffffffffffffffffffffffff\n      and\n      dup2\n      mstore\n      0x20\n      add\n      swap1\n      dup2\n      mstore\n      0x20\n      add\n      0x00\n      keccak256\n        /* \"implement/Social.sol\":2149:2150  i */\n      dup3\n        /* \"implement/Social.sol\":2125:2151  FriendsList[msg.sender][i] */\n      dup2\n      sload\n      dup2\n      lt\n      tag_142\n      jumpi\n      tag_143\n      tag_108\n      jump\t// in\n    tag_143:\n    tag_142:\n      swap1\n      0x00\n      mstore\n      keccak256(0x00, 0x20)\n      add\n      0x00\n      swap1\n      sload\n      swap1\n      0x0100\n      exp\n      swap1\n      div\n      0xffffffffffffffffffffffffffffffffffffffff\n      and\n        /* \"implement/Social.sol\":2125:2159  FriendsList[msg.sender][i] == user */\n      0xffffffffffffffffffffffffffffffffffffffff\n      and\n      sub\n        /* \"implement/Social.sol\":2121:2461  if (FriendsList[msg.sender][i] == user) {... */\n      tag_145\n      jumpi\n        /* \"implement/Social.sol\":2208:2219  FriendsList */\n      0x03\n        /* \"implement/Social.sol\":2208:2231  FriendsList[msg.sender] */\n      0x00\n        /* \"implement/Social.sol\":2220:2230  msg.sender */\n      caller\n        /* \"implement/Social.sol\":2208:2231  FriendsList[msg.sender] */\n      0xffffffffffffffffffffffffffffffffffffffff\n      and\n      0xffffffffffffffffffffffffffffffffffffffff\n      and\n      dup2\n      mstore\n      0x20\n      add\n      swap1\n      dup2\n      mstore\n      0x20\n      add\n      0x00\n      keccak256\n        /* \"implement/Social.sol\":2286:2287  1 */\n      0x01\n        /* \"implement/Social.sol\":2253:2264  FriendsList */\n      0x03\n        /* \"implement/Social.sol\":2253:2276  FriendsList[msg.sender] */\n      0x00\n        /* \"implement/Social.sol\":2265:2275  msg.sender */\n      caller\n        /* \"implement/Social.sol\":2253:2276  FriendsList[msg.sender] */\n      0xffffffffffffffffffffffffffffffffffffffff\n      and\n      0xffffffffffffffffffffffffffffffffffffffff\n      and\n      dup2\n      mstore\n      0x20\n      add\n      swap1\n      dup2\n      mstore\n      0x20\n      add\n      0x00\n      keccak256\n        /* \"implement/Social.sol\":2253:2283  FriendsList[msg.sender].length */\n      dup1\n      sload\n      swap1\n      pop\n        /* \"implement/Social.sol\":2253:2287  FriendsList[msg.sender].length - 1 */\n      tag_146\n      swap2\n      swap1\n      tag_112\n      jump\t// in\n    tag_146:\n        /* \"implement/Social.sol\":2208:2305  FriendsList[msg.sender][... */\n      dup2\n      sload\n      dup2\n      lt\n      tag_147\n      jumpi\n      tag_148\n      tag_108\n      jump\t// in\n    tag_148:\n    tag_147:\n      swap1\n      0x00\n      mstore\n      keccak256(0x00, 0x20)\n      add\n      0x00\n      swap1\n      sload\n      swap1\n      0x0100\n      exp\n      swap1\n      div\n      0xffffffffffffffffffffffffffffffffffffffff\n      and\n        /* \"implement/Social.sol\":2179:2190  FriendsList */\n      0x03\n        /* \"implement/Social.sol\":2179:2202  FriendsList[msg.sender] */\n      0x00\n        /* \"implement/Social.sol\":2191:2201  msg.sender */\n      caller\n        /* \"implement/Social.sol\":2179:2202  FriendsList[msg.sender] */\n      0xffffffffffffffffffffffffffffffffffffffff\n      and\n      0xffffffffffffffffffffffffffffffffffffffff\n      and\n      dup2\n      mstore\n      0x20\n      add\n      swap1\n      dup2\n      mstore\n      0x20\n      add\n      0x00\n      keccak256\n        /* \"implement/Social.sol\":2203:2204  i */\n      dup3\n        /* \"implement/Social.sol\":2179:2205  FriendsList[msg.sender][i] */\n      dup2\n      sload\n      dup2\n      lt\n      tag_150\n      jumpi\n      tag_151\n      tag_108\n      jump\t// in\n    tag_151:\n    tag_150:\n      swap1\n      0x00\n      mstore\n      keccak256(0x00, 0x20)\n      add\n      0x00\n        /* \"implement/Social.sol\":2179:2305  FriendsList[msg.sender][i] = FriendsList[msg.sender][... */\n      0x0100\n      exp\n      dup2\n      sload\n      dup2\n      0xffffffffffffffffffffffffffffffffffffffff\n      mul\n      not\n      and\n      swap1\n      dup4\n      0xffffffffffffffffffffffffffffffffffffffff\n      and\n      mul\n      or\n      swap1\n      sstore\n      pop\n        /* \"implement/Social.sol\":2323:2334  FriendsList */\n      0x03\n        /* \"implement/Social.sol\":2323:2346  FriendsList[msg.sender] */\n      0x00\n        /* \"implement/Social.sol\":2335:2345  msg.sender */\n      caller\n        /* \"implement/Social.sol\":2323:2346  FriendsList[msg.sender] */\n      0xffffffffffffffffffffffffffffffffffffffff\n      and\n      0xffffffffffffffffffffffffffffffffffffffff\n      and\n      dup2\n      mstore\n      0x20\n      add\n      swap1\n      dup2\n      mstore\n      0x20\n      add\n      0x00\n      keccak256\n        /* \"implement/Social.sol\":2323:2352  FriendsList[msg.sender].pop() */\n      dup1\n      sload\n      dup1\n      tag_153\n      jumpi\n      tag_154\n      tag_121\n      jump\t// in\n    tag_154:\n    tag_153:\n      0x01\n      swap1\n      sub\n      dup2\n      dup2\n      swap1\n      0x00\n      mstore\n      keccak256(0x00, 0x20)\n      add\n      exp(0x0100, 0x00)\n      dup2\n      sload\n      swap1\n      0xffffffffffffffffffffffffffffffffffffffff\n      mul\n      not\n      and\n      swap1\n      sstore\n      swap1\n      sstore\n        /* \"implement/Social.sol\":2412:2416  user */\n      dup3\n        /* \"implement/Social.sol\":2375:2417  user_removed_from_friends(msg.sender,user) */\n      0xffffffffffffffffffffffffffffffffffffffff\n      and\n        /* \"implement/Social.sol\":2401:2411  msg.sender */\n      caller\n        /* \"implement/Social.sol\":2375:2417  user_removed_from_friends(msg.sender,user) */\n      0xffffffffffffffffffffffffffffffffffffffff\n      and\n      0x11f4b134f60f4bd9f709b4ec296696385afeecc64bd4eb3ea9dfaa89bbfbb4cf\n      mload(0x40)\n      mload(0x40)\n      dup1\n      swap2\n      sub\n      swap1\n      log3\n        /* \"implement/Social.sol\":2442:2446  true */\n      0x01\n        /* \"implement/Social.sol\":2435:2446  return true */\n      swap2\n      pop\n      pop\n      jump(tag_135)\n        /* \"implement/Social.sol\":2121:2461  if (FriendsList[msg.sender][i] == user) {... */\n    tag_145:\n        /* \"implement/Social.sol\":2102:2105  i++ */\n      dup1\n      dup1\n      tag_156\n      swap1\n      tag_124\n      jump\t// in\n    tag_156:\n      swap2\n      pop\n      pop\n        /* \"implement/Social.sol\":2046:2471  for (uint256 i = 0; i < FriendsList[msg.sender].length; i++) {... */\n      jump(tag_139)\n    tag_140:\n      pop\n        /* \"implement/Social.sol\":2488:2493  false */\n      0x00\n        /* \"implement/Social.sol\":2481:2493  return false */\n      swap1\n      pop\n        /* \"implement/Social.sol\":1798:2500  function RemoveFriend(address user) public returns (bool) {... */\n    tag_135:\n      swap2\n      swap1\n      pop\n      jump\t// out\n        /* \"implement/Social.sol\":276:317  mapping(address => string) public Pubkeys */\n    tag_51:\n      mstore(0x20, 0x01)\n      dup1\n      0x00\n      mstore\n      keccak256(0x00, 0x40)\n      0x00\n      swap2\n      pop\n      swap1\n      pop\n      dup1\n      sload\n      tag_157\n      swap1\n      tag_127\n      jump\t// in\n    tag_157:\n      dup1\n      0x1f\n      add\n      0x20\n      dup1\n      swap2\n      div\n      mul\n      0x20\n      add\n      mload(0x40)\n      swap1\n      dup2\n      add\n      0x40\n      mstore\n      dup1\n      swap3\n      swap2\n      swap1\n      dup2\n      dup2\n      mstore\n      0x20\n      add\n      dup3\n      dup1\n      sload\n      tag_158\n      swap1\n      tag_127\n      jump\t// in\n    tag_158:\n      dup1\n      iszero\n      tag_159\n      jumpi\n      dup1\n      0x1f\n      lt\n      tag_160\n      jumpi\n      0x0100\n      dup1\n      dup4\n      sload\n      div\n      mul\n      dup4\n      mstore\n      swap2\n      0x20\n      add\n      swap2\n      jump(tag_159)\n    tag_160:\n      dup3\n      add\n      swap2\n      swap1\n      0x00\n      mstore\n      keccak256(0x00, 0x20)\n      swap1\n    tag_161:\n      dup2\n      sload\n      dup2\n      mstore\n      swap1\n      0x01\n      add\n      swap1\n      0x20\n      add\n      dup1\n      dup4\n      gt\n      tag_161\n      jumpi\n      dup3\n      swap1\n      sub\n      0x1f\n      and\n      dup3\n      add\n      swap2\n    tag_159:\n      pop\n      pop\n      pop\n      pop\n      pop\n      dup2\n      jump\t// out\n        /* \"implement/Social.sol\":526:572  mapping(address => address[]) public BlockList */\n    tag_56:\n      mstore(0x20, 0x05)\n      dup2\n      0x00\n      mstore\n      keccak256(0x00, 0x40)\n      dup2\n      dup2\n      sload\n      dup2\n      lt\n      tag_162\n      jumpi\n      0x00\n      dup1\n      revert\n    tag_162:\n      swap1\n      0x00\n      mstore\n      keccak256(0x00, 0x20)\n      add\n      0x00\n      swap2\n      pop\n      swap2\n      pop\n      swap1\n      sload\n      swap1\n      0x0100\n      exp\n      swap1\n      div\n      0xffffffffffffffffffffffffffffffffffffffff\n      and\n      dup2\n      jump\t// out\n        /* \"implement/Social.sol\":323:389  mapping(address => mapping(address => User)) public FriendsMapping */\n    tag_62:\n      mstore(0x20, 0x02)\n      dup2\n      0x00\n      mstore\n      mstore(0x20, keccak256(0x00, 0x40))\n      dup1\n      0x00\n      mstore\n      keccak256(0x00, 0x40)\n      0x00\n      swap2\n      pop\n      swap2\n      pop\n      pop\n      dup1\n      0x00\n      add\n      0x00\n      swap1\n      sload\n      swap1\n      0x0100\n      exp\n      swap1\n      div\n      0xffffffffffffffffffffffffffffffffffffffff\n      and\n      swap1\n      dup1\n      0x01\n      add\n      sload\n      swap1\n      pop\n      dup3\n      jump\t// out\n        /* \"implement/Social.sol\":450:520  mapping(address => mapping(address => User)) public BlockedUserMapping */\n    tag_67:\n      mstore(0x20, 0x04)\n      dup2\n      0x00\n      mstore\n      mstore(0x20, keccak256(0x00, 0x40))\n      dup1\n      0x00\n      mstore\n      keccak256(0x00, 0x40)\n      0x00\n      swap2\n      pop\n      swap2\n      pop\n      pop\n      dup1\n      0x00\n      add\n      0x00\n      swap1\n      sload\n      swap1\n      0x0100\n      exp\n      swap1\n      div\n      0xffffffffffffffffffffffffffffffffffffffff\n      and\n      swap1\n      dup1\n      0x01\n      add\n      sload\n      swap1\n      pop\n      dup3\n      jump\t// out\n        /* \"implement/Social.sol\":2621:3303  function BlockUser(address user) public returns (bool) {... */\n    tag_71:\n        /* \"implement/Social.sol\":2670:2674  bool */\n      0x00\n        /* \"implement/Social.sol\":2702:2712  msg.sender */\n      caller\n        /* \"implement/Social.sol\":2694:2712  user != msg.sender */\n      0xffffffffffffffffffffffffffffffffffffffff\n      and\n        /* \"implement/Social.sol\":2694:2698  user */\n      dup3\n        /* \"implement/Social.sol\":2694:2712  user != msg.sender */\n      0xffffffffffffffffffffffffffffffffffffffff\n      and\n      sub\n        /* \"implement/Social.sol\":2686:2743  require(user != msg.sender, \"you can not block yourself\") */\n      tag_165\n      jumpi\n      mload(0x40)\n      0x08c379a000000000000000000000000000000000000000000000000000000000\n      dup2\n      mstore\n      0x04\n      add\n      tag_166\n      swap1\n      tag_167\n      jump\t// in\n    tag_166:\n      mload(0x40)\n      dup1\n      swap2\n      sub\n      swap1\n      revert\n    tag_165:\n        /* \"implement/Social.sol\":2820:2831  EMPTYSTRING */\n      sload(0x00)\n        /* \"implement/Social.sol\":2801:2808  Pubkeys */\n      0x01\n        /* \"implement/Social.sol\":2801:2814  Pubkeys[user] */\n      0x00\n        /* \"implement/Social.sol\":2809:2813  user */\n      dup5\n        /* \"implement/Social.sol\":2801:2814  Pubkeys[user] */\n      0xffffffffffffffffffffffffffffffffffffffff\n      and\n      0xffffffffffffffffffffffffffffffffffffffff\n      and\n      dup2\n      mstore\n      0x20\n      add\n      swap1\n      dup2\n      mstore\n      0x20\n      add\n      0x00\n      keccak256\n        /* \"implement/Social.sol\":2784:2815  abi.encodePacked(Pubkeys[user]) */\n      add(0x20, mload(0x40))\n      tag_168\n      swap2\n      swap1\n      tag_82\n      jump\t// in\n    tag_168:\n      mload(0x40)\n      0x20\n      dup2\n      dup4\n      sub\n      sub\n      dup2\n      mstore\n      swap1\n      0x40\n      mstore\n        /* \"implement/Social.sol\":2774:2816  keccak256(abi.encodePacked(Pubkeys[user])) */\n      dup1\n      mload\n      swap1\n      0x20\n      add\n      keccak256\n        /* \"implement/Social.sol\":2774:2831  keccak256(abi.encodePacked(Pubkeys[user])) != EMPTYSTRING */\n      sub\n        /* \"implement/Social.sol\":2753:2897  require(... */\n      tag_169\n      jumpi\n      mload(0x40)\n      0x08c379a000000000000000000000000000000000000000000000000000000000\n      dup2\n      mstore\n      0x04\n      add\n      tag_170\n      swap1\n      tag_171\n      jump\t// in\n    tag_170:\n      mload(0x40)\n      dup1\n      swap2\n      sub\n      swap1\n      revert\n    tag_169:\n        /* \"implement/Social.sol\":2958:2959  0 */\n      0x00\n        /* \"implement/Social.sol\":2911:2925  FriendsMapping */\n      0x02\n        /* \"implement/Social.sol\":2911:2937  FriendsMapping[msg.sender] */\n      0x00\n        /* \"implement/Social.sol\":2926:2936  msg.sender */\n      caller\n        /* \"implement/Social.sol\":2911:2937  FriendsMapping[msg.sender] */\n      0xffffffffffffffffffffffffffffffffffffffff\n      and\n      0xffffffffffffffffffffffffffffffffffffffff\n      and\n      dup2\n      mstore\n      0x20\n      add\n      swap1\n      dup2\n      mstore\n      0x20\n      add\n      0x00\n      keccak256\n        /* \"implement/Social.sol\":2911:2943  FriendsMapping[msg.sender][user] */\n      0x00\n        /* \"implement/Social.sol\":2938:2942  user */\n      dup5\n        /* \"implement/Social.sol\":2911:2943  FriendsMapping[msg.sender][user] */\n      0xffffffffffffffffffffffffffffffffffffffff\n      and\n      0xffffffffffffffffffffffffffffffffffffffff\n      and\n      dup2\n      mstore\n      0x20\n      add\n      swap1\n      dup2\n      mstore\n      0x20\n      add\n      0x00\n      keccak256\n        /* \"implement/Social.sol\":2911:2954  FriendsMapping[msg.sender][user].created_at */\n      0x01\n      add\n      sload\n        /* \"implement/Social.sol\":2911:2959  FriendsMapping[msg.sender][user].created_at != 0 */\n      eq\n        /* \"implement/Social.sol\":2907:3004  if (FriendsMapping[msg.sender][user].created_at != 0) {... */\n      tag_172\n      jumpi\n        /* \"implement/Social.sol\":2975:2993  RemoveFriend(user) */\n      tag_173\n        /* \"implement/Social.sol\":2988:2992  user */\n      dup3\n        /* \"implement/Social.sol\":2975:2987  RemoveFriend */\n      tag_47\n        /* \"implement/Social.sol\":2975:2993  RemoveFriend(user) */\n      jump\t// in\n    tag_173:\n      pop\n        /* \"implement/Social.sol\":2907:3004  if (FriendsMapping[msg.sender][user].created_at != 0) {... */\n    tag_172:\n        /* \"implement/Social.sol\":3013:3036  User memory blockedUser */\n      0x00\n        /* \"implement/Social.sol\":3039:3128  User({... */\n      mload(0x40)\n      dup1\n      0x40\n      add\n      0x40\n      mstore\n      dup1\n        /* \"implement/Social.sol\":3072:3076  user */\n      dup5\n        /* \"implement/Social.sol\":3039:3128  User({... */\n      0xffffffffffffffffffffffffffffffffffffffff\n      and\n      dup2\n      mstore\n      0x20\n      add\n        /* \"implement/Social.sol\":3102:3117  block.timestamp */\n      timestamp\n        /* \"implement/Social.sol\":3039:3128  User({... */\n      dup2\n      mstore\n      pop\n        /* \"implement/Social.sol\":3013:3128  User memory blockedUser = User({... */\n      swap1\n      pop\n        /* \"implement/Social.sol\":3178:3189  blockedUser */\n      dup1\n        /* \"implement/Social.sol\":3139:3157  BlockedUserMapping */\n      0x04\n        /* \"implement/Social.sol\":3139:3169  BlockedUserMapping[msg.sender] */\n      0x00\n        /* \"implement/Social.sol\":3158:3168  msg.sender */\n      caller\n        /* \"implement/Social.sol\":3139:3169  BlockedUserMapping[msg.sender] */\n      0xffffffffffffffffffffffffffffffffffffffff\n      and\n      0xffffffffffffffffffffffffffffffffffffffff\n      and\n      dup2\n      mstore\n      0x20\n      add\n      swap1\n      dup2\n      mstore\n      0x20\n      add\n      0x00\n      keccak256\n        /* \"implement/Social.sol\":3139:3175  BlockedUserMapping[msg.sender][user] */\n      0x00\n        /* \"implement/Social.sol\":3170:3174  user */\n      dup6\n        /* \"implement/Social.sol\":3139:3175  BlockedUserMapping[msg.sender][user] */\n      0xffffffffffffffffffffffffffffffffffffffff\n      and\n      0xffffffffffffffffffffffffffffffffffffffff\n      and\n      dup2\n      mstore\n      0x20\n      add\n      swap1\n      dup2\n      mstore\n      0x20\n      add\n      0x00\n      keccak256\n        /* \"implement/Social.sol\":3139:3189  BlockedUserMapping[msg.sender][user] = blockedUser */\n      0x00\n      dup3\n      add\n      mload\n      dup2\n      0x00\n      add\n      exp(0x0100, 0x00)\n      dup2\n      sload\n      dup2\n      0xffffffffffffffffffffffffffffffffffffffff\n      mul\n      not\n      and\n      swap1\n      dup4\n      0xffffffffffffffffffffffffffffffffffffffff\n      and\n      mul\n      or\n      swap1\n      sstore\n      pop\n      0x20\n      dup3\n      add\n      mload\n      dup2\n      0x01\n      add\n      sstore\n      swap1\n      pop\n      pop\n        /* \"implement/Social.sol\":3199:3208  BlockList */\n      0x05\n        /* \"implement/Social.sol\":3199:3220  BlockList[msg.sender] */\n      0x00\n        /* \"implement/Social.sol\":3209:3219  msg.sender */\n      caller\n        /* \"implement/Social.sol\":3199:3220  BlockList[msg.sender] */\n      0xffffffffffffffffffffffffffffffffffffffff\n      and\n      0xffffffffffffffffffffffffffffffffffffffff\n      and\n      dup2\n      mstore\n      0x20\n      add\n      swap1\n      dup2\n      mstore\n      0x20\n      add\n      0x00\n      keccak256\n        /* \"implement/Social.sol\":3226:3230  user */\n      dup4\n        /* \"implement/Social.sol\":3199:3231  BlockList[msg.sender].push(user) */\n      swap1\n      dup1\n      0x01\n      dup2\n      sload\n      add\n      dup1\n      dup3\n      sstore\n      dup1\n      swap2\n      pop\n      pop\n      0x01\n      swap1\n      sub\n      swap1\n      0x00\n      mstore\n      keccak256(0x00, 0x20)\n      add\n      0x00\n      swap1\n      swap2\n      swap1\n      swap2\n      swap1\n      swap2\n      0x0100\n      exp\n      dup2\n      sload\n      dup2\n      0xffffffffffffffffffffffffffffffffffffffff\n      mul\n      not\n      and\n      swap1\n      dup4\n      0xffffffffffffffffffffffffffffffffffffffff\n      and\n      mul\n      or\n      swap1\n      sstore\n      pop\n        /* \"implement/Social.sol\":3270:3274  user */\n      dup3\n        /* \"implement/Social.sol\":3246:3275  user_blocked(msg.sender,user) */\n      0xffffffffffffffffffffffffffffffffffffffff\n      and\n        /* \"implement/Social.sol\":3259:3269  msg.sender */\n      caller\n        /* \"implement/Social.sol\":3246:3275  user_blocked(msg.sender,user) */\n      0xffffffffffffffffffffffffffffffffffffffff\n      and\n      0x43122fee1265880a3328f07d7ec01b1485632605d0df401ff2394fe731ac644e\n      mload(0x40)\n      mload(0x40)\n      dup1\n      swap2\n      sub\n      swap1\n      log3\n        /* \"implement/Social.sol\":3292:3296  true */\n      0x01\n        /* \"implement/Social.sol\":3285:3296  return true */\n      swap2\n      pop\n      pop\n        /* \"implement/Social.sol\":2621:3303  function BlockUser(address user) public returns (bool) {... */\n      swap2\n      swap1\n      pop\n      jump\t// out\n        /* \"implement/Social.sol\":395:443  mapping(address => address[]) public FriendsList */\n    tag_75:\n      mstore(0x20, 0x03)\n      dup2\n      0x00\n      mstore\n      keccak256(0x00, 0x40)\n      dup2\n      dup2\n      sload\n      dup2\n      lt\n      tag_175\n      jumpi\n      0x00\n      dup1\n      revert\n    tag_175:\n      swap1\n      0x00\n      mstore\n      keccak256(0x00, 0x20)\n      add\n      0x00\n      swap2\n      pop\n      swap2\n      pop\n      swap1\n      sload\n      swap1\n      0x0100\n      exp\n      swap1\n      div\n      0xffffffffffffffffffffffffffffffffffffffff\n      and\n      dup2\n      jump\t// out\n        /* \"#utility.yul\":7:82   */\n    tag_177:\n        /* \"#utility.yul\":40:46   */\n      0x00\n        /* \"#utility.yul\":73:75   */\n      0x40\n        /* \"#utility.yul\":67:76   */\n      mload\n        /* \"#utility.yul\":57:76   */\n      swap1\n      pop\n        /* \"#utility.yul\":7:82   */\n      swap1\n      jump\t// out\n        /* \"#utility.yul\":88:205   */\n    tag_178:\n        /* \"#utility.yul\":197:198   */\n      0x00\n        /* \"#utility.yul\":194:195   */\n      dup1\n        /* \"#utility.yul\":187:199   */\n      revert\n        /* \"#utility.yul\":211:328   */\n    tag_179:\n        /* \"#utility.yul\":320:321   */\n      0x00\n        /* \"#utility.yul\":317:318   */\n      dup1\n        /* \"#utility.yul\":310:322   */\n      revert\n        /* \"#utility.yul\":334:460   */\n    tag_180:\n        /* \"#utility.yul\":371:378   */\n      0x00\n        /* \"#utility.yul\":411:453   */\n      0xffffffffffffffffffffffffffffffffffffffff\n        /* \"#utility.yul\":404:409   */\n      dup3\n        /* \"#utility.yul\":400:454   */\n      and\n        /* \"#utility.yul\":389:454   */\n      swap1\n      pop\n        /* \"#utility.yul\":334:460   */\n      swap2\n      swap1\n      pop\n      jump\t// out\n        /* \"#utility.yul\":466:562   */\n    tag_181:\n        /* \"#utility.yul\":503:510   */\n      0x00\n        /* \"#utility.yul\":532:556   */\n      tag_251\n        /* \"#utility.yul\":550:555   */\n      dup3\n        /* \"#utility.yul\":532:556   */\n      tag_180\n      jump\t// in\n    tag_251:\n        /* \"#utility.yul\":521:556   */\n      swap1\n      pop\n        /* \"#utility.yul\":466:562   */\n      swap2\n      swap1\n      pop\n      jump\t// out\n        /* \"#utility.yul\":568:690   */\n    tag_182:\n        /* \"#utility.yul\":641:665   */\n      tag_253\n        /* \"#utility.yul\":659:664   */\n      dup2\n        /* \"#utility.yul\":641:665   */\n      tag_181\n      jump\t// in\n    tag_253:\n        /* \"#utility.yul\":634:639   */\n      dup2\n        /* \"#utility.yul\":631:666   */\n      eq\n        /* \"#utility.yul\":621:684   */\n      tag_254\n      jumpi\n        /* \"#utility.yul\":680:681   */\n      0x00\n        /* \"#utility.yul\":677:678   */\n      dup1\n        /* \"#utility.yul\":670:682   */\n      revert\n        /* \"#utility.yul\":621:684   */\n    tag_254:\n        /* \"#utility.yul\":568:690   */\n      pop\n      jump\t// out\n        /* \"#utility.yul\":696:835   */\n    tag_183:\n        /* \"#utility.yul\":742:747   */\n      0x00\n        /* \"#utility.yul\":780:786   */\n      dup2\n        /* \"#utility.yul\":767:787   */\n      calldataload\n        /* \"#utility.yul\":758:787   */\n      swap1\n      pop\n        /* \"#utility.yul\":796:829   */\n      tag_256\n        /* \"#utility.yul\":823:828   */\n      dup2\n        /* \"#utility.yul\":796:829   */\n      tag_182\n      jump\t// in\n    tag_256:\n        /* \"#utility.yul\":696:835   */\n      swap3\n      swap2\n      pop\n      pop\n      jump\t// out\n        /* \"#utility.yul\":841:1170   */\n    tag_20:\n        /* \"#utility.yul\":900:906   */\n      0x00\n        /* \"#utility.yul\":949:951   */\n      0x20\n        /* \"#utility.yul\":937:946   */\n      dup3\n        /* \"#utility.yul\":928:935   */\n      dup5\n        /* \"#utility.yul\":924:947   */\n      sub\n        /* \"#utility.yul\":920:952   */\n      slt\n        /* \"#utility.yul\":917:1036   */\n      iszero\n      tag_258\n      jumpi\n        /* \"#utility.yul\":955:1034   */\n      tag_259\n      tag_178\n      jump\t// in\n    tag_259:\n        /* \"#utility.yul\":917:1036   */\n    tag_258:\n        /* \"#utility.yul\":1075:1076   */\n      0x00\n        /* \"#utility.yul\":1100:1153   */\n      tag_260\n        /* \"#utility.yul\":1145:1152   */\n      dup5\n        /* \"#utility.yul\":1136:1142   */\n      dup3\n        /* \"#utility.yul\":1125:1134   */\n      dup6\n        /* \"#utility.yul\":1121:1143   */\n      add\n        /* \"#utility.yul\":1100:1153   */\n      tag_183\n      jump\t// in\n    tag_260:\n        /* \"#utility.yul\":1090:1153   */\n      swap2\n      pop\n        /* \"#utility.yul\":1046:1163   */\n      pop\n        /* \"#utility.yul\":841:1170   */\n      swap3\n      swap2\n      pop\n      pop\n      jump\t// out\n        /* \"#utility.yul\":1176:1266   */\n    tag_184:\n        /* \"#utility.yul\":1210:1217   */\n      0x00\n        /* \"#utility.yul\":1253:1258   */\n      dup2\n        /* \"#utility.yul\":1246:1259   */\n      iszero\n        /* \"#utility.yul\":1239:1260   */\n      iszero\n        /* \"#utility.yul\":1228:1260   */\n      swap1\n      pop\n        /* \"#utility.yul\":1176:1266   */\n      swap2\n      swap1\n      pop\n      jump\t// out\n        /* \"#utility.yul\":1272:1381   */\n    tag_185:\n        /* \"#utility.yul\":1353:1374   */\n      tag_263\n        /* \"#utility.yul\":1368:1373   */\n      dup2\n        /* \"#utility.yul\":1353:1374   */\n      tag_184\n      jump\t// in\n    tag_263:\n        /* \"#utility.yul\":1348:1351   */\n      dup3\n        /* \"#utility.yul\":1341:1375   */\n      mstore\n        /* \"#utility.yul\":1272:1381   */\n      pop\n      pop\n      jump\t// out\n        /* \"#utility.yul\":1387:1597   */\n    tag_23:\n        /* \"#utility.yul\":1474:1478   */\n      0x00\n        /* \"#utility.yul\":1512:1514   */\n      0x20\n        /* \"#utility.yul\":1501:1510   */\n      dup3\n        /* \"#utility.yul\":1497:1515   */\n      add\n        /* \"#utility.yul\":1489:1515   */\n      swap1\n      pop\n        /* \"#utility.yul\":1525:1590   */\n      tag_265\n        /* \"#utility.yul\":1587:1588   */\n      0x00\n        /* \"#utility.yul\":1576:1585   */\n      dup4\n        /* \"#utility.yul\":1572:1589   */\n      add\n        /* \"#utility.yul\":1563:1569   */\n      dup5\n        /* \"#utility.yul\":1525:1590   */\n      tag_185\n      jump\t// in\n    tag_265:\n        /* \"#utility.yul\":1387:1597   */\n      swap3\n      swap2\n      pop\n      pop\n      jump\t// out\n        /* \"#utility.yul\":1603:1717   */\n    tag_186:\n        /* \"#utility.yul\":1670:1676   */\n      0x00\n        /* \"#utility.yul\":1704:1709   */\n      dup2\n        /* \"#utility.yul\":1698:1710   */\n      mload\n        /* \"#utility.yul\":1688:1710   */\n      swap1\n      pop\n        /* \"#utility.yul\":1603:1717   */\n      swap2\n      swap1\n      pop\n      jump\t// out\n        /* \"#utility.yul\":1723:1907   */\n    tag_187:\n        /* \"#utility.yul\":1822:1833   */\n      0x00\n        /* \"#utility.yul\":1856:1862   */\n      dup3\n        /* \"#utility.yul\":1851:1854   */\n      dup3\n        /* \"#utility.yul\":1844:1863   */\n      mstore\n        /* \"#utility.yul\":1896:1900   */\n      0x20\n        /* \"#utility.yul\":1891:1894   */\n      dup3\n        /* \"#utility.yul\":1887:1901   */\n      add\n        /* \"#utility.yul\":1872:1901   */\n      swap1\n      pop\n        /* \"#utility.yul\":1723:1907   */\n      swap3\n      swap2\n      pop\n      pop\n      jump\t// out\n        /* \"#utility.yul\":1913:2045   */\n    tag_188:\n        /* \"#utility.yul\":1980:1984   */\n      0x00\n        /* \"#utility.yul\":2003:2006   */\n      dup2\n        /* \"#utility.yul\":1995:2006   */\n      swap1\n      pop\n        /* \"#utility.yul\":2033:2037   */\n      0x20\n        /* \"#utility.yul\":2028:2031   */\n      dup3\n        /* \"#utility.yul\":2024:2038   */\n      add\n        /* \"#utility.yul\":2016:2038   */\n      swap1\n      pop\n        /* \"#utility.yul\":1913:2045   */\n      swap2\n      swap1\n      pop\n      jump\t// out\n        /* \"#utility.yul\":2051:2159   */\n    tag_189:\n        /* \"#utility.yul\":2128:2152   */\n      tag_270\n        /* \"#utility.yul\":2146:2151   */\n      dup2\n        /* \"#utility.yul\":2128:2152   */\n      tag_181\n      jump\t// in\n    tag_270:\n        /* \"#utility.yul\":2123:2126   */\n      dup3\n        /* \"#utility.yul\":2116:2153   */\n      mstore\n        /* \"#utility.yul\":2051:2159   */\n      pop\n      pop\n      jump\t// out\n        /* \"#utility.yul\":2165:2344   */\n    tag_190:\n        /* \"#utility.yul\":2234:2244   */\n      0x00\n        /* \"#utility.yul\":2255:2301   */\n      tag_272\n        /* \"#utility.yul\":2297:2300   */\n      dup4\n        /* \"#utility.yul\":2289:2295   */\n      dup4\n        /* \"#utility.yul\":2255:2301   */\n      tag_189\n      jump\t// in\n    tag_272:\n        /* \"#utility.yul\":2333:2337   */\n      0x20\n        /* \"#utility.yul\":2328:2331   */\n      dup4\n        /* \"#utility.yul\":2324:2338   */\n      add\n        /* \"#utility.yul\":2310:2338   */\n      swap1\n      pop\n        /* \"#utility.yul\":2165:2344   */\n      swap3\n      swap2\n      pop\n      pop\n      jump\t// out\n        /* \"#utility.yul\":2350:2463   */\n    tag_191:\n        /* \"#utility.yul\":2420:2424   */\n      0x00\n        /* \"#utility.yul\":2452:2456   */\n      0x20\n        /* \"#utility.yul\":2447:2450   */\n      dup3\n        /* \"#utility.yul\":2443:2457   */\n      add\n        /* \"#utility.yul\":2435:2457   */\n      swap1\n      pop\n        /* \"#utility.yul\":2350:2463   */\n      swap2\n      swap1\n      pop\n      jump\t// out\n        /* \"#utility.yul\":2499:3231   */\n    tag_192:\n        /* \"#utility.yul\":2618:2621   */\n      0x00\n        /* \"#utility.yul\":2647:2701   */\n      tag_275\n        /* \"#utility.yul\":2695:2700   */\n      dup3\n        /* \"#utility.yul\":2647:2701   */\n      tag_186\n      jump\t// in\n    tag_275:\n        /* \"#utility.yul\":2717:2803   */\n      tag_276\n        /* \"#utility.yul\":2796:2802   */\n      dup2\n        /* \"#utility.yul\":2791:2794   */\n      dup6\n        /* \"#utility.yul\":2717:2803   */\n      tag_187\n      jump\t// in\n    tag_276:\n        /* \"#utility.yul\":2710:2803   */\n      swap4\n      pop\n        /* \"#utility.yul\":2827:2883   */\n      tag_277\n        /* \"#utility.yul\":2877:2882   */\n      dup4\n        /* \"#utility.yul\":2827:2883   */\n      tag_188\n      jump\t// in\n    tag_277:\n        /* \"#utility.yul\":2906:2913   */\n      dup1\n        /* \"#utility.yul\":2937:2938   */\n      0x00\n        /* \"#utility.yul\":2922:3206   */\n    tag_278:\n        /* \"#utility.yul\":2947:2953   */\n      dup4\n        /* \"#utility.yul\":2944:2945   */\n      dup2\n        /* \"#utility.yul\":2941:2954   */\n      lt\n        /* \"#utility.yul\":2922:3206   */\n      iszero\n      tag_280\n      jumpi\n        /* \"#utility.yul\":3023:3029   */\n      dup2\n        /* \"#utility.yul\":3017:3030   */\n      mload\n        /* \"#utility.yul\":3050:3113   */\n      tag_281\n        /* \"#utility.yul\":3109:3112   */\n      dup9\n        /* \"#utility.yul\":3094:3107   */\n      dup3\n        /* \"#utility.yul\":3050:3113   */\n      tag_190\n      jump\t// in\n    tag_281:\n        /* \"#utility.yul\":3043:3113   */\n      swap8\n      pop\n        /* \"#utility.yul\":3136:3196   */\n      tag_282\n        /* \"#utility.yul\":3189:3195   */\n      dup4\n        /* \"#utility.yul\":3136:3196   */\n      tag_191\n      jump\t// in\n    tag_282:\n        /* \"#utility.yul\":3126:3196   */\n      swap3\n      pop\n        /* \"#utility.yul\":2982:3206   */\n      pop\n        /* \"#utility.yul\":2969:2970   */\n      0x01\n        /* \"#utility.yul\":2966:2967   */\n      dup2\n        /* \"#utility.yul\":2962:2971   */\n      add\n        /* \"#utility.yul\":2957:2971   */\n      swap1\n      pop\n        /* \"#utility.yul\":2922:3206   */\n      jump(tag_278)\n    tag_280:\n        /* \"#utility.yul\":2926:2940   */\n      pop\n        /* \"#utility.yul\":3222:3225   */\n      dup6\n        /* \"#utility.yul\":3215:3225   */\n      swap4\n      pop\n        /* \"#utility.yul\":2623:3231   */\n      pop\n      pop\n      pop\n        /* \"#utility.yul\":2499:3231   */\n      swap3\n      swap2\n      pop\n      pop\n      jump\t// out\n        /* \"#utility.yul\":3237:3610   */\n    tag_27:\n        /* \"#utility.yul\":3380:3384   */\n      0x00\n        /* \"#utility.yul\":3418:3420   */\n      0x20\n        /* \"#utility.yul\":3407:3416   */\n      dup3\n        /* \"#utility.yul\":3403:3421   */\n      add\n        /* \"#utility.yul\":3395:3421   */\n      swap1\n      pop\n        /* \"#utility.yul\":3467:3476   */\n      dup2\n        /* \"#utility.yul\":3461:3465   */\n      dup2\n        /* \"#utility.yul\":3457:3477   */\n      sub\n        /* \"#utility.yul\":3453:3454   */\n      0x00\n        /* \"#utility.yul\":3442:3451   */\n      dup4\n        /* \"#utility.yul\":3438:3455   */\n      add\n        /* \"#utility.yul\":3431:3478   */\n      mstore\n        /* \"#utility.yul\":3495:3603   */\n      tag_284\n        /* \"#utility.yul\":3598:3602   */\n      dup2\n        /* \"#utility.yul\":3589:3595   */\n      dup5\n        /* \"#utility.yul\":3495:3603   */\n      tag_192\n      jump\t// in\n    tag_284:\n        /* \"#utility.yul\":3487:3603   */\n      swap1\n      pop\n        /* \"#utility.yul\":3237:3610   */\n      swap3\n      swap2\n      pop\n      pop\n      jump\t// out\n        /* \"#utility.yul\":3616:3733   */\n    tag_193:\n        /* \"#utility.yul\":3725:3726   */\n      0x00\n        /* \"#utility.yul\":3722:3723   */\n      dup1\n        /* \"#utility.yul\":3715:3727   */\n      revert\n        /* \"#utility.yul\":3739:3856   */\n    tag_194:\n        /* \"#utility.yul\":3848:3849   */\n      0x00\n        /* \"#utility.yul\":3845:3846   */\n      dup1\n        /* \"#utility.yul\":3838:3850   */\n      revert\n        /* \"#utility.yul\":3862:3964   */\n    tag_195:\n        /* \"#utility.yul\":3903:3909   */\n      0x00\n        /* \"#utility.yul\":3954:3956   */\n      0x1f\n        /* \"#utility.yul\":3950:3957   */\n      not\n        /* \"#utility.yul\":3945:3947   */\n      0x1f\n        /* \"#utility.yul\":3938:3943   */\n      dup4\n        /* \"#utility.yul\":3934:3948   */\n      add\n        /* \"#utility.yul\":3930:3958   */\n      and\n        /* \"#utility.yul\":3920:3958   */\n      swap1\n      pop\n        /* \"#utility.yul\":3862:3964   */\n      swap2\n      swap1\n      pop\n      jump\t// out\n        /* \"#utility.yul\":3970:4150   */\n    tag_196:\n        /* \"#utility.yul\":4018:4095   */\n      0x4e487b7100000000000000000000000000000000000000000000000000000000\n        /* \"#utility.yul\":4015:4016   */\n      0x00\n        /* \"#utility.yul\":4008:4096   */\n      mstore\n        /* \"#utility.yul\":4115:4119   */\n      0x41\n        /* \"#utility.yul\":4112:4113   */\n      0x04\n        /* \"#utility.yul\":4105:4120   */\n      mstore\n        /* \"#utility.yul\":4139:4143   */\n      0x24\n        /* \"#utility.yul\":4136:4137   */\n      0x00\n        /* \"#utility.yul\":4129:4144   */\n      revert\n        /* \"#utility.yul\":4156:4437   */\n    tag_197:\n        /* \"#utility.yul\":4239:4266   */\n      tag_290\n        /* \"#utility.yul\":4261:4265   */\n      dup3\n        /* \"#utility.yul\":4239:4266   */\n      tag_195\n      jump\t// in\n    tag_290:\n        /* \"#utility.yul\":4231:4237   */\n      dup2\n        /* \"#utility.yul\":4227:4267   */\n      add\n        /* \"#utility.yul\":4369:4375   */\n      dup2\n        /* \"#utility.yul\":4357:4367   */\n      dup2\n        /* \"#utility.yul\":4354:4376   */\n      lt\n        /* \"#utility.yul\":4333:4351   */\n      0xffffffffffffffff\n        /* \"#utility.yul\":4321:4331   */\n      dup3\n        /* \"#utility.yul\":4318:4352   */\n      gt\n        /* \"#utility.yul\":4315:4377   */\n      or\n        /* \"#utility.yul\":4312:4400   */\n      iszero\n      tag_291\n      jumpi\n        /* \"#utility.yul\":4380:4398   */\n      tag_292\n      tag_196\n      jump\t// in\n    tag_292:\n        /* \"#utility.yul\":4312:4400   */\n    tag_291:\n        /* \"#utility.yul\":4420:4430   */\n      dup1\n        /* \"#utility.yul\":4416:4418   */\n      0x40\n        /* \"#utility.yul\":4409:4431   */\n      mstore\n        /* \"#utility.yul\":4199:4437   */\n      pop\n        /* \"#utility.yul\":4156:4437   */\n      pop\n      pop\n      jump\t// out\n        /* \"#utility.yul\":4443:4572   */\n    tag_198:\n        /* \"#utility.yul\":4477:4483   */\n      0x00\n        /* \"#utility.yul\":4504:4524   */\n      tag_294\n      tag_177\n      jump\t// in\n    tag_294:\n        /* \"#utility.yul\":4494:4524   */\n      swap1\n      pop\n        /* \"#utility.yul\":4533:4566   */\n      tag_295\n        /* \"#utility.yul\":4561:4565   */\n      dup3\n        /* \"#utility.yul\":4553:4559   */\n      dup3\n        /* \"#utility.yul\":4533:4566   */\n      tag_197\n      jump\t// in\n    tag_295:\n        /* \"#utility.yul\":4443:4572   */\n      swap2\n      swap1\n      pop\n      jump\t// out\n        /* \"#utility.yul\":4578:4886   */\n    tag_199:\n        /* \"#utility.yul\":4640:4644   */\n      0x00\n        /* \"#utility.yul\":4730:4748   */\n      0xffffffffffffffff\n        /* \"#utility.yul\":4722:4728   */\n      dup3\n        /* \"#utility.yul\":4719:4749   */\n      gt\n        /* \"#utility.yul\":4716:4772   */\n      iszero\n      tag_297\n      jumpi\n        /* \"#utility.yul\":4752:4770   */\n      tag_298\n      tag_196\n      jump\t// in\n    tag_298:\n        /* \"#utility.yul\":4716:4772   */\n    tag_297:\n        /* \"#utility.yul\":4790:4819   */\n      tag_299\n        /* \"#utility.yul\":4812:4818   */\n      dup3\n        /* \"#utility.yul\":4790:4819   */\n      tag_195\n      jump\t// in\n    tag_299:\n        /* \"#utility.yul\":4782:4819   */\n      swap1\n      pop\n        /* \"#utility.yul\":4874:4878   */\n      0x20\n        /* \"#utility.yul\":4868:4872   */\n      dup2\n        /* \"#utility.yul\":4864:4879   */\n      add\n        /* \"#utility.yul\":4856:4879   */\n      swap1\n      pop\n        /* \"#utility.yul\":4578:4886   */\n      swap2\n      swap1\n      pop\n      jump\t// out\n        /* \"#utility.yul\":4892:5038   */\n    tag_200:\n        /* \"#utility.yul\":4989:4995   */\n      dup3\n        /* \"#utility.yul\":4984:4987   */\n      dup2\n        /* \"#utility.yul\":4979:4982   */\n      dup4\n        /* \"#utility.yul\":4966:4996   */\n      calldatacopy\n        /* \"#utility.yul\":5030:5031   */\n      0x00\n        /* \"#utility.yul\":5021:5027   */\n      dup4\n        /* \"#utility.yul\":5016:5019   */\n      dup4\n        /* \"#utility.yul\":5012:5028   */\n      add\n        /* \"#utility.yul\":5005:5032   */\n      mstore\n        /* \"#utility.yul\":4892:5038   */\n      pop\n      pop\n      pop\n      jump\t// out\n        /* \"#utility.yul\":5044:5469   */\n    tag_201:\n        /* \"#utility.yul\":5122:5127   */\n      0x00\n        /* \"#utility.yul\":5147:5213   */\n      tag_302\n        /* \"#utility.yul\":5163:5212   */\n      tag_303\n        /* \"#utility.yul\":5205:5211   */\n      dup5\n        /* \"#utility.yul\":5163:5212   */\n      tag_199\n      jump\t// in\n    tag_303:\n        /* \"#utility.yul\":5147:5213   */\n      tag_198\n      jump\t// in\n    tag_302:\n        /* \"#utility.yul\":5138:5213   */\n      swap1\n      pop\n        /* \"#utility.yul\":5236:5242   */\n      dup3\n        /* \"#utility.yul\":5229:5234   */\n      dup2\n        /* \"#utility.yul\":5222:5243   */\n      mstore\n        /* \"#utility.yul\":5274:5278   */\n      0x20\n        /* \"#utility.yul\":5267:5272   */\n      dup2\n        /* \"#utility.yul\":5263:5279   */\n      add\n        /* \"#utility.yul\":5312:5315   */\n      dup5\n        /* \"#utility.yul\":5303:5309   */\n      dup5\n        /* \"#utility.yul\":5298:5301   */\n      dup5\n        /* \"#utility.yul\":5294:5310   */\n      add\n        /* \"#utility.yul\":5291:5316   */\n      gt\n        /* \"#utility.yul\":5288:5400   */\n      iszero\n      tag_304\n      jumpi\n        /* \"#utility.yul\":5319:5398   */\n      tag_305\n      tag_194\n      jump\t// in\n    tag_305:\n        /* \"#utility.yul\":5288:5400   */\n    tag_304:\n        /* \"#utility.yul\":5409:5463   */\n      tag_306\n        /* \"#utility.yul\":5456:5462   */\n      dup5\n        /* \"#utility.yul\":5451:5454   */\n      dup3\n        /* \"#utility.yul\":5446:5449   */\n      dup6\n        /* \"#utility.yul\":5409:5463   */\n      tag_200\n      jump\t// in\n    tag_306:\n        /* \"#utility.yul\":5128:5469   */\n      pop\n        /* \"#utility.yul\":5044:5469   */\n      swap4\n      swap3\n      pop\n      pop\n      pop\n      jump\t// out\n        /* \"#utility.yul\":5489:5829   */\n    tag_202:\n        /* \"#utility.yul\":5545:5550   */\n      0x00\n        /* \"#utility.yul\":5594:5597   */\n      dup3\n        /* \"#utility.yul\":5587:5591   */\n      0x1f\n        /* \"#utility.yul\":5579:5585   */\n      dup4\n        /* \"#utility.yul\":5575:5592   */\n      add\n        /* \"#utility.yul\":5571:5598   */\n      slt\n        /* \"#utility.yul\":5561:5683   */\n      tag_308\n      jumpi\n        /* \"#utility.yul\":5602:5681   */\n      tag_309\n      tag_193\n      jump\t// in\n    tag_309:\n        /* \"#utility.yul\":5561:5683   */\n    tag_308:\n        /* \"#utility.yul\":5719:5725   */\n      dup2\n        /* \"#utility.yul\":5706:5726   */\n      calldataload\n        /* \"#utility.yul\":5744:5823   */\n      tag_310\n        /* \"#utility.yul\":5819:5822   */\n      dup5\n        /* \"#utility.yul\":5811:5817   */\n      dup3\n        /* \"#utility.yul\":5804:5808   */\n      0x20\n        /* \"#utility.yul\":5796:5802   */\n      dup7\n        /* \"#utility.yul\":5792:5809   */\n      add\n        /* \"#utility.yul\":5744:5823   */\n      tag_201\n      jump\t// in\n    tag_310:\n        /* \"#utility.yul\":5735:5823   */\n      swap2\n      pop\n        /* \"#utility.yul\":5551:5829   */\n      pop\n        /* \"#utility.yul\":5489:5829   */\n      swap3\n      swap2\n      pop\n      pop\n      jump\t// out\n        /* \"#utility.yul\":5835:6344   */\n    tag_30:\n        /* \"#utility.yul\":5904:5910   */\n      0x00\n        /* \"#utility.yul\":5953:5955   */\n      0x20\n        /* \"#utility.yul\":5941:5950   */\n      dup3\n        /* \"#utility.yul\":5932:5939   */\n      dup5\n        /* \"#utility.yul\":5928:5951   */\n      sub\n        /* \"#utility.yul\":5924:5956   */\n      slt\n        /* \"#utility.yul\":5921:6040   */\n      iszero\n      tag_312\n      jumpi\n        /* \"#utility.yul\":5959:6038   */\n      tag_313\n      tag_178\n      jump\t// in\n    tag_313:\n        /* \"#utility.yul\":5921:6040   */\n    tag_312:\n        /* \"#utility.yul\":6107:6108   */\n      0x00\n        /* \"#utility.yul\":6096:6105   */\n      dup3\n        /* \"#utility.yul\":6092:6109   */\n      add\n        /* \"#utility.yul\":6079:6110   */\n      calldataload\n        /* \"#utility.yul\":6137:6155   */\n      0xffffffffffffffff\n        /* \"#utility.yul\":6129:6135   */\n      dup2\n        /* \"#utility.yul\":6126:6156   */\n      gt\n        /* \"#utility.yul\":6123:6240   */\n      iszero\n      tag_314\n      jumpi\n        /* \"#utility.yul\":6159:6238   */\n      tag_315\n      tag_179\n      jump\t// in\n    tag_315:\n        /* \"#utility.yul\":6123:6240   */\n    tag_314:\n        /* \"#utility.yul\":6264:6327   */\n      tag_316\n        /* \"#utility.yul\":6319:6326   */\n      dup5\n        /* \"#utility.yul\":6310:6316   */\n      dup3\n        /* \"#utility.yul\":6299:6308   */\n      dup6\n        /* \"#utility.yul\":6295:6317   */\n      add\n        /* \"#utility.yul\":6264:6327   */\n      tag_202\n      jump\t// in\n    tag_316:\n        /* \"#utility.yul\":6254:6327   */\n      swap2\n      pop\n        /* \"#utility.yul\":6050:6337   */\n      pop\n        /* \"#utility.yul\":5835:6344   */\n      swap3\n      swap2\n      pop\n      pop\n      jump\t// out\n        /* \"#utility.yul\":6350:6449   */\n    tag_203:\n        /* \"#utility.yul\":6402:6408   */\n      0x00\n        /* \"#utility.yul\":6436:6441   */\n      dup2\n        /* \"#utility.yul\":6430:6442   */\n      mload\n        /* \"#utility.yul\":6420:6442   */\n      swap1\n      pop\n        /* \"#utility.yul\":6350:6449   */\n      swap2\n      swap1\n      pop\n      jump\t// out\n        /* \"#utility.yul\":6455:6624   */\n    tag_204:\n        /* \"#utility.yul\":6539:6550   */\n      0x00\n        /* \"#utility.yul\":6573:6579   */\n      dup3\n        /* \"#utility.yul\":6568:6571   */\n      dup3\n        /* \"#utility.yul\":6561:6580   */\n      mstore\n        /* \"#utility.yul\":6613:6617   */\n      0x20\n        /* \"#utility.yul\":6608:6611   */\n      dup3\n        /* \"#utility.yul\":6604:6618   */\n      add\n        /* \"#utility.yul\":6589:6618   */\n      swap1\n      pop\n        /* \"#utility.yul\":6455:6624   */\n      swap3\n      swap2\n      pop\n      pop\n      jump\t// out\n        /* \"#utility.yul\":6630:6876   */\n    tag_205:\n        /* \"#utility.yul\":6711:6712   */\n      0x00\n        /* \"#utility.yul\":6721:6834   */\n    tag_320:\n        /* \"#utility.yul\":6735:6741   */\n      dup4\n        /* \"#utility.yul\":6732:6733   */\n      dup2\n        /* \"#utility.yul\":6729:6742   */\n      lt\n        /* \"#utility.yul\":6721:6834   */\n      iszero\n      tag_322\n      jumpi\n        /* \"#utility.yul\":6820:6821   */\n      dup1\n        /* \"#utility.yul\":6815:6818   */\n      dup3\n        /* \"#utility.yul\":6811:6822   */\n      add\n        /* \"#utility.yul\":6805:6823   */\n      mload\n        /* \"#utility.yul\":6801:6802   */\n      dup2\n        /* \"#utility.yul\":6796:6799   */\n      dup5\n        /* \"#utility.yul\":6792:6803   */\n      add\n        /* \"#utility.yul\":6785:6824   */\n      mstore\n        /* \"#utility.yul\":6757:6759   */\n      0x20\n        /* \"#utility.yul\":6754:6755   */\n      dup2\n        /* \"#utility.yul\":6750:6760   */\n      add\n        /* \"#utility.yul\":6745:6760   */\n      swap1\n      pop\n        /* \"#utility.yul\":6721:6834   */\n      jump(tag_320)\n    tag_322:\n        /* \"#utility.yul\":6868:6869   */\n      0x00\n        /* \"#utility.yul\":6859:6865   */\n      dup5\n        /* \"#utility.yul\":6854:6857   */\n      dup5\n        /* \"#utility.yul\":6850:6866   */\n      add\n        /* \"#utility.yul\":6843:6870   */\n      mstore\n        /* \"#utility.yul\":6692:6876   */\n      pop\n        /* \"#utility.yul\":6630:6876   */\n      pop\n      pop\n      pop\n      jump\t// out\n        /* \"#utility.yul\":6882:7259   */\n    tag_206:\n        /* \"#utility.yul\":6970:6973   */\n      0x00\n        /* \"#utility.yul\":6998:7037   */\n      tag_324\n        /* \"#utility.yul\":7031:7036   */\n      dup3\n        /* \"#utility.yul\":6998:7037   */\n      tag_203\n      jump\t// in\n    tag_324:\n        /* \"#utility.yul\":7053:7124   */\n      tag_325\n        /* \"#utility.yul\":7117:7123   */\n      dup2\n        /* \"#utility.yul\":7112:7115   */\n      dup6\n        /* \"#utility.yul\":7053:7124   */\n      tag_204\n      jump\t// in\n    tag_325:\n        /* \"#utility.yul\":7046:7124   */\n      swap4\n      pop\n        /* \"#utility.yul\":7133:7198   */\n      tag_326\n        /* \"#utility.yul\":7191:7197   */\n      dup2\n        /* \"#utility.yul\":7186:7189   */\n      dup6\n        /* \"#utility.yul\":7179:7183   */\n      0x20\n        /* \"#utility.yul\":7172:7177   */\n      dup7\n        /* \"#utility.yul\":7168:7184   */\n      add\n        /* \"#utility.yul\":7133:7198   */\n      tag_205\n      jump\t// in\n    tag_326:\n        /* \"#utility.yul\":7223:7252   */\n      tag_327\n        /* \"#utility.yul\":7245:7251   */\n      dup2\n        /* \"#utility.yul\":7223:7252   */\n      tag_195\n      jump\t// in\n    tag_327:\n        /* \"#utility.yul\":7218:7221   */\n      dup5\n        /* \"#utility.yul\":7214:7253   */\n      add\n        /* \"#utility.yul\":7207:7253   */\n      swap2\n      pop\n        /* \"#utility.yul\":6974:7259   */\n      pop\n        /* \"#utility.yul\":6882:7259   */\n      swap3\n      swap2\n      pop\n      pop\n      jump\t// out\n        /* \"#utility.yul\":7265:7578   */\n    tag_41:\n        /* \"#utility.yul\":7378:7382   */\n      0x00\n        /* \"#utility.yul\":7416:7418   */\n      0x20\n        /* \"#utility.yul\":7405:7414   */\n      dup3\n        /* \"#utility.yul\":7401:7419   */\n      add\n        /* \"#utility.yul\":7393:7419   */\n      swap1\n      pop\n        /* \"#utility.yul\":7465:7474   */\n      dup2\n        /* \"#utility.yul\":7459:7463   */\n      dup2\n        /* \"#utility.yul\":7455:7475   */\n      sub\n        /* \"#utility.yul\":7451:7452   */\n      0x00\n        /* \"#utility.yul\":7440:7449   */\n      dup4\n        /* \"#utility.yul\":7436:7453   */\n      add\n        /* \"#utility.yul\":7429:7476   */\n      mstore\n        /* \"#utility.yul\":7493:7571   */\n      tag_329\n        /* \"#utility.yul\":7566:7570   */\n      dup2\n        /* \"#utility.yul\":7557:7563   */\n      dup5\n        /* \"#utility.yul\":7493:7571   */\n      tag_206\n      jump\t// in\n    tag_329:\n        /* \"#utility.yul\":7485:7571   */\n      swap1\n      pop\n        /* \"#utility.yul\":7265:7578   */\n      swap3\n      swap2\n      pop\n      pop\n      jump\t// out\n        /* \"#utility.yul\":7584:7661   */\n    tag_207:\n        /* \"#utility.yul\":7621:7628   */\n      0x00\n        /* \"#utility.yul\":7650:7655   */\n      dup2\n        /* \"#utility.yul\":7639:7655   */\n      swap1\n      pop\n        /* \"#utility.yul\":7584:7661   */\n      swap2\n      swap1\n      pop\n      jump\t// out\n        /* \"#utility.yul\":7667:7789   */\n    tag_208:\n        /* \"#utility.yul\":7740:7764   */\n      tag_332\n        /* \"#utility.yul\":7758:7763   */\n      dup2\n        /* \"#utility.yul\":7740:7764   */\n      tag_207\n      jump\t// in\n    tag_332:\n        /* \"#utility.yul\":7733:7738   */\n      dup2\n        /* \"#utility.yul\":7730:7765   */\n      eq\n        /* \"#utility.yul\":7720:7783   */\n      tag_333\n      jumpi\n        /* \"#utility.yul\":7779:7780   */\n      0x00\n        /* \"#utility.yul\":7776:7777   */\n      dup1\n        /* \"#utility.yul\":7769:7781   */\n      revert\n        /* \"#utility.yul\":7720:7783   */\n    tag_333:\n        /* \"#utility.yul\":7667:7789   */\n      pop\n      jump\t// out\n        /* \"#utility.yul\":7795:7934   */\n    tag_209:\n        /* \"#utility.yul\":7841:7846   */\n      0x00\n        /* \"#utility.yul\":7879:7885   */\n      dup2\n        /* \"#utility.yul\":7866:7886   */\n      calldataload\n        /* \"#utility.yul\":7857:7886   */\n      swap1\n      pop\n        /* \"#utility.yul\":7895:7928   */\n      tag_335\n        /* \"#utility.yul\":7922:7927   */\n      dup2\n        /* \"#utility.yul\":7895:7928   */\n      tag_208\n      jump\t// in\n    tag_335:\n        /* \"#utility.yul\":7795:7934   */\n      swap3\n      swap2\n      pop\n      pop\n      jump\t// out\n        /* \"#utility.yul\":7940:8414   */\n    tag_55:\n        /* \"#utility.yul\":8008:8014   */\n      0x00\n        /* \"#utility.yul\":8016:8022   */\n      dup1\n        /* \"#utility.yul\":8065:8067   */\n      0x40\n        /* \"#utility.yul\":8053:8062   */\n      dup4\n        /* \"#utility.yul\":8044:8051   */\n      dup6\n        /* \"#utility.yul\":8040:8063   */\n      sub\n        /* \"#utility.yul\":8036:8068   */\n      slt\n        /* \"#utility.yul\":8033:8152   */\n      iszero\n      tag_337\n      jumpi\n        /* \"#utility.yul\":8071:8150   */\n      tag_338\n      tag_178\n      jump\t// in\n    tag_338:\n        /* \"#utility.yul\":8033:8152   */\n    tag_337:\n        /* \"#utility.yul\":8191:8192   */\n      0x00\n        /* \"#utility.yul\":8216:8269   */\n      tag_339\n        /* \"#utility.yul\":8261:8268   */\n      dup6\n        /* \"#utility.yul\":8252:8258   */\n      dup3\n        /* \"#utility.yul\":8241:8250   */\n      dup7\n        /* \"#utility.yul\":8237:8259   */\n      add\n        /* \"#utility.yul\":8216:8269   */\n      tag_183\n      jump\t// in\n    tag_339:\n        /* \"#utility.yul\":8206:8269   */\n      swap3\n      pop\n        /* \"#utility.yul\":8162:8279   */\n      pop\n        /* \"#utility.yul\":8318:8320   */\n      0x20\n        /* \"#utility.yul\":8344:8397   */\n      tag_340\n        /* \"#utility.yul\":8389:8396   */\n      dup6\n        /* \"#utility.yul\":8380:8386   */\n      dup3\n        /* \"#utility.yul\":8369:8378   */\n      dup7\n        /* \"#utility.yul\":8365:8387   */\n      add\n        /* \"#utility.yul\":8344:8397   */\n      tag_209\n      jump\t// in\n    tag_340:\n        /* \"#utility.yul\":8334:8397   */\n      swap2\n      pop\n        /* \"#utility.yul\":8289:8407   */\n      pop\n        /* \"#utility.yul\":7940:8414   */\n      swap3\n      pop\n      swap3\n      swap1\n      pop\n      jump\t// out\n        /* \"#utility.yul\":8420:8538   */\n    tag_210:\n        /* \"#utility.yul\":8507:8531   */\n      tag_342\n        /* \"#utility.yul\":8525:8530   */\n      dup2\n        /* \"#utility.yul\":8507:8531   */\n      tag_181\n      jump\t// in\n    tag_342:\n        /* \"#utility.yul\":8502:8505   */\n      dup3\n        /* \"#utility.yul\":8495:8532   */\n      mstore\n        /* \"#utility.yul\":8420:8538   */\n      pop\n      pop\n      jump\t// out\n        /* \"#utility.yul\":8544:8766   */\n    tag_58:\n        /* \"#utility.yul\":8637:8641   */\n      0x00\n        /* \"#utility.yul\":8675:8677   */\n      0x20\n        /* \"#utility.yul\":8664:8673   */\n      dup3\n        /* \"#utility.yul\":8660:8678   */\n      add\n        /* \"#utility.yul\":8652:8678   */\n      swap1\n      pop\n        /* \"#utility.yul\":8688:8759   */\n      tag_344\n        /* \"#utility.yul\":8756:8757   */\n      0x00\n        /* \"#utility.yul\":8745:8754   */\n      dup4\n        /* \"#utility.yul\":8741:8758   */\n      add\n        /* \"#utility.yul\":8732:8738   */\n      dup5\n        /* \"#utility.yul\":8688:8759   */\n      tag_210\n      jump\t// in\n    tag_344:\n        /* \"#utility.yul\":8544:8766   */\n      swap3\n      swap2\n      pop\n      pop\n      jump\t// out\n        /* \"#utility.yul\":8772:9246   */\n    tag_61:\n        /* \"#utility.yul\":8840:8846   */\n      0x00\n        /* \"#utility.yul\":8848:8854   */\n      dup1\n        /* \"#utility.yul\":8897:8899   */\n      0x40\n        /* \"#utility.yul\":8885:8894   */\n      dup4\n        /* \"#utility.yul\":8876:8883   */\n      dup6\n        /* \"#utility.yul\":8872:8895   */\n      sub\n        /* \"#utility.yul\":8868:8900   */\n      slt\n        /* \"#utility.yul\":8865:8984   */\n      iszero\n      tag_346\n      jumpi\n        /* \"#utility.yul\":8903:8982   */\n      tag_347\n      tag_178\n      jump\t// in\n    tag_347:\n        /* \"#utility.yul\":8865:8984   */\n    tag_346:\n        /* \"#utility.yul\":9023:9024   */\n      0x00\n        /* \"#utility.yul\":9048:9101   */\n      tag_348\n        /* \"#utility.yul\":9093:9100   */\n      dup6\n        /* \"#utility.yul\":9084:9090   */\n      dup3\n        /* \"#utility.yul\":9073:9082   */\n      dup7\n        /* \"#utility.yul\":9069:9091   */\n      add\n        /* \"#utility.yul\":9048:9101   */\n      tag_183\n      jump\t// in\n    tag_348:\n        /* \"#utility.yul\":9038:9101   */\n      swap3\n      pop\n        /* \"#utility.yul\":8994:9111   */\n      pop\n        /* \"#utility.yul\":9150:9152   */\n      0x20\n        /* \"#utility.yul\":9176:9229   */\n      tag_349\n        /* \"#utility.yul\":9221:9228   */\n      dup6\n        /* \"#utility.yul\":9212:9218   */\n      dup3\n        /* \"#utility.yul\":9201:9210   */\n      dup7\n        /* \"#utility.yul\":9197:9219   */\n      add\n        /* \"#utility.yul\":9176:9229   */\n      tag_183\n      jump\t// in\n    tag_349:\n        /* \"#utility.yul\":9166:9229   */\n      swap2\n      pop\n        /* \"#utility.yul\":9121:9239   */\n      pop\n        /* \"#utility.yul\":8772:9246   */\n      swap3\n      pop\n      swap3\n      swap1\n      pop\n      jump\t// out\n        /* \"#utility.yul\":9252:9370   */\n    tag_211:\n        /* \"#utility.yul\":9339:9363   */\n      tag_351\n        /* \"#utility.yul\":9357:9362   */\n      dup2\n        /* \"#utility.yul\":9339:9363   */\n      tag_207\n      jump\t// in\n    tag_351:\n        /* \"#utility.yul\":9334:9337   */\n      dup3\n        /* \"#utility.yul\":9327:9364   */\n      mstore\n        /* \"#utility.yul\":9252:9370   */\n      pop\n      pop\n      jump\t// out\n        /* \"#utility.yul\":9376:9708   */\n    tag_64:\n        /* \"#utility.yul\":9497:9501   */\n      0x00\n        /* \"#utility.yul\":9535:9537   */\n      0x40\n        /* \"#utility.yul\":9524:9533   */\n      dup3\n        /* \"#utility.yul\":9520:9538   */\n      add\n        /* \"#utility.yul\":9512:9538   */\n      swap1\n      pop\n        /* \"#utility.yul\":9548:9619   */\n      tag_353\n        /* \"#utility.yul\":9616:9617   */\n      0x00\n        /* \"#utility.yul\":9605:9614   */\n      dup4\n        /* \"#utility.yul\":9601:9618   */\n      add\n        /* \"#utility.yul\":9592:9598   */\n      dup6\n        /* \"#utility.yul\":9548:9619   */\n      tag_210\n      jump\t// in\n    tag_353:\n        /* \"#utility.yul\":9629:9701   */\n      tag_354\n        /* \"#utility.yul\":9697:9699   */\n      0x20\n        /* \"#utility.yul\":9686:9695   */\n      dup4\n        /* \"#utility.yul\":9682:9700   */\n      add\n        /* \"#utility.yul\":9673:9679   */\n      dup5\n        /* \"#utility.yul\":9629:9701   */\n      tag_211\n      jump\t// in\n    tag_354:\n        /* \"#utility.yul\":9376:9708   */\n      swap4\n      swap3\n      pop\n      pop\n      pop\n      jump\t// out\n        /* \"#utility.yul\":9714:9937   */\n    tag_212:\n        /* \"#utility.yul\":9854:9888   */\n      0x796f752063616e206e6f742061646420796f757273656c662061732061206672\n        /* \"#utility.yul\":9850:9851   */\n      0x00\n        /* \"#utility.yul\":9842:9848   */\n      dup3\n        /* \"#utility.yul\":9838:9852   */\n      add\n        /* \"#utility.yul\":9831:9889   */\n      mstore\n        /* \"#utility.yul\":9923:9929   */\n      0x69656e6400000000000000000000000000000000000000000000000000000000\n        /* \"#utility.yul\":9918:9920   */\n      0x20\n        /* \"#utility.yul\":9910:9916   */\n      dup3\n        /* \"#utility.yul\":9906:9921   */\n      add\n        /* \"#utility.yul\":9899:9930   */\n      mstore\n        /* \"#utility.yul\":9714:9937   */\n      pop\n      jump\t// out\n        /* \"#utility.yul\":9943:10309   */\n    tag_213:\n        /* \"#utility.yul\":10085:10088   */\n      0x00\n        /* \"#utility.yul\":10106:10173   */\n      tag_357\n        /* \"#utility.yul\":10170:10172   */\n      0x24\n        /* \"#utility.yul\":10165:10168   */\n      dup4\n        /* \"#utility.yul\":10106:10173   */\n      tag_204\n      jump\t// in\n    tag_357:\n        /* \"#utility.yul\":10099:10173   */\n      swap2\n      pop\n        /* \"#utility.yul\":10182:10275   */\n      tag_358\n        /* \"#utility.yul\":10271:10274   */\n      dup3\n        /* \"#utility.yul\":10182:10275   */\n      tag_212\n      jump\t// in\n    tag_358:\n        /* \"#utility.yul\":10300:10302   */\n      0x40\n        /* \"#utility.yul\":10295:10298   */\n      dup3\n        /* \"#utility.yul\":10291:10303   */\n      add\n        /* \"#utility.yul\":10284:10303   */\n      swap1\n      pop\n        /* \"#utility.yul\":9943:10309   */\n      swap2\n      swap1\n      pop\n      jump\t// out\n        /* \"#utility.yul\":10315:10734   */\n    tag_80:\n        /* \"#utility.yul\":10481:10485   */\n      0x00\n        /* \"#utility.yul\":10519:10521   */\n      0x20\n        /* \"#utility.yul\":10508:10517   */\n      dup3\n        /* \"#utility.yul\":10504:10522   */\n      add\n        /* \"#utility.yul\":10496:10522   */\n      swap1\n      pop\n        /* \"#utility.yul\":10568:10577   */\n      dup2\n        /* \"#utility.yul\":10562:10566   */\n      dup2\n        /* \"#utility.yul\":10558:10578   */\n      sub\n        /* \"#utility.yul\":10554:10555   */\n      0x00\n        /* \"#utility.yul\":10543:10552   */\n      dup4\n        /* \"#utility.yul\":10539:10556   */\n      add\n        /* \"#utility.yul\":10532:10579   */\n      mstore\n        /* \"#utility.yul\":10596:10727   */\n      tag_360\n        /* \"#utility.yul\":10722:10726   */\n      dup2\n        /* \"#utility.yul\":10596:10727   */\n      tag_213\n      jump\t// in\n    tag_360:\n        /* \"#utility.yul\":10588:10727   */\n      swap1\n      pop\n        /* \"#utility.yul\":10315:10734   */\n      swap2\n      swap1\n      pop\n      jump\t// out\n        /* \"#utility.yul\":10740:10920   */\n    tag_214:\n        /* \"#utility.yul\":10788:10865   */\n      0x4e487b7100000000000000000000000000000000000000000000000000000000\n        /* \"#utility.yul\":10785:10786   */\n      0x00\n        /* \"#utility.yul\":10778:10866   */\n      mstore\n        /* \"#utility.yul\":10885:10889   */\n      0x22\n        /* \"#utility.yul\":10882:10883   */\n      0x04\n        /* \"#utility.yul\":10875:10890   */\n      mstore\n        /* \"#utility.yul\":10909:10913   */\n      0x24\n        /* \"#utility.yul\":10906:10907   */\n      0x00\n        /* \"#utility.yul\":10899:10914   */\n      revert\n        /* \"#utility.yul\":10926:11246   */\n    tag_127:\n        /* \"#utility.yul\":10970:10976   */\n      0x00\n        /* \"#utility.yul\":11007:11008   */\n      0x02\n        /* \"#utility.yul\":11001:11005   */\n      dup3\n        /* \"#utility.yul\":10997:11009   */\n      div\n        /* \"#utility.yul\":10987:11009   */\n      swap1\n      pop\n        /* \"#utility.yul\":11054:11055   */\n      0x01\n        /* \"#utility.yul\":11048:11052   */\n      dup3\n        /* \"#utility.yul\":11044:11056   */\n      and\n        /* \"#utility.yul\":11075:11093   */\n      dup1\n        /* \"#utility.yul\":11065:11146   */\n      tag_363\n      jumpi\n        /* \"#utility.yul\":11131:11135   */\n      0x7f\n        /* \"#utility.yul\":11123:11129   */\n      dup3\n        /* \"#utility.yul\":11119:11136   */\n      and\n        /* \"#utility.yul\":11109:11136   */\n      swap2\n      pop\n        /* \"#utility.yul\":11065:11146   */\n    tag_363:\n        /* \"#utility.yul\":11193:11195   */\n      0x20\n        /* \"#utility.yul\":11185:11191   */\n      dup3\n        /* \"#utility.yul\":11182:11196   */\n      lt\n        /* \"#utility.yul\":11162:11180   */\n      dup2\n        /* \"#utility.yul\":11159:11197   */\n      sub\n        /* \"#utility.yul\":11156:11240   */\n      tag_364\n      jumpi\n        /* \"#utility.yul\":11212:11230   */\n      tag_365\n      tag_214\n      jump\t// in\n    tag_365:\n        /* \"#utility.yul\":11156:11240   */\n    tag_364:\n        /* \"#utility.yul\":10977:11246   */\n      pop\n        /* \"#utility.yul\":10926:11246   */\n      swap2\n      swap1\n      pop\n      jump\t// out\n        /* \"#utility.yul\":11252:11400   */\n    tag_215:\n        /* \"#utility.yul\":11354:11365   */\n      0x00\n        /* \"#utility.yul\":11391:11394   */\n      dup2\n        /* \"#utility.yul\":11376:11394   */\n      swap1\n      pop\n        /* \"#utility.yul\":11252:11400   */\n      swap3\n      swap2\n      pop\n      pop\n      jump\t// out\n        /* \"#utility.yul\":11406:11547   */\n    tag_216:\n        /* \"#utility.yul\":11455:11459   */\n      0x00\n        /* \"#utility.yul\":11478:11481   */\n      dup2\n        /* \"#utility.yul\":11470:11481   */\n      swap1\n      pop\n        /* \"#utility.yul\":11501:11504   */\n      dup2\n        /* \"#utility.yul\":11498:11499   */\n      0x00\n        /* \"#utility.yul\":11491:11505   */\n      mstore\n        /* \"#utility.yul\":11535:11539   */\n      0x20\n        /* \"#utility.yul\":11532:11533   */\n      0x00\n        /* \"#utility.yul\":11522:11540   */\n      keccak256\n        /* \"#utility.yul\":11514:11540   */\n      swap1\n      pop\n        /* \"#utility.yul\":11406:11547   */\n      swap2\n      swap1\n      pop\n      jump\t// out\n        /* \"#utility.yul\":11577:12451   */\n    tag_217:\n        /* \"#utility.yul\":11680:11683   */\n      0x00\n        /* \"#utility.yul\":11717:11722   */\n      dup2\n        /* \"#utility.yul\":11711:11723   */\n      sload\n        /* \"#utility.yul\":11746:11782   */\n      tag_369\n        /* \"#utility.yul\":11772:11781   */\n      dup2\n        /* \"#utility.yul\":11746:11782   */\n      tag_127\n      jump\t// in\n    tag_369:\n        /* \"#utility.yul\":11798:11887   */\n      tag_370\n        /* \"#utility.yul\":11880:11886   */\n      dup2\n        /* \"#utility.yul\":11875:11878   */\n      dup7\n        /* \"#utility.yul\":11798:11887   */\n      tag_215\n      jump\t// in\n    tag_370:\n        /* \"#utility.yul\":11791:11887   */\n      swap5\n      pop\n        /* \"#utility.yul\":11918:11919   */\n      0x01\n        /* \"#utility.yul\":11907:11916   */\n      dup3\n        /* \"#utility.yul\":11903:11920   */\n      and\n        /* \"#utility.yul\":11934:11935   */\n      0x00\n        /* \"#utility.yul\":11929:12095   */\n      dup2\n      eq\n      tag_372\n      jumpi\n        /* \"#utility.yul\":12109:12110   */\n      0x01\n        /* \"#utility.yul\":12104:12445   */\n      dup2\n      eq\n      tag_373\n      jumpi\n        /* \"#utility.yul\":11896:12445   */\n      jump(tag_371)\n        /* \"#utility.yul\":11929:12095   */\n    tag_372:\n        /* \"#utility.yul\":12013:12017   */\n      0xff\n        /* \"#utility.yul\":12009:12018   */\n      not\n        /* \"#utility.yul\":11998:12007   */\n      dup4\n        /* \"#utility.yul\":11994:12019   */\n      and\n        /* \"#utility.yul\":11989:11992   */\n      dup7\n        /* \"#utility.yul\":11982:12020   */\n      mstore\n        /* \"#utility.yul\":12075:12081   */\n      dup2\n        /* \"#utility.yul\":12068:12082   */\n      iszero\n        /* \"#utility.yul\":12061:12083   */\n      iszero\n        /* \"#utility.yul\":12053:12059   */\n      dup3\n        /* \"#utility.yul\":12049:12084   */\n      mul\n        /* \"#utility.yul\":12044:12047   */\n      dup7\n        /* \"#utility.yul\":12040:12085   */\n      add\n        /* \"#utility.yul\":12033:12085   */\n      swap4\n      pop\n        /* \"#utility.yul\":11929:12095   */\n      jump(tag_371)\n        /* \"#utility.yul\":12104:12445   */\n    tag_373:\n        /* \"#utility.yul\":12171:12209   */\n      tag_374\n        /* \"#utility.yul\":12203:12208   */\n      dup6\n        /* \"#utility.yul\":12171:12209   */\n      tag_216\n      jump\t// in\n    tag_374:\n        /* \"#utility.yul\":12231:12232   */\n      0x00\n        /* \"#utility.yul\":12245:12399   */\n    tag_375:\n        /* \"#utility.yul\":12259:12265   */\n      dup4\n        /* \"#utility.yul\":12256:12257   */\n      dup2\n        /* \"#utility.yul\":12253:12266   */\n      lt\n        /* \"#utility.yul\":12245:12399   */\n      iszero\n      tag_377\n      jumpi\n        /* \"#utility.yul\":12333:12340   */\n      dup2\n        /* \"#utility.yul\":12327:12341   */\n      sload\n        /* \"#utility.yul\":12323:12324   */\n      dup2\n        /* \"#utility.yul\":12318:12321   */\n      dup10\n        /* \"#utility.yul\":12314:12325   */\n      add\n        /* \"#utility.yul\":12307:12342   */\n      mstore\n        /* \"#utility.yul\":12383:12384   */\n      0x01\n        /* \"#utility.yul\":12374:12381   */\n      dup3\n        /* \"#utility.yul\":12370:12385   */\n      add\n        /* \"#utility.yul\":12359:12385   */\n      swap2\n      pop\n        /* \"#utility.yul\":12281:12285   */\n      0x20\n        /* \"#utility.yul\":12278:12279   */\n      dup2\n        /* \"#utility.yul\":12274:12286   */\n      add\n        /* \"#utility.yul\":12269:12286   */\n      swap1\n      pop\n        /* \"#utility.yul\":12245:12399   */\n      jump(tag_375)\n    tag_377:\n        /* \"#utility.yul\":12428:12434   */\n      dup4\n        /* \"#utility.yul\":12423:12426   */\n      dup9\n        /* \"#utility.yul\":12419:12435   */\n      add\n        /* \"#utility.yul\":12412:12435   */\n      swap6\n      pop\n        /* \"#utility.yul\":12111:12445   */\n      pop\n      pop\n        /* \"#utility.yul\":11896:12445   */\n    tag_371:\n      pop\n        /* \"#utility.yul\":11684:12451   */\n      pop\n      pop\n        /* \"#utility.yul\":11577:12451   */\n      swap3\n      swap2\n      pop\n      pop\n      jump\t// out\n        /* \"#utility.yul\":12457:12726   */\n    tag_82:\n        /* \"#utility.yul\":12586:12589   */\n      0x00\n        /* \"#utility.yul\":12608:12700   */\n      tag_379\n        /* \"#utility.yul\":12696:12699   */\n      dup3\n        /* \"#utility.yul\":12687:12693   */\n      dup5\n        /* \"#utility.yul\":12608:12700   */\n      tag_217\n      jump\t// in\n    tag_379:\n        /* \"#utility.yul\":12601:12700   */\n      swap2\n      pop\n        /* \"#utility.yul\":12717:12720   */\n      dup2\n        /* \"#utility.yul\":12710:12720   */\n      swap1\n      pop\n        /* \"#utility.yul\":12457:12726   */\n      swap3\n      swap2\n      pop\n      pop\n      jump\t// out\n        /* \"#utility.yul\":12732:12960   */\n    tag_218:\n        /* \"#utility.yul\":12872:12906   */\n      0x796f752063616e206e6f74206164642061207573657220746861742068617320\n        /* \"#utility.yul\":12868:12869   */\n      0x00\n        /* \"#utility.yul\":12860:12866   */\n      dup3\n        /* \"#utility.yul\":12856:12870   */\n      add\n        /* \"#utility.yul\":12849:12907   */\n      mstore\n        /* \"#utility.yul\":12941:12952   */\n      0x6e6f207075626b65790000000000000000000000000000000000000000000000\n        /* \"#utility.yul\":12936:12938   */\n      0x20\n        /* \"#utility.yul\":12928:12934   */\n      dup3\n        /* \"#utility.yul\":12924:12939   */\n      add\n        /* \"#utility.yul\":12917:12953   */\n      mstore\n        /* \"#utility.yul\":12732:12960   */\n      pop\n      jump\t// out\n        /* \"#utility.yul\":12966:13332   */\n    tag_219:\n        /* \"#utility.yul\":13108:13111   */\n      0x00\n        /* \"#utility.yul\":13129:13196   */\n      tag_382\n        /* \"#utility.yul\":13193:13195   */\n      0x29\n        /* \"#utility.yul\":13188:13191   */\n      dup4\n        /* \"#utility.yul\":13129:13196   */\n      tag_204\n      jump\t// in\n    tag_382:\n        /* \"#utility.yul\":13122:13196   */\n      swap2\n      pop\n        /* \"#utility.yul\":13205:13298   */\n      tag_383\n        /* \"#utility.yul\":13294:13297   */\n      dup3\n        /* \"#utility.yul\":13205:13298   */\n      tag_218\n      jump\t// in\n    tag_383:\n        /* \"#utility.yul\":13323:13325   */\n      0x40\n        /* \"#utility.yul\":13318:13321   */\n      dup3\n        /* \"#utility.yul\":13314:13326   */\n      add\n        /* \"#utility.yul\":13307:13326   */\n      swap1\n      pop\n        /* \"#utility.yul\":12966:13332   */\n      swap2\n      swap1\n      pop\n      jump\t// out\n        /* \"#utility.yul\":13338:13757   */\n    tag_85:\n        /* \"#utility.yul\":13504:13508   */\n      0x00\n        /* \"#utility.yul\":13542:13544   */\n      0x20\n        /* \"#utility.yul\":13531:13540   */\n      dup3\n        /* \"#utility.yul\":13527:13545   */\n      add\n        /* \"#utility.yul\":13519:13545   */\n      swap1\n      pop\n        /* \"#utility.yul\":13591:13600   */\n      dup2\n        /* \"#utility.yul\":13585:13589   */\n      dup2\n        /* \"#utility.yul\":13581:13601   */\n      sub\n        /* \"#utility.yul\":13577:13578   */\n      0x00\n        /* \"#utility.yul\":13566:13575   */\n      dup4\n        /* \"#utility.yul\":13562:13579   */\n      add\n        /* \"#utility.yul\":13555:13602   */\n      mstore\n        /* \"#utility.yul\":13619:13750   */\n      tag_385\n        /* \"#utility.yul\":13745:13749   */\n      dup2\n        /* \"#utility.yul\":13619:13750   */\n      tag_219\n      jump\t// in\n    tag_385:\n        /* \"#utility.yul\":13611:13750   */\n      swap1\n      pop\n        /* \"#utility.yul\":13338:13757   */\n      swap2\n      swap1\n      pop\n      jump\t// out\n        /* \"#utility.yul\":13763:13942   */\n    tag_220:\n        /* \"#utility.yul\":13903:13934   */\n      0x68652f73686520697320796f757220667269656e6420616c7265616479000000\n        /* \"#utility.yul\":13899:13900   */\n      0x00\n        /* \"#utility.yul\":13891:13897   */\n      dup3\n        /* \"#utility.yul\":13887:13901   */\n      add\n        /* \"#utility.yul\":13880:13935   */\n      mstore\n        /* \"#utility.yul\":13763:13942   */\n      pop\n      jump\t// out\n        /* \"#utility.yul\":13948:14314   */\n    tag_221:\n        /* \"#utility.yul\":14090:14093   */\n      0x00\n        /* \"#utility.yul\":14111:14178   */\n      tag_388\n        /* \"#utility.yul\":14175:14177   */\n      0x1d\n        /* \"#utility.yul\":14170:14173   */\n      dup4\n        /* \"#utility.yul\":14111:14178   */\n      tag_204\n      jump\t// in\n    tag_388:\n        /* \"#utility.yul\":14104:14178   */\n      swap2\n      pop\n        /* \"#utility.yul\":14187:14280   */\n      tag_389\n        /* \"#utility.yul\":14276:14279   */\n      dup3\n        /* \"#utility.yul\":14187:14280   */\n      tag_220\n      jump\t// in\n    tag_389:\n        /* \"#utility.yul\":14305:14307   */\n      0x20\n        /* \"#utility.yul\":14300:14303   */\n      dup3\n        /* \"#utility.yul\":14296:14308   */\n      add\n        /* \"#utility.yul\":14289:14308   */\n      swap1\n      pop\n        /* \"#utility.yul\":13948:14314   */\n      swap2\n      swap1\n      pop\n      jump\t// out\n        /* \"#utility.yul\":14320:14739   */\n    tag_88:\n        /* \"#utility.yul\":14486:14490   */\n      0x00\n        /* \"#utility.yul\":14524:14526   */\n      0x20\n        /* \"#utility.yul\":14513:14522   */\n      dup3\n        /* \"#utility.yul\":14509:14527   */\n      add\n        /* \"#utility.yul\":14501:14527   */\n      swap1\n      pop\n        /* \"#utility.yul\":14573:14582   */\n      dup2\n        /* \"#utility.yul\":14567:14571   */\n      dup2\n        /* \"#utility.yul\":14563:14583   */\n      sub\n        /* \"#utility.yul\":14559:14560   */\n      0x00\n        /* \"#utility.yul\":14548:14557   */\n      dup4\n        /* \"#utility.yul\":14544:14561   */\n      add\n        /* \"#utility.yul\":14537:14584   */\n      mstore\n        /* \"#utility.yul\":14601:14732   */\n      tag_391\n        /* \"#utility.yul\":14727:14731   */\n      dup2\n        /* \"#utility.yul\":14601:14732   */\n      tag_221\n      jump\t// in\n    tag_391:\n        /* \"#utility.yul\":14593:14732   */\n      swap1\n      pop\n        /* \"#utility.yul\":14320:14739   */\n      swap2\n      swap1\n      pop\n      jump\t// out\n        /* \"#utility.yul\":14745:14838   */\n    tag_222:\n        /* \"#utility.yul\":14782:14788   */\n      0x00\n        /* \"#utility.yul\":14829:14831   */\n      0x20\n        /* \"#utility.yul\":14824:14826   */\n      0x1f\n        /* \"#utility.yul\":14817:14822   */\n      dup4\n        /* \"#utility.yul\":14813:14827   */\n      add\n        /* \"#utility.yul\":14809:14832   */\n      div\n        /* \"#utility.yul\":14799:14832   */\n      swap1\n      pop\n        /* \"#utility.yul\":14745:14838   */\n      swap2\n      swap1\n      pop\n      jump\t// out\n        /* \"#utility.yul\":14844:14951   */\n    tag_223:\n        /* \"#utility.yul\":14888:14896   */\n      0x00\n        /* \"#utility.yul\":14938:14943   */\n      dup3\n        /* \"#utility.yul\":14932:14936   */\n      dup3\n        /* \"#utility.yul\":14928:14944   */\n      shl\n        /* \"#utility.yul\":14907:14944   */\n      swap1\n      pop\n        /* \"#utility.yul\":14844:14951   */\n      swap3\n      swap2\n      pop\n      pop\n      jump\t// out\n        /* \"#utility.yul\":14957:15350   */\n    tag_224:\n        /* \"#utility.yul\":15026:15032   */\n      0x00\n        /* \"#utility.yul\":15076:15077   */\n      0x08\n        /* \"#utility.yul\":15064:15074   */\n      dup4\n        /* \"#utility.yul\":15060:15078   */\n      mul\n        /* \"#utility.yul\":15099:15196   */\n      tag_395\n        /* \"#utility.yul\":15129:15195   */\n      0xffffffffffffffffffffffffffffffffffffffffffffffffffffffffffffffff\n        /* \"#utility.yul\":15118:15127   */\n      dup3\n        /* \"#utility.yul\":15099:15196   */\n      tag_223\n      jump\t// in\n    tag_395:\n        /* \"#utility.yul\":15217:15256   */\n      tag_396\n        /* \"#utility.yul\":15247:15255   */\n      dup7\n        /* \"#utility.yul\":15236:15245   */\n      dup4\n        /* \"#utility.yul\":15217:15256   */\n      tag_223\n      jump\t// in\n    tag_396:\n        /* \"#utility.yul\":15205:15256   */\n      swap6\n      pop\n        /* \"#utility.yul\":15289:15293   */\n      dup1\n        /* \"#utility.yul\":15285:15294   */\n      not\n        /* \"#utility.yul\":15278:15283   */\n      dup5\n        /* \"#utility.yul\":15274:15295   */\n      and\n        /* \"#utility.yul\":15265:15295   */\n      swap4\n      pop\n        /* \"#utility.yul\":15338:15342   */\n      dup1\n        /* \"#utility.yul\":15328:15336   */\n      dup7\n        /* \"#utility.yul\":15324:15343   */\n      and\n        /* \"#utility.yul\":15317:15322   */\n      dup5\n        /* \"#utility.yul\":15314:15344   */\n      or\n        /* \"#utility.yul\":15304:15344   */\n      swap3\n      pop\n        /* \"#utility.yul\":15033:15350   */\n      pop\n      pop\n        /* \"#utility.yul\":14957:15350   */\n      swap4\n      swap3\n      pop\n      pop\n      pop\n      jump\t// out\n        /* \"#utility.yul\":15356:15416   */\n    tag_225:\n        /* \"#utility.yul\":15384:15387   */\n      0x00\n        /* \"#utility.yul\":15405:15410   */\n      dup2\n        /* \"#utility.yul\":15398:15410   */\n      swap1\n      pop\n        /* \"#utility.yul\":15356:15416   */\n      swap2\n      swap1\n      pop\n      jump\t// out\n        /* \"#utility.yul\":15422:15564   */\n    tag_226:\n        /* \"#utility.yul\":15472:15481   */\n      0x00\n        /* \"#utility.yul\":15505:15558   */\n      tag_399\n        /* \"#utility.yul\":15523:15557   */\n      tag_400\n        /* \"#utility.yul\":15532:15556   */\n      tag_401\n        /* \"#utility.yul\":15550:15555   */\n      dup5\n        /* \"#utility.yul\":15532:15556   */\n      tag_207\n      jump\t// in\n    tag_401:\n        /* \"#utility.yul\":15523:15557   */\n      tag_225\n      jump\t// in\n    tag_400:\n        /* \"#utility.yul\":15505:15558   */\n      tag_207\n      jump\t// in\n    tag_399:\n        /* \"#utility.yul\":15492:15558   */\n      swap1\n      pop\n        /* \"#utility.yul\":15422:15564   */\n      swap2\n      swap1\n      pop\n      jump\t// out\n        /* \"#utility.yul\":15570:15645   */\n    tag_227:\n        /* \"#utility.yul\":15613:15616   */\n      0x00\n        /* \"#utility.yul\":15634:15639   */\n      dup2\n        /* \"#utility.yul\":15627:15639   */\n      swap1\n      pop\n        /* \"#utility.yul\":15570:15645   */\n      swap2\n      swap1\n      pop\n      jump\t// out\n        /* \"#utility.yul\":15651:15920   */\n    tag_228:\n        /* \"#utility.yul\":15761:15800   */\n      tag_404\n        /* \"#utility.yul\":15792:15799   */\n      dup4\n        /* \"#utility.yul\":15761:15800   */\n      tag_226\n      jump\t// in\n    tag_404:\n        /* \"#utility.yul\":15822:15913   */\n      tag_405\n        /* \"#utility.yul\":15871:15912   */\n      tag_406\n        /* \"#utility.yul\":15895:15911   */\n      dup3\n        /* \"#utility.yul\":15871:15912   */\n      tag_227\n      jump\t// in\n    tag_406:\n        /* \"#utility.yul\":15863:15869   */\n      dup5\n        /* \"#utility.yul\":15856:15860   */\n      dup5\n        /* \"#utility.yul\":15850:15861   */\n      sload\n        /* \"#utility.yul\":15822:15913   */\n      tag_224\n      jump\t// in\n    tag_405:\n        /* \"#utility.yul\":15816:15820   */\n      dup3\n        /* \"#utility.yul\":15809:15914   */\n      sstore\n        /* \"#utility.yul\":15727:15920   */\n      pop\n        /* \"#utility.yul\":15651:15920   */\n      pop\n      pop\n      pop\n      jump\t// out\n        /* \"#utility.yul\":15926:15999   */\n    tag_229:\n        /* \"#utility.yul\":15971:15974   */\n      0x00\n        /* \"#utility.yul\":15926:15999   */\n      swap1\n      jump\t// out\n        /* \"#utility.yul\":16005:16194   */\n    tag_230:\n        /* \"#utility.yul\":16082:16114   */\n      tag_409\n      tag_229\n      jump\t// in\n    tag_409:\n        /* \"#utility.yul\":16123:16188   */\n      tag_410\n        /* \"#utility.yul\":16181:16187   */\n      dup2\n        /* \"#utility.yul\":16173:16179   */\n      dup5\n        /* \"#utility.yul\":16167:16171   */\n      dup5\n        /* \"#utility.yul\":16123:16188   */\n      tag_228\n      jump\t// in\n    tag_410:\n        /* \"#utility.yul\":16058:16194   */\n      pop\n        /* \"#utility.yul\":16005:16194   */\n      pop\n      pop\n      jump\t// out\n        /* \"#utility.yul\":16200:16386   */\n    tag_231:\n        /* \"#utility.yul\":16260:16380   */\n    tag_412:\n        /* \"#utility.yul\":16277:16280   */\n      dup2\n        /* \"#utility.yul\":16270:16275   */\n      dup2\n        /* \"#utility.yul\":16267:16281   */\n      lt\n        /* \"#utility.yul\":16260:16380   */\n      iszero\n      tag_414\n      jumpi\n        /* \"#utility.yul\":16331:16370   */\n      tag_415\n        /* \"#utility.yul\":16368:16369   */\n      0x00\n        /* \"#utility.yul\":16361:16366   */\n      dup3\n        /* \"#utility.yul\":16331:16370   */\n      tag_230\n      jump\t// in\n    tag_415:\n        /* \"#utility.yul\":16304:16305   */\n      0x01\n        /* \"#utility.yul\":16297:16302   */\n      dup2\n        /* \"#utility.yul\":16293:16306   */\n      add\n        /* \"#utility.yul\":16284:16306   */\n      swap1\n      pop\n        /* \"#utility.yul\":16260:16380   */\n      jump(tag_412)\n    tag_414:\n        /* \"#utility.yul\":16200:16386   */\n      pop\n      pop\n      jump\t// out\n        /* \"#utility.yul\":16392:16935   */\n    tag_232:\n        /* \"#utility.yul\":16493:16495   */\n      0x1f\n        /* \"#utility.yul\":16488:16491   */\n      dup3\n        /* \"#utility.yul\":16485:16496   */\n      gt\n        /* \"#utility.yul\":16482:16928   */\n      iszero\n      tag_417\n      jumpi\n        /* \"#utility.yul\":16527:16565   */\n      tag_418\n        /* \"#utility.yul\":16559:16564   */\n      dup2\n        /* \"#utility.yul\":16527:16565   */\n      tag_216\n      jump\t// in\n    tag_418:\n        /* \"#utility.yul\":16611:16640   */\n      tag_419\n        /* \"#utility.yul\":16629:16639   */\n      dup5\n        /* \"#utility.yul\":16611:16640   */\n      tag_222\n      jump\t// in\n    tag_419:\n        /* \"#utility.yul\":16601:16609   */\n      dup2\n        /* \"#utility.yul\":16597:16641   */\n      add\n        /* \"#utility.yul\":16794:16796   */\n      0x20\n        /* \"#utility.yul\":16782:16792   */\n      dup6\n        /* \"#utility.yul\":16779:16797   */\n      lt\n        /* \"#utility.yul\":16776:16825   */\n      iszero\n      tag_420\n      jumpi\n        /* \"#utility.yul\":16815:16823   */\n      dup2\n        /* \"#utility.yul\":16800:16823   */\n      swap1\n      pop\n        /* \"#utility.yul\":16776:16825   */\n    tag_420:\n        /* \"#utility.yul\":16838:16918   */\n      tag_421\n        /* \"#utility.yul\":16894:16916   */\n      tag_422\n        /* \"#utility.yul\":16912:16915   */\n      dup6\n        /* \"#utility.yul\":16894:16916   */\n      tag_222\n      jump\t// in\n    tag_422:\n        /* \"#utility.yul\":16884:16892   */\n      dup4\n        /* \"#utility.yul\":16880:16917   */\n      add\n        /* \"#utility.yul\":16867:16878   */\n      dup3\n        /* \"#utility.yul\":16838:16918   */\n      tag_231\n      jump\t// in\n    tag_421:\n        /* \"#utility.yul\":16497:16928   */\n      pop\n      pop\n        /* \"#utility.yul\":16482:16928   */\n    tag_417:\n        /* \"#utility.yul\":16392:16935   */\n      pop\n      pop\n      pop\n      jump\t// out\n        /* \"#utility.yul\":16941:17058   */\n    tag_233:\n        /* \"#utility.yul\":16995:17003   */\n      0x00\n        /* \"#utility.yul\":17045:17050   */\n      dup3\n        /* \"#utility.yul\":17039:17043   */\n      dup3\n        /* \"#utility.yul\":17035:17051   */\n      shr\n        /* \"#utility.yul\":17014:17051   */\n      swap1\n      pop\n        /* \"#utility.yul\":16941:17058   */\n      swap3\n      swap2\n      pop\n      pop\n      jump\t// out\n        /* \"#utility.yul\":17064:17233   */\n    tag_234:\n        /* \"#utility.yul\":17108:17114   */\n      0x00\n        /* \"#utility.yul\":17141:17192   */\n      tag_425\n        /* \"#utility.yul\":17189:17190   */\n      0x00\n        /* \"#utility.yul\":17185:17191   */\n      not\n        /* \"#utility.yul\":17177:17182   */\n      dup5\n        /* \"#utility.yul\":17174:17175   */\n      0x08\n        /* \"#utility.yul\":17170:17183   */\n      mul\n        /* \"#utility.yul\":17141:17192   */\n      tag_233\n      jump\t// in\n    tag_425:\n        /* \"#utility.yul\":17137:17193   */\n      not\n        /* \"#utility.yul\":17222:17226   */\n      dup1\n        /* \"#utility.yul\":17216:17220   */\n      dup4\n        /* \"#utility.yul\":17212:17227   */\n      and\n        /* \"#utility.yul\":17202:17227   */\n      swap2\n      pop\n        /* \"#utility.yul\":17115:17233   */\n      pop\n        /* \"#utility.yul\":17064:17233   */\n      swap3\n      swap2\n      pop\n      pop\n      jump\t// out\n        /* \"#utility.yul\":17238:17533   */\n    tag_235:\n        /* \"#utility.yul\":17314:17318   */\n      0x00\n        /* \"#utility.yul\":17460:17489   */\n      tag_427\n        /* \"#utility.yul\":17485:17488   */\n      dup4\n        /* \"#utility.yul\":17479:17483   */\n      dup4\n        /* \"#utility.yul\":17460:17489   */\n      tag_234\n      jump\t// in\n    tag_427:\n        /* \"#utility.yul\":17452:17489   */\n      swap2\n      pop\n        /* \"#utility.yul\":17522:17525   */\n      dup3\n        /* \"#utility.yul\":17519:17520   */\n      0x02\n        /* \"#utility.yul\":17515:17526   */\n      mul\n        /* \"#utility.yul\":17509:17513   */\n      dup3\n        /* \"#utility.yul\":17506:17527   */\n      or\n        /* \"#utility.yul\":17498:17527   */\n      swap1\n      pop\n        /* \"#utility.yul\":17238:17533   */\n      swap3\n      swap2\n      pop\n      pop\n      jump\t// out\n        /* \"#utility.yul\":17538:18933   */\n    tag_97:\n        /* \"#utility.yul\":17655:17692   */\n      tag_429\n        /* \"#utility.yul\":17688:17691   */\n      dup3\n        /* \"#utility.yul\":17655:17692   */\n      tag_203\n      jump\t// in\n    tag_429:\n        /* \"#utility.yul\":17757:17775   */\n      0xffffffffffffffff\n        /* \"#utility.yul\":17749:17755   */\n      dup2\n        /* \"#utility.yul\":17746:17776   */\n      gt\n        /* \"#utility.yul\":17743:17799   */\n      iszero\n      tag_430\n      jumpi\n        /* \"#utility.yul\":17779:17797   */\n      tag_431\n      tag_196\n      jump\t// in\n    tag_431:\n        /* \"#utility.yul\":17743:17799   */\n    tag_430:\n        /* \"#utility.yul\":17823:17861   */\n      tag_432\n        /* \"#utility.yul\":17855:17859   */\n      dup3\n        /* \"#utility.yul\":17849:17860   */\n      sload\n        /* \"#utility.yul\":17823:17861   */\n      tag_127\n      jump\t// in\n    tag_432:\n        /* \"#utility.yul\":17908:17975   */\n      tag_433\n        /* \"#utility.yul\":17968:17974   */\n      dup3\n        /* \"#utility.yul\":17960:17966   */\n      dup3\n        /* \"#utility.yul\":17954:17958   */\n      dup6\n        /* \"#utility.yul\":17908:17975   */\n      tag_232\n      jump\t// in\n    tag_433:\n        /* \"#utility.yul\":18002:18003   */\n      0x00\n        /* \"#utility.yul\":18026:18030   */\n      0x20\n        /* \"#utility.yul\":18013:18030   */\n      swap1\n      pop\n        /* \"#utility.yul\":18058:18060   */\n      0x1f\n        /* \"#utility.yul\":18050:18056   */\n      dup4\n        /* \"#utility.yul\":18047:18061   */\n      gt\n        /* \"#utility.yul\":18075:18076   */\n      0x01\n        /* \"#utility.yul\":18070:18688   */\n      dup2\n      eq\n      tag_435\n      jumpi\n        /* \"#utility.yul\":18732:18733   */\n      0x00\n        /* \"#utility.yul\":18749:18755   */\n      dup5\n        /* \"#utility.yul\":18746:18823   */\n      iszero\n      tag_436\n      jumpi\n        /* \"#utility.yul\":18798:18807   */\n      dup3\n        /* \"#utility.yul\":18793:18796   */\n      dup8\n        /* \"#utility.yul\":18789:18808   */\n      add\n        /* \"#utility.yul\":18783:18809   */\n      mload\n        /* \"#utility.yul\":18774:18809   */\n      swap1\n      pop\n        /* \"#utility.yul\":18746:18823   */\n    tag_436:\n        /* \"#utility.yul\":18849:18916   */\n      tag_437\n        /* \"#utility.yul\":18909:18915   */\n      dup6\n        /* \"#utility.yul\":18902:18907   */\n      dup3\n        /* \"#utility.yul\":18849:18916   */\n      tag_235\n      jump\t// in\n    tag_437:\n        /* \"#utility.yul\":18843:18847   */\n      dup7\n        /* \"#utility.yul\":18836:18917   */\n      sstore\n        /* \"#utility.yul\":18705:18927   */\n      pop\n        /* \"#utility.yul\":18040:18927   */\n      jump(tag_434)\n        /* \"#utility.yul\":18070:18688   */\n    tag_435:\n        /* \"#utility.yul\":18122:18126   */\n      0x1f\n        /* \"#utility.yul\":18118:18127   */\n      not\n        /* \"#utility.yul\":18110:18116   */\n      dup5\n        /* \"#utility.yul\":18106:18128   */\n      and\n        /* \"#utility.yul\":18156:18193   */\n      tag_438\n        /* \"#utility.yul\":18188:18192   */\n      dup7\n        /* \"#utility.yul\":18156:18193   */\n      tag_216\n      jump\t// in\n    tag_438:\n        /* \"#utility.yul\":18215:18216   */\n      0x00\n        /* \"#utility.yul\":18229:18437   */\n    tag_439:\n        /* \"#utility.yul\":18243:18250   */\n      dup3\n        /* \"#utility.yul\":18240:18241   */\n      dup2\n        /* \"#utility.yul\":18237:18251   */\n      lt\n        /* \"#utility.yul\":18229:18437   */\n      iszero\n      tag_441\n      jumpi\n        /* \"#utility.yul\":18322:18331   */\n      dup5\n        /* \"#utility.yul\":18317:18320   */\n      dup10\n        /* \"#utility.yul\":18313:18332   */\n      add\n        /* \"#utility.yul\":18307:18333   */\n      mload\n        /* \"#utility.yul\":18299:18305   */\n      dup3\n        /* \"#utility.yul\":18292:18334   */\n      sstore\n        /* \"#utility.yul\":18373:18374   */\n      0x01\n        /* \"#utility.yul\":18365:18371   */\n      dup3\n        /* \"#utility.yul\":18361:18375   */\n      add\n        /* \"#utility.yul\":18351:18375   */\n      swap2\n      pop\n        /* \"#utility.yul\":18420:18422   */\n      0x20\n        /* \"#utility.yul\":18409:18418   */\n      dup6\n        /* \"#utility.yul\":18405:18423   */\n      add\n        /* \"#utility.yul\":18392:18423   */\n      swap5\n      pop\n        /* \"#utility.yul\":18266:18270   */\n      0x20\n        /* \"#utility.yul\":18263:18264   */\n      dup2\n        /* \"#utility.yul\":18259:18271   */\n      add\n        /* \"#utility.yul\":18254:18271   */\n      swap1\n      pop\n        /* \"#utility.yul\":18229:18437   */\n      jump(tag_439)\n    tag_441:\n        /* \"#utility.yul\":18465:18471   */\n      dup7\n        /* \"#utility.yul\":18456:18463   */\n      dup4\n        /* \"#utility.yul\":18453:18472   */\n      lt\n        /* \"#utility.yul\":18450:18629   */\n      iszero\n      tag_442\n      jumpi\n        /* \"#utility.yul\":18523:18532   */\n      dup5\n        /* \"#utility.yul\":18518:18521   */\n      dup10\n        /* \"#utility.yul\":18514:18533   */\n      add\n        /* \"#utility.yul\":18508:18534   */\n      mload\n        /* \"#utility.yul\":18566:18614   */\n      tag_443\n        /* \"#utility.yul\":18608:18612   */\n      0x1f\n        /* \"#utility.yul\":18600:18606   */\n      dup10\n        /* \"#utility.yul\":18596:18613   */\n      and\n        /* \"#utility.yul\":18585:18594   */\n      dup3\n        /* \"#utility.yul\":18566:18614   */\n      tag_234\n      jump\t// in\n    tag_443:\n        /* \"#utility.yul\":18558:18564   */\n      dup4\n        /* \"#utility.yul\":18551:18615   */\n      sstore\n        /* \"#utility.yul\":18473:18629   */\n      pop\n        /* \"#utility.yul\":18450:18629   */\n    tag_442:\n        /* \"#utility.yul\":18675:18676   */\n      0x01\n        /* \"#utility.yul\":18671:18672   */\n      0x02\n        /* \"#utility.yul\":18663:18669   */\n      dup9\n        /* \"#utility.yul\":18659:18673   */\n      mul\n        /* \"#utility.yul\":18655:18677   */\n      add\n        /* \"#utility.yul\":18649:18653   */\n      dup9\n        /* \"#utility.yul\":18642:18678   */\n      sstore\n        /* \"#utility.yul\":18077:18688   */\n      pop\n      pop\n      pop\n        /* \"#utility.yul\":18040:18927   */\n    tag_434:\n      pop\n        /* \"#utility.yul\":17630:18933   */\n      pop\n      pop\n      pop\n        /* \"#utility.yul\":17538:18933   */\n      pop\n      pop\n      jump\t// out\n        /* \"#utility.yul\":18939:19118   */\n    tag_236:\n        /* \"#utility.yul\":19079:19110   */\n      0x68652f736865206973206e6f7420796f757220626c6f636b206c697374000000\n        /* \"#utility.yul\":19075:19076   */\n      0x00\n        /* \"#utility.yul\":19067:19073   */\n      dup3\n        /* \"#utility.yul\":19063:19077   */\n      add\n        /* \"#utility.yul\":19056:19111   */\n      mstore\n        /* \"#utility.yul\":18939:19118   */\n      pop\n      jump\t// out\n        /* \"#utility.yul\":19124:19490   */\n    tag_237:\n        /* \"#utility.yul\":19266:19269   */\n      0x00\n        /* \"#utility.yul\":19287:19354   */\n      tag_446\n        /* \"#utility.yul\":19351:19353   */\n      0x1d\n        /* \"#utility.yul\":19346:19349   */\n      dup4\n        /* \"#utility.yul\":19287:19354   */\n      tag_204\n      jump\t// in\n    tag_446:\n        /* \"#utility.yul\":19280:19354   */\n      swap2\n      pop\n        /* \"#utility.yul\":19363:19456   */\n      tag_447\n        /* \"#utility.yul\":19452:19455   */\n      dup3\n        /* \"#utility.yul\":19363:19456   */\n      tag_236\n      jump\t// in\n    tag_447:\n        /* \"#utility.yul\":19481:19483   */\n      0x20\n        /* \"#utility.yul\":19476:19479   */\n      dup3\n        /* \"#utility.yul\":19472:19484   */\n      add\n        /* \"#utility.yul\":19465:19484   */\n      swap1\n      pop\n        /* \"#utility.yul\":19124:19490   */\n      swap2\n      swap1\n      pop\n      jump\t// out\n        /* \"#utility.yul\":19496:19915   */\n    tag_102:\n        /* \"#utility.yul\":19662:19666   */\n      0x00\n        /* \"#utility.yul\":19700:19702   */\n      0x20\n        /* \"#utility.yul\":19689:19698   */\n      dup3\n        /* \"#utility.yul\":19685:19703   */\n      add\n        /* \"#utility.yul\":19677:19703   */\n      swap1\n      pop\n        /* \"#utility.yul\":19749:19758   */\n      dup2\n        /* \"#utility.yul\":19743:19747   */\n      dup2\n        /* \"#utility.yul\":19739:19759   */\n      sub\n        /* \"#utility.yul\":19735:19736   */\n      0x00\n        /* \"#utility.yul\":19724:19733   */\n      dup4\n        /* \"#utility.yul\":19720:19737   */\n      add\n        /* \"#utility.yul\":19713:19760   */\n      mstore\n        /* \"#utility.yul\":19777:19908   */\n      tag_449\n        /* \"#utility.yul\":19903:19907   */\n      dup2\n        /* \"#utility.yul\":19777:19908   */\n      tag_237\n      jump\t// in\n    tag_449:\n        /* \"#utility.yul\":19769:19908   */\n      swap1\n      pop\n        /* \"#utility.yul\":19496:19915   */\n      swap2\n      swap1\n      pop\n      jump\t// out\n        /* \"#utility.yul\":19921:20101   */\n    tag_108:\n        /* \"#utility.yul\":19969:20046   */\n      0x4e487b7100000000000000000000000000000000000000000000000000000000\n        /* \"#utility.yul\":19966:19967   */\n      0x00\n        /* \"#utility.yul\":19959:20047   */\n      mstore\n        /* \"#utility.yul\":20066:20070   */\n      0x32\n        /* \"#utility.yul\":20063:20064   */\n      0x04\n        /* \"#utility.yul\":20056:20071   */\n      mstore\n        /* \"#utility.yul\":20090:20094   */\n      0x24\n        /* \"#utility.yul\":20087:20088   */\n      0x00\n        /* \"#utility.yul\":20080:20095   */\n      revert\n        /* \"#utility.yul\":20107:20287   */\n    tag_238:\n        /* \"#utility.yul\":20155:20232   */\n      0x4e487b7100000000000000000000000000000000000000000000000000000000\n        /* \"#utility.yul\":20152:20153   */\n      0x00\n        /* \"#utility.yul\":20145:20233   */\n      mstore\n        /* \"#utility.yul\":20252:20256   */\n      0x11\n        /* \"#utility.yul\":20249:20250   */\n      0x04\n        /* \"#utility.yul\":20242:20257   */\n      mstore\n        /* \"#utility.yul\":20276:20280   */\n      0x24\n        /* \"#utility.yul\":20273:20274   */\n      0x00\n        /* \"#utility.yul\":20266:20281   */\n      revert\n        /* \"#utility.yul\":20293:20487   */\n    tag_112:\n        /* \"#utility.yul\":20333:20337   */\n      0x00\n        /* \"#utility.yul\":20353:20373   */\n      tag_453\n        /* \"#utility.yul\":20371:20372   */\n      dup3\n        /* \"#utility.yul\":20353:20373   */\n      tag_207\n      jump\t// in\n    tag_453:\n        /* \"#utility.yul\":20348:20373   */\n      swap2\n      pop\n        /* \"#utility.yul\":20387:20407   */\n      tag_454\n        /* \"#utility.yul\":20405:20406   */\n      dup4\n        /* \"#utility.yul\":20387:20407   */\n      tag_207\n      jump\t// in\n    tag_454:\n        /* \"#utility.yul\":20382:20407   */\n      swap3\n      pop\n        /* \"#utility.yul\":20431:20432   */\n      dup3\n        /* \"#utility.yul\":20428:20429   */\n      dup3\n        /* \"#utility.yul\":20424:20433   */\n      sub\n        /* \"#utility.yul\":20416:20433   */\n      swap1\n      pop\n        /* \"#utility.yul\":20455:20456   */\n      dup2\n        /* \"#utility.yul\":20449:20453   */\n      dup2\n        /* \"#utility.yul\":20446:20457   */\n      gt\n        /* \"#utility.yul\":20443:20480   */\n      iszero\n      tag_455\n      jumpi\n        /* \"#utility.yul\":20460:20478   */\n      tag_456\n      tag_238\n      jump\t// in\n    tag_456:\n        /* \"#utility.yul\":20443:20480   */\n    tag_455:\n        /* \"#utility.yul\":20293:20487   */\n      swap3\n      swap2\n      pop\n      pop\n      jump\t// out\n        /* \"#utility.yul\":20493:20673   */\n    tag_121:\n        /* \"#utility.yul\":20541:20618   */\n      0x4e487b7100000000000000000000000000000000000000000000000000000000\n        /* \"#utility.yul\":20538:20539   */\n      0x00\n        /* \"#utility.yul\":20531:20619   */\n      mstore\n        /* \"#utility.yul\":20638:20642   */\n      0x31\n        /* \"#utility.yul\":20635:20636   */\n      0x04\n        /* \"#utility.yul\":20628:20643   */\n      mstore\n        /* \"#utility.yul\":20662:20666   */\n      0x24\n        /* \"#utility.yul\":20659:20660   */\n      0x00\n        /* \"#utility.yul\":20652:20667   */\n      revert\n        /* \"#utility.yul\":20679:20912   */\n    tag_124:\n        /* \"#utility.yul\":20718:20721   */\n      0x00\n        /* \"#utility.yul\":20741:20765   */\n      tag_459\n        /* \"#utility.yul\":20759:20764   */\n      dup3\n        /* \"#utility.yul\":20741:20765   */\n      tag_207\n      jump\t// in\n    tag_459:\n        /* \"#utility.yul\":20732:20765   */\n      swap2\n      pop\n        /* \"#utility.yul\":20787:20853   */\n      0xffffffffffffffffffffffffffffffffffffffffffffffffffffffffffffffff\n        /* \"#utility.yul\":20780:20785   */\n      dup3\n        /* \"#utility.yul\":20777:20854   */\n      sub\n        /* \"#utility.yul\":20774:20877   */\n      tag_460\n      jumpi\n        /* \"#utility.yul\":20857:20875   */\n      tag_461\n      tag_238\n      jump\t// in\n    tag_461:\n        /* \"#utility.yul\":20774:20877   */\n    tag_460:\n        /* \"#utility.yul\":20904:20905   */\n      0x01\n        /* \"#utility.yul\":20897:20902   */\n      dup3\n        /* \"#utility.yul\":20893:20906   */\n      add\n        /* \"#utility.yul\":20886:20906   */\n      swap1\n      pop\n        /* \"#utility.yul\":20679:20912   */\n      swap2\n      swap1\n      pop\n      jump\t// out\n        /* \"#utility.yul\":20918:21093   */\n    tag_239:\n        /* \"#utility.yul\":21058:21085   */\n      0x68652f736865206973206e6f7420796f757220667269656e6400000000000000\n        /* \"#utility.yul\":21054:21055   */\n      0x00\n        /* \"#utility.yul\":21046:21052   */\n      dup3\n        /* \"#utility.yul\":21042:21056   */\n      add\n        /* \"#utility.yul\":21035:21086   */\n      mstore\n        /* \"#utility.yul\":20918:21093   */\n      pop\n      jump\t// out\n        /* \"#utility.yul\":21099:21465   */\n    tag_240:\n        /* \"#utility.yul\":21241:21244   */\n      0x00\n        /* \"#utility.yul\":21262:21329   */\n      tag_464\n        /* \"#utility.yul\":21326:21328   */\n      0x19\n        /* \"#utility.yul\":21321:21324   */\n      dup4\n        /* \"#utility.yul\":21262:21329   */\n      tag_204\n      jump\t// in\n    tag_464:\n        /* \"#utility.yul\":21255:21329   */\n      swap2\n      pop\n        /* \"#utility.yul\":21338:21431   */\n      tag_465\n        /* \"#utility.yul\":21427:21430   */\n      dup3\n        /* \"#utility.yul\":21338:21431   */\n      tag_239\n      jump\t// in\n    tag_465:\n        /* \"#utility.yul\":21456:21458   */\n      0x20\n        /* \"#utility.yul\":21451:21454   */\n      dup3\n        /* \"#utility.yul\":21447:21459   */\n      add\n        /* \"#utility.yul\":21440:21459   */\n      swap1\n      pop\n        /* \"#utility.yul\":21099:21465   */\n      swap2\n      swap1\n      pop\n      jump\t// out\n        /* \"#utility.yul\":21471:21890   */\n    tag_138:\n        /* \"#utility.yul\":21637:21641   */\n      0x00\n        /* \"#utility.yul\":21675:21677   */\n      0x20\n        /* \"#utility.yul\":21664:21673   */\n      dup3\n        /* \"#utility.yul\":21660:21678   */\n      add\n        /* \"#utility.yul\":21652:21678   */\n      swap1\n      pop\n        /* \"#utility.yul\":21724:21733   */\n      dup2\n        /* \"#utility.yul\":21718:21722   */\n      dup2\n        /* \"#utility.yul\":21714:21734   */\n      sub\n        /* \"#utility.yul\":21710:21711   */\n      0x00\n        /* \"#utility.yul\":21699:21708   */\n      dup4\n        /* \"#utility.yul\":21695:21712   */\n      add\n        /* \"#utility.yul\":21688:21735   */\n      mstore\n        /* \"#utility.yul\":21752:21883   */\n      tag_467\n        /* \"#utility.yul\":21878:21882   */\n      dup2\n        /* \"#utility.yul\":21752:21883   */\n      tag_240\n      jump\t// in\n    tag_467:\n        /* \"#utility.yul\":21744:21883   */\n      swap1\n      pop\n        /* \"#utility.yul\":21471:21890   */\n      swap2\n      swap1\n      pop\n      jump\t// out\n        /* \"#utility.yul\":21896:22072   */\n    tag_241:\n        /* \"#utility.yul\":22036:22064   */\n      0x796f752063616e206e6f7420626c6f636b20796f757273656c66000000000000\n        /* \"#utility.yul\":22032:22033   */\n      0x00\n        /* \"#utility.yul\":22024:22030   */\n      dup3\n        /* \"#utility.yul\":22020:22034   */\n      add\n        /* \"#utility.yul\":22013:22065   */\n      mstore\n        /* \"#utility.yul\":21896:22072   */\n      pop\n      jump\t// out\n        /* \"#utility.yul\":22078:22444   */\n    tag_242:\n        /* \"#utility.yul\":22220:22223   */\n      0x00\n        /* \"#utility.yul\":22241:22308   */\n      tag_470\n        /* \"#utility.yul\":22305:22307   */\n      0x1a\n        /* \"#utility.yul\":22300:22303   */\n      dup4\n        /* \"#utility.yul\":22241:22308   */\n      tag_204\n      jump\t// in\n    tag_470:\n        /* \"#utility.yul\":22234:22308   */\n      swap2\n      pop\n        /* \"#utility.yul\":22317:22410   */\n      tag_471\n        /* \"#utility.yul\":22406:22409   */\n      dup3\n        /* \"#utility.yul\":22317:22410   */\n      tag_241\n      jump\t// in\n    tag_471:\n        /* \"#utility.yul\":22435:22437   */\n      0x20\n        /* \"#utility.yul\":22430:22433   */\n      dup3\n        /* \"#utility.yul\":22426:22438   */\n      add\n        /* \"#utility.yul\":22419:22438   */\n      swap1\n      pop\n        /* \"#utility.yul\":22078:22444   */\n      swap2\n      swap1\n      pop\n      jump\t// out\n        /* \"#utility.yul\":22450:22869   */\n    tag_167:\n        /* \"#utility.yul\":22616:22620   */\n      0x00\n        /* \"#utility.yul\":22654:22656   */\n      0x20\n        /* \"#utility.yul\":22643:22652   */\n      dup3\n        /* \"#utility.yul\":22639:22657   */\n      add\n        /* \"#utility.yul\":22631:22657   */\n      swap1\n      pop\n        /* \"#utility.yul\":22703:22712   */\n      dup2\n        /* \"#utility.yul\":22697:22701   */\n      dup2\n        /* \"#utility.yul\":22693:22713   */\n      sub\n        /* \"#utility.yul\":22689:22690   */\n      0x00\n        /* \"#utility.yul\":22678:22687   */\n      dup4\n        /* \"#utility.yul\":22674:22691   */\n      add\n        /* \"#utility.yul\":22667:22714   */\n      mstore\n        /* \"#utility.yul\":22731:22862   */\n      tag_473\n        /* \"#utility.yul\":22857:22861   */\n      dup2\n        /* \"#utility.yul\":22731:22862   */\n      tag_242\n      jump\t// in\n    tag_473:\n        /* \"#utility.yul\":22723:22862   */\n      swap1\n      pop\n        /* \"#utility.yul\":22450:22869   */\n      swap2\n      swap1\n      pop\n      jump\t// out\n        /* \"#utility.yul\":22875:23102   */\n    tag_243:\n        /* \"#utility.yul\":23015:23049   */\n      0x796f752063616e206e6f7420626c6f636b206120757365722074686174206e6f\n        /* \"#utility.yul\":23011:23012   */\n      0x00\n        /* \"#utility.yul\":23003:23009   */\n      dup3\n        /* \"#utility.yul\":22999:23013   */\n      add\n        /* \"#utility.yul\":22992:23050   */\n      mstore\n        /* \"#utility.yul\":23084:23094   */\n      0x7420657869737473000000000000000000000000000000000000000000000000\n        /* \"#utility.yul\":23079:23081   */\n      0x20\n        /* \"#utility.yul\":23071:23077   */\n      dup3\n        /* \"#utility.yul\":23067:23082   */\n      add\n        /* \"#utility.yul\":23060:23095   */\n      mstore\n        /* \"#utility.yul\":22875:23102   */\n      pop\n      jump\t// out\n        /* \"#utility.yul\":23108:23474   */\n    tag_244:\n        /* \"#utility.yul\":23250:23253   */\n      0x00\n        /* \"#utility.yul\":23271:23338   */\n      tag_476\n        /* \"#utility.yul\":23335:23337   */\n      0x28\n        /* \"#utility.yul\":23330:23333   */\n      dup4\n        /* \"#utility.yul\":23271:23338   */\n      tag_204\n      jump\t// in\n    tag_476:\n        /* \"#utility.yul\":23264:23338   */\n      swap2\n      pop\n        /* \"#utility.yul\":23347:23440   */\n      tag_477\n        /* \"#utility.yul\":23436:23439   */\n      dup3\n        /* \"#utility.yul\":23347:23440   */\n      tag_243\n      jump\t// in\n    tag_477:\n        /* \"#utility.yul\":23465:23467   */\n      0x40\n        /* \"#utility.yul\":23460:23463   */\n      dup3\n        /* \"#utility.yul\":23456:23468   */\n      add\n        /* \"#utility.yul\":23449:23468   */\n      swap1\n      pop\n        /* \"#utility.yul\":23108:23474   */\n      swap2\n      swap1\n      pop\n      jump\t// out\n        /* \"#utility.yul\":23480:23899   */\n    tag_171:\n        /* \"#utility.yul\":23646:23650   */\n      0x00\n        /* \"#utility.yul\":23684:23686   */\n      0x20\n        /* \"#utility.yul\":23673:23682   */\n      dup3\n        /* \"#utility.yul\":23669:23687   */\n      add\n        /* \"#utility.yul\":23661:23687   */\n      swap1\n      pop\n        /* \"#utility.yul\":23733:23742   */\n      dup2\n        /* \"#utility.yul\":23727:23731   */\n      dup2\n        /* \"#utility.yul\":23723:23743   */\n      sub\n        /* \"#utility.yul\":23719:23720   */\n      0x00\n        /* \"#utility.yul\":23708:23717   */\n      dup4\n        /* \"#utility.yul\":23704:23721   */\n      add\n        /* \"#utility.yul\":23697:23744   */\n      mstore\n        /* \"#utility.yul\":23761:23892   */\n      tag_479\n        /* \"#utility.yul\":23887:23891   */\n      dup2\n        /* \"#utility.yul\":23761:23892   */\n      tag_244\n      jump\t// in\n    tag_479:\n        /* \"#utility.yul\":23753:23892   */\n      swap1\n      pop\n        /* \"#utility.yul\":23480:23899   */\n      swap2\n      swap1\n      pop\n      jump\t// out\n\n    auxdata: 0xa26469706673582212207502a52b6945a0b07ec637453ccde30699dfcc356b433ade2ca9b9fb78f24f5764736f6c63430008140033\n}\n",
				"bytecode": {
					"linkReferences": {},
					"object": "6080604052604051602001620000159062000071565b604051602081830303815290604052805190602001205f5534801562000039575f80fd5b5062000087565b5f81905092915050565b50565b5f6200005a5f8362000040565b915062000067826200004a565b5f82019050919050565b5f6200007d826200004d565b9150819050919050565b6125d980620000955f395ff3fe608060405234801561000f575f80fd5b50600436106100cd575f3560e01c80638cdae20a1161008a578063e1384a7211610064578063e1384a721461025d578063e17fa73b1461028e578063e905af6c146102bf578063f9a0982d146102ef576100cd565b80638cdae20a146101cd578063a5a600a6146101fd578063e05a492d1461022d576100cd565b806313962258146100d15780633dcfd4091461010157806340b2d3af1461011f5780636c1a27281461014f5780637aafb9f21461017f5780638be03f57146101af575b5f80fd5b6100eb60048036038101906100e69190611990565b61031f565b6040516100f891906119d5565b60405180910390f35b610109610774565b6040516101169190611aa5565b60405180910390f35b61013960048036038101906101349190611c01565b61083a565b60405161014691906119d5565b60405180910390f35b61016960048036038101906101649190611990565b6108dd565b60405161017691906119d5565b60405180910390f35b61019960048036038101906101949190611990565b610d8c565b6040516101a69190611cc2565b60405180910390f35b6101b7610e59565b6040516101c49190611aa5565b60405180910390f35b6101e760048036038101906101e29190611990565b610f1f565b6040516101f491906119d5565b60405180910390f35b61021760048036038101906102129190611990565b6113ce565b6040516102249190611cc2565b60405180910390f35b61024760048036038101906102429190611d15565b611469565b6040516102549190611d62565b60405180910390f35b61027760048036038101906102729190611d7b565b6114b1565b604051610285929190611dc8565b60405180910390f35b6102a860048036038101906102a39190611d7b565b6114fb565b6040516102b6929190611dc8565b60405180910390f35b6102d960048036038101906102d49190611990565b611545565b6040516102e691906119d5565b60405180910390f35b61030960048036038101906103049190611d15565b6118dd565b6040516103169190611d62565b60405180910390f35b5f3373ffffffffffffffffffffffffffffffffffffffff168273ffffffffffffffffffffffffffffffffffffffff160361038e576040517f08c379a000000000000000000000000000000000000000000000000000000000815260040161038590611e5f565b60405180910390fd5b5f5460015f8473ffffffffffffffffffffffffffffffffffffffff1673ffffffffffffffffffffffffffffffffffffffff1681526020019081526020015f206040516020016103dd9190611f76565b6040516020818303038152906040528051906020012003610433576040517f08c379a000000000000000000000000000000000000000000000000000000000815260040161042a90611ffc565b60405180910390fd5b5f60025f3373ffffffffffffffffffffffffffffffffffffffff1673ffffffffffffffffffffffffffffffffffffffff1681526020019081526020015f205f8473ffffffffffffffffffffffffffffffffffffffff1673ffffffffffffffffffffffffffffffffffffffff1681526020019081526020015f2060010154146104f0576040517f08c379a00000000000000000000000000000000000000000000000000000000081526004016104e790612064565b60405180910390fd5b5f60045f3373ffffffffffffffffffffffffffffffffffffffff1673ffffffffffffffffffffffffffffffffffffffff1681526020019081526020015f205f8473ffffffffffffffffffffffffffffffffffffffff1673ffffffffffffffffffffffffffffffffffffffff1681526020019081526020015f20600101541461057d5761057b826108dd565b505b5f60405180604001604052808473ffffffffffffffffffffffffffffffffffffffff1681526020014281525090508060025f3373ffffffffffffffffffffffffffffffffffffffff1673ffffffffffffffffffffffffffffffffffffffff1681526020019081526020015f205f8573ffffffffffffffffffffffffffffffffffffffff1673ffffffffffffffffffffffffffffffffffffffff1681526020019081526020015f205f820151815f015f6101000a81548173ffffffffffffffffffffffffffffffffffffffff021916908373ffffffffffffffffffffffffffffffffffffffff1602179055506020820151816001015590505060035f3373ffffffffffffffffffffffffffffffffffffffff1673ffffffffffffffffffffffffffffffffffffffff1681526020019081526020015f2083908060018154018082558091505060019003905f5260205f20015f9091909190916101000a81548173ffffffffffffffffffffffffffffffffffffffff021916908373ffffffffffffffffffffffffffffffffffffffff1602179055508273ffffffffffffffffffffffffffffffffffffffff163373ffffffffffffffffffffffffffffffffffffffff167f389c4d1e49da6f4f6564f4736c370e19d62ccf466d3bbd87e0495b44f89937d060405160405180910390a36001915050919050565b606060055f3373ffffffffffffffffffffffffffffffffffffffff1673ffffffffffffffffffffffffffffffffffffffff1681526020019081526020015f2080548060200260200160405190810160405280929190818152602001828054801561083057602002820191905f5260205f20905b815f9054906101000a900473ffffffffffffffffffffffffffffffffffffffff1673ffffffffffffffffffffffffffffffffffffffff16815260200190600101908083116107e7575b5050505050905090565b5f8160015f3373ffffffffffffffffffffffffffffffffffffffff1673ffffffffffffffffffffffffffffffffffffffff1681526020019081526020015f209081610885919061220d565b503373ffffffffffffffffffffffffffffffffffffffff167f63560a6ba7ee6a7fd9c4f8de1e3a8f80fe08b22aee88fbacf030048bcc640b74836040516108cc9190611cc2565b60405180910390a260019050919050565b5f8060045f3373ffffffffffffffffffffffffffffffffffffffff1673ffffffffffffffffffffffffffffffffffffffff1681526020019081526020015f205f8473ffffffffffffffffffffffffffffffffffffffff1673ffffffffffffffffffffffffffffffffffffffff1681526020019081526020015f20600101540361099b576040517f08c379a000000000000000000000000000000000000000000000000000000000815260040161099290612326565b60405180910390fd5b60045f3373ffffffffffffffffffffffffffffffffffffffff1673ffffffffffffffffffffffffffffffffffffffff1681526020019081526020015f205f8373ffffffffffffffffffffffffffffffffffffffff1673ffffffffffffffffffffffffffffffffffffffff1681526020019081526020015f205f8082015f6101000a81549073ffffffffffffffffffffffffffffffffffffffff0219169055600182015f905550505f5b60055f3373ffffffffffffffffffffffffffffffffffffffff1673ffffffffffffffffffffffffffffffffffffffff1681526020019081526020015f2080549050811015610d82578273ffffffffffffffffffffffffffffffffffffffff1660055f3373ffffffffffffffffffffffffffffffffffffffff1673ffffffffffffffffffffffffffffffffffffffff1681526020019081526020015f208281548110610af257610af1612344565b5b905f5260205f20015f9054906101000a900473ffffffffffffffffffffffffffffffffffffffff1673ffffffffffffffffffffffffffffffffffffffff1603610d6f5760055f3373ffffffffffffffffffffffffffffffffffffffff1673ffffffffffffffffffffffffffffffffffffffff1681526020019081526020015f20600160055f3373ffffffffffffffffffffffffffffffffffffffff1673ffffffffffffffffffffffffffffffffffffffff1681526020019081526020015f2080549050610bbf919061239e565b81548110610bd057610bcf612344565b5b905f5260205f20015f9054906101000a900473ffffffffffffffffffffffffffffffffffffffff1660055f3373ffffffffffffffffffffffffffffffffffffffff1673ffffffffffffffffffffffffffffffffffffffff1681526020019081526020015f208281548110610c4757610c46612344565b5b905f5260205f20015f6101000a81548173ffffffffffffffffffffffffffffffffffffffff021916908373ffffffffffffffffffffffffffffffffffffffff16021790555060055f3373ffffffffffffffffffffffffffffffffffffffff1673ffffffffffffffffffffffffffffffffffffffff1681526020019081526020015f20805480610cd957610cd86123d1565b5b600190038181905f5260205f20015f6101000a81549073ffffffffffffffffffffffffffffffffffffffff021916905590558273ffffffffffffffffffffffffffffffffffffffff163373ffffffffffffffffffffffffffffffffffffffff167fa70f45b93a0b9d5f3fe03b6f02530661342e6a7a57c8da906f826230d2fdca4460405160405180910390a36001915050610d87565b8080610d7a906123fe565b915050610a44565b505f90505b919050565b606060015f8373ffffffffffffffffffffffffffffffffffffffff1673ffffffffffffffffffffffffffffffffffffffff1681526020019081526020015f208054610dd690611eaa565b80601f0160208091040260200160405190810160405280929190818152602001828054610e0290611eaa565b8015610e4d5780601f10610e2457610100808354040283529160200191610e4d565b820191905f5260205f20905b815481529060010190602001808311610e3057829003601f168201915b50505050509050919050565b606060035f3373ffffffffffffffffffffffffffffffffffffffff1673ffffffffffffffffffffffffffffffffffffffff1681526020019081526020015f20805480602002602001604051908101604052809291908181526020018280548015610f1557602002820191905f5260205f20905b815f9054906101000a900473ffffffffffffffffffffffffffffffffffffffff1673ffffffffffffffffffffffffffffffffffffffff1681526020019060010190808311610ecc575b5050505050905090565b5f8060025f3373ffffffffffffffffffffffffffffffffffffffff1673ffffffffffffffffffffffffffffffffffffffff1681526020019081526020015f205f8473ffffffffffffffffffffffffffffffffffffffff1673ffffffffffffffffffffffffffffffffffffffff1681526020019081526020015f206001015403610fdd576040517f08c379a0000000000000000000000000000000000000000000000000000000008152600401610fd49061248f565b60405180910390fd5b60025f3373ffffffffffffffffffffffffffffffffffffffff1673ffffffffffffffffffffffffffffffffffffffff1681526020019081526020015f205f8373ffffffffffffffffffffffffffffffffffffffff1673ffffffffffffffffffffffffffffffffffffffff1681526020019081526020015f205f8082015f6101000a81549073ffffffffffffffffffffffffffffffffffffffff0219169055600182015f905550505f5b60035f3373ffffffffffffffffffffffffffffffffffffffff1673ffffffffffffffffffffffffffffffffffffffff1681526020019081526020015f20805490508110156113c4578273ffffffffffffffffffffffffffffffffffffffff1660035f3373ffffffffffffffffffffffffffffffffffffffff1673ffffffffffffffffffffffffffffffffffffffff1681526020019081526020015f20828154811061113457611133612344565b5b905f5260205f20015f9054906101000a900473ffffffffffffffffffffffffffffffffffffffff1673ffffffffffffffffffffffffffffffffffffffff16036113b15760035f3373ffffffffffffffffffffffffffffffffffffffff1673ffffffffffffffffffffffffffffffffffffffff1681526020019081526020015f20600160035f3373ffffffffffffffffffffffffffffffffffffffff1673ffffffffffffffffffffffffffffffffffffffff1681526020019081526020015f2080549050611201919061239e565b8154811061121257611211612344565b5b905f5260205f20015f9054906101000a900473ffffffffffffffffffffffffffffffffffffffff1660035f3373ffffffffffffffffffffffffffffffffffffffff1673ffffffffffffffffffffffffffffffffffffffff1681526020019081526020015f20828154811061128957611288612344565b5b905f5260205f20015f6101000a81548173ffffffffffffffffffffffffffffffffffffffff021916908373ffffffffffffffffffffffffffffffffffffffff16021790555060035f3373ffffffffffffffffffffffffffffffffffffffff1673ffffffffffffffffffffffffffffffffffffffff1681526020019081526020015f2080548061131b5761131a6123d1565b5b600190038181905f5260205f20015f6101000a81549073ffffffffffffffffffffffffffffffffffffffff021916905590558273ffffffffffffffffffffffffffffffffffffffff163373ffffffffffffffffffffffffffffffffffffffff167f11f4b134f60f4bd9f709b4ec296696385afeecc64bd4eb3ea9dfaa89bbfbb4cf60405160405180910390a360019150506113c9565b80806113bc906123fe565b915050611086565b505f90505b919050565b6001602052805f5260405f205f9150905080546113ea90611eaa565b80601f016020809104026020016040519081016040528092919081815260200182805461141690611eaa565b80156114615780601f1061143857610100808354040283529160200191611461565b820191905f5260205f20905b81548152906001019060200180831161144457829003601f168201915b505050505081565b6005602052815f5260405f208181548110611482575f80fd5b905f5260205f20015f915091509054906101000a900473ffffffffffffffffffffffffffffffffffffffff1681565b6002602052815f5260405f20602052805f5260405f205f9150915050805f015f9054906101000a900473ffffffffffffffffffffffffffffffffffffffff16908060010154905082565b6004602052815f5260405f20602052805f5260405f205f9150915050805f015f9054906101000a900473ffffffffffffffffffffffffffffffffffffffff16908060010154905082565b5f3373ffffffffffffffffffffffffffffffffffffffff168273ffffffffffffffffffffffffffffffffffffffff16036115b4576040517f08c379a00000000000000000000000000000000000000000000000000000000081526004016115ab906124f7565b60405180910390fd5b5f5460015f8473ffffffffffffffffffffffffffffffffffffffff1673ffffffffffffffffffffffffffffffffffffffff1681526020019081526020015f206040516020016116039190611f76565b6040516020818303038152906040528051906020012003611659576040517f08c379a000000000000000000000000000000000000000000000000000000000815260040161165090612585565b60405180910390fd5b5f60025f3373ffffffffffffffffffffffffffffffffffffffff1673ffffffffffffffffffffffffffffffffffffffff1681526020019081526020015f205f8473ffffffffffffffffffffffffffffffffffffffff1673ffffffffffffffffffffffffffffffffffffffff1681526020019081526020015f2060010154146116e6576116e482610f1f565b505b5f60405180604001604052808473ffffffffffffffffffffffffffffffffffffffff1681526020014281525090508060045f3373ffffffffffffffffffffffffffffffffffffffff1673ffffffffffffffffffffffffffffffffffffffff1681526020019081526020015f205f8573ffffffffffffffffffffffffffffffffffffffff1673ffffffffffffffffffffffffffffffffffffffff1681526020019081526020015f205f820151815f015f6101000a81548173ffffffffffffffffffffffffffffffffffffffff021916908373ffffffffffffffffffffffffffffffffffffffff1602179055506020820151816001015590505060055f3373ffffffffffffffffffffffffffffffffffffffff1673ffffffffffffffffffffffffffffffffffffffff1681526020019081526020015f2083908060018154018082558091505060019003905f5260205f20015f9091909190916101000a81548173ffffffffffffffffffffffffffffffffffffffff021916908373ffffffffffffffffffffffffffffffffffffffff1602179055508273ffffffffffffffffffffffffffffffffffffffff163373ffffffffffffffffffffffffffffffffffffffff167f43122fee1265880a3328f07d7ec01b1485632605d0df401ff2394fe731ac644e60405160405180910390a36001915050919050565b6003602052815f5260405f2081815481106118f6575f80fd5b905f5260205f20015f915091509054906101000a900473ffffffffffffffffffffffffffffffffffffffff1681565b5f604051905090565b5f80fd5b5f80fd5b5f73ffffffffffffffffffffffffffffffffffffffff82169050919050565b5f61195f82611936565b9050919050565b61196f81611955565b8114611979575f80fd5b50565b5f8135905061198a81611966565b92915050565b5f602082840312156119a5576119a461192e565b5b5f6119b28482850161197c565b91505092915050565b5f8115159050919050565b6119cf816119bb565b82525050565b5f6020820190506119e85f8301846119c6565b92915050565b5f81519050919050565b5f82825260208201905092915050565b5f819050602082019050919050565b611a2081611955565b82525050565b5f611a318383611a17565b60208301905092915050565b5f602082019050919050565b5f611a53826119ee565b611a5d81856119f8565b9350611a6883611a08565b805f5b83811015611a98578151611a7f8882611a26565b9750611a8a83611a3d565b925050600181019050611a6b565b5085935050505092915050565b5f6020820190508181035f830152611abd8184611a49565b905092915050565b5f80fd5b5f80fd5b5f601f19601f8301169050919050565b7f4e487b71000000000000000000000000000000000000000000000000000000005f52604160045260245ffd5b611b1382611acd565b810181811067ffffffffffffffff82111715611b3257611b31611add565b5b80604052505050565b5f611b44611925565b9050611b508282611b0a565b919050565b5f67ffffffffffffffff821115611b6f57611b6e611add565b5b611b7882611acd565b9050602081019050919050565b828183375f83830152505050565b5f611ba5611ba084611b55565b611b3b565b905082815260208101848484011115611bc157611bc0611ac9565b5b611bcc848285611b85565b509392505050565b5f82601f830112611be857611be7611ac5565b5b8135611bf8848260208601611b93565b91505092915050565b5f60208284031215611c1657611c1561192e565b5b5f82013567ffffffffffffffff811115611c3357611c32611932565b5b611c3f84828501611bd4565b91505092915050565b5f81519050919050565b5f82825260208201905092915050565b5f5b83811015611c7f578082015181840152602081019050611c64565b5f8484015250505050565b5f611c9482611c48565b611c9e8185611c52565b9350611cae818560208601611c62565b611cb781611acd565b840191505092915050565b5f6020820190508181035f830152611cda8184611c8a565b905092915050565b5f819050919050565b611cf481611ce2565b8114611cfe575f80fd5b50565b5f81359050611d0f81611ceb565b92915050565b5f8060408385031215611d2b57611d2a61192e565b5b5f611d388582860161197c565b9250506020611d4985828601611d01565b9150509250929050565b611d5c81611955565b82525050565b5f602082019050611d755f830184611d53565b92915050565b5f8060408385031215611d9157611d9061192e565b5b5f611d9e8582860161197c565b9250506020611daf8582860161197c565b9150509250929050565b611dc281611ce2565b82525050565b5f604082019050611ddb5f830185611d53565b611de86020830184611db9565b9392505050565b7f796f752063616e206e6f742061646420796f757273656c6620617320612066725f8201527f69656e6400000000000000000000000000000000000000000000000000000000602082015250565b5f611e49602483611c52565b9150611e5482611def565b604082019050919050565b5f6020820190508181035f830152611e7681611e3d565b9050919050565b7f4e487b71000000000000000000000000000000000000000000000000000000005f52602260045260245ffd5b5f6002820490506001821680611ec157607f821691505b602082108103611ed457611ed3611e7d565b5b50919050565b5f81905092915050565b5f819050815f5260205f209050919050565b5f8154611f0281611eaa565b611f0c8186611eda565b9450600182165f8114611f265760018114611f3b57611f6d565b60ff1983168652811515820286019350611f6d565b611f4485611ee4565b5f5b83811015611f6557815481890152600182019150602081019050611f46565b838801955050505b50505092915050565b5f611f818284611ef6565b915081905092915050565b7f796f752063616e206e6f742061646420612075736572207468617420686173205f8201527f6e6f207075626b65790000000000000000000000000000000000000000000000602082015250565b5f611fe6602983611c52565b9150611ff182611f8c565b604082019050919050565b5f6020820190508181035f83015261201381611fda565b9050919050565b7f68652f73686520697320796f757220667269656e6420616c72656164790000005f82015250565b5f61204e601d83611c52565b91506120598261201a565b602082019050919050565b5f6020820190508181035f83015261207b81612042565b9050919050565b5f6020601f8301049050919050565b5f82821b905092915050565b5f600883026120cc7fffffffffffffffffffffffffffffffffffffffffffffffffffffffffffffffff82612091565b6120d68683612091565b95508019841693508086168417925050509392505050565b5f819050919050565b5f61211161210c61210784611ce2565b6120ee565b611ce2565b9050919050565b5f819050919050565b61212a836120f7565b61213e61213682612118565b84845461209d565b825550505050565b5f90565b612152612146565b61215d818484612121565b505050565b5b81811015612180576121755f8261214a565b600181019050612163565b5050565b601f8211156121c55761219681611ee4565b61219f84612082565b810160208510156121ae578190505b6121c26121ba85612082565b830182612162565b50505b505050565b5f82821c905092915050565b5f6121e55f19846008026121ca565b1980831691505092915050565b5f6121fd83836121d6565b9150826002028217905092915050565b61221682611c48565b67ffffffffffffffff81111561222f5761222e611add565b5b6122398254611eaa565b612244828285612184565b5f60209050601f831160018114612275575f8415612263578287015190505b61226d85826121f2565b8655506122d4565b601f19841661228386611ee4565b5f5b828110156122aa57848901518255600182019150602085019450602081019050612285565b868310156122c757848901516122c3601f8916826121d6565b8355505b6001600288020188555050505b505050505050565b7f68652f736865206973206e6f7420796f757220626c6f636b206c6973740000005f82015250565b5f612310601d83611c52565b915061231b826122dc565b602082019050919050565b5f6020820190508181035f83015261233d81612304565b9050919050565b7f4e487b71000000000000000000000000000000000000000000000000000000005f52603260045260245ffd5b7f4e487b71000000000000000000000000000000000000000000000000000000005f52601160045260245ffd5b5f6123a882611ce2565b91506123b383611ce2565b92508282039050818111156123cb576123ca612371565b5b92915050565b7f4e487b71000000000000000000000000000000000000000000000000000000005f52603160045260245ffd5b5f61240882611ce2565b91507fffffffffffffffffffffffffffffffffffffffffffffffffffffffffffffffff820361243a57612439612371565b5b600182019050919050565b7f68652f736865206973206e6f7420796f757220667269656e64000000000000005f82015250565b5f612479601983611c52565b915061248482612445565b602082019050919050565b5f6020820190508181035f8301526124a68161246d565b9050919050565b7f796f752063616e206e6f7420626c6f636b20796f757273656c660000000000005f82015250565b5f6124e1601a83611c52565b91506124ec826124ad565b602082019050919050565b5f6020820190508181035f83015261250e816124d5565b9050919050565b7f796f752063616e206e6f7420626c6f636b206120757365722074686174206e6f5f8201527f7420657869737473000000000000000000000000000000000000000000000000602082015250565b5f61256f602883611c52565b915061257a82612515565b604082019050919050565b5f6020820190508181035f83015261259c81612563565b905091905056fea26469706673582212207502a52b6945a0b07ec637453ccde30699dfcc356b433ade2ca9b9fb78f24f5764736f6c63430008140033",
					"opcodes": "PUSH1 0x80 PUSH1 0x40 MSTORE PUSH1 0x40 MLOAD PUSH1 0x20 ADD PUSH3 0x15 SWAP1 PUSH3 0x71 JUMP JUMPDEST PUSH1 0x40 MLOAD PUSH1 0x20 DUP2 DUP4 SUB SUB DUP2 MSTORE SWAP1 PUSH1 0x40 MSTORE DUP1 MLOAD SWAP1 PUSH1 0x20 ADD KECCAK256 PUSH0 SSTORE CALLVALUE DUP1 ISZERO PUSH3 0x39 JUMPI PUSH0 DUP1 REVERT JUMPDEST POP PUSH3 0x87 JUMP JUMPDEST PUSH0 DUP2 SWAP1 POP SWAP3 SWAP2 POP POP JUMP JUMPDEST POP JUMP JUMPDEST PUSH0 PUSH3 0x5A PUSH0 DUP4 PUSH3 0x40 JUMP JUMPDEST SWAP2 POP PUSH3 0x67 DUP3 PUSH3 0x4A JUMP JUMPDEST PUSH0 DUP3 ADD SWAP1 POP SWAP2 SWAP1 POP JUMP JUMPDEST PUSH0 PUSH3 0x7D DUP3 PUSH3 0x4D JUMP JUMPDEST SWAP2 POP DUP2 SWAP1 POP SWAP2 SWAP1 POP JUMP JUMPDEST PUSH2 0x25D9 DUP1 PUSH3 0x95 PUSH0 CODECOPY PUSH0 RETURN INVALID PUSH1 0x80 PUSH1 0x40 MSTORE CALLVALUE DUP1 ISZERO PUSH2 0xF JUMPI PUSH0 DUP1 REVERT JUMPDEST POP PUSH1 0x4 CALLDATASIZE LT PUSH2 0xCD JUMPI PUSH0 CALLDATALOAD PUSH1 0xE0 SHR DUP1 PUSH4 0x8CDAE20A GT PUSH2 0x8A JUMPI DUP1 PUSH4 0xE1384A72 GT PUSH2 0x64 JUMPI DUP1 PUSH4 0xE1384A72 EQ PUSH2 0x25D JUMPI DUP1 PUSH4 0xE17FA73B EQ PUSH2 0x28E JUMPI DUP1 PUSH4 0xE905AF6C EQ PUSH2 0x2BF JUMPI DUP1 PUSH4 0xF9A0982D EQ PUSH2 0x2EF JUMPI PUSH2 0xCD JUMP JUMPDEST DUP1 PUSH4 0x8CDAE20A EQ PUSH2 0x1CD JUMPI DUP1 PUSH4 0xA5A600A6 EQ PUSH2 0x1FD JUMPI DUP1 PUSH4 0xE05A492D EQ PUSH2 0x22D JUMPI PUSH2 0xCD JUMP JUMPDEST DUP1 PUSH4 0x13962258 EQ PUSH2 0xD1 JUMPI DUP1 PUSH4 0x3DCFD409 EQ PUSH2 0x101 JUMPI DUP1 PUSH4 0x40B2D3AF EQ PUSH2 0x11F JUMPI DUP1 PUSH4 0x6C1A2728 EQ PUSH2 0x14F JUMPI DUP1 PUSH4 0x7AAFB9F2 EQ PUSH2 0x17F JUMPI DUP1 PUSH4 0x8BE03F57 EQ PUSH2 0x1AF JUMPI JUMPDEST PUSH0 DUP1 REVERT JUMPDEST PUSH2 0xEB PUSH1 0x4 DUP1 CALLDATASIZE SUB DUP2 ADD SWAP1 PUSH2 0xE6 SWAP2 SWAP1 PUSH2 0x1990 JUMP JUMPDEST PUSH2 0x31F JUMP JUMPDEST PUSH1 0x40 MLOAD PUSH2 0xF8 SWAP2 SWAP1 PUSH2 0x19D5 JUMP JUMPDEST PUSH1 0x40 MLOAD DUP1 SWAP2 SUB SWAP1 RETURN JUMPDEST PUSH2 0x109 PUSH2 0x774 JUMP JUMPDEST PUSH1 0x40 MLOAD PUSH2 0x116 SWAP2 SWAP1 PUSH2 0x1AA5 JUMP JUMPDEST PUSH1 0x40 MLOAD DUP1 SWAP2 SUB SWAP1 RETURN JUMPDEST PUSH2 0x139 PUSH1 0x4 DUP1 CALLDATASIZE SUB DUP2 ADD SWAP1 PUSH2 0x134 SWAP2 SWAP1 PUSH2 0x1C01 JUMP JUMPDEST PUSH2 0x83A JUMP JUMPDEST PUSH1 0x40 MLOAD PUSH2 0x146 SWAP2 SWAP1 PUSH2 0x19D5 JUMP JUMPDEST PUSH1 0x40 MLOAD DUP1 SWAP2 SUB SWAP1 RETURN JUMPDEST PUSH2 0x169 PUSH1 0x4 DUP1 CALLDATASIZE SUB DUP2 ADD SWAP1 PUSH2 0x164 SWAP2 SWAP1 PUSH2 0x1990 JUMP JUMPDEST PUSH2 0x8DD JUMP JUMPDEST PUSH1 0x40 MLOAD PUSH2 0x176 SWAP2 SWAP1 PUSH2 0x19D5 JUMP JUMPDEST PUSH1 0x40 MLOAD DUP1 SWAP2 SUB SWAP1 RETURN JUMPDEST PUSH2 0x199 PUSH1 0x4 DUP1 CALLDATASIZE SUB DUP2 ADD SWAP1 PUSH2 0x194 SWAP2 SWAP1 PUSH2 0x1990 JUMP JUMPDEST PUSH2 0xD8C JUMP JUMPDEST PUSH1 0x40 MLOAD PUSH2 0x1A6 SWAP2 SWAP1 PUSH2 0x1CC2 JUMP JUMPDEST PUSH1 0x40 MLOAD DUP1 SWAP2 SUB SWAP1 RETURN JUMPDEST PUSH2 0x1B7 PUSH2 0xE59 JUMP JUMPDEST PUSH1 0x40 MLOAD PUSH2 0x1C4 SWAP2 SWAP1 PUSH2 0x1AA5 JUMP JUMPDEST PUSH1 0x40 MLOAD DUP1 SWAP2 SUB SWAP1 RETURN JUMPDEST PUSH2 0x1E7 PUSH1 0x4 DUP1 CALLDATASIZE SUB DUP2 ADD SWAP1 PUSH2 0x1E2 SWAP2 SWAP1 PUSH2 0x1990 JUMP JUMPDEST PUSH2 0xF1F JUMP JUMPDEST PUSH1 0x40 MLOAD PUSH2 0x1F4 SWAP2 SWAP1 PUSH2 0x19D5 JUMP JUMPDEST PUSH1 0x40 MLOAD DUP1 SWAP2 SUB SWAP1 RETURN JUMPDEST PUSH2 0x217 PUSH1 0x4 DUP1 CALLDATASIZE SUB DUP2 ADD SWAP1 PUSH2 0x212 SWAP2 SWAP1 PUSH2 0x1990 JUMP JUMPDEST PUSH2 0x13CE JUMP JUMPDEST PUSH1 0x40 MLOAD PUSH2 0x224 SWAP2 SWAP1 PUSH2 0x1CC2 JUMP JUMPDEST PUSH1 0x40 MLOAD DUP1 SWAP2 SUB SWAP1 RETURN JUMPDEST PUSH2 0x247 PUSH1 0x4 DUP1 CALLDATASIZE SUB DUP2 ADD SWAP1 PUSH2 0x242 SWAP2 SWAP1 PUSH2 0x1D15 JUMP JUMPDEST PUSH2 0x1469 JUMP JUMPDEST PUSH1 0x40 MLOAD PUSH2 0x254 SWAP2 SWAP1 PUSH2 0x1D62 JUMP JUMPDEST PUSH1 0x40 MLOAD DUP1 SWAP2 SUB SWAP1 RETURN JUMPDEST PUSH2 0x277 PUSH1 0x4 DUP1 CALLDATASIZE SUB DUP2 ADD SWAP1 PUSH2 0x272 SWAP2 SWAP1 PUSH2 0x1D7B JUMP JUMPDEST PUSH2 0x14B1 JUMP JUMPDEST PUSH1 0x40 MLOAD PUSH2 0x285 SWAP3 SWAP2 SWAP1 PUSH2 0x1DC8 JUMP JUMPDEST PUSH1 0x40 MLOAD DUP1 SWAP2 SUB SWAP1 RETURN JUMPDEST PUSH2 0x2A8 PUSH1 0x4 DUP1 CALLDATASIZE SUB DUP2 ADD SWAP1 PUSH2 0x2A3 SWAP2 SWAP1 PUSH2 0x1D7B JUMP JUMPDEST PUSH2 0x14FB JUMP JUMPDEST PUSH1 0x40 MLOAD PUSH2 0x2B6 SWAP3 SWAP2 SWAP1 PUSH2 0x1DC8 JUMP JUMPDEST PUSH1 0x40 MLOAD DUP1 SWAP2 SUB SWAP1 RETURN JUMPDEST PUSH2 0x2D9 PUSH1 0x4 DUP1 CALLDATASIZE SUB DUP2 ADD SWAP1 PUSH2 0x2D4 SWAP2 SWAP1 PUSH2 0x1990 JUMP JUMPDEST PUSH2 0x1545 JUMP JUMPDEST PUSH1 0x40 MLOAD PUSH2 0x2E6 SWAP2 SWAP1 PUSH2 0x19D5 JUMP JUMPDEST PUSH1 0x40 MLOAD DUP1 SWAP2 SUB SWAP1 RETURN JUMPDEST PUSH2 0x309 PUSH1 0x4 DUP1 CALLDATASIZE SUB DUP2 ADD SWAP1 PUSH2 0x304 SWAP2 SWAP1 PUSH2 0x1D15 JUMP JUMPDEST PUSH2 0x18DD JUMP JUMPDEST PUSH1 0x40 MLOAD PUSH2 0x316 SWAP2 SWAP1 PUSH2 0x1D62 JUMP JUMPDEST PUSH1 0x40 MLOAD DUP1 SWAP2 SUB SWAP1 RETURN JUMPDEST PUSH0 CALLER PUSH20 0xFFFFFFFFFFFFFFFFFFFFFFFFFFFFFFFFFFFFFFFF AND DUP3 PUSH20 0xFFFFFFFFFFFFFFFFFFFFFFFFFFFFFFFFFFFFFFFF AND SUB PUSH2 0x38E JUMPI PUSH1 0x40 MLOAD PUSH32 0x8C379A000000000000000000000000000000000000000000000000000000000 DUP2 MSTORE PUSH1 0x4 ADD PUSH2 0x385 SWAP1 PUSH2 0x1E5F JUMP JUMPDEST PUSH1 0x40 MLOAD DUP1 SWAP2 SUB SWAP1 REVERT JUMPDEST PUSH0 SLOAD PUSH1 0x1 PUSH0 DUP5 PUSH20 0xFFFFFFFFFFFFFFFFFFFFFFFFFFFFFFFFFFFFFFFF AND PUSH20 0xFFFFFFFFFFFFFFFFFFFFFFFFFFFFFFFFFFFFFFFF AND DUP2 MSTORE PUSH1 0x20 ADD SWAP1 DUP2 MSTORE PUSH1 0x20 ADD PUSH0 KECCAK256 PUSH1 0x40 MLOAD PUSH1 0x20 ADD PUSH2 0x3DD SWAP2 SWAP1 PUSH2 0x1F76 JUMP JUMPDEST PUSH1 0x40 MLOAD PUSH1 0x20 DUP2 DUP4 SUB SUB DUP2 MSTORE SWAP1 PUSH1 0x40 MSTORE DUP1 MLOAD SWAP1 PUSH1 0x20 ADD KECCAK256 SUB PUSH2 0x433 JUMPI PUSH1 0x40 MLOAD PUSH32 0x8C379A000000000000000000000000000000000000000000000000000000000 DUP2 MSTORE PUSH1 0x4 ADD PUSH2 0x42A SWAP1 PUSH2 0x1FFC JUMP JUMPDEST PUSH1 0x40 MLOAD DUP1 SWAP2 SUB SWAP1 REVERT JUMPDEST PUSH0 PUSH1 0x2 PUSH0 CALLER PUSH20 0xFFFFFFFFFFFFFFFFFFFFFFFFFFFFFFFFFFFFFFFF AND PUSH20 0xFFFFFFFFFFFFFFFFFFFFFFFFFFFFFFFFFFFFFFFF AND DUP2 MSTORE PUSH1 0x20 ADD SWAP1 DUP2 MSTORE PUSH1 0x20 ADD PUSH0 KECCAK256 PUSH0 DUP5 PUSH20 0xFFFFFFFFFFFFFFFFFFFFFFFFFFFFFFFFFFFFFFFF AND PUSH20 0xFFFFFFFFFFFFFFFFFFFFFFFFFFFFFFFFFFFFFFFF AND DUP2 MSTORE PUSH1 0x20 ADD SWAP1 DUP2 MSTORE PUSH1 0x20 ADD PUSH0 KECCAK256 PUSH1 0x1 ADD SLOAD EQ PUSH2 0x4F0 JUMPI PUSH1 0x40 MLOAD PUSH32 0x8C379A000000000000000000000000000000000000000000000000000000000 DUP2 MSTORE PUSH1 0x4 ADD PUSH2 0x4E7 SWAP1 PUSH2 0x2064 JUMP JUMPDEST PUSH1 0x40 MLOAD DUP1 SWAP2 SUB SWAP1 REVERT JUMPDEST PUSH0 PUSH1 0x4 PUSH0 CALLER PUSH20 0xFFFFFFFFFFFFFFFFFFFFFFFFFFFFFFFFFFFFFFFF AND PUSH20 0xFFFFFFFFFFFFFFFFFFFFFFFFFFFFFFFFFFFFFFFF AND DUP2 MSTORE PUSH1 0x20 ADD SWAP1 DUP2 MSTORE PUSH1 0x20 ADD PUSH0 KECCAK256 PUSH0 DUP5 PUSH20 0xFFFFFFFFFFFFFFFFFFFFFFFFFFFFFFFFFFFFFFFF AND PUSH20 0xFFFFFFFFFFFFFFFFFFFFFFFFFFFFFFFFFFFFFFFF AND DUP2 MSTORE PUSH1 0x20 ADD SWAP1 DUP2 MSTORE PUSH1 0x20 ADD PUSH0 KECCAK256 PUSH1 0x1 ADD SLOAD EQ PUSH2 0x57D JUMPI PUSH2 0x57B DUP3 PUSH2 0x8DD JUMP JUMPDEST POP JUMPDEST PUSH0 PUSH1 0x40 MLOAD DUP1 PUSH1 0x40 ADD PUSH1 0x40 MSTORE DUP1 DUP5 PUSH20 0xFFFFFFFFFFFFFFFFFFFFFFFFFFFFFFFFFFFFFFFF AND DUP2 MSTORE PUSH1 0x20 ADD TIMESTAMP DUP2 MSTORE POP SWAP1 POP DUP1 PUSH1 0x2 PUSH0 CALLER PUSH20 0xFFFFFFFFFFFFFFFFFFFFFFFFFFFFFFFFFFFFFFFF AND PUSH20 0xFFFFFFFFFFFFFFFFFFFFFFFFFFFFFFFFFFFFFFFF AND DUP2 MSTORE PUSH1 0x20 ADD SWAP1 DUP2 MSTORE PUSH1 0x20 ADD PUSH0 KECCAK256 PUSH0 DUP6 PUSH20 0xFFFFFFFFFFFFFFFFFFFFFFFFFFFFFFFFFFFFFFFF AND PUSH20 0xFFFFFFFFFFFFFFFFFFFFFFFFFFFFFFFFFFFFFFFF AND DUP2 MSTORE PUSH1 0x20 ADD SWAP1 DUP2 MSTORE PUSH1 0x20 ADD PUSH0 KECCAK256 PUSH0 DUP3 ADD MLOAD DUP2 PUSH0 ADD PUSH0 PUSH2 0x100 EXP DUP2 SLOAD DUP2 PUSH20 0xFFFFFFFFFFFFFFFFFFFFFFFFFFFFFFFFFFFFFFFF MUL NOT AND SWAP1 DUP4 PUSH20 0xFFFFFFFFFFFFFFFFFFFFFFFFFFFFFFFFFFFFFFFF AND MUL OR SWAP1 SSTORE POP PUSH1 0x20 DUP3 ADD MLOAD DUP2 PUSH1 0x1 ADD SSTORE SWAP1 POP POP PUSH1 0x3 PUSH0 CALLER PUSH20 0xFFFFFFFFFFFFFFFFFFFFFFFFFFFFFFFFFFFFFFFF AND PUSH20 0xFFFFFFFFFFFFFFFFFFFFFFFFFFFFFFFFFFFFFFFF AND DUP2 MSTORE PUSH1 0x20 ADD SWAP1 DUP2 MSTORE PUSH1 0x20 ADD PUSH0 KECCAK256 DUP4 SWAP1 DUP1 PUSH1 0x1 DUP2 SLOAD ADD DUP1 DUP3 SSTORE DUP1 SWAP2 POP POP PUSH1 0x1 SWAP1 SUB SWAP1 PUSH0 MSTORE PUSH1 0x20 PUSH0 KECCAK256 ADD PUSH0 SWAP1 SWAP2 SWAP1 SWAP2 SWAP1 SWAP2 PUSH2 0x100 EXP DUP2 SLOAD DUP2 PUSH20 0xFFFFFFFFFFFFFFFFFFFFFFFFFFFFFFFFFFFFFFFF MUL NOT AND SWAP1 DUP4 PUSH20 0xFFFFFFFFFFFFFFFFFFFFFFFFFFFFFFFFFFFFFFFF AND MUL OR SWAP1 SSTORE POP DUP3 PUSH20 0xFFFFFFFFFFFFFFFFFFFFFFFFFFFFFFFFFFFFFFFF AND CALLER PUSH20 0xFFFFFFFFFFFFFFFFFFFFFFFFFFFFFFFFFFFFFFFF AND PUSH32 0x389C4D1E49DA6F4F6564F4736C370E19D62CCF466D3BBD87E0495B44F89937D0 PUSH1 0x40 MLOAD PUSH1 0x40 MLOAD DUP1 SWAP2 SUB SWAP1 LOG3 PUSH1 0x1 SWAP2 POP POP SWAP2 SWAP1 POP JUMP JUMPDEST PUSH1 0x60 PUSH1 0x5 PUSH0 CALLER PUSH20 0xFFFFFFFFFFFFFFFFFFFFFFFFFFFFFFFFFFFFFFFF AND PUSH20 0xFFFFFFFFFFFFFFFFFFFFFFFFFFFFFFFFFFFFFFFF AND DUP2 MSTORE PUSH1 0x20 ADD SWAP1 DUP2 MSTORE PUSH1 0x20 ADD PUSH0 KECCAK256 DUP1 SLOAD DUP1 PUSH1 0x20 MUL PUSH1 0x20 ADD PUSH1 0x40 MLOAD SWAP1 DUP2 ADD PUSH1 0x40 MSTORE DUP1 SWAP3 SWAP2 SWAP1 DUP2 DUP2 MSTORE PUSH1 0x20 ADD DUP3 DUP1 SLOAD DUP1 ISZERO PUSH2 0x830 JUMPI PUSH1 0x20 MUL DUP3 ADD SWAP2 SWAP1 PUSH0 MSTORE PUSH1 0x20 PUSH0 KECCAK256 SWAP1 JUMPDEST DUP2 PUSH0 SWAP1 SLOAD SWAP1 PUSH2 0x100 EXP SWAP1 DIV PUSH20 0xFFFFFFFFFFFFFFFFFFFFFFFFFFFFFFFFFFFFFFFF AND PUSH20 0xFFFFFFFFFFFFFFFFFFFFFFFFFFFFFFFFFFFFFFFF AND DUP2 MSTORE PUSH1 0x20 ADD SWAP1 PUSH1 0x1 ADD SWAP1 DUP1 DUP4 GT PUSH2 0x7E7 JUMPI JUMPDEST POP POP POP POP POP SWAP1 POP SWAP1 JUMP JUMPDEST PUSH0 DUP2 PUSH1 0x1 PUSH0 CALLER PUSH20 0xFFFFFFFFFFFFFFFFFFFFFFFFFFFFFFFFFFFFFFFF AND PUSH20 0xFFFFFFFFFFFFFFFFFFFFFFFFFFFFFFFFFFFFFFFF AND DUP2 MSTORE PUSH1 0x20 ADD SWAP1 DUP2 MSTORE PUSH1 0x20 ADD PUSH0 KECCAK256 SWAP1 DUP2 PUSH2 0x885 SWAP2 SWAP1 PUSH2 0x220D JUMP JUMPDEST POP CALLER PUSH20 0xFFFFFFFFFFFFFFFFFFFFFFFFFFFFFFFFFFFFFFFF AND PUSH32 0x63560A6BA7EE6A7FD9C4F8DE1E3A8F80FE08B22AEE88FBACF030048BCC640B74 DUP4 PUSH1 0x40 MLOAD PUSH2 0x8CC SWAP2 SWAP1 PUSH2 0x1CC2 JUMP JUMPDEST PUSH1 0x40 MLOAD DUP1 SWAP2 SUB SWAP1 LOG2 PUSH1 0x1 SWAP1 POP SWAP2 SWAP1 POP JUMP JUMPDEST PUSH0 DUP1 PUSH1 0x4 PUSH0 CALLER PUSH20 0xFFFFFFFFFFFFFFFFFFFFFFFFFFFFFFFFFFFFFFFF AND PUSH20 0xFFFFFFFFFFFFFFFFFFFFFFFFFFFFFFFFFFFFFFFF AND DUP2 MSTORE PUSH1 0x20 ADD SWAP1 DUP2 MSTORE PUSH1 0x20 ADD PUSH0 KECCAK256 PUSH0 DUP5 PUSH20 0xFFFFFFFFFFFFFFFFFFFFFFFFFFFFFFFFFFFFFFFF AND PUSH20 0xFFFFFFFFFFFFFFFFFFFFFFFFFFFFFFFFFFFFFFFF AND DUP2 MSTORE PUSH1 0x20 ADD SWAP1 DUP2 MSTORE PUSH1 0x20 ADD PUSH0 KECCAK256 PUSH1 0x1 ADD SLOAD SUB PUSH2 0x99B JUMPI PUSH1 0x40 MLOAD PUSH32 0x8C379A000000000000000000000000000000000000000000000000000000000 DUP2 MSTORE PUSH1 0x4 ADD PUSH2 0x992 SWAP1 PUSH2 0x2326 JUMP JUMPDEST PUSH1 0x40 MLOAD DUP1 SWAP2 SUB SWAP1 REVERT JUMPDEST PUSH1 0x4 PUSH0 CALLER PUSH20 0xFFFFFFFFFFFFFFFFFFFFFFFFFFFFFFFFFFFFFFFF AND PUSH20 0xFFFFFFFFFFFFFFFFFFFFFFFFFFFFFFFFFFFFFFFF AND DUP2 MSTORE PUSH1 0x20 ADD SWAP1 DUP2 MSTORE PUSH1 0x20 ADD PUSH0 KECCAK256 PUSH0 DUP4 PUSH20 0xFFFFFFFFFFFFFFFFFFFFFFFFFFFFFFFFFFFFFFFF AND PUSH20 0xFFFFFFFFFFFFFFFFFFFFFFFFFFFFFFFFFFFFFFFF AND DUP2 MSTORE PUSH1 0x20 ADD SWAP1 DUP2 MSTORE PUSH1 0x20 ADD PUSH0 KECCAK256 PUSH0 DUP1 DUP3 ADD PUSH0 PUSH2 0x100 EXP DUP2 SLOAD SWAP1 PUSH20 0xFFFFFFFFFFFFFFFFFFFFFFFFFFFFFFFFFFFFFFFF MUL NOT AND SWAP1 SSTORE PUSH1 0x1 DUP3 ADD PUSH0 SWAP1 SSTORE POP POP PUSH0 JUMPDEST PUSH1 0x5 PUSH0 CALLER PUSH20 0xFFFFFFFFFFFFFFFFFFFFFFFFFFFFFFFFFFFFFFFF AND PUSH20 0xFFFFFFFFFFFFFFFFFFFFFFFFFFFFFFFFFFFFFFFF AND DUP2 MSTORE PUSH1 0x20 ADD SWAP1 DUP2 MSTORE PUSH1 0x20 ADD PUSH0 KECCAK256 DUP1 SLOAD SWAP1 POP DUP2 LT ISZERO PUSH2 0xD82 JUMPI DUP3 PUSH20 0xFFFFFFFFFFFFFFFFFFFFFFFFFFFFFFFFFFFFFFFF AND PUSH1 0x5 PUSH0 CALLER PUSH20 0xFFFFFFFFFFFFFFFFFFFFFFFFFFFFFFFFFFFFFFFF AND PUSH20 0xFFFFFFFFFFFFFFFFFFFFFFFFFFFFFFFFFFFFFFFF AND DUP2 MSTORE PUSH1 0x20 ADD SWAP1 DUP2 MSTORE PUSH1 0x20 ADD PUSH0 KECCAK256 DUP3 DUP2 SLOAD DUP2 LT PUSH2 0xAF2 JUMPI PUSH2 0xAF1 PUSH2 0x2344 JUMP JUMPDEST JUMPDEST SWAP1 PUSH0 MSTORE PUSH1 0x20 PUSH0 KECCAK256 ADD PUSH0 SWAP1 SLOAD SWAP1 PUSH2 0x100 EXP SWAP1 DIV PUSH20 0xFFFFFFFFFFFFFFFFFFFFFFFFFFFFFFFFFFFFFFFF AND PUSH20 0xFFFFFFFFFFFFFFFFFFFFFFFFFFFFFFFFFFFFFFFF AND SUB PUSH2 0xD6F JUMPI PUSH1 0x5 PUSH0 CALLER PUSH20 0xFFFFFFFFFFFFFFFFFFFFFFFFFFFFFFFFFFFFFFFF AND PUSH20 0xFFFFFFFFFFFFFFFFFFFFFFFFFFFFFFFFFFFFFFFF AND DUP2 MSTORE PUSH1 0x20 ADD SWAP1 DUP2 MSTORE PUSH1 0x20 ADD PUSH0 KECCAK256 PUSH1 0x1 PUSH1 0x5 PUSH0 CALLER PUSH20 0xFFFFFFFFFFFFFFFFFFFFFFFFFFFFFFFFFFFFFFFF AND PUSH20 0xFFFFFFFFFFFFFFFFFFFFFFFFFFFFFFFFFFFFFFFF AND DUP2 MSTORE PUSH1 0x20 ADD SWAP1 DUP2 MSTORE PUSH1 0x20 ADD PUSH0 KECCAK256 DUP1 SLOAD SWAP1 POP PUSH2 0xBBF SWAP2 SWAP1 PUSH2 0x239E JUMP JUMPDEST DUP2 SLOAD DUP2 LT PUSH2 0xBD0 JUMPI PUSH2 0xBCF PUSH2 0x2344 JUMP JUMPDEST JUMPDEST SWAP1 PUSH0 MSTORE PUSH1 0x20 PUSH0 KECCAK256 ADD PUSH0 SWAP1 SLOAD SWAP1 PUSH2 0x100 EXP SWAP1 DIV PUSH20 0xFFFFFFFFFFFFFFFFFFFFFFFFFFFFFFFFFFFFFFFF AND PUSH1 0x5 PUSH0 CALLER PUSH20 0xFFFFFFFFFFFFFFFFFFFFFFFFFFFFFFFFFFFFFFFF AND PUSH20 0xFFFFFFFFFFFFFFFFFFFFFFFFFFFFFFFFFFFFFFFF AND DUP2 MSTORE PUSH1 0x20 ADD SWAP1 DUP2 MSTORE PUSH1 0x20 ADD PUSH0 KECCAK256 DUP3 DUP2 SLOAD DUP2 LT PUSH2 0xC47 JUMPI PUSH2 0xC46 PUSH2 0x2344 JUMP JUMPDEST JUMPDEST SWAP1 PUSH0 MSTORE PUSH1 0x20 PUSH0 KECCAK256 ADD PUSH0 PUSH2 0x100 EXP DUP2 SLOAD DUP2 PUSH20 0xFFFFFFFFFFFFFFFFFFFFFFFFFFFFFFFFFFFFFFFF MUL NOT AND SWAP1 DUP4 PUSH20 0xFFFFFFFFFFFFFFFFFFFFFFFFFFFFFFFFFFFFFFFF AND MUL OR SWAP1 SSTORE POP PUSH1 0x5 PUSH0 CALLER PUSH20 0xFFFFFFFFFFFFFFFFFFFFFFFFFFFFFFFFFFFFFFFF AND PUSH20 0xFFFFFFFFFFFFFFFFFFFFFFFFFFFFFFFFFFFFFFFF AND DUP2 MSTORE PUSH1 0x20 ADD SWAP1 DUP2 MSTORE PUSH1 0x20 ADD PUSH0 KECCAK256 DUP1 SLOAD DUP1 PUSH2 0xCD9 JUMPI PUSH2 0xCD8 PUSH2 0x23D1 JUMP JUMPDEST JUMPDEST PUSH1 0x1 SWAP1 SUB DUP2 DUP2 SWAP1 PUSH0 MSTORE PUSH1 0x20 PUSH0 KECCAK256 ADD PUSH0 PUSH2 0x100 EXP DUP2 SLOAD SWAP1 PUSH20 0xFFFFFFFFFFFFFFFFFFFFFFFFFFFFFFFFFFFFFFFF MUL NOT AND SWAP1 SSTORE SWAP1 SSTORE DUP3 PUSH20 0xFFFFFFFFFFFFFFFFFFFFFFFFFFFFFFFFFFFFFFFF AND CALLER PUSH20 0xFFFFFFFFFFFFFFFFFFFFFFFFFFFFFFFFFFFFFFFF AND PUSH32 0xA70F45B93A0B9D5F3FE03B6F02530661342E6A7A57C8DA906F826230D2FDCA44 PUSH1 0x40 MLOAD PUSH1 0x40 MLOAD DUP1 SWAP2 SUB SWAP1 LOG3 PUSH1 0x1 SWAP2 POP POP PUSH2 0xD87 JUMP JUMPDEST DUP1 DUP1 PUSH2 0xD7A SWAP1 PUSH2 0x23FE JUMP JUMPDEST SWAP2 POP POP PUSH2 0xA44 JUMP JUMPDEST POP PUSH0 SWAP1 POP JUMPDEST SWAP2 SWAP1 POP JUMP JUMPDEST PUSH1 0x60 PUSH1 0x1 PUSH0 DUP4 PUSH20 0xFFFFFFFFFFFFFFFFFFFFFFFFFFFFFFFFFFFFFFFF AND PUSH20 0xFFFFFFFFFFFFFFFFFFFFFFFFFFFFFFFFFFFFFFFF AND DUP2 MSTORE PUSH1 0x20 ADD SWAP1 DUP2 MSTORE PUSH1 0x20 ADD PUSH0 KECCAK256 DUP1 SLOAD PUSH2 0xDD6 SWAP1 PUSH2 0x1EAA JUMP JUMPDEST DUP1 PUSH1 0x1F ADD PUSH1 0x20 DUP1 SWAP2 DIV MUL PUSH1 0x20 ADD PUSH1 0x40 MLOAD SWAP1 DUP2 ADD PUSH1 0x40 MSTORE DUP1 SWAP3 SWAP2 SWAP1 DUP2 DUP2 MSTORE PUSH1 0x20 ADD DUP3 DUP1 SLOAD PUSH2 0xE02 SWAP1 PUSH2 0x1EAA JUMP JUMPDEST DUP1 ISZERO PUSH2 0xE4D JUMPI DUP1 PUSH1 0x1F LT PUSH2 0xE24 JUMPI PUSH2 0x100 DUP1 DUP4 SLOAD DIV MUL DUP4 MSTORE SWAP2 PUSH1 0x20 ADD SWAP2 PUSH2 0xE4D JUMP JUMPDEST DUP3 ADD SWAP2 SWAP1 PUSH0 MSTORE PUSH1 0x20 PUSH0 KECCAK256 SWAP1 JUMPDEST DUP2 SLOAD DUP2 MSTORE SWAP1 PUSH1 0x1 ADD SWAP1 PUSH1 0x20 ADD DUP1 DUP4 GT PUSH2 0xE30 JUMPI DUP3 SWAP1 SUB PUSH1 0x1F AND DUP3 ADD SWAP2 JUMPDEST POP POP POP POP POP SWAP1 POP SWAP2 SWAP1 POP JUMP JUMPDEST PUSH1 0x60 PUSH1 0x3 PUSH0 CALLER PUSH20 0xFFFFFFFFFFFFFFFFFFFFFFFFFFFFFFFFFFFFFFFF AND PUSH20 0xFFFFFFFFFFFFFFFFFFFFFFFFFFFFFFFFFFFFFFFF AND DUP2 MSTORE PUSH1 0x20 ADD SWAP1 DUP2 MSTORE PUSH1 0x20 ADD PUSH0 KECCAK256 DUP1 SLOAD DUP1 PUSH1 0x20 MUL PUSH1 0x20 ADD PUSH1 0x40 MLOAD SWAP1 DUP2 ADD PUSH1 0x40 MSTORE DUP1 SWAP3 SWAP2 SWAP1 DUP2 DUP2 MSTORE PUSH1 0x20 ADD DUP3 DUP1 SLOAD DUP1 ISZERO PUSH2 0xF15 JUMPI PUSH1 0x20 MUL DUP3 ADD SWAP2 SWAP1 PUSH0 MSTORE PUSH1 0x20 PUSH0 KECCAK256 SWAP1 JUMPDEST DUP2 PUSH0 SWAP1 SLOAD SWAP1 PUSH2 0x100 EXP SWAP1 DIV PUSH20 0xFFFFFFFFFFFFFFFFFFFFFFFFFFFFFFFFFFFFFFFF AND PUSH20 0xFFFFFFFFFFFFFFFFFFFFFFFFFFFFFFFFFFFFFFFF AND DUP2 MSTORE PUSH1 0x20 ADD SWAP1 PUSH1 0x1 ADD SWAP1 DUP1 DUP4 GT PUSH2 0xECC JUMPI JUMPDEST POP POP POP POP POP SWAP1 POP SWAP1 JUMP JUMPDEST PUSH0 DUP1 PUSH1 0x2 PUSH0 CALLER PUSH20 0xFFFFFFFFFFFFFFFFFFFFFFFFFFFFFFFFFFFFFFFF AND PUSH20 0xFFFFFFFFFFFFFFFFFFFFFFFFFFFFFFFFFFFFFFFF AND DUP2 MSTORE PUSH1 0x20 ADD SWAP1 DUP2 MSTORE PUSH1 0x20 ADD PUSH0 KECCAK256 PUSH0 DUP5 PUSH20 0xFFFFFFFFFFFFFFFFFFFFFFFFFFFFFFFFFFFFFFFF AND PUSH20 0xFFFFFFFFFFFFFFFFFFFFFFFFFFFFFFFFFFFFFFFF AND DUP2 MSTORE PUSH1 0x20 ADD SWAP1 DUP2 MSTORE PUSH1 0x20 ADD PUSH0 KECCAK256 PUSH1 0x1 ADD SLOAD SUB PUSH2 0xFDD JUMPI PUSH1 0x40 MLOAD PUSH32 0x8C379A000000000000000000000000000000000000000000000000000000000 DUP2 MSTORE PUSH1 0x4 ADD PUSH2 0xFD4 SWAP1 PUSH2 0x248F JUMP JUMPDEST PUSH1 0x40 MLOAD DUP1 SWAP2 SUB SWAP1 REVERT JUMPDEST PUSH1 0x2 PUSH0 CALLER PUSH20 0xFFFFFFFFFFFFFFFFFFFFFFFFFFFFFFFFFFFFFFFF AND PUSH20 0xFFFFFFFFFFFFFFFFFFFFFFFFFFFFFFFFFFFFFFFF AND DUP2 MSTORE PUSH1 0x20 ADD SWAP1 DUP2 MSTORE PUSH1 0x20 ADD PUSH0 KECCAK256 PUSH0 DUP4 PUSH20 0xFFFFFFFFFFFFFFFFFFFFFFFFFFFFFFFFFFFFFFFF AND PUSH20 0xFFFFFFFFFFFFFFFFFFFFFFFFFFFFFFFFFFFFFFFF AND DUP2 MSTORE PUSH1 0x20 ADD SWAP1 DUP2 MSTORE PUSH1 0x20 ADD PUSH0 KECCAK256 PUSH0 DUP1 DUP3 ADD PUSH0 PUSH2 0x100 EXP DUP2 SLOAD SWAP1 PUSH20 0xFFFFFFFFFFFFFFFFFFFFFFFFFFFFFFFFFFFFFFFF MUL NOT AND SWAP1 SSTORE PUSH1 0x1 DUP3 ADD PUSH0 SWAP1 SSTORE POP POP PUSH0 JUMPDEST PUSH1 0x3 PUSH0 CALLER PUSH20 0xFFFFFFFFFFFFFFFFFFFFFFFFFFFFFFFFFFFFFFFF AND PUSH20 0xFFFFFFFFFFFFFFFFFFFFFFFFFFFFFFFFFFFFFFFF AND DUP2 MSTORE PUSH1 0x20 ADD SWAP1 DUP2 MSTORE PUSH1 0x20 ADD PUSH0 KECCAK256 DUP1 SLOAD SWAP1 POP DUP2 LT ISZERO PUSH2 0x13C4 JUMPI DUP3 PUSH20 0xFFFFFFFFFFFFFFFFFFFFFFFFFFFFFFFFFFFFFFFF AND PUSH1 0x3 PUSH0 CALLER PUSH20 0xFFFFFFFFFFFFFFFFFFFFFFFFFFFFFFFFFFFFFFFF AND PUSH20 0xFFFFFFFFFFFFFFFFFFFFFFFFFFFFFFFFFFFFFFFF AND DUP2 MSTORE PUSH1 0x20 ADD SWAP1 DUP2 MSTORE PUSH1 0x20 ADD PUSH0 KECCAK256 DUP3 DUP2 SLOAD DUP2 LT PUSH2 0x1134 JUMPI PUSH2 0x1133 PUSH2 0x2344 JUMP JUMPDEST JUMPDEST SWAP1 PUSH0 MSTORE PUSH1 0x20 PUSH0 KECCAK256 ADD PUSH0 SWAP1 SLOAD SWAP1 PUSH2 0x100 EXP SWAP1 DIV PUSH20 0xFFFFFFFFFFFFFFFFFFFFFFFFFFFFFFFFFFFFFFFF AND PUSH20 0xFFFFFFFFFFFFFFFFFFFFFFFFFFFFFFFFFFFFFFFF AND SUB PUSH2 0x13B1 JUMPI PUSH1 0x3 PUSH0 CALLER PUSH20 0xFFFFFFFFFFFFFFFFFFFFFFFFFFFFFFFFFFFFFFFF AND PUSH20 0xFFFFFFFFFFFFFFFFFFFFFFFFFFFFFFFFFFFFFFFF AND DUP2 MSTORE PUSH1 0x20 ADD SWAP1 DUP2 MSTORE PUSH1 0x20 ADD PUSH0 KECCAK256 PUSH1 0x1 PUSH1 0x3 PUSH0 CALLER PUSH20 0xFFFFFFFFFFFFFFFFFFFFFFFFFFFFFFFFFFFFFFFF AND PUSH20 0xFFFFFFFFFFFFFFFFFFFFFFFFFFFFFFFFFFFFFFFF AND DUP2 MSTORE PUSH1 0x20 ADD SWAP1 DUP2 MSTORE PUSH1 0x20 ADD PUSH0 KECCAK256 DUP1 SLOAD SWAP1 POP PUSH2 0x1201 SWAP2 SWAP1 PUSH2 0x239E JUMP JUMPDEST DUP2 SLOAD DUP2 LT PUSH2 0x1212 JUMPI PUSH2 0x1211 PUSH2 0x2344 JUMP JUMPDEST JUMPDEST SWAP1 PUSH0 MSTORE PUSH1 0x20 PUSH0 KECCAK256 ADD PUSH0 SWAP1 SLOAD SWAP1 PUSH2 0x100 EXP SWAP1 DIV PUSH20 0xFFFFFFFFFFFFFFFFFFFFFFFFFFFFFFFFFFFFFFFF AND PUSH1 0x3 PUSH0 CALLER PUSH20 0xFFFFFFFFFFFFFFFFFFFFFFFFFFFFFFFFFFFFFFFF AND PUSH20 0xFFFFFFFFFFFFFFFFFFFFFFFFFFFFFFFFFFFFFFFF AND DUP2 MSTORE PUSH1 0x20 ADD SWAP1 DUP2 MSTORE PUSH1 0x20 ADD PUSH0 KECCAK256 DUP3 DUP2 SLOAD DUP2 LT PUSH2 0x1289 JUMPI PUSH2 0x1288 PUSH2 0x2344 JUMP JUMPDEST JUMPDEST SWAP1 PUSH0 MSTORE PUSH1 0x20 PUSH0 KECCAK256 ADD PUSH0 PUSH2 0x100 EXP DUP2 SLOAD DUP2 PUSH20 0xFFFFFFFFFFFFFFFFFFFFFFFFFFFFFFFFFFFFFFFF MUL NOT AND SWAP1 DUP4 PUSH20 0xFFFFFFFFFFFFFFFFFFFFFFFFFFFFFFFFFFFFFFFF AND MUL OR SWAP1 SSTORE POP PUSH1 0x3 PUSH0 CALLER PUSH20 0xFFFFFFFFFFFFFFFFFFFFFFFFFFFFFFFFFFFFFFFF AND PUSH20 0xFFFFFFFFFFFFFFFFFFFFFFFFFFFFFFFFFFFFFFFF AND DUP2 MSTORE PUSH1 0x20 ADD SWAP1 DUP2 MSTORE PUSH1 0x20 ADD PUSH0 KECCAK256 DUP1 SLOAD DUP1 PUSH2 0x131B JUMPI PUSH2 0x131A PUSH2 0x23D1 JUMP JUMPDEST JUMPDEST PUSH1 0x1 SWAP1 SUB DUP2 DUP2 SWAP1 PUSH0 MSTORE PUSH1 0x20 PUSH0 KECCAK256 ADD PUSH0 PUSH2 0x100 EXP DUP2 SLOAD SWAP1 PUSH20 0xFFFFFFFFFFFFFFFFFFFFFFFFFFFFFFFFFFFFFFFF MUL NOT AND SWAP1 SSTORE SWAP1 SSTORE DUP3 PUSH20 0xFFFFFFFFFFFFFFFFFFFFFFFFFFFFFFFFFFFFFFFF AND CALLER PUSH20 0xFFFFFFFFFFFFFFFFFFFFFFFFFFFFFFFFFFFFFFFF AND PUSH32 0x11F4B134F60F4BD9F709B4EC296696385AFEECC64BD4EB3EA9DFAA89BBFBB4CF PUSH1 0x40 MLOAD PUSH1 0x40 MLOAD DUP1 SWAP2 SUB SWAP1 LOG3 PUSH1 0x1 SWAP2 POP POP PUSH2 0x13C9 JUMP JUMPDEST DUP1 DUP1 PUSH2 0x13BC SWAP1 PUSH2 0x23FE JUMP JUMPDEST SWAP2 POP POP PUSH2 0x1086 JUMP JUMPDEST POP PUSH0 SWAP1 POP JUMPDEST SWAP2 SWAP1 POP JUMP JUMPDEST PUSH1 0x1 PUSH1 0x20 MSTORE DUP1 PUSH0 MSTORE PUSH1 0x40 PUSH0 KECCAK256 PUSH0 SWAP2 POP SWAP1 POP DUP1 SLOAD PUSH2 0x13EA SWAP1 PUSH2 0x1EAA JUMP JUMPDEST DUP1 PUSH1 0x1F ADD PUSH1 0x20 DUP1 SWAP2 DIV MUL PUSH1 0x20 ADD PUSH1 0x40 MLOAD SWAP1 DUP2 ADD PUSH1 0x40 MSTORE DUP1 SWAP3 SWAP2 SWAP1 DUP2 DUP2 MSTORE PUSH1 0x20 ADD DUP3 DUP1 SLOAD PUSH2 0x1416 SWAP1 PUSH2 0x1EAA JUMP JUMPDEST DUP1 ISZERO PUSH2 0x1461 JUMPI DUP1 PUSH1 0x1F LT PUSH2 0x1438 JUMPI PUSH2 0x100 DUP1 DUP4 SLOAD DIV MUL DUP4 MSTORE SWAP2 PUSH1 0x20 ADD SWAP2 PUSH2 0x1461 JUMP JUMPDEST DUP3 ADD SWAP2 SWAP1 PUSH0 MSTORE PUSH1 0x20 PUSH0 KECCAK256 SWAP1 JUMPDEST DUP2 SLOAD DUP2 MSTORE SWAP1 PUSH1 0x1 ADD SWAP1 PUSH1 0x20 ADD DUP1 DUP4 GT PUSH2 0x1444 JUMPI DUP3 SWAP1 SUB PUSH1 0x1F AND DUP3 ADD SWAP2 JUMPDEST POP POP POP POP POP DUP2 JUMP JUMPDEST PUSH1 0x5 PUSH1 0x20 MSTORE DUP2 PUSH0 MSTORE PUSH1 0x40 PUSH0 KECCAK256 DUP2 DUP2 SLOAD DUP2 LT PUSH2 0x1482 JUMPI PUSH0 DUP1 REVERT JUMPDEST SWAP1 PUSH0 MSTORE PUSH1 0x20 PUSH0 KECCAK256 ADD PUSH0 SWAP2 POP SWAP2 POP SWAP1 SLOAD SWAP1 PUSH2 0x100 EXP SWAP1 DIV PUSH20 0xFFFFFFFFFFFFFFFFFFFFFFFFFFFFFFFFFFFFFFFF AND DUP2 JUMP JUMPDEST PUSH1 0x2 PUSH1 0x20 MSTORE DUP2 PUSH0 MSTORE PUSH1 0x40 PUSH0 KECCAK256 PUSH1 0x20 MSTORE DUP1 PUSH0 MSTORE PUSH1 0x40 PUSH0 KECCAK256 PUSH0 SWAP2 POP SWAP2 POP POP DUP1 PUSH0 ADD PUSH0 SWAP1 SLOAD SWAP1 PUSH2 0x100 EXP SWAP1 DIV PUSH20 0xFFFFFFFFFFFFFFFFFFFFFFFFFFFFFFFFFFFFFFFF AND SWAP1 DUP1 PUSH1 0x1 ADD SLOAD SWAP1 POP DUP3 JUMP JUMPDEST PUSH1 0x4 PUSH1 0x20 MSTORE DUP2 PUSH0 MSTORE PUSH1 0x40 PUSH0 KECCAK256 PUSH1 0x20 MSTORE DUP1 PUSH0 MSTORE PUSH1 0x40 PUSH0 KECCAK256 PUSH0 SWAP2 POP SWAP2 POP POP DUP1 PUSH0 ADD PUSH0 SWAP1 SLOAD SWAP1 PUSH2 0x100 EXP SWAP1 DIV PUSH20 0xFFFFFFFFFFFFFFFFFFFFFFFFFFFFFFFFFFFFFFFF AND SWAP1 DUP1 PUSH1 0x1 ADD SLOAD SWAP1 POP DUP3 JUMP JUMPDEST PUSH0 CALLER PUSH20 0xFFFFFFFFFFFFFFFFFFFFFFFFFFFFFFFFFFFFFFFF AND DUP3 PUSH20 0xFFFFFFFFFFFFFFFFFFFFFFFFFFFFFFFFFFFFFFFF AND SUB PUSH2 0x15B4 JUMPI PUSH1 0x40 MLOAD PUSH32 0x8C379A000000000000000000000000000000000000000000000000000000000 DUP2 MSTORE PUSH1 0x4 ADD PUSH2 0x15AB SWAP1 PUSH2 0x24F7 JUMP JUMPDEST PUSH1 0x40 MLOAD DUP1 SWAP2 SUB SWAP1 REVERT JUMPDEST PUSH0 SLOAD PUSH1 0x1 PUSH0 DUP5 PUSH20 0xFFFFFFFFFFFFFFFFFFFFFFFFFFFFFFFFFFFFFFFF AND PUSH20 0xFFFFFFFFFFFFFFFFFFFFFFFFFFFFFFFFFFFFFFFF AND DUP2 MSTORE PUSH1 0x20 ADD SWAP1 DUP2 MSTORE PUSH1 0x20 ADD PUSH0 KECCAK256 PUSH1 0x40 MLOAD PUSH1 0x20 ADD PUSH2 0x1603 SWAP2 SWAP1 PUSH2 0x1F76 JUMP JUMPDEST PUSH1 0x40 MLOAD PUSH1 0x20 DUP2 DUP4 SUB SUB DUP2 MSTORE SWAP1 PUSH1 0x40 MSTORE DUP1 MLOAD SWAP1 PUSH1 0x20 ADD KECCAK256 SUB PUSH2 0x1659 JUMPI PUSH1 0x40 MLOAD PUSH32 0x8C379A000000000000000000000000000000000000000000000000000000000 DUP2 MSTORE PUSH1 0x4 ADD PUSH2 0x1650 SWAP1 PUSH2 0x2585 JUMP JUMPDEST PUSH1 0x40 MLOAD DUP1 SWAP2 SUB SWAP1 REVERT JUMPDEST PUSH0 PUSH1 0x2 PUSH0 CALLER PUSH20 0xFFFFFFFFFFFFFFFFFFFFFFFFFFFFFFFFFFFFFFFF AND PUSH20 0xFFFFFFFFFFFFFFFFFFFFFFFFFFFFFFFFFFFFFFFF AND DUP2 MSTORE PUSH1 0x20 ADD SWAP1 DUP2 MSTORE PUSH1 0x20 ADD PUSH0 KECCAK256 PUSH0 DUP5 PUSH20 0xFFFFFFFFFFFFFFFFFFFFFFFFFFFFFFFFFFFFFFFF AND PUSH20 0xFFFFFFFFFFFFFFFFFFFFFFFFFFFFFFFFFFFFFFFF AND DUP2 MSTORE PUSH1 0x20 ADD SWAP1 DUP2 MSTORE PUSH1 0x20 ADD PUSH0 KECCAK256 PUSH1 0x1 ADD SLOAD EQ PUSH2 0x16E6 JUMPI PUSH2 0x16E4 DUP3 PUSH2 0xF1F JUMP JUMPDEST POP JUMPDEST PUSH0 PUSH1 0x40 MLOAD DUP1 PUSH1 0x40 ADD PUSH1 0x40 MSTORE DUP1 DUP5 PUSH20 0xFFFFFFFFFFFFFFFFFFFFFFFFFFFFFFFFFFFFFFFF AND DUP2 MSTORE PUSH1 0x20 ADD TIMESTAMP DUP2 MSTORE POP SWAP1 POP DUP1 PUSH1 0x4 PUSH0 CALLER PUSH20 0xFFFFFFFFFFFFFFFFFFFFFFFFFFFFFFFFFFFFFFFF AND PUSH20 0xFFFFFFFFFFFFFFFFFFFFFFFFFFFFFFFFFFFFFFFF AND DUP2 MSTORE PUSH1 0x20 ADD SWAP1 DUP2 MSTORE PUSH1 0x20 ADD PUSH0 KECCAK256 PUSH0 DUP6 PUSH20 0xFFFFFFFFFFFFFFFFFFFFFFFFFFFFFFFFFFFFFFFF AND PUSH20 0xFFFFFFFFFFFFFFFFFFFFFFFFFFFFFFFFFFFFFFFF AND DUP2 MSTORE PUSH1 0x20 ADD SWAP1 DUP2 MSTORE PUSH1 0x20 ADD PUSH0 KECCAK256 PUSH0 DUP3 ADD MLOAD DUP2 PUSH0 ADD PUSH0 PUSH2 0x100 EXP DUP2 SLOAD DUP2 PUSH20 0xFFFFFFFFFFFFFFFFFFFFFFFFFFFFFFFFFFFFFFFF MUL NOT AND SWAP1 DUP4 PUSH20 0xFFFFFFFFFFFFFFFFFFFFFFFFFFFFFFFFFFFFFFFF AND MUL OR SWAP1 SSTORE POP PUSH1 0x20 DUP3 ADD MLOAD DUP2 PUSH1 0x1 ADD SSTORE SWAP1 POP POP PUSH1 0x5 PUSH0 CALLER PUSH20 0xFFFFFFFFFFFFFFFFFFFFFFFFFFFFFFFFFFFFFFFF AND PUSH20 0xFFFFFFFFFFFFFFFFFFFFFFFFFFFFFFFFFFFFFFFF AND DUP2 MSTORE PUSH1 0x20 ADD SWAP1 DUP2 MSTORE PUSH1 0x20 ADD PUSH0 KECCAK256 DUP4 SWAP1 DUP1 PUSH1 0x1 DUP2 SLOAD ADD DUP1 DUP3 SSTORE DUP1 SWAP2 POP POP PUSH1 0x1 SWAP1 SUB SWAP1 PUSH0 MSTORE PUSH1 0x20 PUSH0 KECCAK256 ADD PUSH0 SWAP1 SWAP2 SWAP1 SWAP2 SWAP1 SWAP2 PUSH2 0x100 EXP DUP2 SLOAD DUP2 PUSH20 0xFFFFFFFFFFFFFFFFFFFFFFFFFFFFFFFFFFFFFFFF MUL NOT AND SWAP1 DUP4 PUSH20 0xFFFFFFFFFFFFFFFFFFFFFFFFFFFFFFFFFFFFFFFF AND MUL OR SWAP1 SSTORE POP DUP3 PUSH20 0xFFFFFFFFFFFFFFFFFFFFFFFFFFFFFFFFFFFFFFFF AND CALLER PUSH20 0xFFFFFFFFFFFFFFFFFFFFFFFFFFFFFFFFFFFFFFFF AND PUSH32 0x43122FEE1265880A3328F07D7EC01B1485632605D0DF401FF2394FE731AC644E PUSH1 0x40 MLOAD PUSH1 0x40 MLOAD DUP1 SWAP2 SUB SWAP1 LOG3 PUSH1 0x1 SWAP2 POP POP SWAP2 SWAP1 POP JUMP JUMPDEST PUSH1 0x3 PUSH1 0x20 MSTORE DUP2 PUSH0 MSTORE PUSH1 0x40 PUSH0 KECCAK256 DUP2 DUP2 SLOAD DUP2 LT PUSH2 0x18F6 JUMPI PUSH0 DUP1 REVERT JUMPDEST SWAP1 PUSH0 MSTORE PUSH1 0x20 PUSH0 KECCAK256 ADD PUSH0 SWAP2 POP SWAP2 POP SWAP1 SLOAD SWAP1 PUSH2 0x100 EXP SWAP1 DIV PUSH20 0xFFFFFFFFFFFFFFFFFFFFFFFFFFFFFFFFFFFFFFFF AND DUP2 JUMP JUMPDEST PUSH0 PUSH1 0x40 MLOAD SWAP1 POP SWAP1 JUMP JUMPDEST PUSH0 DUP1 REVERT JUMPDEST PUSH0 DUP1 REVERT JUMPDEST PUSH0 PUSH20 0xFFFFFFFFFFFFFFFFFFFFFFFFFFFFFFFFFFFFFFFF DUP3 AND SWAP1 POP SWAP2 SWAP1 POP JUMP JUMPDEST PUSH0 PUSH2 0x195F DUP3 PUSH2 0x1936 JUMP JUMPDEST SWAP1 POP SWAP2 SWAP1 POP JUMP JUMPDEST PUSH2 0x196F DUP2 PUSH2 0x1955 JUMP JUMPDEST DUP2 EQ PUSH2 0x1979 JUMPI PUSH0 DUP1 REVERT JUMPDEST POP JUMP JUMPDEST PUSH0 DUP2 CALLDATALOAD SWAP1 POP PUSH2 0x198A DUP2 PUSH2 0x1966 JUMP JUMPDEST SWAP3 SWAP2 POP POP JUMP JUMPDEST PUSH0 PUSH1 0x20 DUP3 DUP5 SUB SLT ISZERO PUSH2 0x19A5 JUMPI PUSH2 0x19A4 PUSH2 0x192E JUMP JUMPDEST JUMPDEST PUSH0 PUSH2 0x19B2 DUP5 DUP3 DUP6 ADD PUSH2 0x197C JUMP JUMPDEST SWAP2 POP POP SWAP3 SWAP2 POP POP JUMP JUMPDEST PUSH0 DUP2 ISZERO ISZERO SWAP1 POP SWAP2 SWAP1 POP JUMP JUMPDEST PUSH2 0x19CF DUP2 PUSH2 0x19BB JUMP JUMPDEST DUP3 MSTORE POP POP JUMP JUMPDEST PUSH0 PUSH1 0x20 DUP3 ADD SWAP1 POP PUSH2 0x19E8 PUSH0 DUP4 ADD DUP5 PUSH2 0x19C6 JUMP JUMPDEST SWAP3 SWAP2 POP POP JUMP JUMPDEST PUSH0 DUP2 MLOAD SWAP1 POP SWAP2 SWAP1 POP JUMP JUMPDEST PUSH0 DUP3 DUP3 MSTORE PUSH1 0x20 DUP3 ADD SWAP1 POP SWAP3 SWAP2 POP POP JUMP JUMPDEST PUSH0 DUP2 SWAP1 POP PUSH1 0x20 DUP3 ADD SWAP1 POP SWAP2 SWAP1 POP JUMP JUMPDEST PUSH2 0x1A20 DUP2 PUSH2 0x1955 JUMP JUMPDEST DUP3 MSTORE POP POP JUMP JUMPDEST PUSH0 PUSH2 0x1A31 DUP4 DUP4 PUSH2 0x1A17 JUMP JUMPDEST PUSH1 0x20 DUP4 ADD SWAP1 POP SWAP3 SWAP2 POP POP JUMP JUMPDEST PUSH0 PUSH1 0x20 DUP3 ADD SWAP1 POP SWAP2 SWAP1 POP JUMP JUMPDEST PUSH0 PUSH2 0x1A53 DUP3 PUSH2 0x19EE JUMP JUMPDEST PUSH2 0x1A5D DUP2 DUP6 PUSH2 0x19F8 JUMP JUMPDEST SWAP4 POP PUSH2 0x1A68 DUP4 PUSH2 0x1A08 JUMP JUMPDEST DUP1 PUSH0 JUMPDEST DUP4 DUP2 LT ISZERO PUSH2 0x1A98 JUMPI DUP2 MLOAD PUSH2 0x1A7F DUP9 DUP3 PUSH2 0x1A26 JUMP JUMPDEST SWAP8 POP PUSH2 0x1A8A DUP4 PUSH2 0x1A3D JUMP JUMPDEST SWAP3 POP POP PUSH1 0x1 DUP2 ADD SWAP1 POP PUSH2 0x1A6B JUMP JUMPDEST POP DUP6 SWAP4 POP POP POP POP SWAP3 SWAP2 POP POP JUMP JUMPDEST PUSH0 PUSH1 0x20 DUP3 ADD SWAP1 POP DUP2 DUP2 SUB PUSH0 DUP4 ADD MSTORE PUSH2 0x1ABD DUP2 DUP5 PUSH2 0x1A49 JUMP JUMPDEST SWAP1 POP SWAP3 SWAP2 POP POP JUMP JUMPDEST PUSH0 DUP1 REVERT JUMPDEST PUSH0 DUP1 REVERT JUMPDEST PUSH0 PUSH1 0x1F NOT PUSH1 0x1F DUP4 ADD AND SWAP1 POP SWAP2 SWAP1 POP JUMP JUMPDEST PUSH32 0x4E487B7100000000000000000000000000000000000000000000000000000000 PUSH0 MSTORE PUSH1 0x41 PUSH1 0x4 MSTORE PUSH1 0x24 PUSH0 REVERT JUMPDEST PUSH2 0x1B13 DUP3 PUSH2 0x1ACD JUMP JUMPDEST DUP2 ADD DUP2 DUP2 LT PUSH8 0xFFFFFFFFFFFFFFFF DUP3 GT OR ISZERO PUSH2 0x1B32 JUMPI PUSH2 0x1B31 PUSH2 0x1ADD JUMP JUMPDEST JUMPDEST DUP1 PUSH1 0x40 MSTORE POP POP POP JUMP JUMPDEST PUSH0 PUSH2 0x1B44 PUSH2 0x1925 JUMP JUMPDEST SWAP1 POP PUSH2 0x1B50 DUP3 DUP3 PUSH2 0x1B0A JUMP JUMPDEST SWAP2 SWAP1 POP JUMP JUMPDEST PUSH0 PUSH8 0xFFFFFFFFFFFFFFFF DUP3 GT ISZERO PUSH2 0x1B6F JUMPI PUSH2 0x1B6E PUSH2 0x1ADD JUMP JUMPDEST JUMPDEST PUSH2 0x1B78 DUP3 PUSH2 0x1ACD JUMP JUMPDEST SWAP1 POP PUSH1 0x20 DUP2 ADD SWAP1 POP SWAP2 SWAP1 POP JUMP JUMPDEST DUP3 DUP2 DUP4 CALLDATACOPY PUSH0 DUP4 DUP4 ADD MSTORE POP POP POP JUMP JUMPDEST PUSH0 PUSH2 0x1BA5 PUSH2 0x1BA0 DUP5 PUSH2 0x1B55 JUMP JUMPDEST PUSH2 0x1B3B JUMP JUMPDEST SWAP1 POP DUP3 DUP2 MSTORE PUSH1 0x20 DUP2 ADD DUP5 DUP5 DUP5 ADD GT ISZERO PUSH2 0x1BC1 JUMPI PUSH2 0x1BC0 PUSH2 0x1AC9 JUMP JUMPDEST JUMPDEST PUSH2 0x1BCC DUP5 DUP3 DUP6 PUSH2 0x1B85 JUMP JUMPDEST POP SWAP4 SWAP3 POP POP POP JUMP JUMPDEST PUSH0 DUP3 PUSH1 0x1F DUP4 ADD SLT PUSH2 0x1BE8 JUMPI PUSH2 0x1BE7 PUSH2 0x1AC5 JUMP JUMPDEST JUMPDEST DUP2 CALLDATALOAD PUSH2 0x1BF8 DUP5 DUP3 PUSH1 0x20 DUP7 ADD PUSH2 0x1B93 JUMP JUMPDEST SWAP2 POP POP SWAP3 SWAP2 POP POP JUMP JUMPDEST PUSH0 PUSH1 0x20 DUP3 DUP5 SUB SLT ISZERO PUSH2 0x1C16 JUMPI PUSH2 0x1C15 PUSH2 0x192E JUMP JUMPDEST JUMPDEST PUSH0 DUP3 ADD CALLDATALOAD PUSH8 0xFFFFFFFFFFFFFFFF DUP2 GT ISZERO PUSH2 0x1C33 JUMPI PUSH2 0x1C32 PUSH2 0x1932 JUMP JUMPDEST JUMPDEST PUSH2 0x1C3F DUP5 DUP3 DUP6 ADD PUSH2 0x1BD4 JUMP JUMPDEST SWAP2 POP POP SWAP3 SWAP2 POP POP JUMP JUMPDEST PUSH0 DUP2 MLOAD SWAP1 POP SWAP2 SWAP1 POP JUMP JUMPDEST PUSH0 DUP3 DUP3 MSTORE PUSH1 0x20 DUP3 ADD SWAP1 POP SWAP3 SWAP2 POP POP JUMP JUMPDEST PUSH0 JUMPDEST DUP4 DUP2 LT ISZERO PUSH2 0x1C7F JUMPI DUP1 DUP3 ADD MLOAD DUP2 DUP5 ADD MSTORE PUSH1 0x20 DUP2 ADD SWAP1 POP PUSH2 0x1C64 JUMP JUMPDEST PUSH0 DUP5 DUP5 ADD MSTORE POP POP POP POP JUMP JUMPDEST PUSH0 PUSH2 0x1C94 DUP3 PUSH2 0x1C48 JUMP JUMPDEST PUSH2 0x1C9E DUP2 DUP6 PUSH2 0x1C52 JUMP JUMPDEST SWAP4 POP PUSH2 0x1CAE DUP2 DUP6 PUSH1 0x20 DUP7 ADD PUSH2 0x1C62 JUMP JUMPDEST PUSH2 0x1CB7 DUP2 PUSH2 0x1ACD JUMP JUMPDEST DUP5 ADD SWAP2 POP POP SWAP3 SWAP2 POP POP JUMP JUMPDEST PUSH0 PUSH1 0x20 DUP3 ADD SWAP1 POP DUP2 DUP2 SUB PUSH0 DUP4 ADD MSTORE PUSH2 0x1CDA DUP2 DUP5 PUSH2 0x1C8A JUMP JUMPDEST SWAP1 POP SWAP3 SWAP2 POP POP JUMP JUMPDEST PUSH0 DUP2 SWAP1 POP SWAP2 SWAP1 POP JUMP JUMPDEST PUSH2 0x1CF4 DUP2 PUSH2 0x1CE2 JUMP JUMPDEST DUP2 EQ PUSH2 0x1CFE JUMPI PUSH0 DUP1 REVERT JUMPDEST POP JUMP JUMPDEST PUSH0 DUP2 CALLDATALOAD SWAP1 POP PUSH2 0x1D0F DUP2 PUSH2 0x1CEB JUMP JUMPDEST SWAP3 SWAP2 POP POP JUMP JUMPDEST PUSH0 DUP1 PUSH1 0x40 DUP4 DUP6 SUB SLT ISZERO PUSH2 0x1D2B JUMPI PUSH2 0x1D2A PUSH2 0x192E JUMP JUMPDEST JUMPDEST PUSH0 PUSH2 0x1D38 DUP6 DUP3 DUP7 ADD PUSH2 0x197C JUMP JUMPDEST SWAP3 POP POP PUSH1 0x20 PUSH2 0x1D49 DUP6 DUP3 DUP7 ADD PUSH2 0x1D01 JUMP JUMPDEST SWAP2 POP POP SWAP3 POP SWAP3 SWAP1 POP JUMP JUMPDEST PUSH2 0x1D5C DUP2 PUSH2 0x1955 JUMP JUMPDEST DUP3 MSTORE POP POP JUMP JUMPDEST PUSH0 PUSH1 0x20 DUP3 ADD SWAP1 POP PUSH2 0x1D75 PUSH0 DUP4 ADD DUP5 PUSH2 0x1D53 JUMP JUMPDEST SWAP3 SWAP2 POP POP JUMP JUMPDEST PUSH0 DUP1 PUSH1 0x40 DUP4 DUP6 SUB SLT ISZERO PUSH2 0x1D91 JUMPI PUSH2 0x1D90 PUSH2 0x192E JUMP JUMPDEST JUMPDEST PUSH0 PUSH2 0x1D9E DUP6 DUP3 DUP7 ADD PUSH2 0x197C JUMP JUMPDEST SWAP3 POP POP PUSH1 0x20 PUSH2 0x1DAF DUP6 DUP3 DUP7 ADD PUSH2 0x197C JUMP JUMPDEST SWAP2 POP POP SWAP3 POP SWAP3 SWAP1 POP JUMP JUMPDEST PUSH2 0x1DC2 DUP2 PUSH2 0x1CE2 JUMP JUMPDEST DUP3 MSTORE POP POP JUMP JUMPDEST PUSH0 PUSH1 0x40 DUP3 ADD SWAP1 POP PUSH2 0x1DDB PUSH0 DUP4 ADD DUP6 PUSH2 0x1D53 JUMP JUMPDEST PUSH2 0x1DE8 PUSH1 0x20 DUP4 ADD DUP5 PUSH2 0x1DB9 JUMP JUMPDEST SWAP4 SWAP3 POP POP POP JUMP JUMPDEST PUSH32 0x796F752063616E206E6F742061646420796F757273656C662061732061206672 PUSH0 DUP3 ADD MSTORE PUSH32 0x69656E6400000000000000000000000000000000000000000000000000000000 PUSH1 0x20 DUP3 ADD MSTORE POP JUMP JUMPDEST PUSH0 PUSH2 0x1E49 PUSH1 0x24 DUP4 PUSH2 0x1C52 JUMP JUMPDEST SWAP2 POP PUSH2 0x1E54 DUP3 PUSH2 0x1DEF JUMP JUMPDEST PUSH1 0x40 DUP3 ADD SWAP1 POP SWAP2 SWAP1 POP JUMP JUMPDEST PUSH0 PUSH1 0x20 DUP3 ADD SWAP1 POP DUP2 DUP2 SUB PUSH0 DUP4 ADD MSTORE PUSH2 0x1E76 DUP2 PUSH2 0x1E3D JUMP JUMPDEST SWAP1 POP SWAP2 SWAP1 POP JUMP JUMPDEST PUSH32 0x4E487B7100000000000000000000000000000000000000000000000000000000 PUSH0 MSTORE PUSH1 0x22 PUSH1 0x4 MSTORE PUSH1 0x24 PUSH0 REVERT JUMPDEST PUSH0 PUSH1 0x2 DUP3 DIV SWAP1 POP PUSH1 0x1 DUP3 AND DUP1 PUSH2 0x1EC1 JUMPI PUSH1 0x7F DUP3 AND SWAP2 POP JUMPDEST PUSH1 0x20 DUP3 LT DUP2 SUB PUSH2 0x1ED4 JUMPI PUSH2 0x1ED3 PUSH2 0x1E7D JUMP JUMPDEST JUMPDEST POP SWAP2 SWAP1 POP JUMP JUMPDEST PUSH0 DUP2 SWAP1 POP SWAP3 SWAP2 POP POP JUMP JUMPDEST PUSH0 DUP2 SWAP1 POP DUP2 PUSH0 MSTORE PUSH1 0x20 PUSH0 KECCAK256 SWAP1 POP SWAP2 SWAP1 POP JUMP JUMPDEST PUSH0 DUP2 SLOAD PUSH2 0x1F02 DUP2 PUSH2 0x1EAA JUMP JUMPDEST PUSH2 0x1F0C DUP2 DUP7 PUSH2 0x1EDA JUMP JUMPDEST SWAP5 POP PUSH1 0x1 DUP3 AND PUSH0 DUP2 EQ PUSH2 0x1F26 JUMPI PUSH1 0x1 DUP2 EQ PUSH2 0x1F3B JUMPI PUSH2 0x1F6D JUMP JUMPDEST PUSH1 0xFF NOT DUP4 AND DUP7 MSTORE DUP2 ISZERO ISZERO DUP3 MUL DUP7 ADD SWAP4 POP PUSH2 0x1F6D JUMP JUMPDEST PUSH2 0x1F44 DUP6 PUSH2 0x1EE4 JUMP JUMPDEST PUSH0 JUMPDEST DUP4 DUP2 LT ISZERO PUSH2 0x1F65 JUMPI DUP2 SLOAD DUP2 DUP10 ADD MSTORE PUSH1 0x1 DUP3 ADD SWAP2 POP PUSH1 0x20 DUP2 ADD SWAP1 POP PUSH2 0x1F46 JUMP JUMPDEST DUP4 DUP9 ADD SWAP6 POP POP POP JUMPDEST POP POP POP SWAP3 SWAP2 POP POP JUMP JUMPDEST PUSH0 PUSH2 0x1F81 DUP3 DUP5 PUSH2 0x1EF6 JUMP JUMPDEST SWAP2 POP DUP2 SWAP1 POP SWAP3 SWAP2 POP POP JUMP JUMPDEST PUSH32 0x796F752063616E206E6F74206164642061207573657220746861742068617320 PUSH0 DUP3 ADD MSTORE PUSH32 0x6E6F207075626B65790000000000000000000000000000000000000000000000 PUSH1 0x20 DUP3 ADD MSTORE POP JUMP JUMPDEST PUSH0 PUSH2 0x1FE6 PUSH1 0x29 DUP4 PUSH2 0x1C52 JUMP JUMPDEST SWAP2 POP PUSH2 0x1FF1 DUP3 PUSH2 0x1F8C JUMP JUMPDEST PUSH1 0x40 DUP3 ADD SWAP1 POP SWAP2 SWAP1 POP JUMP JUMPDEST PUSH0 PUSH1 0x20 DUP3 ADD SWAP1 POP DUP2 DUP2 SUB PUSH0 DUP4 ADD MSTORE PUSH2 0x2013 DUP2 PUSH2 0x1FDA JUMP JUMPDEST SWAP1 POP SWAP2 SWAP1 POP JUMP JUMPDEST PUSH32 0x68652F73686520697320796F757220667269656E6420616C7265616479000000 PUSH0 DUP3 ADD MSTORE POP JUMP JUMPDEST PUSH0 PUSH2 0x204E PUSH1 0x1D DUP4 PUSH2 0x1C52 JUMP JUMPDEST SWAP2 POP PUSH2 0x2059 DUP3 PUSH2 0x201A JUMP JUMPDEST PUSH1 0x20 DUP3 ADD SWAP1 POP SWAP2 SWAP1 POP JUMP JUMPDEST PUSH0 PUSH1 0x20 DUP3 ADD SWAP1 POP DUP2 DUP2 SUB PUSH0 DUP4 ADD MSTORE PUSH2 0x207B DUP2 PUSH2 0x2042 JUMP JUMPDEST SWAP1 POP SWAP2 SWAP1 POP JUMP JUMPDEST PUSH0 PUSH1 0x20 PUSH1 0x1F DUP4 ADD DIV SWAP1 POP SWAP2 SWAP1 POP JUMP JUMPDEST PUSH0 DUP3 DUP3 SHL SWAP1 POP SWAP3 SWAP2 POP POP JUMP JUMPDEST PUSH0 PUSH1 0x8 DUP4 MUL PUSH2 0x20CC PUSH32 0xFFFFFFFFFFFFFFFFFFFFFFFFFFFFFFFFFFFFFFFFFFFFFFFFFFFFFFFFFFFFFFFF DUP3 PUSH2 0x2091 JUMP JUMPDEST PUSH2 0x20D6 DUP7 DUP4 PUSH2 0x2091 JUMP JUMPDEST SWAP6 POP DUP1 NOT DUP5 AND SWAP4 POP DUP1 DUP7 AND DUP5 OR SWAP3 POP POP POP SWAP4 SWAP3 POP POP POP JUMP JUMPDEST PUSH0 DUP2 SWAP1 POP SWAP2 SWAP1 POP JUMP JUMPDEST PUSH0 PUSH2 0x2111 PUSH2 0x210C PUSH2 0x2107 DUP5 PUSH2 0x1CE2 JUMP JUMPDEST PUSH2 0x20EE JUMP JUMPDEST PUSH2 0x1CE2 JUMP JUMPDEST SWAP1 POP SWAP2 SWAP1 POP JUMP JUMPDEST PUSH0 DUP2 SWAP1 POP SWAP2 SWAP1 POP JUMP JUMPDEST PUSH2 0x212A DUP4 PUSH2 0x20F7 JUMP JUMPDEST PUSH2 0x213E PUSH2 0x2136 DUP3 PUSH2 0x2118 JUMP JUMPDEST DUP5 DUP5 SLOAD PUSH2 0x209D JUMP JUMPDEST DUP3 SSTORE POP POP POP POP JUMP JUMPDEST PUSH0 SWAP1 JUMP JUMPDEST PUSH2 0x2152 PUSH2 0x2146 JUMP JUMPDEST PUSH2 0x215D DUP2 DUP5 DUP5 PUSH2 0x2121 JUMP JUMPDEST POP POP POP JUMP JUMPDEST JUMPDEST DUP2 DUP2 LT ISZERO PUSH2 0x2180 JUMPI PUSH2 0x2175 PUSH0 DUP3 PUSH2 0x214A JUMP JUMPDEST PUSH1 0x1 DUP2 ADD SWAP1 POP PUSH2 0x2163 JUMP JUMPDEST POP POP JUMP JUMPDEST PUSH1 0x1F DUP3 GT ISZERO PUSH2 0x21C5 JUMPI PUSH2 0x2196 DUP2 PUSH2 0x1EE4 JUMP JUMPDEST PUSH2 0x219F DUP5 PUSH2 0x2082 JUMP JUMPDEST DUP2 ADD PUSH1 0x20 DUP6 LT ISZERO PUSH2 0x21AE JUMPI DUP2 SWAP1 POP JUMPDEST PUSH2 0x21C2 PUSH2 0x21BA DUP6 PUSH2 0x2082 JUMP JUMPDEST DUP4 ADD DUP3 PUSH2 0x2162 JUMP JUMPDEST POP POP JUMPDEST POP POP POP JUMP JUMPDEST PUSH0 DUP3 DUP3 SHR SWAP1 POP SWAP3 SWAP2 POP POP JUMP JUMPDEST PUSH0 PUSH2 0x21E5 PUSH0 NOT DUP5 PUSH1 0x8 MUL PUSH2 0x21CA JUMP JUMPDEST NOT DUP1 DUP4 AND SWAP2 POP POP SWAP3 SWAP2 POP POP JUMP JUMPDEST PUSH0 PUSH2 0x21FD DUP4 DUP4 PUSH2 0x21D6 JUMP JUMPDEST SWAP2 POP DUP3 PUSH1 0x2 MUL DUP3 OR SWAP1 POP SWAP3 SWAP2 POP POP JUMP JUMPDEST PUSH2 0x2216 DUP3 PUSH2 0x1C48 JUMP JUMPDEST PUSH8 0xFFFFFFFFFFFFFFFF DUP2 GT ISZERO PUSH2 0x222F JUMPI PUSH2 0x222E PUSH2 0x1ADD JUMP JUMPDEST JUMPDEST PUSH2 0x2239 DUP3 SLOAD PUSH2 0x1EAA JUMP JUMPDEST PUSH2 0x2244 DUP3 DUP3 DUP6 PUSH2 0x2184 JUMP JUMPDEST PUSH0 PUSH1 0x20 SWAP1 POP PUSH1 0x1F DUP4 GT PUSH1 0x1 DUP2 EQ PUSH2 0x2275 JUMPI PUSH0 DUP5 ISZERO PUSH2 0x2263 JUMPI DUP3 DUP8 ADD MLOAD SWAP1 POP JUMPDEST PUSH2 0x226D DUP6 DUP3 PUSH2 0x21F2 JUMP JUMPDEST DUP7 SSTORE POP PUSH2 0x22D4 JUMP JUMPDEST PUSH1 0x1F NOT DUP5 AND PUSH2 0x2283 DUP7 PUSH2 0x1EE4 JUMP JUMPDEST PUSH0 JUMPDEST DUP3 DUP2 LT ISZERO PUSH2 0x22AA JUMPI DUP5 DUP10 ADD MLOAD DUP3 SSTORE PUSH1 0x1 DUP3 ADD SWAP2 POP PUSH1 0x20 DUP6 ADD SWAP5 POP PUSH1 0x20 DUP2 ADD SWAP1 POP PUSH2 0x2285 JUMP JUMPDEST DUP7 DUP4 LT ISZERO PUSH2 0x22C7 JUMPI DUP5 DUP10 ADD MLOAD PUSH2 0x22C3 PUSH1 0x1F DUP10 AND DUP3 PUSH2 0x21D6 JUMP JUMPDEST DUP4 SSTORE POP JUMPDEST PUSH1 0x1 PUSH1 0x2 DUP9 MUL ADD DUP9 SSTORE POP POP POP JUMPDEST POP POP POP POP POP POP JUMP JUMPDEST PUSH32 0x68652F736865206973206E6F7420796F757220626C6F636B206C697374000000 PUSH0 DUP3 ADD MSTORE POP JUMP JUMPDEST PUSH0 PUSH2 0x2310 PUSH1 0x1D DUP4 PUSH2 0x1C52 JUMP JUMPDEST SWAP2 POP PUSH2 0x231B DUP3 PUSH2 0x22DC JUMP JUMPDEST PUSH1 0x20 DUP3 ADD SWAP1 POP SWAP2 SWAP1 POP JUMP JUMPDEST PUSH0 PUSH1 0x20 DUP3 ADD SWAP1 POP DUP2 DUP2 SUB PUSH0 DUP4 ADD MSTORE PUSH2 0x233D DUP2 PUSH2 0x2304 JUMP JUMPDEST SWAP1 POP SWAP2 SWAP1 POP JUMP JUMPDEST PUSH32 0x4E487B7100000000000000000000000000000000000000000000000000000000 PUSH0 MSTORE PUSH1 0x32 PUSH1 0x4 MSTORE PUSH1 0x24 PUSH0 REVERT JUMPDEST PUSH32 0x4E487B7100000000000000000000000000000000000000000000000000000000 PUSH0 MSTORE PUSH1 0x11 PUSH1 0x4 MSTORE PUSH1 0x24 PUSH0 REVERT JUMPDEST PUSH0 PUSH2 0x23A8 DUP3 PUSH2 0x1CE2 JUMP JUMPDEST SWAP2 POP PUSH2 0x23B3 DUP4 PUSH2 0x1CE2 JUMP JUMPDEST SWAP3 POP DUP3 DUP3 SUB SWAP1 POP DUP2 DUP2 GT ISZERO PUSH2 0x23CB JUMPI PUSH2 0x23CA PUSH2 0x2371 JUMP JUMPDEST JUMPDEST SWAP3 SWAP2 POP POP JUMP JUMPDEST PUSH32 0x4E487B7100000000000000000000000000000000000000000000000000000000 PUSH0 MSTORE PUSH1 0x31 PUSH1 0x4 MSTORE PUSH1 0x24 PUSH0 REVERT JUMPDEST PUSH0 PUSH2 0x2408 DUP3 PUSH2 0x1CE2 JUMP JUMPDEST SWAP2 POP PUSH32 0xFFFFFFFFFFFFFFFFFFFFFFFFFFFFFFFFFFFFFFFFFFFFFFFFFFFFFFFFFFFFFFFF DUP3 SUB PUSH2 0x243A JUMPI PUSH2 0x2439 PUSH2 0x2371 JUMP JUMPDEST JUMPDEST PUSH1 0x1 DUP3 ADD SWAP1 POP SWAP2 SWAP1 POP JUMP JUMPDEST PUSH32 0x68652F736865206973206E6F7420796F757220667269656E6400000000000000 PUSH0 DUP3 ADD MSTORE POP JUMP JUMPDEST PUSH0 PUSH2 0x2479 PUSH1 0x19 DUP4 PUSH2 0x1C52 JUMP JUMPDEST SWAP2 POP PUSH2 0x2484 DUP3 PUSH2 0x2445 JUMP JUMPDEST PUSH1 0x20 DUP3 ADD SWAP1 POP SWAP2 SWAP1 POP JUMP JUMPDEST PUSH0 PUSH1 0x20 DUP3 ADD SWAP1 POP DUP2 DUP2 SUB PUSH0 DUP4 ADD MSTORE PUSH2 0x24A6 DUP2 PUSH2 0x246D JUMP JUMPDEST SWAP1 POP SWAP2 SWAP1 POP JUMP JUMPDEST PUSH32 0x796F752063616E206E6F7420626C6F636B20796F757273656C66000000000000 PUSH0 DUP3 ADD MSTORE POP JUMP JUMPDEST PUSH0 PUSH2 0x24E1 PUSH1 0x1A DUP4 PUSH2 0x1C52 JUMP JUMPDEST SWAP2 POP PUSH2 0x24EC DUP3 PUSH2 0x24AD JUMP JUMPDEST PUSH1 0x20 DUP3 ADD SWAP1 POP SWAP2 SWAP1 POP JUMP JUMPDEST PUSH0 PUSH1 0x20 DUP3 ADD SWAP1 POP DUP2 DUP2 SUB PUSH0 DUP4 ADD MSTORE PUSH2 0x250E DUP2 PUSH2 0x24D5 JUMP JUMPDEST SWAP1 POP SWAP2 SWAP1 POP JUMP JUMPDEST PUSH32 0x796F752063616E206E6F7420626C6F636B206120757365722074686174206E6F PUSH0 DUP3 ADD MSTORE PUSH32 0x7420657869737473000000000000000000000000000000000000000000000000 PUSH1 0x20 DUP3 ADD MSTORE POP JUMP JUMPDEST PUSH0 PUSH2 0x256F PUSH1 0x28 DUP4 PUSH2 0x1C52 JUMP JUMPDEST SWAP2 POP PUSH2 0x257A DUP3 PUSH2 0x2515 JUMP JUMPDEST PUSH1 0x40 DUP3 ADD SWAP1 POP SWAP2 SWAP1 POP JUMP JUMPDEST PUSH0 PUSH1 0x20 DUP3 ADD SWAP1 POP DUP2 DUP2 SUB PUSH0 DUP4 ADD MSTORE PUSH2 0x259C DUP2 PUSH2 0x2563 JUMP JUMPDEST SWAP1 POP SWAP2 SWAP1 POP JUMP INVALID LOG2 PUSH5 0x6970667358 0x22 SLT KECCAK256 PUSH22 0x2A52B6945A0B07EC637453CCDE30699DFCC356B433A 0xDE 0x2C 0xA9 0xB9 0xFB PUSH25 0xF24F5764736F6C634300081400330000000000000000000000 "
				},
				"gasEstimates": {
					"creation": {
						"codeDepositCost": "1937800",
						"executionCost": "24436",
						"totalCost": "1962236"
					},
					"external": {
						"AddFriend(address)": "infinite",
						"BlockList(address,uint256)": "infinite",
						"BlockUser(address)": "infinite",
						"BlockedUserMapping(address,address)": "infinite",
						"FriendsList(address,uint256)": "infinite",
						"FriendsMapping(address,address)": "infinite",
						"GetPubKey(address)": "infinite",
						"Pubkeys(address)": "infinite",
						"Register(string)": "infinite",
						"RemoveBlockedUser(address)": "infinite",
						"RemoveFriend(address)": "infinite",
						"ViewBlockedUsers()": "infinite",
						"ViewFriends()": "infinite"
					}
				},
				"methodIdentifiers": {
					"AddFriend(address)": "13962258",
					"BlockList(address,uint256)": "e05a492d",
					"BlockUser(address)": "e905af6c",
					"BlockedUserMapping(address,address)": "e17fa73b",
					"FriendsList(address,uint256)": "f9a0982d",
					"FriendsMapping(address,address)": "e1384a72",
					"GetPubKey(address)": "7aafb9f2",
					"Pubkeys(address)": "a5a600a6",
					"Register(string)": "40b2d3af",
					"RemoveBlockedUser(address)": "6c1a2728",
					"RemoveFriend(address)": "8cdae20a",
					"ViewBlockedUsers()": "3dcfd409",
					"ViewFriends()": "8be03f57"
				}
			},
			"storageLayout": {
				"storage": [
					{
						"astId": 17,
						"contract": "implement/Social.sol:Social",
						"label": "EMPTYSTRING",
						"offset": 0,
						"slot": "0",
						"type": "t_bytes32"
					},
					{
						"astId": 21,
						"contract": "implement/Social.sol:Social",
						"label": "Pubkeys",
						"offset": 0,
						"slot": "1",
						"type": "t_mapping(t_address,t_string_storage)"
					},
					{
						"astId": 28,
						"contract": "implement/Social.sol:Social",
						"label": "FriendsMapping",
						"offset": 0,
						"slot": "2",
						"type": "t_mapping(t_address,t_mapping(t_address,t_struct(User)9_storage))"
					},
					{
						"astId": 33,
						"contract": "implement/Social.sol:Social",
						"label": "FriendsList",
						"offset": 0,
						"slot": "3",
						"type": "t_mapping(t_address,t_array(t_address)dyn_storage)"
					},
					{
						"astId": 40,
						"contract": "implement/Social.sol:Social",
						"label": "BlockedUserMapping",
						"offset": 0,
						"slot": "4",
						"type": "t_mapping(t_address,t_mapping(t_address,t_struct(User)9_storage))"
					},
					{
						"astId": 45,
						"contract": "implement/Social.sol:Social",
						"label": "BlockList",
						"offset": 0,
						"slot": "5",
						"type": "t_mapping(t_address,t_array(t_address)dyn_storage)"
					}
				],
				"types": {
					"t_address": {
						"encoding": "inplace",
						"label": "address",
						"numberOfBytes": "20"
					},
					"t_array(t_address)dyn_storage": {
						"base": "t_address",
						"encoding": "dynamic_array",
						"label": "address[]",
						"numberOfBytes": "32"
					},
					"t_bytes32": {
						"encoding": "inplace",
						"label": "bytes32",
						"numberOfBytes": "32"
					},
					"t_mapping(t_address,t_array(t_address)dyn_storage)": {
						"encoding": "mapping",
						"key": "t_address",
						"label": "mapping(address => address[])",
						"numberOfBytes": "32",
						"value": "t_array(t_address)dyn_storage"
					},
					"t_mapping(t_address,t_mapping(t_address,t_struct(User)9_storage))": {
						"encoding": "mapping",
						"key": "t_address",
						"label": "mapping(address => mapping(address => struct Social.User))",
						"numberOfBytes": "32",
						"value": "t_mapping(t_address,t_struct(User)9_storage)"
					},
					"t_mapping(t_address,t_string_storage)": {
						"encoding": "mapping",
						"key": "t_address",
						"label": "mapping(address => string)",
						"numberOfBytes": "32",
						"value": "t_string_storage"
					},
					"t_mapping(t_address,t_struct(User)9_storage)": {
						"encoding": "mapping",
						"key": "t_address",
						"label": "mapping(address => struct Social.User)",
						"numberOfBytes": "32",
						"value": "t_struct(User)9_storage"
					},
					"t_string_storage": {
						"encoding": "bytes",
						"label": "string",
						"numberOfBytes": "32"
					},
					"t_struct(User)9_storage": {
						"encoding": "inplace",
						"label": "struct Social.User",
						"members": [
							{
								"astId": 6,
								"contract": "implement/Social.sol:Social",
								"label": "user_address",
								"offset": 0,
								"slot": "0",
								"type": "t_address"
							},
							{
								"astId": 8,
								"contract": "implement/Social.sol:Social",
								"label": "created_at",
								"offset": 0,
								"slot": "1",
								"type": "t_uint256"
							}
						],
						"numberOfBytes": "64"
					},
					"t_uint256": {
						"encoding": "inplace",
						"label": "uint256",
						"numberOfBytes": "32"
					}
				}
			},
			"userdoc": {
				"kind": "user",
				"methods": {},
				"version": 1
			}
		}
	}
}