{
	"implement\\Social.sol": {
		"Social": {
			"abi": [
				{
					"anonymous": false,
					"inputs": [
						{
							"indexed": true,
							"internalType": "address",
							"name": "operator",
							"type": "address"
						},
						{
							"indexed": true,
							"internalType": "address",
							"name": "user",
							"type": "address"
						}
					],
					"name": "user_add_friend",
					"type": "event"
				},
				{
					"anonymous": false,
					"inputs": [
						{
							"indexed": true,
							"internalType": "address",
							"name": "operator",
							"type": "address"
						},
						{
							"indexed": true,
							"internalType": "address",
							"name": "user",
							"type": "address"
						}
					],
					"name": "user_blocked",
					"type": "event"
				},
				{
					"anonymous": false,
					"inputs": [
						{
							"indexed": true,
							"internalType": "address",
							"name": "user",
							"type": "address"
						},
						{
							"indexed": false,
							"internalType": "string",
							"name": "pubkey",
							"type": "string"
						}
					],
					"name": "user_register",
					"type": "event"
				},
				{
					"anonymous": false,
					"inputs": [
						{
							"indexed": true,
							"internalType": "address",
							"name": "operator",
							"type": "address"
						},
						{
							"indexed": true,
							"internalType": "address",
							"name": "user",
							"type": "address"
						}
					],
					"name": "user_removed_from_blocked",
					"type": "event"
				},
				{
					"anonymous": false,
					"inputs": [
						{
							"indexed": true,
							"internalType": "address",
							"name": "operator",
							"type": "address"
						},
						{
							"indexed": true,
							"internalType": "address",
							"name": "user",
							"type": "address"
						}
					],
					"name": "user_removed_from_friends",
					"type": "event"
				},
				{
					"inputs": [
						{
							"internalType": "address",
							"name": "user",
							"type": "address"
						}
					],
					"name": "AddFriend",
					"outputs": [
						{
							"internalType": "bool",
							"name": "",
							"type": "bool"
						}
					],
					"stateMutability": "nonpayable",
					"type": "function"
				},
				{
					"inputs": [
						{
							"internalType": "address",
							"name": "user",
							"type": "address"
						}
					],
					"name": "BlockUser",
					"outputs": [
						{
							"internalType": "bool",
							"name": "",
							"type": "bool"
						}
					],
					"stateMutability": "nonpayable",
					"type": "function"
				},
				{
					"inputs": [
						{
							"internalType": "address",
							"name": "user",
							"type": "address"
						}
					],
					"name": "GetPubKey",
					"outputs": [
						{
							"internalType": "string",
							"name": "",
							"type": "string"
						}
					],
					"stateMutability": "view",
					"type": "function"
				},
				{
					"inputs": [
						{
							"internalType": "string",
							"name": "pubkey",
							"type": "string"
						}
					],
					"name": "Register",
					"outputs": [
						{
							"internalType": "bool",
							"name": "",
							"type": "bool"
						}
					],
					"stateMutability": "nonpayable",
					"type": "function"
				},
				{
					"inputs": [
						{
							"internalType": "address",
							"name": "user",
							"type": "address"
						}
					],
					"name": "RemoveBlockedUser",
					"outputs": [
						{
							"internalType": "bool",
							"name": "",
							"type": "bool"
						}
					],
					"stateMutability": "nonpayable",
					"type": "function"
				},
				{
					"inputs": [
						{
							"internalType": "address",
							"name": "user",
							"type": "address"
						}
					],
					"name": "RemoveFriend",
					"outputs": [
						{
							"internalType": "bool",
							"name": "",
							"type": "bool"
						}
					],
					"stateMutability": "nonpayable",
					"type": "function"
				},
				{
					"inputs": [],
					"name": "ViewBlockedUsers",
					"outputs": [
						{
							"internalType": "address[]",
							"name": "",
							"type": "address[]"
						}
					],
					"stateMutability": "view",
					"type": "function"
				},
				{
					"inputs": [],
					"name": "ViewFriends",
					"outputs": [
						{
							"internalType": "address[]",
							"name": "",
							"type": "address[]"
						}
					],
					"stateMutability": "view",
					"type": "function"
				}
			],
			"devdoc": {
				"kind": "dev",
				"methods": {},
				"version": 1
			},
			"evm": {
				"assembly": "    /* \"implement\\\\Social.sol\":94:4142  contract Social is ISocial {... */\n  mstore(0x40, 0x80)\n    /* \"implement\\\\Social.sol\":249:269  abi.encodePacked(\"\") */\n  add(0x20, mload(0x40))\n  tag_1\n  swap1\n  tag_2\n  jump\t// in\ntag_1:\n  mload(0x40)\n  0x20\n  dup2\n  dup4\n  sub\n  sub\n  dup2\n  mstore\n  swap1\n  0x40\n  mstore\n    /* \"implement\\\\Social.sol\":239:270  keccak256(abi.encodePacked(\"\")) */\n  dup1\n  mload\n  swap1\n  0x20\n  add\n  keccak256\n    /* \"implement\\\\Social.sol\":209:270  bytes32 private EMPTYSTRING = keccak256(abi.encodePacked(\"\")) */\n  0x00\n  sstore\n    /* \"implement\\\\Social.sol\":94:4142  contract Social is ISocial {... */\n  callvalue\n  dup1\n  iszero\n  tag_3\n  jumpi\n  0x00\n  dup1\n  revert\ntag_3:\n  pop\n  jump(tag_4)\n    /* \"#utility.yul\":7:155   */\ntag_5:\n    /* \"#utility.yul\":109:120   */\n  0x00\n    /* \"#utility.yul\":146:149   */\n  dup2\n    /* \"#utility.yul\":131:149   */\n  swap1\n  pop\n    /* \"#utility.yul\":7:155   */\n  swap3\n  swap2\n  pop\n  pop\n  jump\t// out\n    /* \"#utility.yul\":161:275   */\ntag_6:\n  pop\n  jump\t// out\n    /* \"#utility.yul\":281:681   */\ntag_7:\n    /* \"#utility.yul\":441:444   */\n  0x00\n    /* \"#utility.yul\":462:546   */\n  tag_12\n    /* \"#utility.yul\":544:545   */\n  0x00\n    /* \"#utility.yul\":539:542   */\n  dup4\n    /* \"#utility.yul\":462:546   */\n  tag_5\n  jump\t// in\ntag_12:\n    /* \"#utility.yul\":455:546   */\n  swap2\n  pop\n    /* \"#utility.yul\":555:648   */\n  tag_13\n    /* \"#utility.yul\":644:647   */\n  dup3\n    /* \"#utility.yul\":555:648   */\n  tag_6\n  jump\t// in\ntag_13:\n    /* \"#utility.yul\":673:674   */\n  0x00\n    /* \"#utility.yul\":668:671   */\n  dup3\n    /* \"#utility.yul\":664:675   */\n  add\n    /* \"#utility.yul\":657:675   */\n  swap1\n  pop\n    /* \"#utility.yul\":281:681   */\n  swap2\n  swap1\n  pop\n  jump\t// out\n    /* \"#utility.yul\":687:1068   */\ntag_2:\n    /* \"#utility.yul\":872:875   */\n  0x00\n    /* \"#utility.yul\":894:1042   */\n  tag_15\n    /* \"#utility.yul\":1038:1041   */\n  dup3\n    /* \"#utility.yul\":894:1042   */\n  tag_7\n  jump\t// in\ntag_15:\n    /* \"#utility.yul\":887:1042   */\n  swap2\n  pop\n    /* \"#utility.yul\":1059:1062   */\n  dup2\n    /* \"#utility.yul\":1052:1062   */\n  swap1\n  pop\n    /* \"#utility.yul\":687:1068   */\n  swap2\n  swap1\n  pop\n  jump\t// out\n    /* \"implement\\\\Social.sol\":94:4142  contract Social is ISocial {... */\ntag_4:\n  dataSize(sub_0)\n  dup1\n  dataOffset(sub_0)\n  0x00\n  codecopy\n  0x00\n  return\nstop\n\nsub_0: assembly {\n        /* \"implement\\\\Social.sol\":94:4142  contract Social is ISocial {... */\n      mstore(0x40, 0x80)\n      callvalue\n      dup1\n      iszero\n      tag_1\n      jumpi\n      0x00\n      dup1\n      revert\n    tag_1:\n      pop\n      jumpi(tag_2, lt(calldatasize, 0x04))\n      shr(0xe0, calldataload(0x00))\n      dup1\n      0x7aafb9f2\n      gt\n      tag_11\n      jumpi\n      dup1\n      0x7aafb9f2\n      eq\n      tag_7\n      jumpi\n      dup1\n      0x8be03f57\n      eq\n      tag_8\n      jumpi\n      dup1\n      0x8cdae20a\n      eq\n      tag_9\n      jumpi\n      dup1\n      0xe905af6c\n      eq\n      tag_10\n      jumpi\n      jump(tag_2)\n    tag_11:\n      dup1\n      0x13962258\n      eq\n      tag_3\n      jumpi\n      dup1\n      0x3dcfd409\n      eq\n      tag_4\n      jumpi\n      dup1\n      0x40b2d3af\n      eq\n      tag_5\n      jumpi\n      dup1\n      0x6c1a2728\n      eq\n      tag_6\n      jumpi\n    tag_2:\n      0x00\n      dup1\n      revert\n        /* \"implement\\\\Social.sol\":970:1798  function AddFriend(address user) public returns (bool) {... */\n    tag_3:\n      tag_12\n      0x04\n      dup1\n      calldatasize\n      sub\n      dup2\n      add\n      swap1\n      tag_13\n      swap2\n      swap1\n      tag_14\n      jump\t// in\n    tag_13:\n      tag_15\n      jump\t// in\n    tag_12:\n      mload(0x40)\n      tag_16\n      swap2\n      swap1\n      tag_17\n      jump\t// in\n    tag_16:\n      mload(0x40)\n      dup1\n      swap2\n      sub\n      swap1\n      return\n        /* \"implement\\\\Social.sol\":4028:4140  function ViewBlockedUsers() public view returns (address[] memory) {... */\n    tag_4:\n      tag_18\n      tag_19\n      jump\t// in\n    tag_18:\n      mload(0x40)\n      tag_20\n      swap2\n      swap1\n      tag_21\n      jump\t// in\n    tag_20:\n      mload(0x40)\n      dup1\n      swap2\n      sub\n      swap1\n      return\n        /* \"implement\\\\Social.sol\":676:852  function Register(string memory pubkey) public returns (bool) {... */\n    tag_5:\n      tag_22\n      0x04\n      dup1\n      calldatasize\n      sub\n      dup2\n      add\n      swap1\n      tag_23\n      swap2\n      swap1\n      tag_24\n      jump\t// in\n    tag_23:\n      tag_25\n      jump\t// in\n    tag_22:\n      mload(0x40)\n      tag_26\n      swap2\n      swap1\n      tag_17\n      jump\t// in\n    tag_26:\n      mload(0x40)\n      dup1\n      swap2\n      sub\n      swap1\n      return\n        /* \"implement\\\\Social.sol\":3315:4022  function RemoveBlockedUser(address user) public returns (bool) {... */\n    tag_6:\n      tag_27\n      0x04\n      dup1\n      calldatasize\n      sub\n      dup2\n      add\n      swap1\n      tag_28\n      swap2\n      swap1\n      tag_14\n      jump\t// in\n    tag_28:\n      tag_29\n      jump\t// in\n    tag_27:\n      mload(0x40)\n      tag_30\n      swap2\n      swap1\n      tag_17\n      jump\t// in\n    tag_30:\n      mload(0x40)\n      dup1\n      swap2\n      sub\n      swap1\n      return\n        /* \"implement\\\\Social.sol\":858:964  function GetPubKey(address user) public view returns (string memory) {... */\n    tag_7:\n      tag_31\n      0x04\n      dup1\n      calldatasize\n      sub\n      dup2\n      add\n      swap1\n      tag_32\n      swap2\n      swap1\n      tag_14\n      jump\t// in\n    tag_32:\n      tag_33\n      jump\t// in\n    tag_31:\n      mload(0x40)\n      tag_34\n      swap2\n      swap1\n      tag_35\n      jump\t// in\n    tag_34:\n      mload(0x40)\n      dup1\n      swap2\n      sub\n      swap1\n      return\n        /* \"implement\\\\Social.sol\":2512:2621  function ViewFriends() public view returns (address[] memory) {... */\n    tag_8:\n      tag_36\n      tag_37\n      jump\t// in\n    tag_36:\n      mload(0x40)\n      tag_38\n      swap2\n      swap1\n      tag_21\n      jump\t// in\n    tag_38:\n      mload(0x40)\n      dup1\n      swap2\n      sub\n      swap1\n      return\n        /* \"implement\\\\Social.sol\":1804:2506  function RemoveFriend(address user) public returns (bool) {... */\n    tag_9:\n      tag_39\n      0x04\n      dup1\n      calldatasize\n      sub\n      dup2\n      add\n      swap1\n      tag_40\n      swap2\n      swap1\n      tag_14\n      jump\t// in\n    tag_40:\n      tag_41\n      jump\t// in\n    tag_39:\n      mload(0x40)\n      tag_42\n      swap2\n      swap1\n      tag_17\n      jump\t// in\n    tag_42:\n      mload(0x40)\n      dup1\n      swap2\n      sub\n      swap1\n      return\n        /* \"implement\\\\Social.sol\":2627:3309  function BlockUser(address user) public returns (bool) {... */\n    tag_10:\n      tag_43\n      0x04\n      dup1\n      calldatasize\n      sub\n      dup2\n      add\n      swap1\n      tag_44\n      swap2\n      swap1\n      tag_14\n      jump\t// in\n    tag_44:\n      tag_45\n      jump\t// in\n    tag_43:\n      mload(0x40)\n      tag_46\n      swap2\n      swap1\n      tag_17\n      jump\t// in\n    tag_46:\n      mload(0x40)\n      dup1\n      swap2\n      sub\n      swap1\n      return\n        /* \"implement\\\\Social.sol\":970:1798  function AddFriend(address user) public returns (bool) {... */\n    tag_15:\n        /* \"implement\\\\Social.sol\":1019:1023  bool */\n      0x00\n        /* \"implement\\\\Social.sol\":1051:1061  msg.sender */\n      caller\n        /* \"implement\\\\Social.sol\":1043:1061  user != msg.sender */\n      0xffffffffffffffffffffffffffffffffffffffff\n      and\n        /* \"implement\\\\Social.sol\":1043:1047  user */\n      dup3\n        /* \"implement\\\\Social.sol\":1043:1061  user != msg.sender */\n      0xffffffffffffffffffffffffffffffffffffffff\n      and\n      sub\n        /* \"implement\\\\Social.sol\":1035:1102  require(user != msg.sender, \"you can not add yourself as a friend\") */\n      tag_48\n      jumpi\n      mload(0x40)\n      0x08c379a000000000000000000000000000000000000000000000000000000000\n      dup2\n      mstore\n      0x04\n      add\n      tag_49\n      swap1\n      tag_50\n      jump\t// in\n    tag_49:\n      mload(0x40)\n      dup1\n      swap2\n      sub\n      swap1\n      revert\n    tag_48:\n        /* \"implement\\\\Social.sol\":1179:1190  EMPTYSTRING */\n      sload(0x00)\n        /* \"implement\\\\Social.sol\":1160:1167  Pubkeys */\n      0x01\n        /* \"implement\\\\Social.sol\":1160:1173  Pubkeys[user] */\n      0x00\n        /* \"implement\\\\Social.sol\":1168:1172  user */\n      dup5\n        /* \"implement\\\\Social.sol\":1160:1173  Pubkeys[user] */\n      0xffffffffffffffffffffffffffffffffffffffff\n      and\n      0xffffffffffffffffffffffffffffffffffffffff\n      and\n      dup2\n      mstore\n      0x20\n      add\n      swap1\n      dup2\n      mstore\n      0x20\n      add\n      0x00\n      keccak256\n        /* \"implement\\\\Social.sol\":1143:1174  abi.encodePacked(Pubkeys[user]) */\n      add(0x20, mload(0x40))\n      tag_51\n      swap2\n      swap1\n      tag_52\n      jump\t// in\n    tag_51:\n      mload(0x40)\n      0x20\n      dup2\n      dup4\n      sub\n      sub\n      dup2\n      mstore\n      swap1\n      0x40\n      mstore\n        /* \"implement\\\\Social.sol\":1133:1175  keccak256(abi.encodePacked(Pubkeys[user])) */\n      dup1\n      mload\n      swap1\n      0x20\n      add\n      keccak256\n        /* \"implement\\\\Social.sol\":1133:1190  keccak256(abi.encodePacked(Pubkeys[user])) != EMPTYSTRING */\n      sub\n        /* \"implement\\\\Social.sol\":1112:1257  require(... */\n      tag_53\n      jumpi\n      mload(0x40)\n      0x08c379a000000000000000000000000000000000000000000000000000000000\n      dup2\n      mstore\n      0x04\n      add\n      tag_54\n      swap1\n      tag_55\n      jump\t// in\n    tag_54:\n      mload(0x40)\n      dup1\n      swap2\n      sub\n      swap1\n      revert\n    tag_53:\n        /* \"implement\\\\Social.sol\":1335:1336  0 */\n      0x00\n        /* \"implement\\\\Social.sol\":1288:1302  FriendsMapping */\n      0x02\n        /* \"implement\\\\Social.sol\":1288:1314  FriendsMapping[msg.sender] */\n      0x00\n        /* \"implement\\\\Social.sol\":1303:1313  msg.sender */\n      caller\n        /* \"implement\\\\Social.sol\":1288:1314  FriendsMapping[msg.sender] */\n      0xffffffffffffffffffffffffffffffffffffffff\n      and\n      0xffffffffffffffffffffffffffffffffffffffff\n      and\n      dup2\n      mstore\n      0x20\n      add\n      swap1\n      dup2\n      mstore\n      0x20\n      add\n      0x00\n      keccak256\n        /* \"implement\\\\Social.sol\":1288:1320  FriendsMapping[msg.sender][user] */\n      0x00\n        /* \"implement\\\\Social.sol\":1315:1319  user */\n      dup5\n        /* \"implement\\\\Social.sol\":1288:1320  FriendsMapping[msg.sender][user] */\n      0xffffffffffffffffffffffffffffffffffffffff\n      and\n      0xffffffffffffffffffffffffffffffffffffffff\n      and\n      dup2\n      mstore\n      0x20\n      add\n      swap1\n      dup2\n      mstore\n      0x20\n      add\n      0x00\n      keccak256\n        /* \"implement\\\\Social.sol\":1288:1331  FriendsMapping[msg.sender][user].created_at */\n      0x01\n      add\n      sload\n        /* \"implement\\\\Social.sol\":1288:1336  FriendsMapping[msg.sender][user].created_at == 0 */\n      eq\n        /* \"implement\\\\Social.sol\":1267:1391  require(... */\n      tag_56\n      jumpi\n      mload(0x40)\n      0x08c379a000000000000000000000000000000000000000000000000000000000\n      dup2\n      mstore\n      0x04\n      add\n      tag_57\n      swap1\n      tag_58\n      jump\t// in\n    tag_57:\n      mload(0x40)\n      dup1\n      swap2\n      sub\n      swap1\n      revert\n    tag_56:\n        /* \"implement\\\\Social.sol\":1456:1457  0 */\n      0x00\n        /* \"implement\\\\Social.sol\":1405:1423  BlockedUserMapping */\n      0x04\n        /* \"implement\\\\Social.sol\":1405:1435  BlockedUserMapping[msg.sender] */\n      0x00\n        /* \"implement\\\\Social.sol\":1424:1434  msg.sender */\n      caller\n        /* \"implement\\\\Social.sol\":1405:1435  BlockedUserMapping[msg.sender] */\n      0xffffffffffffffffffffffffffffffffffffffff\n      and\n      0xffffffffffffffffffffffffffffffffffffffff\n      and\n      dup2\n      mstore\n      0x20\n      add\n      swap1\n      dup2\n      mstore\n      0x20\n      add\n      0x00\n      keccak256\n        /* \"implement\\\\Social.sol\":1405:1441  BlockedUserMapping[msg.sender][user] */\n      0x00\n        /* \"implement\\\\Social.sol\":1436:1440  user */\n      dup5\n        /* \"implement\\\\Social.sol\":1405:1441  BlockedUserMapping[msg.sender][user] */\n      0xffffffffffffffffffffffffffffffffffffffff\n      and\n      0xffffffffffffffffffffffffffffffffffffffff\n      and\n      dup2\n      mstore\n      0x20\n      add\n      swap1\n      dup2\n      mstore\n      0x20\n      add\n      0x00\n      keccak256\n        /* \"implement\\\\Social.sol\":1405:1452  BlockedUserMapping[msg.sender][user].created_at */\n      0x01\n      add\n      sload\n        /* \"implement\\\\Social.sol\":1405:1457  BlockedUserMapping[msg.sender][user].created_at != 0 */\n      eq\n        /* \"implement\\\\Social.sol\":1401:1507  if (BlockedUserMapping[msg.sender][user].created_at != 0) {... */\n      tag_59\n      jumpi\n        /* \"implement\\\\Social.sol\":1473:1496  RemoveBlockedUser(user) */\n      tag_60\n        /* \"implement\\\\Social.sol\":1491:1495  user */\n      dup3\n        /* \"implement\\\\Social.sol\":1473:1490  RemoveBlockedUser */\n      tag_29\n        /* \"implement\\\\Social.sol\":1473:1496  RemoveBlockedUser(user) */\n      jump\t// in\n    tag_60:\n      pop\n        /* \"implement\\\\Social.sol\":1401:1507  if (BlockedUserMapping[msg.sender][user].created_at != 0) {... */\n    tag_59:\n        /* \"implement\\\\Social.sol\":1516:1534  User memory friend */\n      0x00\n        /* \"implement\\\\Social.sol\":1537:1626  User({... */\n      mload(0x40)\n      dup1\n      0x40\n      add\n      0x40\n      mstore\n      dup1\n        /* \"implement\\\\Social.sol\":1570:1574  user */\n      dup5\n        /* \"implement\\\\Social.sol\":1537:1626  User({... */\n      0xffffffffffffffffffffffffffffffffffffffff\n      and\n      dup2\n      mstore\n      0x20\n      add\n        /* \"implement\\\\Social.sol\":1600:1615  block.timestamp */\n      timestamp\n        /* \"implement\\\\Social.sol\":1537:1626  User({... */\n      dup2\n      mstore\n      pop\n        /* \"implement\\\\Social.sol\":1516:1626  User memory friend = User({... */\n      swap1\n      pop\n        /* \"implement\\\\Social.sol\":1672:1678  friend */\n      dup1\n        /* \"implement\\\\Social.sol\":1637:1651  FriendsMapping */\n      0x02\n        /* \"implement\\\\Social.sol\":1637:1663  FriendsMapping[msg.sender] */\n      0x00\n        /* \"implement\\\\Social.sol\":1652:1662  msg.sender */\n      caller\n        /* \"implement\\\\Social.sol\":1637:1663  FriendsMapping[msg.sender] */\n      0xffffffffffffffffffffffffffffffffffffffff\n      and\n      0xffffffffffffffffffffffffffffffffffffffff\n      and\n      dup2\n      mstore\n      0x20\n      add\n      swap1\n      dup2\n      mstore\n      0x20\n      add\n      0x00\n      keccak256\n        /* \"implement\\\\Social.sol\":1637:1669  FriendsMapping[msg.sender][user] */\n      0x00\n        /* \"implement\\\\Social.sol\":1664:1668  user */\n      dup6\n        /* \"implement\\\\Social.sol\":1637:1669  FriendsMapping[msg.sender][user] */\n      0xffffffffffffffffffffffffffffffffffffffff\n      and\n      0xffffffffffffffffffffffffffffffffffffffff\n      and\n      dup2\n      mstore\n      0x20\n      add\n      swap1\n      dup2\n      mstore\n      0x20\n      add\n      0x00\n      keccak256\n        /* \"implement\\\\Social.sol\":1637:1678  FriendsMapping[msg.sender][user] = friend */\n      0x00\n      dup3\n      add\n      mload\n      dup2\n      0x00\n      add\n      exp(0x0100, 0x00)\n      dup2\n      sload\n      dup2\n      0xffffffffffffffffffffffffffffffffffffffff\n      mul\n      not\n      and\n      swap1\n      dup4\n      0xffffffffffffffffffffffffffffffffffffffff\n      and\n      mul\n      or\n      swap1\n      sstore\n      pop\n      0x20\n      dup3\n      add\n      mload\n      dup2\n      0x01\n      add\n      sstore\n      swap1\n      pop\n      pop\n        /* \"implement\\\\Social.sol\":1688:1699  FriendsList */\n      0x03\n        /* \"implement\\\\Social.sol\":1688:1711  FriendsList[msg.sender] */\n      0x00\n        /* \"implement\\\\Social.sol\":1700:1710  msg.sender */\n      caller\n        /* \"implement\\\\Social.sol\":1688:1711  FriendsList[msg.sender] */\n      0xffffffffffffffffffffffffffffffffffffffff\n      and\n      0xffffffffffffffffffffffffffffffffffffffff\n      and\n      dup2\n      mstore\n      0x20\n      add\n      swap1\n      dup2\n      mstore\n      0x20\n      add\n      0x00\n      keccak256\n        /* \"implement\\\\Social.sol\":1717:1721  user */\n      dup4\n        /* \"implement\\\\Social.sol\":1688:1722  FriendsList[msg.sender].push(user) */\n      swap1\n      dup1\n      0x01\n      dup2\n      sload\n      add\n      dup1\n      dup3\n      sstore\n      dup1\n      swap2\n      pop\n      pop\n      0x01\n      swap1\n      sub\n      swap1\n      0x00\n      mstore\n      keccak256(0x00, 0x20)\n      add\n      0x00\n      swap1\n      swap2\n      swap1\n      swap2\n      swap1\n      swap2\n      0x0100\n      exp\n      dup2\n      sload\n      dup2\n      0xffffffffffffffffffffffffffffffffffffffff\n      mul\n      not\n      and\n      swap1\n      dup4\n      0xffffffffffffffffffffffffffffffffffffffff\n      and\n      mul\n      or\n      swap1\n      sstore\n      pop\n        /* \"implement\\\\Social.sol\":1765:1769  user */\n      dup3\n        /* \"implement\\\\Social.sol\":1737:1770  user_add_friend(msg.sender, user) */\n      0xffffffffffffffffffffffffffffffffffffffff\n      and\n        /* \"implement\\\\Social.sol\":1753:1763  msg.sender */\n      caller\n        /* \"implement\\\\Social.sol\":1737:1770  user_add_friend(msg.sender, user) */\n      0xffffffffffffffffffffffffffffffffffffffff\n      and\n      0x389c4d1e49da6f4f6564f4736c370e19d62ccf466d3bbd87e0495b44f89937d0\n      mload(0x40)\n      mload(0x40)\n      dup1\n      swap2\n      sub\n      swap1\n      log3\n        /* \"implement\\\\Social.sol\":1787:1791  true */\n      0x01\n        /* \"implement\\\\Social.sol\":1780:1791  return true */\n      swap2\n      pop\n      pop\n        /* \"implement\\\\Social.sol\":970:1798  function AddFriend(address user) public returns (bool) {... */\n      swap2\n      swap1\n      pop\n      jump\t// out\n        /* \"implement\\\\Social.sol\":4028:4140  function ViewBlockedUsers() public view returns (address[] memory) {... */\n    tag_19:\n        /* \"implement\\\\Social.sol\":4077:4093  address[] memory */\n      0x60\n        /* \"implement\\\\Social.sol\":4112:4121  BlockList */\n      0x05\n        /* \"implement\\\\Social.sol\":4112:4133  BlockList[msg.sender] */\n      0x00\n        /* \"implement\\\\Social.sol\":4122:4132  msg.sender */\n      caller\n        /* \"implement\\\\Social.sol\":4112:4133  BlockList[msg.sender] */\n      0xffffffffffffffffffffffffffffffffffffffff\n      and\n      0xffffffffffffffffffffffffffffffffffffffff\n      and\n      dup2\n      mstore\n      0x20\n      add\n      swap1\n      dup2\n      mstore\n      0x20\n      add\n      0x00\n      keccak256\n        /* \"implement\\\\Social.sol\":4105:4133  return BlockList[msg.sender] */\n      dup1\n      sload\n      dup1\n      0x20\n      mul\n      0x20\n      add\n      mload(0x40)\n      swap1\n      dup2\n      add\n      0x40\n      mstore\n      dup1\n      swap3\n      swap2\n      swap1\n      dup2\n      dup2\n      mstore\n      0x20\n      add\n      dup3\n      dup1\n      sload\n      dup1\n      iszero\n      tag_63\n      jumpi\n      0x20\n      mul\n      dup3\n      add\n      swap2\n      swap1\n      0x00\n      mstore\n      keccak256(0x00, 0x20)\n      swap1\n    tag_64:\n      dup2\n      0x00\n      swap1\n      sload\n      swap1\n      0x0100\n      exp\n      swap1\n      div\n      0xffffffffffffffffffffffffffffffffffffffff\n      and\n      0xffffffffffffffffffffffffffffffffffffffff\n      and\n      dup2\n      mstore\n      0x20\n      add\n      swap1\n      0x01\n      add\n      swap1\n      dup1\n      dup4\n      gt\n      tag_64\n      jumpi\n    tag_63:\n      pop\n      pop\n      pop\n      pop\n      pop\n      swap1\n      pop\n        /* \"implement\\\\Social.sol\":4028:4140  function ViewBlockedUsers() public view returns (address[] memory) {... */\n      swap1\n      jump\t// out\n        /* \"implement\\\\Social.sol\":676:852  function Register(string memory pubkey) public returns (bool) {... */\n    tag_25:\n        /* \"implement\\\\Social.sol\":732:736  bool */\n      0x00\n        /* \"implement\\\\Social.sol\":770:776  pubkey */\n      dup2\n        /* \"implement\\\\Social.sol\":748:755  Pubkeys */\n      0x01\n        /* \"implement\\\\Social.sol\":748:767  Pubkeys[msg.sender] */\n      0x00\n        /* \"implement\\\\Social.sol\":756:766  msg.sender */\n      caller\n        /* \"implement\\\\Social.sol\":748:767  Pubkeys[msg.sender] */\n      0xffffffffffffffffffffffffffffffffffffffff\n      and\n      0xffffffffffffffffffffffffffffffffffffffff\n      and\n      dup2\n      mstore\n      0x20\n      add\n      swap1\n      dup2\n      mstore\n      0x20\n      add\n      0x00\n      keccak256\n        /* \"implement\\\\Social.sol\":748:776  Pubkeys[msg.sender] = pubkey */\n      swap1\n      dup2\n      tag_66\n      swap2\n      swap1\n      tag_67\n      jump\t// in\n    tag_66:\n      pop\n        /* \"implement\\\\Social.sol\":805:815  msg.sender */\n      caller\n        /* \"implement\\\\Social.sol\":791:824  user_register(msg.sender, pubkey) */\n      0xffffffffffffffffffffffffffffffffffffffff\n      and\n      0x63560a6ba7ee6a7fd9c4f8de1e3a8f80fe08b22aee88fbacf030048bcc640b74\n        /* \"implement\\\\Social.sol\":817:823  pubkey */\n      dup4\n        /* \"implement\\\\Social.sol\":791:824  user_register(msg.sender, pubkey) */\n      mload(0x40)\n      tag_68\n      swap2\n      swap1\n      tag_35\n      jump\t// in\n    tag_68:\n      mload(0x40)\n      dup1\n      swap2\n      sub\n      swap1\n      log2\n        /* \"implement\\\\Social.sol\":841:845  true */\n      0x01\n        /* \"implement\\\\Social.sol\":834:845  return true */\n      swap1\n      pop\n        /* \"implement\\\\Social.sol\":676:852  function Register(string memory pubkey) public returns (bool) {... */\n      swap2\n      swap1\n      pop\n      jump\t// out\n        /* \"implement\\\\Social.sol\":3315:4022  function RemoveBlockedUser(address user) public returns (bool) {... */\n    tag_29:\n        /* \"implement\\\\Social.sol\":3372:3376  bool */\n      0x00\n        /* \"implement\\\\Social.sol\":3460:3461  0 */\n      dup1\n        /* \"implement\\\\Social.sol\":3409:3427  BlockedUserMapping */\n      0x04\n        /* \"implement\\\\Social.sol\":3409:3439  BlockedUserMapping[msg.sender] */\n      0x00\n        /* \"implement\\\\Social.sol\":3428:3438  msg.sender */\n      caller\n        /* \"implement\\\\Social.sol\":3409:3439  BlockedUserMapping[msg.sender] */\n      0xffffffffffffffffffffffffffffffffffffffff\n      and\n      0xffffffffffffffffffffffffffffffffffffffff\n      and\n      dup2\n      mstore\n      0x20\n      add\n      swap1\n      dup2\n      mstore\n      0x20\n      add\n      0x00\n      keccak256\n        /* \"implement\\\\Social.sol\":3409:3445  BlockedUserMapping[msg.sender][user] */\n      0x00\n        /* \"implement\\\\Social.sol\":3440:3444  user */\n      dup5\n        /* \"implement\\\\Social.sol\":3409:3445  BlockedUserMapping[msg.sender][user] */\n      0xffffffffffffffffffffffffffffffffffffffff\n      and\n      0xffffffffffffffffffffffffffffffffffffffff\n      and\n      dup2\n      mstore\n      0x20\n      add\n      swap1\n      dup2\n      mstore\n      0x20\n      add\n      0x00\n      keccak256\n        /* \"implement\\\\Social.sol\":3409:3456  BlockedUserMapping[msg.sender][user].created_at */\n      0x01\n      add\n      sload\n        /* \"implement\\\\Social.sol\":3409:3461  BlockedUserMapping[msg.sender][user].created_at != 0 */\n      sub\n        /* \"implement\\\\Social.sol\":3388:3516  require(... */\n      tag_70\n      jumpi\n      mload(0x40)\n      0x08c379a000000000000000000000000000000000000000000000000000000000\n      dup2\n      mstore\n      0x04\n      add\n      tag_71\n      swap1\n      tag_72\n      jump\t// in\n    tag_71:\n      mload(0x40)\n      dup1\n      swap2\n      sub\n      swap1\n      revert\n    tag_70:\n        /* \"implement\\\\Social.sol\":3533:3551  BlockedUserMapping */\n      0x04\n        /* \"implement\\\\Social.sol\":3533:3563  BlockedUserMapping[msg.sender] */\n      0x00\n        /* \"implement\\\\Social.sol\":3552:3562  msg.sender */\n      caller\n        /* \"implement\\\\Social.sol\":3533:3563  BlockedUserMapping[msg.sender] */\n      0xffffffffffffffffffffffffffffffffffffffff\n      and\n      0xffffffffffffffffffffffffffffffffffffffff\n      and\n      dup2\n      mstore\n      0x20\n      add\n      swap1\n      dup2\n      mstore\n      0x20\n      add\n      0x00\n      keccak256\n        /* \"implement\\\\Social.sol\":3533:3569  BlockedUserMapping[msg.sender][user] */\n      0x00\n        /* \"implement\\\\Social.sol\":3564:3568  user */\n      dup4\n        /* \"implement\\\\Social.sol\":3533:3569  BlockedUserMapping[msg.sender][user] */\n      0xffffffffffffffffffffffffffffffffffffffff\n      and\n      0xffffffffffffffffffffffffffffffffffffffff\n      and\n      dup2\n      mstore\n      0x20\n      add\n      swap1\n      dup2\n      mstore\n      0x20\n      add\n      0x00\n      keccak256\n      0x00\n        /* \"implement\\\\Social.sol\":3526:3569  delete BlockedUserMapping[msg.sender][user] */\n      dup1\n      dup3\n      add\n      exp(0x0100, 0x00)\n      dup2\n      sload\n      swap1\n      0xffffffffffffffffffffffffffffffffffffffff\n      mul\n      not\n      and\n      swap1\n      sstore\n      0x01\n      dup3\n      add\n      0x00\n      swap1\n      sstore\n      pop\n      pop\n        /* \"implement\\\\Social.sol\":3585:3594  uint256 i */\n      0x00\n        /* \"implement\\\\Social.sol\":3580:3993  for (uint256 i = 0; i < BlockList[msg.sender].length; i++) {... */\n    tag_73:\n        /* \"implement\\\\Social.sol\":3604:3613  BlockList */\n      0x05\n        /* \"implement\\\\Social.sol\":3604:3625  BlockList[msg.sender] */\n      0x00\n        /* \"implement\\\\Social.sol\":3614:3624  msg.sender */\n      caller\n        /* \"implement\\\\Social.sol\":3604:3625  BlockList[msg.sender] */\n      0xffffffffffffffffffffffffffffffffffffffff\n      and\n      0xffffffffffffffffffffffffffffffffffffffff\n      and\n      dup2\n      mstore\n      0x20\n      add\n      swap1\n      dup2\n      mstore\n      0x20\n      add\n      0x00\n      keccak256\n        /* \"implement\\\\Social.sol\":3604:3632  BlockList[msg.sender].length */\n      dup1\n      sload\n      swap1\n      pop\n        /* \"implement\\\\Social.sol\":3600:3601  i */\n      dup2\n        /* \"implement\\\\Social.sol\":3600:3632  i < BlockList[msg.sender].length */\n      lt\n        /* \"implement\\\\Social.sol\":3580:3993  for (uint256 i = 0; i < BlockList[msg.sender].length; i++) {... */\n      iszero\n      tag_74\n      jumpi\n        /* \"implement\\\\Social.sol\":3685:3689  user */\n      dup3\n        /* \"implement\\\\Social.sol\":3657:3689  BlockList[msg.sender][i] == user */\n      0xffffffffffffffffffffffffffffffffffffffff\n      and\n        /* \"implement\\\\Social.sol\":3657:3666  BlockList */\n      0x05\n        /* \"implement\\\\Social.sol\":3657:3678  BlockList[msg.sender] */\n      0x00\n        /* \"implement\\\\Social.sol\":3667:3677  msg.sender */\n      caller\n        /* \"implement\\\\Social.sol\":3657:3678  BlockList[msg.sender] */\n      0xffffffffffffffffffffffffffffffffffffffff\n      and\n      0xffffffffffffffffffffffffffffffffffffffff\n      and\n      dup2\n      mstore\n      0x20\n      add\n      swap1\n      dup2\n      mstore\n      0x20\n      add\n      0x00\n      keccak256\n        /* \"implement\\\\Social.sol\":3679:3680  i */\n      dup3\n        /* \"implement\\\\Social.sol\":3657:3681  BlockList[msg.sender][i] */\n      dup2\n      sload\n      dup2\n      lt\n      tag_76\n      jumpi\n      tag_77\n      tag_78\n      jump\t// in\n    tag_77:\n    tag_76:\n      swap1\n      0x00\n      mstore\n      keccak256(0x00, 0x20)\n      add\n      0x00\n      swap1\n      sload\n      swap1\n      0x0100\n      exp\n      swap1\n      div\n      0xffffffffffffffffffffffffffffffffffffffff\n      and\n        /* \"implement\\\\Social.sol\":3657:3689  BlockList[msg.sender][i] == user */\n      0xffffffffffffffffffffffffffffffffffffffff\n      and\n      sub\n        /* \"implement\\\\Social.sol\":3653:3983  if (BlockList[msg.sender][i] == user) {... */\n      tag_80\n      jumpi\n        /* \"implement\\\\Social.sol\":3736:3745  BlockList */\n      0x05\n        /* \"implement\\\\Social.sol\":3736:3757  BlockList[msg.sender] */\n      0x00\n        /* \"implement\\\\Social.sol\":3746:3756  msg.sender */\n      caller\n        /* \"implement\\\\Social.sol\":3736:3757  BlockList[msg.sender] */\n      0xffffffffffffffffffffffffffffffffffffffff\n      and\n      0xffffffffffffffffffffffffffffffffffffffff\n      and\n      dup2\n      mstore\n      0x20\n      add\n      swap1\n      dup2\n      mstore\n      0x20\n      add\n      0x00\n      keccak256\n        /* \"implement\\\\Social.sol\":3810:3811  1 */\n      0x01\n        /* \"implement\\\\Social.sol\":3779:3788  BlockList */\n      0x05\n        /* \"implement\\\\Social.sol\":3779:3800  BlockList[msg.sender] */\n      0x00\n        /* \"implement\\\\Social.sol\":3789:3799  msg.sender */\n      caller\n        /* \"implement\\\\Social.sol\":3779:3800  BlockList[msg.sender] */\n      0xffffffffffffffffffffffffffffffffffffffff\n      and\n      0xffffffffffffffffffffffffffffffffffffffff\n      and\n      dup2\n      mstore\n      0x20\n      add\n      swap1\n      dup2\n      mstore\n      0x20\n      add\n      0x00\n      keccak256\n        /* \"implement\\\\Social.sol\":3779:3807  BlockList[msg.sender].length */\n      dup1\n      sload\n      swap1\n      pop\n        /* \"implement\\\\Social.sol\":3779:3811  BlockList[msg.sender].length - 1 */\n      tag_81\n      swap2\n      swap1\n      tag_82\n      jump\t// in\n    tag_81:\n        /* \"implement\\\\Social.sol\":3736:3829  BlockList[msg.sender][... */\n      dup2\n      sload\n      dup2\n      lt\n      tag_83\n      jumpi\n      tag_84\n      tag_78\n      jump\t// in\n    tag_84:\n    tag_83:\n      swap1\n      0x00\n      mstore\n      keccak256(0x00, 0x20)\n      add\n      0x00\n      swap1\n      sload\n      swap1\n      0x0100\n      exp\n      swap1\n      div\n      0xffffffffffffffffffffffffffffffffffffffff\n      and\n        /* \"implement\\\\Social.sol\":3709:3718  BlockList */\n      0x05\n        /* \"implement\\\\Social.sol\":3709:3730  BlockList[msg.sender] */\n      0x00\n        /* \"implement\\\\Social.sol\":3719:3729  msg.sender */\n      caller\n        /* \"implement\\\\Social.sol\":3709:3730  BlockList[msg.sender] */\n      0xffffffffffffffffffffffffffffffffffffffff\n      and\n      0xffffffffffffffffffffffffffffffffffffffff\n      and\n      dup2\n      mstore\n      0x20\n      add\n      swap1\n      dup2\n      mstore\n      0x20\n      add\n      0x00\n      keccak256\n        /* \"implement\\\\Social.sol\":3731:3732  i */\n      dup3\n        /* \"implement\\\\Social.sol\":3709:3733  BlockList[msg.sender][i] */\n      dup2\n      sload\n      dup2\n      lt\n      tag_86\n      jumpi\n      tag_87\n      tag_78\n      jump\t// in\n    tag_87:\n    tag_86:\n      swap1\n      0x00\n      mstore\n      keccak256(0x00, 0x20)\n      add\n      0x00\n        /* \"implement\\\\Social.sol\":3709:3829  BlockList[msg.sender][i] = BlockList[msg.sender][... */\n      0x0100\n      exp\n      dup2\n      sload\n      dup2\n      0xffffffffffffffffffffffffffffffffffffffff\n      mul\n      not\n      and\n      swap1\n      dup4\n      0xffffffffffffffffffffffffffffffffffffffff\n      and\n      mul\n      or\n      swap1\n      sstore\n      pop\n        /* \"implement\\\\Social.sol\":3847:3856  BlockList */\n      0x05\n        /* \"implement\\\\Social.sol\":3847:3868  BlockList[msg.sender] */\n      0x00\n        /* \"implement\\\\Social.sol\":3857:3867  msg.sender */\n      caller\n        /* \"implement\\\\Social.sol\":3847:3868  BlockList[msg.sender] */\n      0xffffffffffffffffffffffffffffffffffffffff\n      and\n      0xffffffffffffffffffffffffffffffffffffffff\n      and\n      dup2\n      mstore\n      0x20\n      add\n      swap1\n      dup2\n      mstore\n      0x20\n      add\n      0x00\n      keccak256\n        /* \"implement\\\\Social.sol\":3847:3874  BlockList[msg.sender].pop() */\n      dup1\n      sload\n      dup1\n      tag_89\n      jumpi\n      tag_90\n      tag_91\n      jump\t// in\n    tag_90:\n    tag_89:\n      0x01\n      swap1\n      sub\n      dup2\n      dup2\n      swap1\n      0x00\n      mstore\n      keccak256(0x00, 0x20)\n      add\n      exp(0x0100, 0x00)\n      dup2\n      sload\n      swap1\n      0xffffffffffffffffffffffffffffffffffffffff\n      mul\n      not\n      and\n      swap1\n      sstore\n      swap1\n      sstore\n        /* \"implement\\\\Social.sol\":3934:3938  user */\n      dup3\n        /* \"implement\\\\Social.sol\":3897:3939  user_removed_from_blocked(msg.sender,user) */\n      0xffffffffffffffffffffffffffffffffffffffff\n      and\n        /* \"implement\\\\Social.sol\":3923:3933  msg.sender */\n      caller\n        /* \"implement\\\\Social.sol\":3897:3939  user_removed_from_blocked(msg.sender,user) */\n      0xffffffffffffffffffffffffffffffffffffffff\n      and\n      0xa70f45b93a0b9d5f3fe03b6f02530661342e6a7a57c8da906f826230d2fdca44\n      mload(0x40)\n      mload(0x40)\n      dup1\n      swap2\n      sub\n      swap1\n      log3\n        /* \"implement\\\\Social.sol\":3964:3968  true */\n      0x01\n        /* \"implement\\\\Social.sol\":3957:3968  return true */\n      swap2\n      pop\n      pop\n      jump(tag_69)\n        /* \"implement\\\\Social.sol\":3653:3983  if (BlockList[msg.sender][i] == user) {... */\n    tag_80:\n        /* \"implement\\\\Social.sol\":3634:3637  i++ */\n      dup1\n      dup1\n      tag_93\n      swap1\n      tag_94\n      jump\t// in\n    tag_93:\n      swap2\n      pop\n      pop\n        /* \"implement\\\\Social.sol\":3580:3993  for (uint256 i = 0; i < BlockList[msg.sender].length; i++) {... */\n      jump(tag_73)\n    tag_74:\n      pop\n        /* \"implement\\\\Social.sol\":4010:4015  false */\n      0x00\n        /* \"implement\\\\Social.sol\":4003:4015  return false */\n      swap1\n      pop\n        /* \"implement\\\\Social.sol\":3315:4022  function RemoveBlockedUser(address user) public returns (bool) {... */\n    tag_69:\n      swap2\n      swap1\n      pop\n      jump\t// out\n        /* \"implement\\\\Social.sol\":858:964  function GetPubKey(address user) public view returns (string memory) {... */\n    tag_33:\n        /* \"implement\\\\Social.sol\":912:925  string memory */\n      0x60\n        /* \"implement\\\\Social.sol\":944:951  Pubkeys */\n      0x01\n        /* \"implement\\\\Social.sol\":944:957  Pubkeys[user] */\n      0x00\n        /* \"implement\\\\Social.sol\":952:956  user */\n      dup4\n        /* \"implement\\\\Social.sol\":944:957  Pubkeys[user] */\n      0xffffffffffffffffffffffffffffffffffffffff\n      and\n      0xffffffffffffffffffffffffffffffffffffffff\n      and\n      dup2\n      mstore\n      0x20\n      add\n      swap1\n      dup2\n      mstore\n      0x20\n      add\n      0x00\n      keccak256\n        /* \"implement\\\\Social.sol\":937:957  return Pubkeys[user] */\n      dup1\n      sload\n      tag_96\n      swap1\n      tag_97\n      jump\t// in\n    tag_96:\n      dup1\n      0x1f\n      add\n      0x20\n      dup1\n      swap2\n      div\n      mul\n      0x20\n      add\n      mload(0x40)\n      swap1\n      dup2\n      add\n      0x40\n      mstore\n      dup1\n      swap3\n      swap2\n      swap1\n      dup2\n      dup2\n      mstore\n      0x20\n      add\n      dup3\n      dup1\n      sload\n      tag_98\n      swap1\n      tag_97\n      jump\t// in\n    tag_98:\n      dup1\n      iszero\n      tag_99\n      jumpi\n      dup1\n      0x1f\n      lt\n      tag_100\n      jumpi\n      0x0100\n      dup1\n      dup4\n      sload\n      div\n      mul\n      dup4\n      mstore\n      swap2\n      0x20\n      add\n      swap2\n      jump(tag_99)\n    tag_100:\n      dup3\n      add\n      swap2\n      swap1\n      0x00\n      mstore\n      keccak256(0x00, 0x20)\n      swap1\n    tag_101:\n      dup2\n      sload\n      dup2\n      mstore\n      swap1\n      0x01\n      add\n      swap1\n      0x20\n      add\n      dup1\n      dup4\n      gt\n      tag_101\n      jumpi\n      dup3\n      swap1\n      sub\n      0x1f\n      and\n      dup3\n      add\n      swap2\n    tag_99:\n      pop\n      pop\n      pop\n      pop\n      pop\n      swap1\n      pop\n        /* \"implement\\\\Social.sol\":858:964  function GetPubKey(address user) public view returns (string memory) {... */\n      swap2\n      swap1\n      pop\n      jump\t// out\n        /* \"implement\\\\Social.sol\":2512:2621  function ViewFriends() public view returns (address[] memory) {... */\n    tag_37:\n        /* \"implement\\\\Social.sol\":2556:2572  address[] memory */\n      0x60\n        /* \"implement\\\\Social.sol\":2591:2602  FriendsList */\n      0x03\n        /* \"implement\\\\Social.sol\":2591:2614  FriendsList[msg.sender] */\n      0x00\n        /* \"implement\\\\Social.sol\":2603:2613  msg.sender */\n      caller\n        /* \"implement\\\\Social.sol\":2591:2614  FriendsList[msg.sender] */\n      0xffffffffffffffffffffffffffffffffffffffff\n      and\n      0xffffffffffffffffffffffffffffffffffffffff\n      and\n      dup2\n      mstore\n      0x20\n      add\n      swap1\n      dup2\n      mstore\n      0x20\n      add\n      0x00\n      keccak256\n        /* \"implement\\\\Social.sol\":2584:2614  return FriendsList[msg.sender] */\n      dup1\n      sload\n      dup1\n      0x20\n      mul\n      0x20\n      add\n      mload(0x40)\n      swap1\n      dup2\n      add\n      0x40\n      mstore\n      dup1\n      swap3\n      swap2\n      swap1\n      dup2\n      dup2\n      mstore\n      0x20\n      add\n      dup3\n      dup1\n      sload\n      dup1\n      iszero\n      tag_103\n      jumpi\n      0x20\n      mul\n      dup3\n      add\n      swap2\n      swap1\n      0x00\n      mstore\n      keccak256(0x00, 0x20)\n      swap1\n    tag_104:\n      dup2\n      0x00\n      swap1\n      sload\n      swap1\n      0x0100\n      exp\n      swap1\n      div\n      0xffffffffffffffffffffffffffffffffffffffff\n      and\n      0xffffffffffffffffffffffffffffffffffffffff\n      and\n      dup2\n      mstore\n      0x20\n      add\n      swap1\n      0x01\n      add\n      swap1\n      dup1\n      dup4\n      gt\n      tag_104\n      jumpi\n    tag_103:\n      pop\n      pop\n      pop\n      pop\n      pop\n      swap1\n      pop\n        /* \"implement\\\\Social.sol\":2512:2621  function ViewFriends() public view returns (address[] memory) {... */\n      swap1\n      jump\t// out\n        /* \"implement\\\\Social.sol\":1804:2506  function RemoveFriend(address user) public returns (bool) {... */\n    tag_41:\n        /* \"implement\\\\Social.sol\":1856:1860  bool */\n      0x00\n        /* \"implement\\\\Social.sol\":1940:1941  0 */\n      dup1\n        /* \"implement\\\\Social.sol\":1893:1907  FriendsMapping */\n      0x02\n        /* \"implement\\\\Social.sol\":1893:1919  FriendsMapping[msg.sender] */\n      0x00\n        /* \"implement\\\\Social.sol\":1908:1918  msg.sender */\n      caller\n        /* \"implement\\\\Social.sol\":1893:1919  FriendsMapping[msg.sender] */\n      0xffffffffffffffffffffffffffffffffffffffff\n      and\n      0xffffffffffffffffffffffffffffffffffffffff\n      and\n      dup2\n      mstore\n      0x20\n      add\n      swap1\n      dup2\n      mstore\n      0x20\n      add\n      0x00\n      keccak256\n        /* \"implement\\\\Social.sol\":1893:1925  FriendsMapping[msg.sender][user] */\n      0x00\n        /* \"implement\\\\Social.sol\":1920:1924  user */\n      dup5\n        /* \"implement\\\\Social.sol\":1893:1925  FriendsMapping[msg.sender][user] */\n      0xffffffffffffffffffffffffffffffffffffffff\n      and\n      0xffffffffffffffffffffffffffffffffffffffff\n      and\n      dup2\n      mstore\n      0x20\n      add\n      swap1\n      dup2\n      mstore\n      0x20\n      add\n      0x00\n      keccak256\n        /* \"implement\\\\Social.sol\":1893:1936  FriendsMapping[msg.sender][user].created_at */\n      0x01\n      add\n      sload\n        /* \"implement\\\\Social.sol\":1893:1941  FriendsMapping[msg.sender][user].created_at != 0 */\n      sub\n        /* \"implement\\\\Social.sol\":1872:1992  require(... */\n      tag_106\n      jumpi\n      mload(0x40)\n      0x08c379a000000000000000000000000000000000000000000000000000000000\n      dup2\n      mstore\n      0x04\n      add\n      tag_107\n      swap1\n      tag_108\n      jump\t// in\n    tag_107:\n      mload(0x40)\n      dup1\n      swap2\n      sub\n      swap1\n      revert\n    tag_106:\n        /* \"implement\\\\Social.sol\":2009:2023  FriendsMapping */\n      0x02\n        /* \"implement\\\\Social.sol\":2009:2035  FriendsMapping[msg.sender] */\n      0x00\n        /* \"implement\\\\Social.sol\":2024:2034  msg.sender */\n      caller\n        /* \"implement\\\\Social.sol\":2009:2035  FriendsMapping[msg.sender] */\n      0xffffffffffffffffffffffffffffffffffffffff\n      and\n      0xffffffffffffffffffffffffffffffffffffffff\n      and\n      dup2\n      mstore\n      0x20\n      add\n      swap1\n      dup2\n      mstore\n      0x20\n      add\n      0x00\n      keccak256\n        /* \"implement\\\\Social.sol\":2009:2041  FriendsMapping[msg.sender][user] */\n      0x00\n        /* \"implement\\\\Social.sol\":2036:2040  user */\n      dup4\n        /* \"implement\\\\Social.sol\":2009:2041  FriendsMapping[msg.sender][user] */\n      0xffffffffffffffffffffffffffffffffffffffff\n      and\n      0xffffffffffffffffffffffffffffffffffffffff\n      and\n      dup2\n      mstore\n      0x20\n      add\n      swap1\n      dup2\n      mstore\n      0x20\n      add\n      0x00\n      keccak256\n      0x00\n        /* \"implement\\\\Social.sol\":2002:2041  delete FriendsMapping[msg.sender][user] */\n      dup1\n      dup3\n      add\n      exp(0x0100, 0x00)\n      dup2\n      sload\n      swap1\n      0xffffffffffffffffffffffffffffffffffffffff\n      mul\n      not\n      and\n      swap1\n      sstore\n      0x01\n      dup3\n      add\n      0x00\n      swap1\n      sstore\n      pop\n      pop\n        /* \"implement\\\\Social.sol\":2057:2066  uint256 i */\n      0x00\n        /* \"implement\\\\Social.sol\":2052:2477  for (uint256 i = 0; i < FriendsList[msg.sender].length; i++) {... */\n    tag_109:\n        /* \"implement\\\\Social.sol\":2076:2087  FriendsList */\n      0x03\n        /* \"implement\\\\Social.sol\":2076:2099  FriendsList[msg.sender] */\n      0x00\n        /* \"implement\\\\Social.sol\":2088:2098  msg.sender */\n      caller\n        /* \"implement\\\\Social.sol\":2076:2099  FriendsList[msg.sender] */\n      0xffffffffffffffffffffffffffffffffffffffff\n      and\n      0xffffffffffffffffffffffffffffffffffffffff\n      and\n      dup2\n      mstore\n      0x20\n      add\n      swap1\n      dup2\n      mstore\n      0x20\n      add\n      0x00\n      keccak256\n        /* \"implement\\\\Social.sol\":2076:2106  FriendsList[msg.sender].length */\n      dup1\n      sload\n      swap1\n      pop\n        /* \"implement\\\\Social.sol\":2072:2073  i */\n      dup2\n        /* \"implement\\\\Social.sol\":2072:2106  i < FriendsList[msg.sender].length */\n      lt\n        /* \"implement\\\\Social.sol\":2052:2477  for (uint256 i = 0; i < FriendsList[msg.sender].length; i++) {... */\n      iszero\n      tag_110\n      jumpi\n        /* \"implement\\\\Social.sol\":2161:2165  user */\n      dup3\n        /* \"implement\\\\Social.sol\":2131:2165  FriendsList[msg.sender][i] == user */\n      0xffffffffffffffffffffffffffffffffffffffff\n      and\n        /* \"implement\\\\Social.sol\":2131:2142  FriendsList */\n      0x03\n        /* \"implement\\\\Social.sol\":2131:2154  FriendsList[msg.sender] */\n      0x00\n        /* \"implement\\\\Social.sol\":2143:2153  msg.sender */\n      caller\n        /* \"implement\\\\Social.sol\":2131:2154  FriendsList[msg.sender] */\n      0xffffffffffffffffffffffffffffffffffffffff\n      and\n      0xffffffffffffffffffffffffffffffffffffffff\n      and\n      dup2\n      mstore\n      0x20\n      add\n      swap1\n      dup2\n      mstore\n      0x20\n      add\n      0x00\n      keccak256\n        /* \"implement\\\\Social.sol\":2155:2156  i */\n      dup3\n        /* \"implement\\\\Social.sol\":2131:2157  FriendsList[msg.sender][i] */\n      dup2\n      sload\n      dup2\n      lt\n      tag_112\n      jumpi\n      tag_113\n      tag_78\n      jump\t// in\n    tag_113:\n    tag_112:\n      swap1\n      0x00\n      mstore\n      keccak256(0x00, 0x20)\n      add\n      0x00\n      swap1\n      sload\n      swap1\n      0x0100\n      exp\n      swap1\n      div\n      0xffffffffffffffffffffffffffffffffffffffff\n      and\n        /* \"implement\\\\Social.sol\":2131:2165  FriendsList[msg.sender][i] == user */\n      0xffffffffffffffffffffffffffffffffffffffff\n      and\n      sub\n        /* \"implement\\\\Social.sol\":2127:2467  if (FriendsList[msg.sender][i] == user) {... */\n      tag_115\n      jumpi\n        /* \"implement\\\\Social.sol\":2214:2225  FriendsList */\n      0x03\n        /* \"implement\\\\Social.sol\":2214:2237  FriendsList[msg.sender] */\n      0x00\n        /* \"implement\\\\Social.sol\":2226:2236  msg.sender */\n      caller\n        /* \"implement\\\\Social.sol\":2214:2237  FriendsList[msg.sender] */\n      0xffffffffffffffffffffffffffffffffffffffff\n      and\n      0xffffffffffffffffffffffffffffffffffffffff\n      and\n      dup2\n      mstore\n      0x20\n      add\n      swap1\n      dup2\n      mstore\n      0x20\n      add\n      0x00\n      keccak256\n        /* \"implement\\\\Social.sol\":2292:2293  1 */\n      0x01\n        /* \"implement\\\\Social.sol\":2259:2270  FriendsList */\n      0x03\n        /* \"implement\\\\Social.sol\":2259:2282  FriendsList[msg.sender] */\n      0x00\n        /* \"implement\\\\Social.sol\":2271:2281  msg.sender */\n      caller\n        /* \"implement\\\\Social.sol\":2259:2282  FriendsList[msg.sender] */\n      0xffffffffffffffffffffffffffffffffffffffff\n      and\n      0xffffffffffffffffffffffffffffffffffffffff\n      and\n      dup2\n      mstore\n      0x20\n      add\n      swap1\n      dup2\n      mstore\n      0x20\n      add\n      0x00\n      keccak256\n        /* \"implement\\\\Social.sol\":2259:2289  FriendsList[msg.sender].length */\n      dup1\n      sload\n      swap1\n      pop\n        /* \"implement\\\\Social.sol\":2259:2293  FriendsList[msg.sender].length - 1 */\n      tag_116\n      swap2\n      swap1\n      tag_82\n      jump\t// in\n    tag_116:\n        /* \"implement\\\\Social.sol\":2214:2311  FriendsList[msg.sender][... */\n      dup2\n      sload\n      dup2\n      lt\n      tag_117\n      jumpi\n      tag_118\n      tag_78\n      jump\t// in\n    tag_118:\n    tag_117:\n      swap1\n      0x00\n      mstore\n      keccak256(0x00, 0x20)\n      add\n      0x00\n      swap1\n      sload\n      swap1\n      0x0100\n      exp\n      swap1\n      div\n      0xffffffffffffffffffffffffffffffffffffffff\n      and\n        /* \"implement\\\\Social.sol\":2185:2196  FriendsList */\n      0x03\n        /* \"implement\\\\Social.sol\":2185:2208  FriendsList[msg.sender] */\n      0x00\n        /* \"implement\\\\Social.sol\":2197:2207  msg.sender */\n      caller\n        /* \"implement\\\\Social.sol\":2185:2208  FriendsList[msg.sender] */\n      0xffffffffffffffffffffffffffffffffffffffff\n      and\n      0xffffffffffffffffffffffffffffffffffffffff\n      and\n      dup2\n      mstore\n      0x20\n      add\n      swap1\n      dup2\n      mstore\n      0x20\n      add\n      0x00\n      keccak256\n        /* \"implement\\\\Social.sol\":2209:2210  i */\n      dup3\n        /* \"implement\\\\Social.sol\":2185:2211  FriendsList[msg.sender][i] */\n      dup2\n      sload\n      dup2\n      lt\n      tag_120\n      jumpi\n      tag_121\n      tag_78\n      jump\t// in\n    tag_121:\n    tag_120:\n      swap1\n      0x00\n      mstore\n      keccak256(0x00, 0x20)\n      add\n      0x00\n        /* \"implement\\\\Social.sol\":2185:2311  FriendsList[msg.sender][i] = FriendsList[msg.sender][... */\n      0x0100\n      exp\n      dup2\n      sload\n      dup2\n      0xffffffffffffffffffffffffffffffffffffffff\n      mul\n      not\n      and\n      swap1\n      dup4\n      0xffffffffffffffffffffffffffffffffffffffff\n      and\n      mul\n      or\n      swap1\n      sstore\n      pop\n        /* \"implement\\\\Social.sol\":2329:2340  FriendsList */\n      0x03\n        /* \"implement\\\\Social.sol\":2329:2352  FriendsList[msg.sender] */\n      0x00\n        /* \"implement\\\\Social.sol\":2341:2351  msg.sender */\n      caller\n        /* \"implement\\\\Social.sol\":2329:2352  FriendsList[msg.sender] */\n      0xffffffffffffffffffffffffffffffffffffffff\n      and\n      0xffffffffffffffffffffffffffffffffffffffff\n      and\n      dup2\n      mstore\n      0x20\n      add\n      swap1\n      dup2\n      mstore\n      0x20\n      add\n      0x00\n      keccak256\n        /* \"implement\\\\Social.sol\":2329:2358  FriendsList[msg.sender].pop() */\n      dup1\n      sload\n      dup1\n      tag_123\n      jumpi\n      tag_124\n      tag_91\n      jump\t// in\n    tag_124:\n    tag_123:\n      0x01\n      swap1\n      sub\n      dup2\n      dup2\n      swap1\n      0x00\n      mstore\n      keccak256(0x00, 0x20)\n      add\n      exp(0x0100, 0x00)\n      dup2\n      sload\n      swap1\n      0xffffffffffffffffffffffffffffffffffffffff\n      mul\n      not\n      and\n      swap1\n      sstore\n      swap1\n      sstore\n        /* \"implement\\\\Social.sol\":2418:2422  user */\n      dup3\n        /* \"implement\\\\Social.sol\":2381:2423  user_removed_from_friends(msg.sender,user) */\n      0xffffffffffffffffffffffffffffffffffffffff\n      and\n        /* \"implement\\\\Social.sol\":2407:2417  msg.sender */\n      caller\n        /* \"implement\\\\Social.sol\":2381:2423  user_removed_from_friends(msg.sender,user) */\n      0xffffffffffffffffffffffffffffffffffffffff\n      and\n      0x11f4b134f60f4bd9f709b4ec296696385afeecc64bd4eb3ea9dfaa89bbfbb4cf\n      mload(0x40)\n      mload(0x40)\n      dup1\n      swap2\n      sub\n      swap1\n      log3\n        /* \"implement\\\\Social.sol\":2448:2452  true */\n      0x01\n        /* \"implement\\\\Social.sol\":2441:2452  return true */\n      swap2\n      pop\n      pop\n      jump(tag_105)\n        /* \"implement\\\\Social.sol\":2127:2467  if (FriendsList[msg.sender][i] == user) {... */\n    tag_115:\n        /* \"implement\\\\Social.sol\":2108:2111  i++ */\n      dup1\n      dup1\n      tag_126\n      swap1\n      tag_94\n      jump\t// in\n    tag_126:\n      swap2\n      pop\n      pop\n        /* \"implement\\\\Social.sol\":2052:2477  for (uint256 i = 0; i < FriendsList[msg.sender].length; i++) {... */\n      jump(tag_109)\n    tag_110:\n      pop\n        /* \"implement\\\\Social.sol\":2494:2499  false */\n      0x00\n        /* \"implement\\\\Social.sol\":2487:2499  return false */\n      swap1\n      pop\n        /* \"implement\\\\Social.sol\":1804:2506  function RemoveFriend(address user) public returns (bool) {... */\n    tag_105:\n      swap2\n      swap1\n      pop\n      jump\t// out\n        /* \"implement\\\\Social.sol\":2627:3309  function BlockUser(address user) public returns (bool) {... */\n    tag_45:\n        /* \"implement\\\\Social.sol\":2676:2680  bool */\n      0x00\n        /* \"implement\\\\Social.sol\":2708:2718  msg.sender */\n      caller\n        /* \"implement\\\\Social.sol\":2700:2718  user != msg.sender */\n      0xffffffffffffffffffffffffffffffffffffffff\n      and\n        /* \"implement\\\\Social.sol\":2700:2704  user */\n      dup3\n        /* \"implement\\\\Social.sol\":2700:2718  user != msg.sender */\n      0xffffffffffffffffffffffffffffffffffffffff\n      and\n      sub\n        /* \"implement\\\\Social.sol\":2692:2749  require(user != msg.sender, \"you can not block yourself\") */\n      tag_128\n      jumpi\n      mload(0x40)\n      0x08c379a000000000000000000000000000000000000000000000000000000000\n      dup2\n      mstore\n      0x04\n      add\n      tag_129\n      swap1\n      tag_130\n      jump\t// in\n    tag_129:\n      mload(0x40)\n      dup1\n      swap2\n      sub\n      swap1\n      revert\n    tag_128:\n        /* \"implement\\\\Social.sol\":2826:2837  EMPTYSTRING */\n      sload(0x00)\n        /* \"implement\\\\Social.sol\":2807:2814  Pubkeys */\n      0x01\n        /* \"implement\\\\Social.sol\":2807:2820  Pubkeys[user] */\n      0x00\n        /* \"implement\\\\Social.sol\":2815:2819  user */\n      dup5\n        /* \"implement\\\\Social.sol\":2807:2820  Pubkeys[user] */\n      0xffffffffffffffffffffffffffffffffffffffff\n      and\n      0xffffffffffffffffffffffffffffffffffffffff\n      and\n      dup2\n      mstore\n      0x20\n      add\n      swap1\n      dup2\n      mstore\n      0x20\n      add\n      0x00\n      keccak256\n        /* \"implement\\\\Social.sol\":2790:2821  abi.encodePacked(Pubkeys[user]) */\n      add(0x20, mload(0x40))\n      tag_131\n      swap2\n      swap1\n      tag_52\n      jump\t// in\n    tag_131:\n      mload(0x40)\n      0x20\n      dup2\n      dup4\n      sub\n      sub\n      dup2\n      mstore\n      swap1\n      0x40\n      mstore\n        /* \"implement\\\\Social.sol\":2780:2822  keccak256(abi.encodePacked(Pubkeys[user])) */\n      dup1\n      mload\n      swap1\n      0x20\n      add\n      keccak256\n        /* \"implement\\\\Social.sol\":2780:2837  keccak256(abi.encodePacked(Pubkeys[user])) != EMPTYSTRING */\n      sub\n        /* \"implement\\\\Social.sol\":2759:2903  require(... */\n      tag_132\n      jumpi\n      mload(0x40)\n      0x08c379a000000000000000000000000000000000000000000000000000000000\n      dup2\n      mstore\n      0x04\n      add\n      tag_133\n      swap1\n      tag_134\n      jump\t// in\n    tag_133:\n      mload(0x40)\n      dup1\n      swap2\n      sub\n      swap1\n      revert\n    tag_132:\n        /* \"implement\\\\Social.sol\":2964:2965  0 */\n      0x00\n        /* \"implement\\\\Social.sol\":2917:2931  FriendsMapping */\n      0x02\n        /* \"implement\\\\Social.sol\":2917:2943  FriendsMapping[msg.sender] */\n      0x00\n        /* \"implement\\\\Social.sol\":2932:2942  msg.sender */\n      caller\n        /* \"implement\\\\Social.sol\":2917:2943  FriendsMapping[msg.sender] */\n      0xffffffffffffffffffffffffffffffffffffffff\n      and\n      0xffffffffffffffffffffffffffffffffffffffff\n      and\n      dup2\n      mstore\n      0x20\n      add\n      swap1\n      dup2\n      mstore\n      0x20\n      add\n      0x00\n      keccak256\n        /* \"implement\\\\Social.sol\":2917:2949  FriendsMapping[msg.sender][user] */\n      0x00\n        /* \"implement\\\\Social.sol\":2944:2948  user */\n      dup5\n        /* \"implement\\\\Social.sol\":2917:2949  FriendsMapping[msg.sender][user] */\n      0xffffffffffffffffffffffffffffffffffffffff\n      and\n      0xffffffffffffffffffffffffffffffffffffffff\n      and\n      dup2\n      mstore\n      0x20\n      add\n      swap1\n      dup2\n      mstore\n      0x20\n      add\n      0x00\n      keccak256\n        /* \"implement\\\\Social.sol\":2917:2960  FriendsMapping[msg.sender][user].created_at */\n      0x01\n      add\n      sload\n        /* \"implement\\\\Social.sol\":2917:2965  FriendsMapping[msg.sender][user].created_at != 0 */\n      eq\n        /* \"implement\\\\Social.sol\":2913:3010  if (FriendsMapping[msg.sender][user].created_at != 0) {... */\n      tag_135\n      jumpi\n        /* \"implement\\\\Social.sol\":2981:2999  RemoveFriend(user) */\n      tag_136\n        /* \"implement\\\\Social.sol\":2994:2998  user */\n      dup3\n        /* \"implement\\\\Social.sol\":2981:2993  RemoveFriend */\n      tag_41\n        /* \"implement\\\\Social.sol\":2981:2999  RemoveFriend(user) */\n      jump\t// in\n    tag_136:\n      pop\n        /* \"implement\\\\Social.sol\":2913:3010  if (FriendsMapping[msg.sender][user].created_at != 0) {... */\n    tag_135:\n        /* \"implement\\\\Social.sol\":3019:3042  User memory blockedUser */\n      0x00\n        /* \"implement\\\\Social.sol\":3045:3134  User({... */\n      mload(0x40)\n      dup1\n      0x40\n      add\n      0x40\n      mstore\n      dup1\n        /* \"implement\\\\Social.sol\":3078:3082  user */\n      dup5\n        /* \"implement\\\\Social.sol\":3045:3134  User({... */\n      0xffffffffffffffffffffffffffffffffffffffff\n      and\n      dup2\n      mstore\n      0x20\n      add\n        /* \"implement\\\\Social.sol\":3108:3123  block.timestamp */\n      timestamp\n        /* \"implement\\\\Social.sol\":3045:3134  User({... */\n      dup2\n      mstore\n      pop\n        /* \"implement\\\\Social.sol\":3019:3134  User memory blockedUser = User({... */\n      swap1\n      pop\n        /* \"implement\\\\Social.sol\":3184:3195  blockedUser */\n      dup1\n        /* \"implement\\\\Social.sol\":3145:3163  BlockedUserMapping */\n      0x04\n        /* \"implement\\\\Social.sol\":3145:3175  BlockedUserMapping[msg.sender] */\n      0x00\n        /* \"implement\\\\Social.sol\":3164:3174  msg.sender */\n      caller\n        /* \"implement\\\\Social.sol\":3145:3175  BlockedUserMapping[msg.sender] */\n      0xffffffffffffffffffffffffffffffffffffffff\n      and\n      0xffffffffffffffffffffffffffffffffffffffff\n      and\n      dup2\n      mstore\n      0x20\n      add\n      swap1\n      dup2\n      mstore\n      0x20\n      add\n      0x00\n      keccak256\n        /* \"implement\\\\Social.sol\":3145:3181  BlockedUserMapping[msg.sender][user] */\n      0x00\n        /* \"implement\\\\Social.sol\":3176:3180  user */\n      dup6\n        /* \"implement\\\\Social.sol\":3145:3181  BlockedUserMapping[msg.sender][user] */\n      0xffffffffffffffffffffffffffffffffffffffff\n      and\n      0xffffffffffffffffffffffffffffffffffffffff\n      and\n      dup2\n      mstore\n      0x20\n      add\n      swap1\n      dup2\n      mstore\n      0x20\n      add\n      0x00\n      keccak256\n        /* \"implement\\\\Social.sol\":3145:3195  BlockedUserMapping[msg.sender][user] = blockedUser */\n      0x00\n      dup3\n      add\n      mload\n      dup2\n      0x00\n      add\n      exp(0x0100, 0x00)\n      dup2\n      sload\n      dup2\n      0xffffffffffffffffffffffffffffffffffffffff\n      mul\n      not\n      and\n      swap1\n      dup4\n      0xffffffffffffffffffffffffffffffffffffffff\n      and\n      mul\n      or\n      swap1\n      sstore\n      pop\n      0x20\n      dup3\n      add\n      mload\n      dup2\n      0x01\n      add\n      sstore\n      swap1\n      pop\n      pop\n        /* \"implement\\\\Social.sol\":3205:3214  BlockList */\n      0x05\n        /* \"implement\\\\Social.sol\":3205:3226  BlockList[msg.sender] */\n      0x00\n        /* \"implement\\\\Social.sol\":3215:3225  msg.sender */\n      caller\n        /* \"implement\\\\Social.sol\":3205:3226  BlockList[msg.sender] */\n      0xffffffffffffffffffffffffffffffffffffffff\n      and\n      0xffffffffffffffffffffffffffffffffffffffff\n      and\n      dup2\n      mstore\n      0x20\n      add\n      swap1\n      dup2\n      mstore\n      0x20\n      add\n      0x00\n      keccak256\n        /* \"implement\\\\Social.sol\":3232:3236  user */\n      dup4\n        /* \"implement\\\\Social.sol\":3205:3237  BlockList[msg.sender].push(user) */\n      swap1\n      dup1\n      0x01\n      dup2\n      sload\n      add\n      dup1\n      dup3\n      sstore\n      dup1\n      swap2\n      pop\n      pop\n      0x01\n      swap1\n      sub\n      swap1\n      0x00\n      mstore\n      keccak256(0x00, 0x20)\n      add\n      0x00\n      swap1\n      swap2\n      swap1\n      swap2\n      swap1\n      swap2\n      0x0100\n      exp\n      dup2\n      sload\n      dup2\n      0xffffffffffffffffffffffffffffffffffffffff\n      mul\n      not\n      and\n      swap1\n      dup4\n      0xffffffffffffffffffffffffffffffffffffffff\n      and\n      mul\n      or\n      swap1\n      sstore\n      pop\n        /* \"implement\\\\Social.sol\":3276:3280  user */\n      dup3\n        /* \"implement\\\\Social.sol\":3252:3281  user_blocked(msg.sender,user) */\n      0xffffffffffffffffffffffffffffffffffffffff\n      and\n        /* \"implement\\\\Social.sol\":3265:3275  msg.sender */\n      caller\n        /* \"implement\\\\Social.sol\":3252:3281  user_blocked(msg.sender,user) */\n      0xffffffffffffffffffffffffffffffffffffffff\n      and\n      0x43122fee1265880a3328f07d7ec01b1485632605d0df401ff2394fe731ac644e\n      mload(0x40)\n      mload(0x40)\n      dup1\n      swap2\n      sub\n      swap1\n      log3\n        /* \"implement\\\\Social.sol\":3298:3302  true */\n      0x01\n        /* \"implement\\\\Social.sol\":3291:3302  return true */\n      swap2\n      pop\n      pop\n        /* \"implement\\\\Social.sol\":2627:3309  function BlockUser(address user) public returns (bool) {... */\n      swap2\n      swap1\n      pop\n      jump\t// out\n        /* \"#utility.yul\":7:82   */\n    tag_138:\n        /* \"#utility.yul\":40:46   */\n      0x00\n        /* \"#utility.yul\":73:75   */\n      0x40\n        /* \"#utility.yul\":67:76   */\n      mload\n        /* \"#utility.yul\":57:76   */\n      swap1\n      pop\n        /* \"#utility.yul\":7:82   */\n      swap1\n      jump\t// out\n        /* \"#utility.yul\":88:205   */\n    tag_139:\n        /* \"#utility.yul\":197:198   */\n      0x00\n        /* \"#utility.yul\":194:195   */\n      dup1\n        /* \"#utility.yul\":187:199   */\n      revert\n        /* \"#utility.yul\":211:328   */\n    tag_140:\n        /* \"#utility.yul\":320:321   */\n      0x00\n        /* \"#utility.yul\":317:318   */\n      dup1\n        /* \"#utility.yul\":310:322   */\n      revert\n        /* \"#utility.yul\":334:460   */\n    tag_141:\n        /* \"#utility.yul\":371:378   */\n      0x00\n        /* \"#utility.yul\":411:453   */\n      0xffffffffffffffffffffffffffffffffffffffff\n        /* \"#utility.yul\":404:409   */\n      dup3\n        /* \"#utility.yul\":400:454   */\n      and\n        /* \"#utility.yul\":389:454   */\n      swap1\n      pop\n        /* \"#utility.yul\":334:460   */\n      swap2\n      swap1\n      pop\n      jump\t// out\n        /* \"#utility.yul\":466:562   */\n    tag_142:\n        /* \"#utility.yul\":503:510   */\n      0x00\n        /* \"#utility.yul\":532:556   */\n      tag_208\n        /* \"#utility.yul\":550:555   */\n      dup3\n        /* \"#utility.yul\":532:556   */\n      tag_141\n      jump\t// in\n    tag_208:\n        /* \"#utility.yul\":521:556   */\n      swap1\n      pop\n        /* \"#utility.yul\":466:562   */\n      swap2\n      swap1\n      pop\n      jump\t// out\n        /* \"#utility.yul\":568:690   */\n    tag_143:\n        /* \"#utility.yul\":641:665   */\n      tag_210\n        /* \"#utility.yul\":659:664   */\n      dup2\n        /* \"#utility.yul\":641:665   */\n      tag_142\n      jump\t// in\n    tag_210:\n        /* \"#utility.yul\":634:639   */\n      dup2\n        /* \"#utility.yul\":631:666   */\n      eq\n        /* \"#utility.yul\":621:684   */\n      tag_211\n      jumpi\n        /* \"#utility.yul\":680:681   */\n      0x00\n        /* \"#utility.yul\":677:678   */\n      dup1\n        /* \"#utility.yul\":670:682   */\n      revert\n        /* \"#utility.yul\":621:684   */\n    tag_211:\n        /* \"#utility.yul\":568:690   */\n      pop\n      jump\t// out\n        /* \"#utility.yul\":696:835   */\n    tag_144:\n        /* \"#utility.yul\":742:747   */\n      0x00\n        /* \"#utility.yul\":780:786   */\n      dup2\n        /* \"#utility.yul\":767:787   */\n      calldataload\n        /* \"#utility.yul\":758:787   */\n      swap1\n      pop\n        /* \"#utility.yul\":796:829   */\n      tag_213\n        /* \"#utility.yul\":823:828   */\n      dup2\n        /* \"#utility.yul\":796:829   */\n      tag_143\n      jump\t// in\n    tag_213:\n        /* \"#utility.yul\":696:835   */\n      swap3\n      swap2\n      pop\n      pop\n      jump\t// out\n        /* \"#utility.yul\":841:1170   */\n    tag_14:\n        /* \"#utility.yul\":900:906   */\n      0x00\n        /* \"#utility.yul\":949:951   */\n      0x20\n        /* \"#utility.yul\":937:946   */\n      dup3\n        /* \"#utility.yul\":928:935   */\n      dup5\n        /* \"#utility.yul\":924:947   */\n      sub\n        /* \"#utility.yul\":920:952   */\n      slt\n        /* \"#utility.yul\":917:1036   */\n      iszero\n      tag_215\n      jumpi\n        /* \"#utility.yul\":955:1034   */\n      tag_216\n      tag_139\n      jump\t// in\n    tag_216:\n        /* \"#utility.yul\":917:1036   */\n    tag_215:\n        /* \"#utility.yul\":1075:1076   */\n      0x00\n        /* \"#utility.yul\":1100:1153   */\n      tag_217\n        /* \"#utility.yul\":1145:1152   */\n      dup5\n        /* \"#utility.yul\":1136:1142   */\n      dup3\n        /* \"#utility.yul\":1125:1134   */\n      dup6\n        /* \"#utility.yul\":1121:1143   */\n      add\n        /* \"#utility.yul\":1100:1153   */\n      tag_144\n      jump\t// in\n    tag_217:\n        /* \"#utility.yul\":1090:1153   */\n      swap2\n      pop\n        /* \"#utility.yul\":1046:1163   */\n      pop\n        /* \"#utility.yul\":841:1170   */\n      swap3\n      swap2\n      pop\n      pop\n      jump\t// out\n        /* \"#utility.yul\":1176:1266   */\n    tag_145:\n        /* \"#utility.yul\":1210:1217   */\n      0x00\n        /* \"#utility.yul\":1253:1258   */\n      dup2\n        /* \"#utility.yul\":1246:1259   */\n      iszero\n        /* \"#utility.yul\":1239:1260   */\n      iszero\n        /* \"#utility.yul\":1228:1260   */\n      swap1\n      pop\n        /* \"#utility.yul\":1176:1266   */\n      swap2\n      swap1\n      pop\n      jump\t// out\n        /* \"#utility.yul\":1272:1381   */\n    tag_146:\n        /* \"#utility.yul\":1353:1374   */\n      tag_220\n        /* \"#utility.yul\":1368:1373   */\n      dup2\n        /* \"#utility.yul\":1353:1374   */\n      tag_145\n      jump\t// in\n    tag_220:\n        /* \"#utility.yul\":1348:1351   */\n      dup3\n        /* \"#utility.yul\":1341:1375   */\n      mstore\n        /* \"#utility.yul\":1272:1381   */\n      pop\n      pop\n      jump\t// out\n        /* \"#utility.yul\":1387:1597   */\n    tag_17:\n        /* \"#utility.yul\":1474:1478   */\n      0x00\n        /* \"#utility.yul\":1512:1514   */\n      0x20\n        /* \"#utility.yul\":1501:1510   */\n      dup3\n        /* \"#utility.yul\":1497:1515   */\n      add\n        /* \"#utility.yul\":1489:1515   */\n      swap1\n      pop\n        /* \"#utility.yul\":1525:1590   */\n      tag_222\n        /* \"#utility.yul\":1587:1588   */\n      0x00\n        /* \"#utility.yul\":1576:1585   */\n      dup4\n        /* \"#utility.yul\":1572:1589   */\n      add\n        /* \"#utility.yul\":1563:1569   */\n      dup5\n        /* \"#utility.yul\":1525:1590   */\n      tag_146\n      jump\t// in\n    tag_222:\n        /* \"#utility.yul\":1387:1597   */\n      swap3\n      swap2\n      pop\n      pop\n      jump\t// out\n        /* \"#utility.yul\":1603:1717   */\n    tag_147:\n        /* \"#utility.yul\":1670:1676   */\n      0x00\n        /* \"#utility.yul\":1704:1709   */\n      dup2\n        /* \"#utility.yul\":1698:1710   */\n      mload\n        /* \"#utility.yul\":1688:1710   */\n      swap1\n      pop\n        /* \"#utility.yul\":1603:1717   */\n      swap2\n      swap1\n      pop\n      jump\t// out\n        /* \"#utility.yul\":1723:1907   */\n    tag_148:\n        /* \"#utility.yul\":1822:1833   */\n      0x00\n        /* \"#utility.yul\":1856:1862   */\n      dup3\n        /* \"#utility.yul\":1851:1854   */\n      dup3\n        /* \"#utility.yul\":1844:1863   */\n      mstore\n        /* \"#utility.yul\":1896:1900   */\n      0x20\n        /* \"#utility.yul\":1891:1894   */\n      dup3\n        /* \"#utility.yul\":1887:1901   */\n      add\n        /* \"#utility.yul\":1872:1901   */\n      swap1\n      pop\n        /* \"#utility.yul\":1723:1907   */\n      swap3\n      swap2\n      pop\n      pop\n      jump\t// out\n        /* \"#utility.yul\":1913:2045   */\n    tag_149:\n        /* \"#utility.yul\":1980:1984   */\n      0x00\n        /* \"#utility.yul\":2003:2006   */\n      dup2\n        /* \"#utility.yul\":1995:2006   */\n      swap1\n      pop\n        /* \"#utility.yul\":2033:2037   */\n      0x20\n        /* \"#utility.yul\":2028:2031   */\n      dup3\n        /* \"#utility.yul\":2024:2038   */\n      add\n        /* \"#utility.yul\":2016:2038   */\n      swap1\n      pop\n        /* \"#utility.yul\":1913:2045   */\n      swap2\n      swap1\n      pop\n      jump\t// out\n        /* \"#utility.yul\":2051:2159   */\n    tag_150:\n        /* \"#utility.yul\":2128:2152   */\n      tag_227\n        /* \"#utility.yul\":2146:2151   */\n      dup2\n        /* \"#utility.yul\":2128:2152   */\n      tag_142\n      jump\t// in\n    tag_227:\n        /* \"#utility.yul\":2123:2126   */\n      dup3\n        /* \"#utility.yul\":2116:2153   */\n      mstore\n        /* \"#utility.yul\":2051:2159   */\n      pop\n      pop\n      jump\t// out\n        /* \"#utility.yul\":2165:2344   */\n    tag_151:\n        /* \"#utility.yul\":2234:2244   */\n      0x00\n        /* \"#utility.yul\":2255:2301   */\n      tag_229\n        /* \"#utility.yul\":2297:2300   */\n      dup4\n        /* \"#utility.yul\":2289:2295   */\n      dup4\n        /* \"#utility.yul\":2255:2301   */\n      tag_150\n      jump\t// in\n    tag_229:\n        /* \"#utility.yul\":2333:2337   */\n      0x20\n        /* \"#utility.yul\":2328:2331   */\n      dup4\n        /* \"#utility.yul\":2324:2338   */\n      add\n        /* \"#utility.yul\":2310:2338   */\n      swap1\n      pop\n        /* \"#utility.yul\":2165:2344   */\n      swap3\n      swap2\n      pop\n      pop\n      jump\t// out\n        /* \"#utility.yul\":2350:2463   */\n    tag_152:\n        /* \"#utility.yul\":2420:2424   */\n      0x00\n        /* \"#utility.yul\":2452:2456   */\n      0x20\n        /* \"#utility.yul\":2447:2450   */\n      dup3\n        /* \"#utility.yul\":2443:2457   */\n      add\n        /* \"#utility.yul\":2435:2457   */\n      swap1\n      pop\n        /* \"#utility.yul\":2350:2463   */\n      swap2\n      swap1\n      pop\n      jump\t// out\n        /* \"#utility.yul\":2499:3231   */\n    tag_153:\n        /* \"#utility.yul\":2618:2621   */\n      0x00\n        /* \"#utility.yul\":2647:2701   */\n      tag_232\n        /* \"#utility.yul\":2695:2700   */\n      dup3\n        /* \"#utility.yul\":2647:2701   */\n      tag_147\n      jump\t// in\n    tag_232:\n        /* \"#utility.yul\":2717:2803   */\n      tag_233\n        /* \"#utility.yul\":2796:2802   */\n      dup2\n        /* \"#utility.yul\":2791:2794   */\n      dup6\n        /* \"#utility.yul\":2717:2803   */\n      tag_148\n      jump\t// in\n    tag_233:\n        /* \"#utility.yul\":2710:2803   */\n      swap4\n      pop\n        /* \"#utility.yul\":2827:2883   */\n      tag_234\n        /* \"#utility.yul\":2877:2882   */\n      dup4\n        /* \"#utility.yul\":2827:2883   */\n      tag_149\n      jump\t// in\n    tag_234:\n        /* \"#utility.yul\":2906:2913   */\n      dup1\n        /* \"#utility.yul\":2937:2938   */\n      0x00\n        /* \"#utility.yul\":2922:3206   */\n    tag_235:\n        /* \"#utility.yul\":2947:2953   */\n      dup4\n        /* \"#utility.yul\":2944:2945   */\n      dup2\n        /* \"#utility.yul\":2941:2954   */\n      lt\n        /* \"#utility.yul\":2922:3206   */\n      iszero\n      tag_237\n      jumpi\n        /* \"#utility.yul\":3023:3029   */\n      dup2\n        /* \"#utility.yul\":3017:3030   */\n      mload\n        /* \"#utility.yul\":3050:3113   */\n      tag_238\n        /* \"#utility.yul\":3109:3112   */\n      dup9\n        /* \"#utility.yul\":3094:3107   */\n      dup3\n        /* \"#utility.yul\":3050:3113   */\n      tag_151\n      jump\t// in\n    tag_238:\n        /* \"#utility.yul\":3043:3113   */\n      swap8\n      pop\n        /* \"#utility.yul\":3136:3196   */\n      tag_239\n        /* \"#utility.yul\":3189:3195   */\n      dup4\n        /* \"#utility.yul\":3136:3196   */\n      tag_152\n      jump\t// in\n    tag_239:\n        /* \"#utility.yul\":3126:3196   */\n      swap3\n      pop\n        /* \"#utility.yul\":2982:3206   */\n      pop\n        /* \"#utility.yul\":2969:2970   */\n      0x01\n        /* \"#utility.yul\":2966:2967   */\n      dup2\n        /* \"#utility.yul\":2962:2971   */\n      add\n        /* \"#utility.yul\":2957:2971   */\n      swap1\n      pop\n        /* \"#utility.yul\":2922:3206   */\n      jump(tag_235)\n    tag_237:\n        /* \"#utility.yul\":2926:2940   */\n      pop\n        /* \"#utility.yul\":3222:3225   */\n      dup6\n        /* \"#utility.yul\":3215:3225   */\n      swap4\n      pop\n        /* \"#utility.yul\":2623:3231   */\n      pop\n      pop\n      pop\n        /* \"#utility.yul\":2499:3231   */\n      swap3\n      swap2\n      pop\n      pop\n      jump\t// out\n        /* \"#utility.yul\":3237:3610   */\n    tag_21:\n        /* \"#utility.yul\":3380:3384   */\n      0x00\n        /* \"#utility.yul\":3418:3420   */\n      0x20\n        /* \"#utility.yul\":3407:3416   */\n      dup3\n        /* \"#utility.yul\":3403:3421   */\n      add\n        /* \"#utility.yul\":3395:3421   */\n      swap1\n      pop\n        /* \"#utility.yul\":3467:3476   */\n      dup2\n        /* \"#utility.yul\":3461:3465   */\n      dup2\n        /* \"#utility.yul\":3457:3477   */\n      sub\n        /* \"#utility.yul\":3453:3454   */\n      0x00\n        /* \"#utility.yul\":3442:3451   */\n      dup4\n        /* \"#utility.yul\":3438:3455   */\n      add\n        /* \"#utility.yul\":3431:3478   */\n      mstore\n        /* \"#utility.yul\":3495:3603   */\n      tag_241\n        /* \"#utility.yul\":3598:3602   */\n      dup2\n        /* \"#utility.yul\":3589:3595   */\n      dup5\n        /* \"#utility.yul\":3495:3603   */\n      tag_153\n      jump\t// in\n    tag_241:\n        /* \"#utility.yul\":3487:3603   */\n      swap1\n      pop\n        /* \"#utility.yul\":3237:3610   */\n      swap3\n      swap2\n      pop\n      pop\n      jump\t// out\n        /* \"#utility.yul\":3616:3733   */\n    tag_154:\n        /* \"#utility.yul\":3725:3726   */\n      0x00\n        /* \"#utility.yul\":3722:3723   */\n      dup1\n        /* \"#utility.yul\":3715:3727   */\n      revert\n        /* \"#utility.yul\":3739:3856   */\n    tag_155:\n        /* \"#utility.yul\":3848:3849   */\n      0x00\n        /* \"#utility.yul\":3845:3846   */\n      dup1\n        /* \"#utility.yul\":3838:3850   */\n      revert\n        /* \"#utility.yul\":3862:3964   */\n    tag_156:\n        /* \"#utility.yul\":3903:3909   */\n      0x00\n        /* \"#utility.yul\":3954:3956   */\n      0x1f\n        /* \"#utility.yul\":3950:3957   */\n      not\n        /* \"#utility.yul\":3945:3947   */\n      0x1f\n        /* \"#utility.yul\":3938:3943   */\n      dup4\n        /* \"#utility.yul\":3934:3948   */\n      add\n        /* \"#utility.yul\":3930:3958   */\n      and\n        /* \"#utility.yul\":3920:3958   */\n      swap1\n      pop\n        /* \"#utility.yul\":3862:3964   */\n      swap2\n      swap1\n      pop\n      jump\t// out\n        /* \"#utility.yul\":3970:4150   */\n    tag_157:\n        /* \"#utility.yul\":4018:4095   */\n      0x4e487b7100000000000000000000000000000000000000000000000000000000\n        /* \"#utility.yul\":4015:4016   */\n      0x00\n        /* \"#utility.yul\":4008:4096   */\n      mstore\n        /* \"#utility.yul\":4115:4119   */\n      0x41\n        /* \"#utility.yul\":4112:4113   */\n      0x04\n        /* \"#utility.yul\":4105:4120   */\n      mstore\n        /* \"#utility.yul\":4139:4143   */\n      0x24\n        /* \"#utility.yul\":4136:4137   */\n      0x00\n        /* \"#utility.yul\":4129:4144   */\n      revert\n        /* \"#utility.yul\":4156:4437   */\n    tag_158:\n        /* \"#utility.yul\":4239:4266   */\n      tag_247\n        /* \"#utility.yul\":4261:4265   */\n      dup3\n        /* \"#utility.yul\":4239:4266   */\n      tag_156\n      jump\t// in\n    tag_247:\n        /* \"#utility.yul\":4231:4237   */\n      dup2\n        /* \"#utility.yul\":4227:4267   */\n      add\n        /* \"#utility.yul\":4369:4375   */\n      dup2\n        /* \"#utility.yul\":4357:4367   */\n      dup2\n        /* \"#utility.yul\":4354:4376   */\n      lt\n        /* \"#utility.yul\":4333:4351   */\n      0xffffffffffffffff\n        /* \"#utility.yul\":4321:4331   */\n      dup3\n        /* \"#utility.yul\":4318:4352   */\n      gt\n        /* \"#utility.yul\":4315:4377   */\n      or\n        /* \"#utility.yul\":4312:4400   */\n      iszero\n      tag_248\n      jumpi\n        /* \"#utility.yul\":4380:4398   */\n      tag_249\n      tag_157\n      jump\t// in\n    tag_249:\n        /* \"#utility.yul\":4312:4400   */\n    tag_248:\n        /* \"#utility.yul\":4420:4430   */\n      dup1\n        /* \"#utility.yul\":4416:4418   */\n      0x40\n        /* \"#utility.yul\":4409:4431   */\n      mstore\n        /* \"#utility.yul\":4199:4437   */\n      pop\n        /* \"#utility.yul\":4156:4437   */\n      pop\n      pop\n      jump\t// out\n        /* \"#utility.yul\":4443:4572   */\n    tag_159:\n        /* \"#utility.yul\":4477:4483   */\n      0x00\n        /* \"#utility.yul\":4504:4524   */\n      tag_251\n      tag_138\n      jump\t// in\n    tag_251:\n        /* \"#utility.yul\":4494:4524   */\n      swap1\n      pop\n        /* \"#utility.yul\":4533:4566   */\n      tag_252\n        /* \"#utility.yul\":4561:4565   */\n      dup3\n        /* \"#utility.yul\":4553:4559   */\n      dup3\n        /* \"#utility.yul\":4533:4566   */\n      tag_158\n      jump\t// in\n    tag_252:\n        /* \"#utility.yul\":4443:4572   */\n      swap2\n      swap1\n      pop\n      jump\t// out\n        /* \"#utility.yul\":4578:4886   */\n    tag_160:\n        /* \"#utility.yul\":4640:4644   */\n      0x00\n        /* \"#utility.yul\":4730:4748   */\n      0xffffffffffffffff\n        /* \"#utility.yul\":4722:4728   */\n      dup3\n        /* \"#utility.yul\":4719:4749   */\n      gt\n        /* \"#utility.yul\":4716:4772   */\n      iszero\n      tag_254\n      jumpi\n        /* \"#utility.yul\":4752:4770   */\n      tag_255\n      tag_157\n      jump\t// in\n    tag_255:\n        /* \"#utility.yul\":4716:4772   */\n    tag_254:\n        /* \"#utility.yul\":4790:4819   */\n      tag_256\n        /* \"#utility.yul\":4812:4818   */\n      dup3\n        /* \"#utility.yul\":4790:4819   */\n      tag_156\n      jump\t// in\n    tag_256:\n        /* \"#utility.yul\":4782:4819   */\n      swap1\n      pop\n        /* \"#utility.yul\":4874:4878   */\n      0x20\n        /* \"#utility.yul\":4868:4872   */\n      dup2\n        /* \"#utility.yul\":4864:4879   */\n      add\n        /* \"#utility.yul\":4856:4879   */\n      swap1\n      pop\n        /* \"#utility.yul\":4578:4886   */\n      swap2\n      swap1\n      pop\n      jump\t// out\n        /* \"#utility.yul\":4892:5038   */\n    tag_161:\n        /* \"#utility.yul\":4989:4995   */\n      dup3\n        /* \"#utility.yul\":4984:4987   */\n      dup2\n        /* \"#utility.yul\":4979:4982   */\n      dup4\n        /* \"#utility.yul\":4966:4996   */\n      calldatacopy\n        /* \"#utility.yul\":5030:5031   */\n      0x00\n        /* \"#utility.yul\":5021:5027   */\n      dup4\n        /* \"#utility.yul\":5016:5019   */\n      dup4\n        /* \"#utility.yul\":5012:5028   */\n      add\n        /* \"#utility.yul\":5005:5032   */\n      mstore\n        /* \"#utility.yul\":4892:5038   */\n      pop\n      pop\n      pop\n      jump\t// out\n        /* \"#utility.yul\":5044:5469   */\n    tag_162:\n        /* \"#utility.yul\":5122:5127   */\n      0x00\n        /* \"#utility.yul\":5147:5213   */\n      tag_259\n        /* \"#utility.yul\":5163:5212   */\n      tag_260\n        /* \"#utility.yul\":5205:5211   */\n      dup5\n        /* \"#utility.yul\":5163:5212   */\n      tag_160\n      jump\t// in\n    tag_260:\n        /* \"#utility.yul\":5147:5213   */\n      tag_159\n      jump\t// in\n    tag_259:\n        /* \"#utility.yul\":5138:5213   */\n      swap1\n      pop\n        /* \"#utility.yul\":5236:5242   */\n      dup3\n        /* \"#utility.yul\":5229:5234   */\n      dup2\n        /* \"#utility.yul\":5222:5243   */\n      mstore\n        /* \"#utility.yul\":5274:5278   */\n      0x20\n        /* \"#utility.yul\":5267:5272   */\n      dup2\n        /* \"#utility.yul\":5263:5279   */\n      add\n        /* \"#utility.yul\":5312:5315   */\n      dup5\n        /* \"#utility.yul\":5303:5309   */\n      dup5\n        /* \"#utility.yul\":5298:5301   */\n      dup5\n        /* \"#utility.yul\":5294:5310   */\n      add\n        /* \"#utility.yul\":5291:5316   */\n      gt\n        /* \"#utility.yul\":5288:5400   */\n      iszero\n      tag_261\n      jumpi\n        /* \"#utility.yul\":5319:5398   */\n      tag_262\n      tag_155\n      jump\t// in\n    tag_262:\n        /* \"#utility.yul\":5288:5400   */\n    tag_261:\n        /* \"#utility.yul\":5409:5463   */\n      tag_263\n        /* \"#utility.yul\":5456:5462   */\n      dup5\n        /* \"#utility.yul\":5451:5454   */\n      dup3\n        /* \"#utility.yul\":5446:5449   */\n      dup6\n        /* \"#utility.yul\":5409:5463   */\n      tag_161\n      jump\t// in\n    tag_263:\n        /* \"#utility.yul\":5128:5469   */\n      pop\n        /* \"#utility.yul\":5044:5469   */\n      swap4\n      swap3\n      pop\n      pop\n      pop\n      jump\t// out\n        /* \"#utility.yul\":5489:5829   */\n    tag_163:\n        /* \"#utility.yul\":5545:5550   */\n      0x00\n        /* \"#utility.yul\":5594:5597   */\n      dup3\n        /* \"#utility.yul\":5587:5591   */\n      0x1f\n        /* \"#utility.yul\":5579:5585   */\n      dup4\n        /* \"#utility.yul\":5575:5592   */\n      add\n        /* \"#utility.yul\":5571:5598   */\n      slt\n        /* \"#utility.yul\":5561:5683   */\n      tag_265\n      jumpi\n        /* \"#utility.yul\":5602:5681   */\n      tag_266\n      tag_154\n      jump\t// in\n    tag_266:\n        /* \"#utility.yul\":5561:5683   */\n    tag_265:\n        /* \"#utility.yul\":5719:5725   */\n      dup2\n        /* \"#utility.yul\":5706:5726   */\n      calldataload\n        /* \"#utility.yul\":5744:5823   */\n      tag_267\n        /* \"#utility.yul\":5819:5822   */\n      dup5\n        /* \"#utility.yul\":5811:5817   */\n      dup3\n        /* \"#utility.yul\":5804:5808   */\n      0x20\n        /* \"#utility.yul\":5796:5802   */\n      dup7\n        /* \"#utility.yul\":5792:5809   */\n      add\n        /* \"#utility.yul\":5744:5823   */\n      tag_162\n      jump\t// in\n    tag_267:\n        /* \"#utility.yul\":5735:5823   */\n      swap2\n      pop\n        /* \"#utility.yul\":5551:5829   */\n      pop\n        /* \"#utility.yul\":5489:5829   */\n      swap3\n      swap2\n      pop\n      pop\n      jump\t// out\n        /* \"#utility.yul\":5835:6344   */\n    tag_24:\n        /* \"#utility.yul\":5904:5910   */\n      0x00\n        /* \"#utility.yul\":5953:5955   */\n      0x20\n        /* \"#utility.yul\":5941:5950   */\n      dup3\n        /* \"#utility.yul\":5932:5939   */\n      dup5\n        /* \"#utility.yul\":5928:5951   */\n      sub\n        /* \"#utility.yul\":5924:5956   */\n      slt\n        /* \"#utility.yul\":5921:6040   */\n      iszero\n      tag_269\n      jumpi\n        /* \"#utility.yul\":5959:6038   */\n      tag_270\n      tag_139\n      jump\t// in\n    tag_270:\n        /* \"#utility.yul\":5921:6040   */\n    tag_269:\n        /* \"#utility.yul\":6107:6108   */\n      0x00\n        /* \"#utility.yul\":6096:6105   */\n      dup3\n        /* \"#utility.yul\":6092:6109   */\n      add\n        /* \"#utility.yul\":6079:6110   */\n      calldataload\n        /* \"#utility.yul\":6137:6155   */\n      0xffffffffffffffff\n        /* \"#utility.yul\":6129:6135   */\n      dup2\n        /* \"#utility.yul\":6126:6156   */\n      gt\n        /* \"#utility.yul\":6123:6240   */\n      iszero\n      tag_271\n      jumpi\n        /* \"#utility.yul\":6159:6238   */\n      tag_272\n      tag_140\n      jump\t// in\n    tag_272:\n        /* \"#utility.yul\":6123:6240   */\n    tag_271:\n        /* \"#utility.yul\":6264:6327   */\n      tag_273\n        /* \"#utility.yul\":6319:6326   */\n      dup5\n        /* \"#utility.yul\":6310:6316   */\n      dup3\n        /* \"#utility.yul\":6299:6308   */\n      dup6\n        /* \"#utility.yul\":6295:6317   */\n      add\n        /* \"#utility.yul\":6264:6327   */\n      tag_163\n      jump\t// in\n    tag_273:\n        /* \"#utility.yul\":6254:6327   */\n      swap2\n      pop\n        /* \"#utility.yul\":6050:6337   */\n      pop\n        /* \"#utility.yul\":5835:6344   */\n      swap3\n      swap2\n      pop\n      pop\n      jump\t// out\n        /* \"#utility.yul\":6350:6449   */\n    tag_164:\n        /* \"#utility.yul\":6402:6408   */\n      0x00\n        /* \"#utility.yul\":6436:6441   */\n      dup2\n        /* \"#utility.yul\":6430:6442   */\n      mload\n        /* \"#utility.yul\":6420:6442   */\n      swap1\n      pop\n        /* \"#utility.yul\":6350:6449   */\n      swap2\n      swap1\n      pop\n      jump\t// out\n        /* \"#utility.yul\":6455:6624   */\n    tag_165:\n        /* \"#utility.yul\":6539:6550   */\n      0x00\n        /* \"#utility.yul\":6573:6579   */\n      dup3\n        /* \"#utility.yul\":6568:6571   */\n      dup3\n        /* \"#utility.yul\":6561:6580   */\n      mstore\n        /* \"#utility.yul\":6613:6617   */\n      0x20\n        /* \"#utility.yul\":6608:6611   */\n      dup3\n        /* \"#utility.yul\":6604:6618   */\n      add\n        /* \"#utility.yul\":6589:6618   */\n      swap1\n      pop\n        /* \"#utility.yul\":6455:6624   */\n      swap3\n      swap2\n      pop\n      pop\n      jump\t// out\n        /* \"#utility.yul\":6630:6876   */\n    tag_166:\n        /* \"#utility.yul\":6711:6712   */\n      0x00\n        /* \"#utility.yul\":6721:6834   */\n    tag_277:\n        /* \"#utility.yul\":6735:6741   */\n      dup4\n        /* \"#utility.yul\":6732:6733   */\n      dup2\n        /* \"#utility.yul\":6729:6742   */\n      lt\n        /* \"#utility.yul\":6721:6834   */\n      iszero\n      tag_279\n      jumpi\n        /* \"#utility.yul\":6820:6821   */\n      dup1\n        /* \"#utility.yul\":6815:6818   */\n      dup3\n        /* \"#utility.yul\":6811:6822   */\n      add\n        /* \"#utility.yul\":6805:6823   */\n      mload\n        /* \"#utility.yul\":6801:6802   */\n      dup2\n        /* \"#utility.yul\":6796:6799   */\n      dup5\n        /* \"#utility.yul\":6792:6803   */\n      add\n        /* \"#utility.yul\":6785:6824   */\n      mstore\n        /* \"#utility.yul\":6757:6759   */\n      0x20\n        /* \"#utility.yul\":6754:6755   */\n      dup2\n        /* \"#utility.yul\":6750:6760   */\n      add\n        /* \"#utility.yul\":6745:6760   */\n      swap1\n      pop\n        /* \"#utility.yul\":6721:6834   */\n      jump(tag_277)\n    tag_279:\n        /* \"#utility.yul\":6868:6869   */\n      0x00\n        /* \"#utility.yul\":6859:6865   */\n      dup5\n        /* \"#utility.yul\":6854:6857   */\n      dup5\n        /* \"#utility.yul\":6850:6866   */\n      add\n        /* \"#utility.yul\":6843:6870   */\n      mstore\n        /* \"#utility.yul\":6692:6876   */\n      pop\n        /* \"#utility.yul\":6630:6876   */\n      pop\n      pop\n      pop\n      jump\t// out\n        /* \"#utility.yul\":6882:7259   */\n    tag_167:\n        /* \"#utility.yul\":6970:6973   */\n      0x00\n        /* \"#utility.yul\":6998:7037   */\n      tag_281\n        /* \"#utility.yul\":7031:7036   */\n      dup3\n        /* \"#utility.yul\":6998:7037   */\n      tag_164\n      jump\t// in\n    tag_281:\n        /* \"#utility.yul\":7053:7124   */\n      tag_282\n        /* \"#utility.yul\":7117:7123   */\n      dup2\n        /* \"#utility.yul\":7112:7115   */\n      dup6\n        /* \"#utility.yul\":7053:7124   */\n      tag_165\n      jump\t// in\n    tag_282:\n        /* \"#utility.yul\":7046:7124   */\n      swap4\n      pop\n        /* \"#utility.yul\":7133:7198   */\n      tag_283\n        /* \"#utility.yul\":7191:7197   */\n      dup2\n        /* \"#utility.yul\":7186:7189   */\n      dup6\n        /* \"#utility.yul\":7179:7183   */\n      0x20\n        /* \"#utility.yul\":7172:7177   */\n      dup7\n        /* \"#utility.yul\":7168:7184   */\n      add\n        /* \"#utility.yul\":7133:7198   */\n      tag_166\n      jump\t// in\n    tag_283:\n        /* \"#utility.yul\":7223:7252   */\n      tag_284\n        /* \"#utility.yul\":7245:7251   */\n      dup2\n        /* \"#utility.yul\":7223:7252   */\n      tag_156\n      jump\t// in\n    tag_284:\n        /* \"#utility.yul\":7218:7221   */\n      dup5\n        /* \"#utility.yul\":7214:7253   */\n      add\n        /* \"#utility.yul\":7207:7253   */\n      swap2\n      pop\n        /* \"#utility.yul\":6974:7259   */\n      pop\n        /* \"#utility.yul\":6882:7259   */\n      swap3\n      swap2\n      pop\n      pop\n      jump\t// out\n        /* \"#utility.yul\":7265:7578   */\n    tag_35:\n        /* \"#utility.yul\":7378:7382   */\n      0x00\n        /* \"#utility.yul\":7416:7418   */\n      0x20\n        /* \"#utility.yul\":7405:7414   */\n      dup3\n        /* \"#utility.yul\":7401:7419   */\n      add\n        /* \"#utility.yul\":7393:7419   */\n      swap1\n      pop\n        /* \"#utility.yul\":7465:7474   */\n      dup2\n        /* \"#utility.yul\":7459:7463   */\n      dup2\n        /* \"#utility.yul\":7455:7475   */\n      sub\n        /* \"#utility.yul\":7451:7452   */\n      0x00\n        /* \"#utility.yul\":7440:7449   */\n      dup4\n        /* \"#utility.yul\":7436:7453   */\n      add\n        /* \"#utility.yul\":7429:7476   */\n      mstore\n        /* \"#utility.yul\":7493:7571   */\n      tag_286\n        /* \"#utility.yul\":7566:7570   */\n      dup2\n        /* \"#utility.yul\":7557:7563   */\n      dup5\n        /* \"#utility.yul\":7493:7571   */\n      tag_167\n      jump\t// in\n    tag_286:\n        /* \"#utility.yul\":7485:7571   */\n      swap1\n      pop\n        /* \"#utility.yul\":7265:7578   */\n      swap3\n      swap2\n      pop\n      pop\n      jump\t// out\n        /* \"#utility.yul\":7584:7807   */\n    tag_168:\n        /* \"#utility.yul\":7724:7758   */\n      0x796f752063616e206e6f742061646420796f757273656c662061732061206672\n        /* \"#utility.yul\":7720:7721   */\n      0x00\n        /* \"#utility.yul\":7712:7718   */\n      dup3\n        /* \"#utility.yul\":7708:7722   */\n      add\n        /* \"#utility.yul\":7701:7759   */\n      mstore\n        /* \"#utility.yul\":7793:7799   */\n      0x69656e6400000000000000000000000000000000000000000000000000000000\n        /* \"#utility.yul\":7788:7790   */\n      0x20\n        /* \"#utility.yul\":7780:7786   */\n      dup3\n        /* \"#utility.yul\":7776:7791   */\n      add\n        /* \"#utility.yul\":7769:7800   */\n      mstore\n        /* \"#utility.yul\":7584:7807   */\n      pop\n      jump\t// out\n        /* \"#utility.yul\":7813:8179   */\n    tag_169:\n        /* \"#utility.yul\":7955:7958   */\n      0x00\n        /* \"#utility.yul\":7976:8043   */\n      tag_289\n        /* \"#utility.yul\":8040:8042   */\n      0x24\n        /* \"#utility.yul\":8035:8038   */\n      dup4\n        /* \"#utility.yul\":7976:8043   */\n      tag_165\n      jump\t// in\n    tag_289:\n        /* \"#utility.yul\":7969:8043   */\n      swap2\n      pop\n        /* \"#utility.yul\":8052:8145   */\n      tag_290\n        /* \"#utility.yul\":8141:8144   */\n      dup3\n        /* \"#utility.yul\":8052:8145   */\n      tag_168\n      jump\t// in\n    tag_290:\n        /* \"#utility.yul\":8170:8172   */\n      0x40\n        /* \"#utility.yul\":8165:8168   */\n      dup3\n        /* \"#utility.yul\":8161:8173   */\n      add\n        /* \"#utility.yul\":8154:8173   */\n      swap1\n      pop\n        /* \"#utility.yul\":7813:8179   */\n      swap2\n      swap1\n      pop\n      jump\t// out\n        /* \"#utility.yul\":8185:8604   */\n    tag_50:\n        /* \"#utility.yul\":8351:8355   */\n      0x00\n        /* \"#utility.yul\":8389:8391   */\n      0x20\n        /* \"#utility.yul\":8378:8387   */\n      dup3\n        /* \"#utility.yul\":8374:8392   */\n      add\n        /* \"#utility.yul\":8366:8392   */\n      swap1\n      pop\n        /* \"#utility.yul\":8438:8447   */\n      dup2\n        /* \"#utility.yul\":8432:8436   */\n      dup2\n        /* \"#utility.yul\":8428:8448   */\n      sub\n        /* \"#utility.yul\":8424:8425   */\n      0x00\n        /* \"#utility.yul\":8413:8422   */\n      dup4\n        /* \"#utility.yul\":8409:8426   */\n      add\n        /* \"#utility.yul\":8402:8449   */\n      mstore\n        /* \"#utility.yul\":8466:8597   */\n      tag_292\n        /* \"#utility.yul\":8592:8596   */\n      dup2\n        /* \"#utility.yul\":8466:8597   */\n      tag_169\n      jump\t// in\n    tag_292:\n        /* \"#utility.yul\":8458:8597   */\n      swap1\n      pop\n        /* \"#utility.yul\":8185:8604   */\n      swap2\n      swap1\n      pop\n      jump\t// out\n        /* \"#utility.yul\":8610:8790   */\n    tag_170:\n        /* \"#utility.yul\":8658:8735   */\n      0x4e487b7100000000000000000000000000000000000000000000000000000000\n        /* \"#utility.yul\":8655:8656   */\n      0x00\n        /* \"#utility.yul\":8648:8736   */\n      mstore\n        /* \"#utility.yul\":8755:8759   */\n      0x22\n        /* \"#utility.yul\":8752:8753   */\n      0x04\n        /* \"#utility.yul\":8745:8760   */\n      mstore\n        /* \"#utility.yul\":8779:8783   */\n      0x24\n        /* \"#utility.yul\":8776:8777   */\n      0x00\n        /* \"#utility.yul\":8769:8784   */\n      revert\n        /* \"#utility.yul\":8796:9116   */\n    tag_97:\n        /* \"#utility.yul\":8840:8846   */\n      0x00\n        /* \"#utility.yul\":8877:8878   */\n      0x02\n        /* \"#utility.yul\":8871:8875   */\n      dup3\n        /* \"#utility.yul\":8867:8879   */\n      div\n        /* \"#utility.yul\":8857:8879   */\n      swap1\n      pop\n        /* \"#utility.yul\":8924:8925   */\n      0x01\n        /* \"#utility.yul\":8918:8922   */\n      dup3\n        /* \"#utility.yul\":8914:8926   */\n      and\n        /* \"#utility.yul\":8945:8963   */\n      dup1\n        /* \"#utility.yul\":8935:9016   */\n      tag_295\n      jumpi\n        /* \"#utility.yul\":9001:9005   */\n      0x7f\n        /* \"#utility.yul\":8993:8999   */\n      dup3\n        /* \"#utility.yul\":8989:9006   */\n      and\n        /* \"#utility.yul\":8979:9006   */\n      swap2\n      pop\n        /* \"#utility.yul\":8935:9016   */\n    tag_295:\n        /* \"#utility.yul\":9063:9065   */\n      0x20\n        /* \"#utility.yul\":9055:9061   */\n      dup3\n        /* \"#utility.yul\":9052:9066   */\n      lt\n        /* \"#utility.yul\":9032:9050   */\n      dup2\n        /* \"#utility.yul\":9029:9067   */\n      sub\n        /* \"#utility.yul\":9026:9110   */\n      tag_296\n      jumpi\n        /* \"#utility.yul\":9082:9100   */\n      tag_297\n      tag_170\n      jump\t// in\n    tag_297:\n        /* \"#utility.yul\":9026:9110   */\n    tag_296:\n        /* \"#utility.yul\":8847:9116   */\n      pop\n        /* \"#utility.yul\":8796:9116   */\n      swap2\n      swap1\n      pop\n      jump\t// out\n        /* \"#utility.yul\":9122:9270   */\n    tag_171:\n        /* \"#utility.yul\":9224:9235   */\n      0x00\n        /* \"#utility.yul\":9261:9264   */\n      dup2\n        /* \"#utility.yul\":9246:9264   */\n      swap1\n      pop\n        /* \"#utility.yul\":9122:9270   */\n      swap3\n      swap2\n      pop\n      pop\n      jump\t// out\n        /* \"#utility.yul\":9276:9417   */\n    tag_172:\n        /* \"#utility.yul\":9325:9329   */\n      0x00\n        /* \"#utility.yul\":9348:9351   */\n      dup2\n        /* \"#utility.yul\":9340:9351   */\n      swap1\n      pop\n        /* \"#utility.yul\":9371:9374   */\n      dup2\n        /* \"#utility.yul\":9368:9369   */\n      0x00\n        /* \"#utility.yul\":9361:9375   */\n      mstore\n        /* \"#utility.yul\":9405:9409   */\n      0x20\n        /* \"#utility.yul\":9402:9403   */\n      0x00\n        /* \"#utility.yul\":9392:9410   */\n      keccak256\n        /* \"#utility.yul\":9384:9410   */\n      swap1\n      pop\n        /* \"#utility.yul\":9276:9417   */\n      swap2\n      swap1\n      pop\n      jump\t// out\n        /* \"#utility.yul\":9447:10321   */\n    tag_173:\n        /* \"#utility.yul\":9550:9553   */\n      0x00\n        /* \"#utility.yul\":9587:9592   */\n      dup2\n        /* \"#utility.yul\":9581:9593   */\n      sload\n        /* \"#utility.yul\":9616:9652   */\n      tag_301\n        /* \"#utility.yul\":9642:9651   */\n      dup2\n        /* \"#utility.yul\":9616:9652   */\n      tag_97\n      jump\t// in\n    tag_301:\n        /* \"#utility.yul\":9668:9757   */\n      tag_302\n        /* \"#utility.yul\":9750:9756   */\n      dup2\n        /* \"#utility.yul\":9745:9748   */\n      dup7\n        /* \"#utility.yul\":9668:9757   */\n      tag_171\n      jump\t// in\n    tag_302:\n        /* \"#utility.yul\":9661:9757   */\n      swap5\n      pop\n        /* \"#utility.yul\":9788:9789   */\n      0x01\n        /* \"#utility.yul\":9777:9786   */\n      dup3\n        /* \"#utility.yul\":9773:9790   */\n      and\n        /* \"#utility.yul\":9804:9805   */\n      0x00\n        /* \"#utility.yul\":9799:9965   */\n      dup2\n      eq\n      tag_304\n      jumpi\n        /* \"#utility.yul\":9979:9980   */\n      0x01\n        /* \"#utility.yul\":9974:10315   */\n      dup2\n      eq\n      tag_305\n      jumpi\n        /* \"#utility.yul\":9766:10315   */\n      jump(tag_303)\n        /* \"#utility.yul\":9799:9965   */\n    tag_304:\n        /* \"#utility.yul\":9883:9887   */\n      0xff\n        /* \"#utility.yul\":9879:9888   */\n      not\n        /* \"#utility.yul\":9868:9877   */\n      dup4\n        /* \"#utility.yul\":9864:9889   */\n      and\n        /* \"#utility.yul\":9859:9862   */\n      dup7\n        /* \"#utility.yul\":9852:9890   */\n      mstore\n        /* \"#utility.yul\":9945:9951   */\n      dup2\n        /* \"#utility.yul\":9938:9952   */\n      iszero\n        /* \"#utility.yul\":9931:9953   */\n      iszero\n        /* \"#utility.yul\":9923:9929   */\n      dup3\n        /* \"#utility.yul\":9919:9954   */\n      mul\n        /* \"#utility.yul\":9914:9917   */\n      dup7\n        /* \"#utility.yul\":9910:9955   */\n      add\n        /* \"#utility.yul\":9903:9955   */\n      swap4\n      pop\n        /* \"#utility.yul\":9799:9965   */\n      jump(tag_303)\n        /* \"#utility.yul\":9974:10315   */\n    tag_305:\n        /* \"#utility.yul\":10041:10079   */\n      tag_306\n        /* \"#utility.yul\":10073:10078   */\n      dup6\n        /* \"#utility.yul\":10041:10079   */\n      tag_172\n      jump\t// in\n    tag_306:\n        /* \"#utility.yul\":10101:10102   */\n      0x00\n        /* \"#utility.yul\":10115:10269   */\n    tag_307:\n        /* \"#utility.yul\":10129:10135   */\n      dup4\n        /* \"#utility.yul\":10126:10127   */\n      dup2\n        /* \"#utility.yul\":10123:10136   */\n      lt\n        /* \"#utility.yul\":10115:10269   */\n      iszero\n      tag_309\n      jumpi\n        /* \"#utility.yul\":10203:10210   */\n      dup2\n        /* \"#utility.yul\":10197:10211   */\n      sload\n        /* \"#utility.yul\":10193:10194   */\n      dup2\n        /* \"#utility.yul\":10188:10191   */\n      dup10\n        /* \"#utility.yul\":10184:10195   */\n      add\n        /* \"#utility.yul\":10177:10212   */\n      mstore\n        /* \"#utility.yul\":10253:10254   */\n      0x01\n        /* \"#utility.yul\":10244:10251   */\n      dup3\n        /* \"#utility.yul\":10240:10255   */\n      add\n        /* \"#utility.yul\":10229:10255   */\n      swap2\n      pop\n        /* \"#utility.yul\":10151:10155   */\n      0x20\n        /* \"#utility.yul\":10148:10149   */\n      dup2\n        /* \"#utility.yul\":10144:10156   */\n      add\n        /* \"#utility.yul\":10139:10156   */\n      swap1\n      pop\n        /* \"#utility.yul\":10115:10269   */\n      jump(tag_307)\n    tag_309:\n        /* \"#utility.yul\":10298:10304   */\n      dup4\n        /* \"#utility.yul\":10293:10296   */\n      dup9\n        /* \"#utility.yul\":10289:10305   */\n      add\n        /* \"#utility.yul\":10282:10305   */\n      swap6\n      pop\n        /* \"#utility.yul\":9981:10315   */\n      pop\n      pop\n        /* \"#utility.yul\":9766:10315   */\n    tag_303:\n      pop\n        /* \"#utility.yul\":9554:10321   */\n      pop\n      pop\n        /* \"#utility.yul\":9447:10321   */\n      swap3\n      swap2\n      pop\n      pop\n      jump\t// out\n        /* \"#utility.yul\":10327:10596   */\n    tag_52:\n        /* \"#utility.yul\":10456:10459   */\n      0x00\n        /* \"#utility.yul\":10478:10570   */\n      tag_311\n        /* \"#utility.yul\":10566:10569   */\n      dup3\n        /* \"#utility.yul\":10557:10563   */\n      dup5\n        /* \"#utility.yul\":10478:10570   */\n      tag_173\n      jump\t// in\n    tag_311:\n        /* \"#utility.yul\":10471:10570   */\n      swap2\n      pop\n        /* \"#utility.yul\":10587:10590   */\n      dup2\n        /* \"#utility.yul\":10580:10590   */\n      swap1\n      pop\n        /* \"#utility.yul\":10327:10596   */\n      swap3\n      swap2\n      pop\n      pop\n      jump\t// out\n        /* \"#utility.yul\":10602:10830   */\n    tag_174:\n        /* \"#utility.yul\":10742:10776   */\n      0x796f752063616e206e6f74206164642061207573657220746861742068617320\n        /* \"#utility.yul\":10738:10739   */\n      0x00\n        /* \"#utility.yul\":10730:10736   */\n      dup3\n        /* \"#utility.yul\":10726:10740   */\n      add\n        /* \"#utility.yul\":10719:10777   */\n      mstore\n        /* \"#utility.yul\":10811:10822   */\n      0x6e6f207075626b65790000000000000000000000000000000000000000000000\n        /* \"#utility.yul\":10806:10808   */\n      0x20\n        /* \"#utility.yul\":10798:10804   */\n      dup3\n        /* \"#utility.yul\":10794:10809   */\n      add\n        /* \"#utility.yul\":10787:10823   */\n      mstore\n        /* \"#utility.yul\":10602:10830   */\n      pop\n      jump\t// out\n        /* \"#utility.yul\":10836:11202   */\n    tag_175:\n        /* \"#utility.yul\":10978:10981   */\n      0x00\n        /* \"#utility.yul\":10999:11066   */\n      tag_314\n        /* \"#utility.yul\":11063:11065   */\n      0x29\n        /* \"#utility.yul\":11058:11061   */\n      dup4\n        /* \"#utility.yul\":10999:11066   */\n      tag_165\n      jump\t// in\n    tag_314:\n        /* \"#utility.yul\":10992:11066   */\n      swap2\n      pop\n        /* \"#utility.yul\":11075:11168   */\n      tag_315\n        /* \"#utility.yul\":11164:11167   */\n      dup3\n        /* \"#utility.yul\":11075:11168   */\n      tag_174\n      jump\t// in\n    tag_315:\n        /* \"#utility.yul\":11193:11195   */\n      0x40\n        /* \"#utility.yul\":11188:11191   */\n      dup3\n        /* \"#utility.yul\":11184:11196   */\n      add\n        /* \"#utility.yul\":11177:11196   */\n      swap1\n      pop\n        /* \"#utility.yul\":10836:11202   */\n      swap2\n      swap1\n      pop\n      jump\t// out\n        /* \"#utility.yul\":11208:11627   */\n    tag_55:\n        /* \"#utility.yul\":11374:11378   */\n      0x00\n        /* \"#utility.yul\":11412:11414   */\n      0x20\n        /* \"#utility.yul\":11401:11410   */\n      dup3\n        /* \"#utility.yul\":11397:11415   */\n      add\n        /* \"#utility.yul\":11389:11415   */\n      swap1\n      pop\n        /* \"#utility.yul\":11461:11470   */\n      dup2\n        /* \"#utility.yul\":11455:11459   */\n      dup2\n        /* \"#utility.yul\":11451:11471   */\n      sub\n        /* \"#utility.yul\":11447:11448   */\n      0x00\n        /* \"#utility.yul\":11436:11445   */\n      dup4\n        /* \"#utility.yul\":11432:11449   */\n      add\n        /* \"#utility.yul\":11425:11472   */\n      mstore\n        /* \"#utility.yul\":11489:11620   */\n      tag_317\n        /* \"#utility.yul\":11615:11619   */\n      dup2\n        /* \"#utility.yul\":11489:11620   */\n      tag_175\n      jump\t// in\n    tag_317:\n        /* \"#utility.yul\":11481:11620   */\n      swap1\n      pop\n        /* \"#utility.yul\":11208:11627   */\n      swap2\n      swap1\n      pop\n      jump\t// out\n        /* \"#utility.yul\":11633:11812   */\n    tag_176:\n        /* \"#utility.yul\":11773:11804   */\n      0x68652f73686520697320796f757220667269656e6420616c7265616479000000\n        /* \"#utility.yul\":11769:11770   */\n      0x00\n        /* \"#utility.yul\":11761:11767   */\n      dup3\n        /* \"#utility.yul\":11757:11771   */\n      add\n        /* \"#utility.yul\":11750:11805   */\n      mstore\n        /* \"#utility.yul\":11633:11812   */\n      pop\n      jump\t// out\n        /* \"#utility.yul\":11818:12184   */\n    tag_177:\n        /* \"#utility.yul\":11960:11963   */\n      0x00\n        /* \"#utility.yul\":11981:12048   */\n      tag_320\n        /* \"#utility.yul\":12045:12047   */\n      0x1d\n        /* \"#utility.yul\":12040:12043   */\n      dup4\n        /* \"#utility.yul\":11981:12048   */\n      tag_165\n      jump\t// in\n    tag_320:\n        /* \"#utility.yul\":11974:12048   */\n      swap2\n      pop\n        /* \"#utility.yul\":12057:12150   */\n      tag_321\n        /* \"#utility.yul\":12146:12149   */\n      dup3\n        /* \"#utility.yul\":12057:12150   */\n      tag_176\n      jump\t// in\n    tag_321:\n        /* \"#utility.yul\":12175:12177   */\n      0x20\n        /* \"#utility.yul\":12170:12173   */\n      dup3\n        /* \"#utility.yul\":12166:12178   */\n      add\n        /* \"#utility.yul\":12159:12178   */\n      swap1\n      pop\n        /* \"#utility.yul\":11818:12184   */\n      swap2\n      swap1\n      pop\n      jump\t// out\n        /* \"#utility.yul\":12190:12609   */\n    tag_58:\n        /* \"#utility.yul\":12356:12360   */\n      0x00\n        /* \"#utility.yul\":12394:12396   */\n      0x20\n        /* \"#utility.yul\":12383:12392   */\n      dup3\n        /* \"#utility.yul\":12379:12397   */\n      add\n        /* \"#utility.yul\":12371:12397   */\n      swap1\n      pop\n        /* \"#utility.yul\":12443:12452   */\n      dup2\n        /* \"#utility.yul\":12437:12441   */\n      dup2\n        /* \"#utility.yul\":12433:12453   */\n      sub\n        /* \"#utility.yul\":12429:12430   */\n      0x00\n        /* \"#utility.yul\":12418:12427   */\n      dup4\n        /* \"#utility.yul\":12414:12431   */\n      add\n        /* \"#utility.yul\":12407:12454   */\n      mstore\n        /* \"#utility.yul\":12471:12602   */\n      tag_323\n        /* \"#utility.yul\":12597:12601   */\n      dup2\n        /* \"#utility.yul\":12471:12602   */\n      tag_177\n      jump\t// in\n    tag_323:\n        /* \"#utility.yul\":12463:12602   */\n      swap1\n      pop\n        /* \"#utility.yul\":12190:12609   */\n      swap2\n      swap1\n      pop\n      jump\t// out\n        /* \"#utility.yul\":12615:12708   */\n    tag_178:\n        /* \"#utility.yul\":12652:12658   */\n      0x00\n        /* \"#utility.yul\":12699:12701   */\n      0x20\n        /* \"#utility.yul\":12694:12696   */\n      0x1f\n        /* \"#utility.yul\":12687:12692   */\n      dup4\n        /* \"#utility.yul\":12683:12697   */\n      add\n        /* \"#utility.yul\":12679:12702   */\n      div\n        /* \"#utility.yul\":12669:12702   */\n      swap1\n      pop\n        /* \"#utility.yul\":12615:12708   */\n      swap2\n      swap1\n      pop\n      jump\t// out\n        /* \"#utility.yul\":12714:12821   */\n    tag_179:\n        /* \"#utility.yul\":12758:12766   */\n      0x00\n        /* \"#utility.yul\":12808:12813   */\n      dup3\n        /* \"#utility.yul\":12802:12806   */\n      dup3\n        /* \"#utility.yul\":12798:12814   */\n      shl\n        /* \"#utility.yul\":12777:12814   */\n      swap1\n      pop\n        /* \"#utility.yul\":12714:12821   */\n      swap3\n      swap2\n      pop\n      pop\n      jump\t// out\n        /* \"#utility.yul\":12827:13220   */\n    tag_180:\n        /* \"#utility.yul\":12896:12902   */\n      0x00\n        /* \"#utility.yul\":12946:12947   */\n      0x08\n        /* \"#utility.yul\":12934:12944   */\n      dup4\n        /* \"#utility.yul\":12930:12948   */\n      mul\n        /* \"#utility.yul\":12969:13066   */\n      tag_327\n        /* \"#utility.yul\":12999:13065   */\n      0xffffffffffffffffffffffffffffffffffffffffffffffffffffffffffffffff\n        /* \"#utility.yul\":12988:12997   */\n      dup3\n        /* \"#utility.yul\":12969:13066   */\n      tag_179\n      jump\t// in\n    tag_327:\n        /* \"#utility.yul\":13087:13126   */\n      tag_328\n        /* \"#utility.yul\":13117:13125   */\n      dup7\n        /* \"#utility.yul\":13106:13115   */\n      dup4\n        /* \"#utility.yul\":13087:13126   */\n      tag_179\n      jump\t// in\n    tag_328:\n        /* \"#utility.yul\":13075:13126   */\n      swap6\n      pop\n        /* \"#utility.yul\":13159:13163   */\n      dup1\n        /* \"#utility.yul\":13155:13164   */\n      not\n        /* \"#utility.yul\":13148:13153   */\n      dup5\n        /* \"#utility.yul\":13144:13165   */\n      and\n        /* \"#utility.yul\":13135:13165   */\n      swap4\n      pop\n        /* \"#utility.yul\":13208:13212   */\n      dup1\n        /* \"#utility.yul\":13198:13206   */\n      dup7\n        /* \"#utility.yul\":13194:13213   */\n      and\n        /* \"#utility.yul\":13187:13192   */\n      dup5\n        /* \"#utility.yul\":13184:13214   */\n      or\n        /* \"#utility.yul\":13174:13214   */\n      swap3\n      pop\n        /* \"#utility.yul\":12903:13220   */\n      pop\n      pop\n        /* \"#utility.yul\":12827:13220   */\n      swap4\n      swap3\n      pop\n      pop\n      pop\n      jump\t// out\n        /* \"#utility.yul\":13226:13303   */\n    tag_181:\n        /* \"#utility.yul\":13263:13270   */\n      0x00\n        /* \"#utility.yul\":13292:13297   */\n      dup2\n        /* \"#utility.yul\":13281:13297   */\n      swap1\n      pop\n        /* \"#utility.yul\":13226:13303   */\n      swap2\n      swap1\n      pop\n      jump\t// out\n        /* \"#utility.yul\":13309:13369   */\n    tag_182:\n        /* \"#utility.yul\":13337:13340   */\n      0x00\n        /* \"#utility.yul\":13358:13363   */\n      dup2\n        /* \"#utility.yul\":13351:13363   */\n      swap1\n      pop\n        /* \"#utility.yul\":13309:13369   */\n      swap2\n      swap1\n      pop\n      jump\t// out\n        /* \"#utility.yul\":13375:13517   */\n    tag_183:\n        /* \"#utility.yul\":13425:13434   */\n      0x00\n        /* \"#utility.yul\":13458:13511   */\n      tag_332\n        /* \"#utility.yul\":13476:13510   */\n      tag_333\n        /* \"#utility.yul\":13485:13509   */\n      tag_334\n        /* \"#utility.yul\":13503:13508   */\n      dup5\n        /* \"#utility.yul\":13485:13509   */\n      tag_181\n      jump\t// in\n    tag_334:\n        /* \"#utility.yul\":13476:13510   */\n      tag_182\n      jump\t// in\n    tag_333:\n        /* \"#utility.yul\":13458:13511   */\n      tag_181\n      jump\t// in\n    tag_332:\n        /* \"#utility.yul\":13445:13511   */\n      swap1\n      pop\n        /* \"#utility.yul\":13375:13517   */\n      swap2\n      swap1\n      pop\n      jump\t// out\n        /* \"#utility.yul\":13523:13598   */\n    tag_184:\n        /* \"#utility.yul\":13566:13569   */\n      0x00\n        /* \"#utility.yul\":13587:13592   */\n      dup2\n        /* \"#utility.yul\":13580:13592   */\n      swap1\n      pop\n        /* \"#utility.yul\":13523:13598   */\n      swap2\n      swap1\n      pop\n      jump\t// out\n        /* \"#utility.yul\":13604:13873   */\n    tag_185:\n        /* \"#utility.yul\":13714:13753   */\n      tag_337\n        /* \"#utility.yul\":13745:13752   */\n      dup4\n        /* \"#utility.yul\":13714:13753   */\n      tag_183\n      jump\t// in\n    tag_337:\n        /* \"#utility.yul\":13775:13866   */\n      tag_338\n        /* \"#utility.yul\":13824:13865   */\n      tag_339\n        /* \"#utility.yul\":13848:13864   */\n      dup3\n        /* \"#utility.yul\":13824:13865   */\n      tag_184\n      jump\t// in\n    tag_339:\n        /* \"#utility.yul\":13816:13822   */\n      dup5\n        /* \"#utility.yul\":13809:13813   */\n      dup5\n        /* \"#utility.yul\":13803:13814   */\n      sload\n        /* \"#utility.yul\":13775:13866   */\n      tag_180\n      jump\t// in\n    tag_338:\n        /* \"#utility.yul\":13769:13773   */\n      dup3\n        /* \"#utility.yul\":13762:13867   */\n      sstore\n        /* \"#utility.yul\":13680:13873   */\n      pop\n        /* \"#utility.yul\":13604:13873   */\n      pop\n      pop\n      pop\n      jump\t// out\n        /* \"#utility.yul\":13879:13952   */\n    tag_186:\n        /* \"#utility.yul\":13924:13927   */\n      0x00\n        /* \"#utility.yul\":13879:13952   */\n      swap1\n      jump\t// out\n        /* \"#utility.yul\":13958:14147   */\n    tag_187:\n        /* \"#utility.yul\":14035:14067   */\n      tag_342\n      tag_186\n      jump\t// in\n    tag_342:\n        /* \"#utility.yul\":14076:14141   */\n      tag_343\n        /* \"#utility.yul\":14134:14140   */\n      dup2\n        /* \"#utility.yul\":14126:14132   */\n      dup5\n        /* \"#utility.yul\":14120:14124   */\n      dup5\n        /* \"#utility.yul\":14076:14141   */\n      tag_185\n      jump\t// in\n    tag_343:\n        /* \"#utility.yul\":14011:14147   */\n      pop\n        /* \"#utility.yul\":13958:14147   */\n      pop\n      pop\n      jump\t// out\n        /* \"#utility.yul\":14153:14339   */\n    tag_188:\n        /* \"#utility.yul\":14213:14333   */\n    tag_345:\n        /* \"#utility.yul\":14230:14233   */\n      dup2\n        /* \"#utility.yul\":14223:14228   */\n      dup2\n        /* \"#utility.yul\":14220:14234   */\n      lt\n        /* \"#utility.yul\":14213:14333   */\n      iszero\n      tag_347\n      jumpi\n        /* \"#utility.yul\":14284:14323   */\n      tag_348\n        /* \"#utility.yul\":14321:14322   */\n      0x00\n        /* \"#utility.yul\":14314:14319   */\n      dup3\n        /* \"#utility.yul\":14284:14323   */\n      tag_187\n      jump\t// in\n    tag_348:\n        /* \"#utility.yul\":14257:14258   */\n      0x01\n        /* \"#utility.yul\":14250:14255   */\n      dup2\n        /* \"#utility.yul\":14246:14259   */\n      add\n        /* \"#utility.yul\":14237:14259   */\n      swap1\n      pop\n        /* \"#utility.yul\":14213:14333   */\n      jump(tag_345)\n    tag_347:\n        /* \"#utility.yul\":14153:14339   */\n      pop\n      pop\n      jump\t// out\n        /* \"#utility.yul\":14345:14888   */\n    tag_189:\n        /* \"#utility.yul\":14446:14448   */\n      0x1f\n        /* \"#utility.yul\":14441:14444   */\n      dup3\n        /* \"#utility.yul\":14438:14449   */\n      gt\n        /* \"#utility.yul\":14435:14881   */\n      iszero\n      tag_350\n      jumpi\n        /* \"#utility.yul\":14480:14518   */\n      tag_351\n        /* \"#utility.yul\":14512:14517   */\n      dup2\n        /* \"#utility.yul\":14480:14518   */\n      tag_172\n      jump\t// in\n    tag_351:\n        /* \"#utility.yul\":14564:14593   */\n      tag_352\n        /* \"#utility.yul\":14582:14592   */\n      dup5\n        /* \"#utility.yul\":14564:14593   */\n      tag_178\n      jump\t// in\n    tag_352:\n        /* \"#utility.yul\":14554:14562   */\n      dup2\n        /* \"#utility.yul\":14550:14594   */\n      add\n        /* \"#utility.yul\":14747:14749   */\n      0x20\n        /* \"#utility.yul\":14735:14745   */\n      dup6\n        /* \"#utility.yul\":14732:14750   */\n      lt\n        /* \"#utility.yul\":14729:14778   */\n      iszero\n      tag_353\n      jumpi\n        /* \"#utility.yul\":14768:14776   */\n      dup2\n        /* \"#utility.yul\":14753:14776   */\n      swap1\n      pop\n        /* \"#utility.yul\":14729:14778   */\n    tag_353:\n        /* \"#utility.yul\":14791:14871   */\n      tag_354\n        /* \"#utility.yul\":14847:14869   */\n      tag_355\n        /* \"#utility.yul\":14865:14868   */\n      dup6\n        /* \"#utility.yul\":14847:14869   */\n      tag_178\n      jump\t// in\n    tag_355:\n        /* \"#utility.yul\":14837:14845   */\n      dup4\n        /* \"#utility.yul\":14833:14870   */\n      add\n        /* \"#utility.yul\":14820:14831   */\n      dup3\n        /* \"#utility.yul\":14791:14871   */\n      tag_188\n      jump\t// in\n    tag_354:\n        /* \"#utility.yul\":14450:14881   */\n      pop\n      pop\n        /* \"#utility.yul\":14435:14881   */\n    tag_350:\n        /* \"#utility.yul\":14345:14888   */\n      pop\n      pop\n      pop\n      jump\t// out\n        /* \"#utility.yul\":14894:15011   */\n    tag_190:\n        /* \"#utility.yul\":14948:14956   */\n      0x00\n        /* \"#utility.yul\":14998:15003   */\n      dup3\n        /* \"#utility.yul\":14992:14996   */\n      dup3\n        /* \"#utility.yul\":14988:15004   */\n      shr\n        /* \"#utility.yul\":14967:15004   */\n      swap1\n      pop\n        /* \"#utility.yul\":14894:15011   */\n      swap3\n      swap2\n      pop\n      pop\n      jump\t// out\n        /* \"#utility.yul\":15017:15186   */\n    tag_191:\n        /* \"#utility.yul\":15061:15067   */\n      0x00\n        /* \"#utility.yul\":15094:15145   */\n      tag_358\n        /* \"#utility.yul\":15142:15143   */\n      0x00\n        /* \"#utility.yul\":15138:15144   */\n      not\n        /* \"#utility.yul\":15130:15135   */\n      dup5\n        /* \"#utility.yul\":15127:15128   */\n      0x08\n        /* \"#utility.yul\":15123:15136   */\n      mul\n        /* \"#utility.yul\":15094:15145   */\n      tag_190\n      jump\t// in\n    tag_358:\n        /* \"#utility.yul\":15090:15146   */\n      not\n        /* \"#utility.yul\":15175:15179   */\n      dup1\n        /* \"#utility.yul\":15169:15173   */\n      dup4\n        /* \"#utility.yul\":15165:15180   */\n      and\n        /* \"#utility.yul\":15155:15180   */\n      swap2\n      pop\n        /* \"#utility.yul\":15068:15186   */\n      pop\n        /* \"#utility.yul\":15017:15186   */\n      swap3\n      swap2\n      pop\n      pop\n      jump\t// out\n        /* \"#utility.yul\":15191:15486   */\n    tag_192:\n        /* \"#utility.yul\":15267:15271   */\n      0x00\n        /* \"#utility.yul\":15413:15442   */\n      tag_360\n        /* \"#utility.yul\":15438:15441   */\n      dup4\n        /* \"#utility.yul\":15432:15436   */\n      dup4\n        /* \"#utility.yul\":15413:15442   */\n      tag_191\n      jump\t// in\n    tag_360:\n        /* \"#utility.yul\":15405:15442   */\n      swap2\n      pop\n        /* \"#utility.yul\":15475:15478   */\n      dup3\n        /* \"#utility.yul\":15472:15473   */\n      0x02\n        /* \"#utility.yul\":15468:15479   */\n      mul\n        /* \"#utility.yul\":15462:15466   */\n      dup3\n        /* \"#utility.yul\":15459:15480   */\n      or\n        /* \"#utility.yul\":15451:15480   */\n      swap1\n      pop\n        /* \"#utility.yul\":15191:15486   */\n      swap3\n      swap2\n      pop\n      pop\n      jump\t// out\n        /* \"#utility.yul\":15491:16886   */\n    tag_67:\n        /* \"#utility.yul\":15608:15645   */\n      tag_362\n        /* \"#utility.yul\":15641:15644   */\n      dup3\n        /* \"#utility.yul\":15608:15645   */\n      tag_164\n      jump\t// in\n    tag_362:\n        /* \"#utility.yul\":15710:15728   */\n      0xffffffffffffffff\n        /* \"#utility.yul\":15702:15708   */\n      dup2\n        /* \"#utility.yul\":15699:15729   */\n      gt\n        /* \"#utility.yul\":15696:15752   */\n      iszero\n      tag_363\n      jumpi\n        /* \"#utility.yul\":15732:15750   */\n      tag_364\n      tag_157\n      jump\t// in\n    tag_364:\n        /* \"#utility.yul\":15696:15752   */\n    tag_363:\n        /* \"#utility.yul\":15776:15814   */\n      tag_365\n        /* \"#utility.yul\":15808:15812   */\n      dup3\n        /* \"#utility.yul\":15802:15813   */\n      sload\n        /* \"#utility.yul\":15776:15814   */\n      tag_97\n      jump\t// in\n    tag_365:\n        /* \"#utility.yul\":15861:15928   */\n      tag_366\n        /* \"#utility.yul\":15921:15927   */\n      dup3\n        /* \"#utility.yul\":15913:15919   */\n      dup3\n        /* \"#utility.yul\":15907:15911   */\n      dup6\n        /* \"#utility.yul\":15861:15928   */\n      tag_189\n      jump\t// in\n    tag_366:\n        /* \"#utility.yul\":15955:15956   */\n      0x00\n        /* \"#utility.yul\":15979:15983   */\n      0x20\n        /* \"#utility.yul\":15966:15983   */\n      swap1\n      pop\n        /* \"#utility.yul\":16011:16013   */\n      0x1f\n        /* \"#utility.yul\":16003:16009   */\n      dup4\n        /* \"#utility.yul\":16000:16014   */\n      gt\n        /* \"#utility.yul\":16028:16029   */\n      0x01\n        /* \"#utility.yul\":16023:16641   */\n      dup2\n      eq\n      tag_368\n      jumpi\n        /* \"#utility.yul\":16685:16686   */\n      0x00\n        /* \"#utility.yul\":16702:16708   */\n      dup5\n        /* \"#utility.yul\":16699:16776   */\n      iszero\n      tag_369\n      jumpi\n        /* \"#utility.yul\":16751:16760   */\n      dup3\n        /* \"#utility.yul\":16746:16749   */\n      dup8\n        /* \"#utility.yul\":16742:16761   */\n      add\n        /* \"#utility.yul\":16736:16762   */\n      mload\n        /* \"#utility.yul\":16727:16762   */\n      swap1\n      pop\n        /* \"#utility.yul\":16699:16776   */\n    tag_369:\n        /* \"#utility.yul\":16802:16869   */\n      tag_370\n        /* \"#utility.yul\":16862:16868   */\n      dup6\n        /* \"#utility.yul\":16855:16860   */\n      dup3\n        /* \"#utility.yul\":16802:16869   */\n      tag_192\n      jump\t// in\n    tag_370:\n        /* \"#utility.yul\":16796:16800   */\n      dup7\n        /* \"#utility.yul\":16789:16870   */\n      sstore\n        /* \"#utility.yul\":16658:16880   */\n      pop\n        /* \"#utility.yul\":15993:16880   */\n      jump(tag_367)\n        /* \"#utility.yul\":16023:16641   */\n    tag_368:\n        /* \"#utility.yul\":16075:16079   */\n      0x1f\n        /* \"#utility.yul\":16071:16080   */\n      not\n        /* \"#utility.yul\":16063:16069   */\n      dup5\n        /* \"#utility.yul\":16059:16081   */\n      and\n        /* \"#utility.yul\":16109:16146   */\n      tag_371\n        /* \"#utility.yul\":16141:16145   */\n      dup7\n        /* \"#utility.yul\":16109:16146   */\n      tag_172\n      jump\t// in\n    tag_371:\n        /* \"#utility.yul\":16168:16169   */\n      0x00\n        /* \"#utility.yul\":16182:16390   */\n    tag_372:\n        /* \"#utility.yul\":16196:16203   */\n      dup3\n        /* \"#utility.yul\":16193:16194   */\n      dup2\n        /* \"#utility.yul\":16190:16204   */\n      lt\n        /* \"#utility.yul\":16182:16390   */\n      iszero\n      tag_374\n      jumpi\n        /* \"#utility.yul\":16275:16284   */\n      dup5\n        /* \"#utility.yul\":16270:16273   */\n      dup10\n        /* \"#utility.yul\":16266:16285   */\n      add\n        /* \"#utility.yul\":16260:16286   */\n      mload\n        /* \"#utility.yul\":16252:16258   */\n      dup3\n        /* \"#utility.yul\":16245:16287   */\n      sstore\n        /* \"#utility.yul\":16326:16327   */\n      0x01\n        /* \"#utility.yul\":16318:16324   */\n      dup3\n        /* \"#utility.yul\":16314:16328   */\n      add\n        /* \"#utility.yul\":16304:16328   */\n      swap2\n      pop\n        /* \"#utility.yul\":16373:16375   */\n      0x20\n        /* \"#utility.yul\":16362:16371   */\n      dup6\n        /* \"#utility.yul\":16358:16376   */\n      add\n        /* \"#utility.yul\":16345:16376   */\n      swap5\n      pop\n        /* \"#utility.yul\":16219:16223   */\n      0x20\n        /* \"#utility.yul\":16216:16217   */\n      dup2\n        /* \"#utility.yul\":16212:16224   */\n      add\n        /* \"#utility.yul\":16207:16224   */\n      swap1\n      pop\n        /* \"#utility.yul\":16182:16390   */\n      jump(tag_372)\n    tag_374:\n        /* \"#utility.yul\":16418:16424   */\n      dup7\n        /* \"#utility.yul\":16409:16416   */\n      dup4\n        /* \"#utility.yul\":16406:16425   */\n      lt\n        /* \"#utility.yul\":16403:16582   */\n      iszero\n      tag_375\n      jumpi\n        /* \"#utility.yul\":16476:16485   */\n      dup5\n        /* \"#utility.yul\":16471:16474   */\n      dup10\n        /* \"#utility.yul\":16467:16486   */\n      add\n        /* \"#utility.yul\":16461:16487   */\n      mload\n        /* \"#utility.yul\":16519:16567   */\n      tag_376\n        /* \"#utility.yul\":16561:16565   */\n      0x1f\n        /* \"#utility.yul\":16553:16559   */\n      dup10\n        /* \"#utility.yul\":16549:16566   */\n      and\n        /* \"#utility.yul\":16538:16547   */\n      dup3\n        /* \"#utility.yul\":16519:16567   */\n      tag_191\n      jump\t// in\n    tag_376:\n        /* \"#utility.yul\":16511:16517   */\n      dup4\n        /* \"#utility.yul\":16504:16568   */\n      sstore\n        /* \"#utility.yul\":16426:16582   */\n      pop\n        /* \"#utility.yul\":16403:16582   */\n    tag_375:\n        /* \"#utility.yul\":16628:16629   */\n      0x01\n        /* \"#utility.yul\":16624:16625   */\n      0x02\n        /* \"#utility.yul\":16616:16622   */\n      dup9\n        /* \"#utility.yul\":16612:16626   */\n      mul\n        /* \"#utility.yul\":16608:16630   */\n      add\n        /* \"#utility.yul\":16602:16606   */\n      dup9\n        /* \"#utility.yul\":16595:16631   */\n      sstore\n        /* \"#utility.yul\":16030:16641   */\n      pop\n      pop\n      pop\n        /* \"#utility.yul\":15993:16880   */\n    tag_367:\n      pop\n        /* \"#utility.yul\":15583:16886   */\n      pop\n      pop\n      pop\n        /* \"#utility.yul\":15491:16886   */\n      pop\n      pop\n      jump\t// out\n        /* \"#utility.yul\":16892:17071   */\n    tag_193:\n        /* \"#utility.yul\":17032:17063   */\n      0x68652f736865206973206e6f7420796f757220626c6f636b206c697374000000\n        /* \"#utility.yul\":17028:17029   */\n      0x00\n        /* \"#utility.yul\":17020:17026   */\n      dup3\n        /* \"#utility.yul\":17016:17030   */\n      add\n        /* \"#utility.yul\":17009:17064   */\n      mstore\n        /* \"#utility.yul\":16892:17071   */\n      pop\n      jump\t// out\n        /* \"#utility.yul\":17077:17443   */\n    tag_194:\n        /* \"#utility.yul\":17219:17222   */\n      0x00\n        /* \"#utility.yul\":17240:17307   */\n      tag_379\n        /* \"#utility.yul\":17304:17306   */\n      0x1d\n        /* \"#utility.yul\":17299:17302   */\n      dup4\n        /* \"#utility.yul\":17240:17307   */\n      tag_165\n      jump\t// in\n    tag_379:\n        /* \"#utility.yul\":17233:17307   */\n      swap2\n      pop\n        /* \"#utility.yul\":17316:17409   */\n      tag_380\n        /* \"#utility.yul\":17405:17408   */\n      dup3\n        /* \"#utility.yul\":17316:17409   */\n      tag_193\n      jump\t// in\n    tag_380:\n        /* \"#utility.yul\":17434:17436   */\n      0x20\n        /* \"#utility.yul\":17429:17432   */\n      dup3\n        /* \"#utility.yul\":17425:17437   */\n      add\n        /* \"#utility.yul\":17418:17437   */\n      swap1\n      pop\n        /* \"#utility.yul\":17077:17443   */\n      swap2\n      swap1\n      pop\n      jump\t// out\n        /* \"#utility.yul\":17449:17868   */\n    tag_72:\n        /* \"#utility.yul\":17615:17619   */\n      0x00\n        /* \"#utility.yul\":17653:17655   */\n      0x20\n        /* \"#utility.yul\":17642:17651   */\n      dup3\n        /* \"#utility.yul\":17638:17656   */\n      add\n        /* \"#utility.yul\":17630:17656   */\n      swap1\n      pop\n        /* \"#utility.yul\":17702:17711   */\n      dup2\n        /* \"#utility.yul\":17696:17700   */\n      dup2\n        /* \"#utility.yul\":17692:17712   */\n      sub\n        /* \"#utility.yul\":17688:17689   */\n      0x00\n        /* \"#utility.yul\":17677:17686   */\n      dup4\n        /* \"#utility.yul\":17673:17690   */\n      add\n        /* \"#utility.yul\":17666:17713   */\n      mstore\n        /* \"#utility.yul\":17730:17861   */\n      tag_382\n        /* \"#utility.yul\":17856:17860   */\n      dup2\n        /* \"#utility.yul\":17730:17861   */\n      tag_194\n      jump\t// in\n    tag_382:\n        /* \"#utility.yul\":17722:17861   */\n      swap1\n      pop\n        /* \"#utility.yul\":17449:17868   */\n      swap2\n      swap1\n      pop\n      jump\t// out\n        /* \"#utility.yul\":17874:18054   */\n    tag_78:\n        /* \"#utility.yul\":17922:17999   */\n      0x4e487b7100000000000000000000000000000000000000000000000000000000\n        /* \"#utility.yul\":17919:17920   */\n      0x00\n        /* \"#utility.yul\":17912:18000   */\n      mstore\n        /* \"#utility.yul\":18019:18023   */\n      0x32\n        /* \"#utility.yul\":18016:18017   */\n      0x04\n        /* \"#utility.yul\":18009:18024   */\n      mstore\n        /* \"#utility.yul\":18043:18047   */\n      0x24\n        /* \"#utility.yul\":18040:18041   */\n      0x00\n        /* \"#utility.yul\":18033:18048   */\n      revert\n        /* \"#utility.yul\":18060:18240   */\n    tag_195:\n        /* \"#utility.yul\":18108:18185   */\n      0x4e487b7100000000000000000000000000000000000000000000000000000000\n        /* \"#utility.yul\":18105:18106   */\n      0x00\n        /* \"#utility.yul\":18098:18186   */\n      mstore\n        /* \"#utility.yul\":18205:18209   */\n      0x11\n        /* \"#utility.yul\":18202:18203   */\n      0x04\n        /* \"#utility.yul\":18195:18210   */\n      mstore\n        /* \"#utility.yul\":18229:18233   */\n      0x24\n        /* \"#utility.yul\":18226:18227   */\n      0x00\n        /* \"#utility.yul\":18219:18234   */\n      revert\n        /* \"#utility.yul\":18246:18440   */\n    tag_82:\n        /* \"#utility.yul\":18286:18290   */\n      0x00\n        /* \"#utility.yul\":18306:18326   */\n      tag_386\n        /* \"#utility.yul\":18324:18325   */\n      dup3\n        /* \"#utility.yul\":18306:18326   */\n      tag_181\n      jump\t// in\n    tag_386:\n        /* \"#utility.yul\":18301:18326   */\n      swap2\n      pop\n        /* \"#utility.yul\":18340:18360   */\n      tag_387\n        /* \"#utility.yul\":18358:18359   */\n      dup4\n        /* \"#utility.yul\":18340:18360   */\n      tag_181\n      jump\t// in\n    tag_387:\n        /* \"#utility.yul\":18335:18360   */\n      swap3\n      pop\n        /* \"#utility.yul\":18384:18385   */\n      dup3\n        /* \"#utility.yul\":18381:18382   */\n      dup3\n        /* \"#utility.yul\":18377:18386   */\n      sub\n        /* \"#utility.yul\":18369:18386   */\n      swap1\n      pop\n        /* \"#utility.yul\":18408:18409   */\n      dup2\n        /* \"#utility.yul\":18402:18406   */\n      dup2\n        /* \"#utility.yul\":18399:18410   */\n      gt\n        /* \"#utility.yul\":18396:18433   */\n      iszero\n      tag_388\n      jumpi\n        /* \"#utility.yul\":18413:18431   */\n      tag_389\n      tag_195\n      jump\t// in\n    tag_389:\n        /* \"#utility.yul\":18396:18433   */\n    tag_388:\n        /* \"#utility.yul\":18246:18440   */\n      swap3\n      swap2\n      pop\n      pop\n      jump\t// out\n        /* \"#utility.yul\":18446:18626   */\n    tag_91:\n        /* \"#utility.yul\":18494:18571   */\n      0x4e487b7100000000000000000000000000000000000000000000000000000000\n        /* \"#utility.yul\":18491:18492   */\n      0x00\n        /* \"#utility.yul\":18484:18572   */\n      mstore\n        /* \"#utility.yul\":18591:18595   */\n      0x31\n        /* \"#utility.yul\":18588:18589   */\n      0x04\n        /* \"#utility.yul\":18581:18596   */\n      mstore\n        /* \"#utility.yul\":18615:18619   */\n      0x24\n        /* \"#utility.yul\":18612:18613   */\n      0x00\n        /* \"#utility.yul\":18605:18620   */\n      revert\n        /* \"#utility.yul\":18632:18865   */\n    tag_94:\n        /* \"#utility.yul\":18671:18674   */\n      0x00\n        /* \"#utility.yul\":18694:18718   */\n      tag_392\n        /* \"#utility.yul\":18712:18717   */\n      dup3\n        /* \"#utility.yul\":18694:18718   */\n      tag_181\n      jump\t// in\n    tag_392:\n        /* \"#utility.yul\":18685:18718   */\n      swap2\n      pop\n        /* \"#utility.yul\":18740:18806   */\n      0xffffffffffffffffffffffffffffffffffffffffffffffffffffffffffffffff\n        /* \"#utility.yul\":18733:18738   */\n      dup3\n        /* \"#utility.yul\":18730:18807   */\n      sub\n        /* \"#utility.yul\":18727:18830   */\n      tag_393\n      jumpi\n        /* \"#utility.yul\":18810:18828   */\n      tag_394\n      tag_195\n      jump\t// in\n    tag_394:\n        /* \"#utility.yul\":18727:18830   */\n    tag_393:\n        /* \"#utility.yul\":18857:18858   */\n      0x01\n        /* \"#utility.yul\":18850:18855   */\n      dup3\n        /* \"#utility.yul\":18846:18859   */\n      add\n        /* \"#utility.yul\":18839:18859   */\n      swap1\n      pop\n        /* \"#utility.yul\":18632:18865   */\n      swap2\n      swap1\n      pop\n      jump\t// out\n        /* \"#utility.yul\":18871:19046   */\n    tag_196:\n        /* \"#utility.yul\":19011:19038   */\n      0x68652f736865206973206e6f7420796f757220667269656e6400000000000000\n        /* \"#utility.yul\":19007:19008   */\n      0x00\n        /* \"#utility.yul\":18999:19005   */\n      dup3\n        /* \"#utility.yul\":18995:19009   */\n      add\n        /* \"#utility.yul\":18988:19039   */\n      mstore\n        /* \"#utility.yul\":18871:19046   */\n      pop\n      jump\t// out\n        /* \"#utility.yul\":19052:19418   */\n    tag_197:\n        /* \"#utility.yul\":19194:19197   */\n      0x00\n        /* \"#utility.yul\":19215:19282   */\n      tag_397\n        /* \"#utility.yul\":19279:19281   */\n      0x19\n        /* \"#utility.yul\":19274:19277   */\n      dup4\n        /* \"#utility.yul\":19215:19282   */\n      tag_165\n      jump\t// in\n    tag_397:\n        /* \"#utility.yul\":19208:19282   */\n      swap2\n      pop\n        /* \"#utility.yul\":19291:19384   */\n      tag_398\n        /* \"#utility.yul\":19380:19383   */\n      dup3\n        /* \"#utility.yul\":19291:19384   */\n      tag_196\n      jump\t// in\n    tag_398:\n        /* \"#utility.yul\":19409:19411   */\n      0x20\n        /* \"#utility.yul\":19404:19407   */\n      dup3\n        /* \"#utility.yul\":19400:19412   */\n      add\n        /* \"#utility.yul\":19393:19412   */\n      swap1\n      pop\n        /* \"#utility.yul\":19052:19418   */\n      swap2\n      swap1\n      pop\n      jump\t// out\n        /* \"#utility.yul\":19424:19843   */\n    tag_108:\n        /* \"#utility.yul\":19590:19594   */\n      0x00\n        /* \"#utility.yul\":19628:19630   */\n      0x20\n        /* \"#utility.yul\":19617:19626   */\n      dup3\n        /* \"#utility.yul\":19613:19631   */\n      add\n        /* \"#utility.yul\":19605:19631   */\n      swap1\n      pop\n        /* \"#utility.yul\":19677:19686   */\n      dup2\n        /* \"#utility.yul\":19671:19675   */\n      dup2\n        /* \"#utility.yul\":19667:19687   */\n      sub\n        /* \"#utility.yul\":19663:19664   */\n      0x00\n        /* \"#utility.yul\":19652:19661   */\n      dup4\n        /* \"#utility.yul\":19648:19665   */\n      add\n        /* \"#utility.yul\":19641:19688   */\n      mstore\n        /* \"#utility.yul\":19705:19836   */\n      tag_400\n        /* \"#utility.yul\":19831:19835   */\n      dup2\n        /* \"#utility.yul\":19705:19836   */\n      tag_197\n      jump\t// in\n    tag_400:\n        /* \"#utility.yul\":19697:19836   */\n      swap1\n      pop\n        /* \"#utility.yul\":19424:19843   */\n      swap2\n      swap1\n      pop\n      jump\t// out\n        /* \"#utility.yul\":19849:20025   */\n    tag_198:\n        /* \"#utility.yul\":19989:20017   */\n      0x796f752063616e206e6f7420626c6f636b20796f757273656c66000000000000\n        /* \"#utility.yul\":19985:19986   */\n      0x00\n        /* \"#utility.yul\":19977:19983   */\n      dup3\n        /* \"#utility.yul\":19973:19987   */\n      add\n        /* \"#utility.yul\":19966:20018   */\n      mstore\n        /* \"#utility.yul\":19849:20025   */\n      pop\n      jump\t// out\n        /* \"#utility.yul\":20031:20397   */\n    tag_199:\n        /* \"#utility.yul\":20173:20176   */\n      0x00\n        /* \"#utility.yul\":20194:20261   */\n      tag_403\n        /* \"#utility.yul\":20258:20260   */\n      0x1a\n        /* \"#utility.yul\":20253:20256   */\n      dup4\n        /* \"#utility.yul\":20194:20261   */\n      tag_165\n      jump\t// in\n    tag_403:\n        /* \"#utility.yul\":20187:20261   */\n      swap2\n      pop\n        /* \"#utility.yul\":20270:20363   */\n      tag_404\n        /* \"#utility.yul\":20359:20362   */\n      dup3\n        /* \"#utility.yul\":20270:20363   */\n      tag_198\n      jump\t// in\n    tag_404:\n        /* \"#utility.yul\":20388:20390   */\n      0x20\n        /* \"#utility.yul\":20383:20386   */\n      dup3\n        /* \"#utility.yul\":20379:20391   */\n      add\n        /* \"#utility.yul\":20372:20391   */\n      swap1\n      pop\n        /* \"#utility.yul\":20031:20397   */\n      swap2\n      swap1\n      pop\n      jump\t// out\n        /* \"#utility.yul\":20403:20822   */\n    tag_130:\n        /* \"#utility.yul\":20569:20573   */\n      0x00\n        /* \"#utility.yul\":20607:20609   */\n      0x20\n        /* \"#utility.yul\":20596:20605   */\n      dup3\n        /* \"#utility.yul\":20592:20610   */\n      add\n        /* \"#utility.yul\":20584:20610   */\n      swap1\n      pop\n        /* \"#utility.yul\":20656:20665   */\n      dup2\n        /* \"#utility.yul\":20650:20654   */\n      dup2\n        /* \"#utility.yul\":20646:20666   */\n      sub\n        /* \"#utility.yul\":20642:20643   */\n      0x00\n        /* \"#utility.yul\":20631:20640   */\n      dup4\n        /* \"#utility.yul\":20627:20644   */\n      add\n        /* \"#utility.yul\":20620:20667   */\n      mstore\n        /* \"#utility.yul\":20684:20815   */\n      tag_406\n        /* \"#utility.yul\":20810:20814   */\n      dup2\n        /* \"#utility.yul\":20684:20815   */\n      tag_199\n      jump\t// in\n    tag_406:\n        /* \"#utility.yul\":20676:20815   */\n      swap1\n      pop\n        /* \"#utility.yul\":20403:20822   */\n      swap2\n      swap1\n      pop\n      jump\t// out\n        /* \"#utility.yul\":20828:21055   */\n    tag_200:\n        /* \"#utility.yul\":20968:21002   */\n      0x796f752063616e206e6f7420626c6f636b206120757365722074686174206e6f\n        /* \"#utility.yul\":20964:20965   */\n      0x00\n        /* \"#utility.yul\":20956:20962   */\n      dup3\n        /* \"#utility.yul\":20952:20966   */\n      add\n        /* \"#utility.yul\":20945:21003   */\n      mstore\n        /* \"#utility.yul\":21037:21047   */\n      0x7420657869737473000000000000000000000000000000000000000000000000\n        /* \"#utility.yul\":21032:21034   */\n      0x20\n        /* \"#utility.yul\":21024:21030   */\n      dup3\n        /* \"#utility.yul\":21020:21035   */\n      add\n        /* \"#utility.yul\":21013:21048   */\n      mstore\n        /* \"#utility.yul\":20828:21055   */\n      pop\n      jump\t// out\n        /* \"#utility.yul\":21061:21427   */\n    tag_201:\n        /* \"#utility.yul\":21203:21206   */\n      0x00\n        /* \"#utility.yul\":21224:21291   */\n      tag_409\n        /* \"#utility.yul\":21288:21290   */\n      0x28\n        /* \"#utility.yul\":21283:21286   */\n      dup4\n        /* \"#utility.yul\":21224:21291   */\n      tag_165\n      jump\t// in\n    tag_409:\n        /* \"#utility.yul\":21217:21291   */\n      swap2\n      pop\n        /* \"#utility.yul\":21300:21393   */\n      tag_410\n        /* \"#utility.yul\":21389:21392   */\n      dup3\n        /* \"#utility.yul\":21300:21393   */\n      tag_200\n      jump\t// in\n    tag_410:\n        /* \"#utility.yul\":21418:21420   */\n      0x40\n        /* \"#utility.yul\":21413:21416   */\n      dup3\n        /* \"#utility.yul\":21409:21421   */\n      add\n        /* \"#utility.yul\":21402:21421   */\n      swap1\n      pop\n        /* \"#utility.yul\":21061:21427   */\n      swap2\n      swap1\n      pop\n      jump\t// out\n        /* \"#utility.yul\":21433:21852   */\n    tag_134:\n        /* \"#utility.yul\":21599:21603   */\n      0x00\n        /* \"#utility.yul\":21637:21639   */\n      0x20\n        /* \"#utility.yul\":21626:21635   */\n      dup3\n        /* \"#utility.yul\":21622:21640   */\n      add\n        /* \"#utility.yul\":21614:21640   */\n      swap1\n      pop\n        /* \"#utility.yul\":21686:21695   */\n      dup2\n        /* \"#utility.yul\":21680:21684   */\n      dup2\n        /* \"#utility.yul\":21676:21696   */\n      sub\n        /* \"#utility.yul\":21672:21673   */\n      0x00\n        /* \"#utility.yul\":21661:21670   */\n      dup4\n        /* \"#utility.yul\":21657:21674   */\n      add\n        /* \"#utility.yul\":21650:21697   */\n      mstore\n        /* \"#utility.yul\":21714:21845   */\n      tag_412\n        /* \"#utility.yul\":21840:21844   */\n      dup2\n        /* \"#utility.yul\":21714:21845   */\n      tag_201\n      jump\t// in\n    tag_412:\n        /* \"#utility.yul\":21706:21845   */\n      swap1\n      pop\n        /* \"#utility.yul\":21433:21852   */\n      swap2\n      swap1\n      pop\n      jump\t// out\n\n    auxdata: 0xa26469706673582212201dee3282ce4cab1dd2aba6670ce6a8d7582eb5222a4dee3e47337b2d192a114e64736f6c63430008130033\n}\n",
				"bytecode": {
					"linkReferences": {},
					"object": "6080604052604051602001620000159062000077565b604051602081830303815290604052805190602001206000553480156200003b57600080fd5b506200008e565b600081905092915050565b50565b60006200005f60008362000042565b91506200006c826200004d565b600082019050919050565b6000620000848262000050565b9150819050919050565b6122d5806200009e6000396000f3fe608060405234801561001057600080fd5b50600436106100885760003560e01c80637aafb9f21161005b5780637aafb9f21461013b5780638be03f571461016b5780638cdae20a14610189578063e905af6c146101b957610088565b8063139622581461008d5780633dcfd409146100bd57806340b2d3af146100db5780636c1a27281461010b575b600080fd5b6100a760048036038101906100a29190611730565b6101e9565b6040516100b49190611778565b60405180910390f35b6100c5610659565b6040516100d29190611851565b60405180910390f35b6100f560048036038101906100f091906119b9565b610724565b6040516101029190611778565b60405180910390f35b61012560048036038101906101209190611730565b6107ca565b6040516101329190611778565b60405180910390f35b61015560048036038101906101509190611730565b610c9f565b6040516101629190611a81565b60405180910390f35b610173610d70565b6040516101809190611851565b60405180910390f35b6101a3600480360381019061019e9190611730565b610e3b565b6040516101b09190611778565b60405180910390f35b6101d360048036038101906101ce9190611730565b611310565b6040516101e09190611778565b60405180910390f35b60003373ffffffffffffffffffffffffffffffffffffffff168273ffffffffffffffffffffffffffffffffffffffff1603610259576040517f08c379a000000000000000000000000000000000000000000000000000000000815260040161025090611b15565b60405180910390fd5b600054600160008473ffffffffffffffffffffffffffffffffffffffff1673ffffffffffffffffffffffffffffffffffffffff1681526020019081526020016000206040516020016102ab9190611c38565b6040516020818303038152906040528051906020012003610301576040517f08c379a00000000000000000000000000000000000000000000000000000000081526004016102f890611cc1565b60405180910390fd5b6000600260003373ffffffffffffffffffffffffffffffffffffffff1673ffffffffffffffffffffffffffffffffffffffff16815260200190815260200160002060008473ffffffffffffffffffffffffffffffffffffffff1673ffffffffffffffffffffffffffffffffffffffff16815260200190815260200160002060010154146103c3576040517f08c379a00000000000000000000000000000000000000000000000000000000081526004016103ba90611d2d565b60405180910390fd5b6000600460003373ffffffffffffffffffffffffffffffffffffffff1673ffffffffffffffffffffffffffffffffffffffff16815260200190815260200160002060008473ffffffffffffffffffffffffffffffffffffffff1673ffffffffffffffffffffffffffffffffffffffff168152602001908152602001600020600101541461045557610453826107ca565b505b600060405180604001604052808473ffffffffffffffffffffffffffffffffffffffff16815260200142815250905080600260003373ffffffffffffffffffffffffffffffffffffffff1673ffffffffffffffffffffffffffffffffffffffff16815260200190815260200160002060008573ffffffffffffffffffffffffffffffffffffffff1673ffffffffffffffffffffffffffffffffffffffff16815260200190815260200160002060008201518160000160006101000a81548173ffffffffffffffffffffffffffffffffffffffff021916908373ffffffffffffffffffffffffffffffffffffffff16021790555060208201518160010155905050600360003373ffffffffffffffffffffffffffffffffffffffff1673ffffffffffffffffffffffffffffffffffffffff168152602001908152602001600020839080600181540180825580915050600190039060005260206000200160009091909190916101000a81548173ffffffffffffffffffffffffffffffffffffffff021916908373ffffffffffffffffffffffffffffffffffffffff1602179055508273ffffffffffffffffffffffffffffffffffffffff163373ffffffffffffffffffffffffffffffffffffffff167f389c4d1e49da6f4f6564f4736c370e19d62ccf466d3bbd87e0495b44f89937d060405160405180910390a36001915050919050565b6060600560003373ffffffffffffffffffffffffffffffffffffffff1673ffffffffffffffffffffffffffffffffffffffff16815260200190815260200160002080548060200260200160405190810160405280929190818152602001828054801561071a57602002820191906000526020600020905b8160009054906101000a900473ffffffffffffffffffffffffffffffffffffffff1673ffffffffffffffffffffffffffffffffffffffff16815260200190600101908083116106d0575b5050505050905090565b600081600160003373ffffffffffffffffffffffffffffffffffffffff1673ffffffffffffffffffffffffffffffffffffffff16815260200190815260200160002090816107729190611eee565b503373ffffffffffffffffffffffffffffffffffffffff167f63560a6ba7ee6a7fd9c4f8de1e3a8f80fe08b22aee88fbacf030048bcc640b74836040516107b99190611a81565b60405180910390a260019050919050565b600080600460003373ffffffffffffffffffffffffffffffffffffffff1673ffffffffffffffffffffffffffffffffffffffff16815260200190815260200160002060008473ffffffffffffffffffffffffffffffffffffffff1673ffffffffffffffffffffffffffffffffffffffff168152602001908152602001600020600101540361088d576040517f08c379a00000000000000000000000000000000000000000000000000000000081526004016108849061200c565b60405180910390fd5b600460003373ffffffffffffffffffffffffffffffffffffffff1673ffffffffffffffffffffffffffffffffffffffff16815260200190815260200160002060008373ffffffffffffffffffffffffffffffffffffffff1673ffffffffffffffffffffffffffffffffffffffff168152602001908152602001600020600080820160006101000a81549073ffffffffffffffffffffffffffffffffffffffff02191690556001820160009055505060005b600560003373ffffffffffffffffffffffffffffffffffffffff1673ffffffffffffffffffffffffffffffffffffffff16815260200190815260200160002080549050811015610c94578273ffffffffffffffffffffffffffffffffffffffff16600560003373ffffffffffffffffffffffffffffffffffffffff1673ffffffffffffffffffffffffffffffffffffffff16815260200190815260200160002082815481106109f0576109ef61202c565b5b9060005260206000200160009054906101000a900473ffffffffffffffffffffffffffffffffffffffff1673ffffffffffffffffffffffffffffffffffffffff1603610c8157600560003373ffffffffffffffffffffffffffffffffffffffff1673ffffffffffffffffffffffffffffffffffffffff1681526020019081526020016000206001600560003373ffffffffffffffffffffffffffffffffffffffff1673ffffffffffffffffffffffffffffffffffffffff16815260200190815260200160002080549050610ac4919061208a565b81548110610ad557610ad461202c565b5b9060005260206000200160009054906101000a900473ffffffffffffffffffffffffffffffffffffffff16600560003373ffffffffffffffffffffffffffffffffffffffff1673ffffffffffffffffffffffffffffffffffffffff1681526020019081526020016000208281548110610b5157610b5061202c565b5b9060005260206000200160006101000a81548173ffffffffffffffffffffffffffffffffffffffff021916908373ffffffffffffffffffffffffffffffffffffffff160217905550600560003373ffffffffffffffffffffffffffffffffffffffff1673ffffffffffffffffffffffffffffffffffffffff168152602001908152602001600020805480610be857610be76120be565b5b6001900381819060005260206000200160006101000a81549073ffffffffffffffffffffffffffffffffffffffff021916905590558273ffffffffffffffffffffffffffffffffffffffff163373ffffffffffffffffffffffffffffffffffffffff167fa70f45b93a0b9d5f3fe03b6f02530661342e6a7a57c8da906f826230d2fdca4460405160405180910390a36001915050610c9a565b8080610c8c906120ed565b91505061093e565b50600090505b919050565b6060600160008373ffffffffffffffffffffffffffffffffffffffff1673ffffffffffffffffffffffffffffffffffffffff1681526020019081526020016000208054610ceb90611b64565b80601f0160208091040260200160405190810160405280929190818152602001828054610d1790611b64565b8015610d645780601f10610d3957610100808354040283529160200191610d64565b820191906000526020600020905b815481529060010190602001808311610d4757829003601f168201915b50505050509050919050565b6060600360003373ffffffffffffffffffffffffffffffffffffffff1673ffffffffffffffffffffffffffffffffffffffff168152602001908152602001600020805480602002602001604051908101604052809291908181526020018280548015610e3157602002820191906000526020600020905b8160009054906101000a900473ffffffffffffffffffffffffffffffffffffffff1673ffffffffffffffffffffffffffffffffffffffff1681526020019060010190808311610de7575b5050505050905090565b600080600260003373ffffffffffffffffffffffffffffffffffffffff1673ffffffffffffffffffffffffffffffffffffffff16815260200190815260200160002060008473ffffffffffffffffffffffffffffffffffffffff1673ffffffffffffffffffffffffffffffffffffffff1681526020019081526020016000206001015403610efe576040517f08c379a0000000000000000000000000000000000000000000000000000000008152600401610ef590612181565b60405180910390fd5b600260003373ffffffffffffffffffffffffffffffffffffffff1673ffffffffffffffffffffffffffffffffffffffff16815260200190815260200160002060008373ffffffffffffffffffffffffffffffffffffffff1673ffffffffffffffffffffffffffffffffffffffff168152602001908152602001600020600080820160006101000a81549073ffffffffffffffffffffffffffffffffffffffff02191690556001820160009055505060005b600360003373ffffffffffffffffffffffffffffffffffffffff1673ffffffffffffffffffffffffffffffffffffffff16815260200190815260200160002080549050811015611305578273ffffffffffffffffffffffffffffffffffffffff16600360003373ffffffffffffffffffffffffffffffffffffffff1673ffffffffffffffffffffffffffffffffffffffff16815260200190815260200160002082815481106110615761106061202c565b5b9060005260206000200160009054906101000a900473ffffffffffffffffffffffffffffffffffffffff1673ffffffffffffffffffffffffffffffffffffffff16036112f257600360003373ffffffffffffffffffffffffffffffffffffffff1673ffffffffffffffffffffffffffffffffffffffff1681526020019081526020016000206001600360003373ffffffffffffffffffffffffffffffffffffffff1673ffffffffffffffffffffffffffffffffffffffff16815260200190815260200160002080549050611135919061208a565b815481106111465761114561202c565b5b9060005260206000200160009054906101000a900473ffffffffffffffffffffffffffffffffffffffff16600360003373ffffffffffffffffffffffffffffffffffffffff1673ffffffffffffffffffffffffffffffffffffffff16815260200190815260200160002082815481106111c2576111c161202c565b5b9060005260206000200160006101000a81548173ffffffffffffffffffffffffffffffffffffffff021916908373ffffffffffffffffffffffffffffffffffffffff160217905550600360003373ffffffffffffffffffffffffffffffffffffffff1673ffffffffffffffffffffffffffffffffffffffff168152602001908152602001600020805480611259576112586120be565b5b6001900381819060005260206000200160006101000a81549073ffffffffffffffffffffffffffffffffffffffff021916905590558273ffffffffffffffffffffffffffffffffffffffff163373ffffffffffffffffffffffffffffffffffffffff167f11f4b134f60f4bd9f709b4ec296696385afeecc64bd4eb3ea9dfaa89bbfbb4cf60405160405180910390a3600191505061130b565b80806112fd906120ed565b915050610faf565b50600090505b919050565b60003373ffffffffffffffffffffffffffffffffffffffff168273ffffffffffffffffffffffffffffffffffffffff1603611380576040517f08c379a0000000000000000000000000000000000000000000000000000000008152600401611377906121ed565b60405180910390fd5b600054600160008473ffffffffffffffffffffffffffffffffffffffff1673ffffffffffffffffffffffffffffffffffffffff1681526020019081526020016000206040516020016113d29190611c38565b6040516020818303038152906040528051906020012003611428576040517f08c379a000000000000000000000000000000000000000000000000000000000815260040161141f9061227f565b60405180910390fd5b6000600260003373ffffffffffffffffffffffffffffffffffffffff1673ffffffffffffffffffffffffffffffffffffffff16815260200190815260200160002060008473ffffffffffffffffffffffffffffffffffffffff1673ffffffffffffffffffffffffffffffffffffffff16815260200190815260200160002060010154146114ba576114b882610e3b565b505b600060405180604001604052808473ffffffffffffffffffffffffffffffffffffffff16815260200142815250905080600460003373ffffffffffffffffffffffffffffffffffffffff1673ffffffffffffffffffffffffffffffffffffffff16815260200190815260200160002060008573ffffffffffffffffffffffffffffffffffffffff1673ffffffffffffffffffffffffffffffffffffffff16815260200190815260200160002060008201518160000160006101000a81548173ffffffffffffffffffffffffffffffffffffffff021916908373ffffffffffffffffffffffffffffffffffffffff16021790555060208201518160010155905050600560003373ffffffffffffffffffffffffffffffffffffffff1673ffffffffffffffffffffffffffffffffffffffff168152602001908152602001600020839080600181540180825580915050600190039060005260206000200160009091909190916101000a81548173ffffffffffffffffffffffffffffffffffffffff021916908373ffffffffffffffffffffffffffffffffffffffff1602179055508273ffffffffffffffffffffffffffffffffffffffff163373ffffffffffffffffffffffffffffffffffffffff167f43122fee1265880a3328f07d7ec01b1485632605d0df401ff2394fe731ac644e60405160405180910390a36001915050919050565b6000604051905090565b600080fd5b600080fd5b600073ffffffffffffffffffffffffffffffffffffffff82169050919050565b60006116fd826116d2565b9050919050565b61170d816116f2565b811461171857600080fd5b50565b60008135905061172a81611704565b92915050565b600060208284031215611746576117456116c8565b5b60006117548482850161171b565b91505092915050565b60008115159050919050565b6117728161175d565b82525050565b600060208201905061178d6000830184611769565b92915050565b600081519050919050565b600082825260208201905092915050565b6000819050602082019050919050565b6117c8816116f2565b82525050565b60006117da83836117bf565b60208301905092915050565b6000602082019050919050565b60006117fe82611793565b611808818561179e565b9350611813836117af565b8060005b8381101561184457815161182b88826117ce565b9750611836836117e6565b925050600181019050611817565b5085935050505092915050565b6000602082019050818103600083015261186b81846117f3565b905092915050565b600080fd5b600080fd5b6000601f19601f8301169050919050565b7f4e487b7100000000000000000000000000000000000000000000000000000000600052604160045260246000fd5b6118c68261187d565b810181811067ffffffffffffffff821117156118e5576118e461188e565b5b80604052505050565b60006118f86116be565b905061190482826118bd565b919050565b600067ffffffffffffffff8211156119245761192361188e565b5b61192d8261187d565b9050602081019050919050565b82818337600083830152505050565b600061195c61195784611909565b6118ee565b90508281526020810184848401111561197857611977611878565b5b61198384828561193a565b509392505050565b600082601f8301126119a05761199f611873565b5b81356119b0848260208601611949565b91505092915050565b6000602082840312156119cf576119ce6116c8565b5b600082013567ffffffffffffffff8111156119ed576119ec6116cd565b5b6119f98482850161198b565b91505092915050565b600081519050919050565b600082825260208201905092915050565b60005b83811015611a3c578082015181840152602081019050611a21565b60008484015250505050565b6000611a5382611a02565b611a5d8185611a0d565b9350611a6d818560208601611a1e565b611a768161187d565b840191505092915050565b60006020820190508181036000830152611a9b8184611a48565b905092915050565b7f796f752063616e206e6f742061646420796f757273656c66206173206120667260008201527f69656e6400000000000000000000000000000000000000000000000000000000602082015250565b6000611aff602483611a0d565b9150611b0a82611aa3565b604082019050919050565b60006020820190508181036000830152611b2e81611af2565b9050919050565b7f4e487b7100000000000000000000000000000000000000000000000000000000600052602260045260246000fd5b60006002820490506001821680611b7c57607f821691505b602082108103611b8f57611b8e611b35565b5b50919050565b600081905092915050565b60008190508160005260206000209050919050565b60008154611bc281611b64565b611bcc8186611b95565b94506001821660008114611be75760018114611bfc57611c2f565b60ff1983168652811515820286019350611c2f565b611c0585611ba0565b60005b83811015611c2757815481890152600182019150602081019050611c08565b838801955050505b50505092915050565b6000611c448284611bb5565b915081905092915050565b7f796f752063616e206e6f7420616464206120757365722074686174206861732060008201527f6e6f207075626b65790000000000000000000000000000000000000000000000602082015250565b6000611cab602983611a0d565b9150611cb682611c4f565b604082019050919050565b60006020820190508181036000830152611cda81611c9e565b9050919050565b7f68652f73686520697320796f757220667269656e6420616c7265616479000000600082015250565b6000611d17601d83611a0d565b9150611d2282611ce1565b602082019050919050565b60006020820190508181036000830152611d4681611d0a565b9050919050565b60006020601f8301049050919050565b600082821b905092915050565b600060088302611d9a7fffffffffffffffffffffffffffffffffffffffffffffffffffffffffffffffff82611d5d565b611da48683611d5d565b95508019841693508086168417925050509392505050565b6000819050919050565b6000819050919050565b6000611deb611de6611de184611dbc565b611dc6565b611dbc565b9050919050565b6000819050919050565b611e0583611dd0565b611e19611e1182611df2565b848454611d6a565b825550505050565b600090565b611e2e611e21565b611e39818484611dfc565b505050565b5b81811015611e5d57611e52600082611e26565b600181019050611e3f565b5050565b601f821115611ea257611e7381611ba0565b611e7c84611d4d565b81016020851015611e8b578190505b611e9f611e9785611d4d565b830182611e3e565b50505b505050565b600082821c905092915050565b6000611ec560001984600802611ea7565b1980831691505092915050565b6000611ede8383611eb4565b9150826002028217905092915050565b611ef782611a02565b67ffffffffffffffff811115611f1057611f0f61188e565b5b611f1a8254611b64565b611f25828285611e61565b600060209050601f831160018114611f585760008415611f46578287015190505b611f508582611ed2565b865550611fb8565b601f198416611f6686611ba0565b60005b82811015611f8e57848901518255600182019150602085019450602081019050611f69565b86831015611fab5784890151611fa7601f891682611eb4565b8355505b6001600288020188555050505b505050505050565b7f68652f736865206973206e6f7420796f757220626c6f636b206c697374000000600082015250565b6000611ff6601d83611a0d565b915061200182611fc0565b602082019050919050565b6000602082019050818103600083015261202581611fe9565b9050919050565b7f4e487b7100000000000000000000000000000000000000000000000000000000600052603260045260246000fd5b7f4e487b7100000000000000000000000000000000000000000000000000000000600052601160045260246000fd5b600061209582611dbc565b91506120a083611dbc565b92508282039050818111156120b8576120b761205b565b5b92915050565b7f4e487b7100000000000000000000000000000000000000000000000000000000600052603160045260246000fd5b60006120f882611dbc565b91507fffffffffffffffffffffffffffffffffffffffffffffffffffffffffffffffff820361212a5761212961205b565b5b600182019050919050565b7f68652f736865206973206e6f7420796f757220667269656e6400000000000000600082015250565b600061216b601983611a0d565b915061217682612135565b602082019050919050565b6000602082019050818103600083015261219a8161215e565b9050919050565b7f796f752063616e206e6f7420626c6f636b20796f757273656c66000000000000600082015250565b60006121d7601a83611a0d565b91506121e2826121a1565b602082019050919050565b60006020820190508181036000830152612206816121ca565b9050919050565b7f796f752063616e206e6f7420626c6f636b206120757365722074686174206e6f60008201527f7420657869737473000000000000000000000000000000000000000000000000602082015250565b6000612269602883611a0d565b91506122748261220d565b604082019050919050565b600060208201905081810360008301526122988161225c565b905091905056fea26469706673582212201dee3282ce4cab1dd2aba6670ce6a8d7582eb5222a4dee3e47337b2d192a114e64736f6c63430008130033",
					"opcodes": "PUSH1 0x80 PUSH1 0x40 MSTORE PUSH1 0x40 MLOAD PUSH1 0x20 ADD PUSH3 0x15 SWAP1 PUSH3 0x77 JUMP JUMPDEST PUSH1 0x40 MLOAD PUSH1 0x20 DUP2 DUP4 SUB SUB DUP2 MSTORE SWAP1 PUSH1 0x40 MSTORE DUP1 MLOAD SWAP1 PUSH1 0x20 ADD KECCAK256 PUSH1 0x0 SSTORE CALLVALUE DUP1 ISZERO PUSH3 0x3B JUMPI PUSH1 0x0 DUP1 REVERT JUMPDEST POP PUSH3 0x8E JUMP JUMPDEST PUSH1 0x0 DUP2 SWAP1 POP SWAP3 SWAP2 POP POP JUMP JUMPDEST POP JUMP JUMPDEST PUSH1 0x0 PUSH3 0x5F PUSH1 0x0 DUP4 PUSH3 0x42 JUMP JUMPDEST SWAP2 POP PUSH3 0x6C DUP3 PUSH3 0x4D JUMP JUMPDEST PUSH1 0x0 DUP3 ADD SWAP1 POP SWAP2 SWAP1 POP JUMP JUMPDEST PUSH1 0x0 PUSH3 0x84 DUP3 PUSH3 0x50 JUMP JUMPDEST SWAP2 POP DUP2 SWAP1 POP SWAP2 SWAP1 POP JUMP JUMPDEST PUSH2 0x22D5 DUP1 PUSH3 0x9E PUSH1 0x0 CODECOPY PUSH1 0x0 RETURN INVALID PUSH1 0x80 PUSH1 0x40 MSTORE CALLVALUE DUP1 ISZERO PUSH2 0x10 JUMPI PUSH1 0x0 DUP1 REVERT JUMPDEST POP PUSH1 0x4 CALLDATASIZE LT PUSH2 0x88 JUMPI PUSH1 0x0 CALLDATALOAD PUSH1 0xE0 SHR DUP1 PUSH4 0x7AAFB9F2 GT PUSH2 0x5B JUMPI DUP1 PUSH4 0x7AAFB9F2 EQ PUSH2 0x13B JUMPI DUP1 PUSH4 0x8BE03F57 EQ PUSH2 0x16B JUMPI DUP1 PUSH4 0x8CDAE20A EQ PUSH2 0x189 JUMPI DUP1 PUSH4 0xE905AF6C EQ PUSH2 0x1B9 JUMPI PUSH2 0x88 JUMP JUMPDEST DUP1 PUSH4 0x13962258 EQ PUSH2 0x8D JUMPI DUP1 PUSH4 0x3DCFD409 EQ PUSH2 0xBD JUMPI DUP1 PUSH4 0x40B2D3AF EQ PUSH2 0xDB JUMPI DUP1 PUSH4 0x6C1A2728 EQ PUSH2 0x10B JUMPI JUMPDEST PUSH1 0x0 DUP1 REVERT JUMPDEST PUSH2 0xA7 PUSH1 0x4 DUP1 CALLDATASIZE SUB DUP2 ADD SWAP1 PUSH2 0xA2 SWAP2 SWAP1 PUSH2 0x1730 JUMP JUMPDEST PUSH2 0x1E9 JUMP JUMPDEST PUSH1 0x40 MLOAD PUSH2 0xB4 SWAP2 SWAP1 PUSH2 0x1778 JUMP JUMPDEST PUSH1 0x40 MLOAD DUP1 SWAP2 SUB SWAP1 RETURN JUMPDEST PUSH2 0xC5 PUSH2 0x659 JUMP JUMPDEST PUSH1 0x40 MLOAD PUSH2 0xD2 SWAP2 SWAP1 PUSH2 0x1851 JUMP JUMPDEST PUSH1 0x40 MLOAD DUP1 SWAP2 SUB SWAP1 RETURN JUMPDEST PUSH2 0xF5 PUSH1 0x4 DUP1 CALLDATASIZE SUB DUP2 ADD SWAP1 PUSH2 0xF0 SWAP2 SWAP1 PUSH2 0x19B9 JUMP JUMPDEST PUSH2 0x724 JUMP JUMPDEST PUSH1 0x40 MLOAD PUSH2 0x102 SWAP2 SWAP1 PUSH2 0x1778 JUMP JUMPDEST PUSH1 0x40 MLOAD DUP1 SWAP2 SUB SWAP1 RETURN JUMPDEST PUSH2 0x125 PUSH1 0x4 DUP1 CALLDATASIZE SUB DUP2 ADD SWAP1 PUSH2 0x120 SWAP2 SWAP1 PUSH2 0x1730 JUMP JUMPDEST PUSH2 0x7CA JUMP JUMPDEST PUSH1 0x40 MLOAD PUSH2 0x132 SWAP2 SWAP1 PUSH2 0x1778 JUMP JUMPDEST PUSH1 0x40 MLOAD DUP1 SWAP2 SUB SWAP1 RETURN JUMPDEST PUSH2 0x155 PUSH1 0x4 DUP1 CALLDATASIZE SUB DUP2 ADD SWAP1 PUSH2 0x150 SWAP2 SWAP1 PUSH2 0x1730 JUMP JUMPDEST PUSH2 0xC9F JUMP JUMPDEST PUSH1 0x40 MLOAD PUSH2 0x162 SWAP2 SWAP1 PUSH2 0x1A81 JUMP JUMPDEST PUSH1 0x40 MLOAD DUP1 SWAP2 SUB SWAP1 RETURN JUMPDEST PUSH2 0x173 PUSH2 0xD70 JUMP JUMPDEST PUSH1 0x40 MLOAD PUSH2 0x180 SWAP2 SWAP1 PUSH2 0x1851 JUMP JUMPDEST PUSH1 0x40 MLOAD DUP1 SWAP2 SUB SWAP1 RETURN JUMPDEST PUSH2 0x1A3 PUSH1 0x4 DUP1 CALLDATASIZE SUB DUP2 ADD SWAP1 PUSH2 0x19E SWAP2 SWAP1 PUSH2 0x1730 JUMP JUMPDEST PUSH2 0xE3B JUMP JUMPDEST PUSH1 0x40 MLOAD PUSH2 0x1B0 SWAP2 SWAP1 PUSH2 0x1778 JUMP JUMPDEST PUSH1 0x40 MLOAD DUP1 SWAP2 SUB SWAP1 RETURN JUMPDEST PUSH2 0x1D3 PUSH1 0x4 DUP1 CALLDATASIZE SUB DUP2 ADD SWAP1 PUSH2 0x1CE SWAP2 SWAP1 PUSH2 0x1730 JUMP JUMPDEST PUSH2 0x1310 JUMP JUMPDEST PUSH1 0x40 MLOAD PUSH2 0x1E0 SWAP2 SWAP1 PUSH2 0x1778 JUMP JUMPDEST PUSH1 0x40 MLOAD DUP1 SWAP2 SUB SWAP1 RETURN JUMPDEST PUSH1 0x0 CALLER PUSH20 0xFFFFFFFFFFFFFFFFFFFFFFFFFFFFFFFFFFFFFFFF AND DUP3 PUSH20 0xFFFFFFFFFFFFFFFFFFFFFFFFFFFFFFFFFFFFFFFF AND SUB PUSH2 0x259 JUMPI PUSH1 0x40 MLOAD PUSH32 0x8C379A000000000000000000000000000000000000000000000000000000000 DUP2 MSTORE PUSH1 0x4 ADD PUSH2 0x250 SWAP1 PUSH2 0x1B15 JUMP JUMPDEST PUSH1 0x40 MLOAD DUP1 SWAP2 SUB SWAP1 REVERT JUMPDEST PUSH1 0x0 SLOAD PUSH1 0x1 PUSH1 0x0 DUP5 PUSH20 0xFFFFFFFFFFFFFFFFFFFFFFFFFFFFFFFFFFFFFFFF AND PUSH20 0xFFFFFFFFFFFFFFFFFFFFFFFFFFFFFFFFFFFFFFFF AND DUP2 MSTORE PUSH1 0x20 ADD SWAP1 DUP2 MSTORE PUSH1 0x20 ADD PUSH1 0x0 KECCAK256 PUSH1 0x40 MLOAD PUSH1 0x20 ADD PUSH2 0x2AB SWAP2 SWAP1 PUSH2 0x1C38 JUMP JUMPDEST PUSH1 0x40 MLOAD PUSH1 0x20 DUP2 DUP4 SUB SUB DUP2 MSTORE SWAP1 PUSH1 0x40 MSTORE DUP1 MLOAD SWAP1 PUSH1 0x20 ADD KECCAK256 SUB PUSH2 0x301 JUMPI PUSH1 0x40 MLOAD PUSH32 0x8C379A000000000000000000000000000000000000000000000000000000000 DUP2 MSTORE PUSH1 0x4 ADD PUSH2 0x2F8 SWAP1 PUSH2 0x1CC1 JUMP JUMPDEST PUSH1 0x40 MLOAD DUP1 SWAP2 SUB SWAP1 REVERT JUMPDEST PUSH1 0x0 PUSH1 0x2 PUSH1 0x0 CALLER PUSH20 0xFFFFFFFFFFFFFFFFFFFFFFFFFFFFFFFFFFFFFFFF AND PUSH20 0xFFFFFFFFFFFFFFFFFFFFFFFFFFFFFFFFFFFFFFFF AND DUP2 MSTORE PUSH1 0x20 ADD SWAP1 DUP2 MSTORE PUSH1 0x20 ADD PUSH1 0x0 KECCAK256 PUSH1 0x0 DUP5 PUSH20 0xFFFFFFFFFFFFFFFFFFFFFFFFFFFFFFFFFFFFFFFF AND PUSH20 0xFFFFFFFFFFFFFFFFFFFFFFFFFFFFFFFFFFFFFFFF AND DUP2 MSTORE PUSH1 0x20 ADD SWAP1 DUP2 MSTORE PUSH1 0x20 ADD PUSH1 0x0 KECCAK256 PUSH1 0x1 ADD SLOAD EQ PUSH2 0x3C3 JUMPI PUSH1 0x40 MLOAD PUSH32 0x8C379A000000000000000000000000000000000000000000000000000000000 DUP2 MSTORE PUSH1 0x4 ADD PUSH2 0x3BA SWAP1 PUSH2 0x1D2D JUMP JUMPDEST PUSH1 0x40 MLOAD DUP1 SWAP2 SUB SWAP1 REVERT JUMPDEST PUSH1 0x0 PUSH1 0x4 PUSH1 0x0 CALLER PUSH20 0xFFFFFFFFFFFFFFFFFFFFFFFFFFFFFFFFFFFFFFFF AND PUSH20 0xFFFFFFFFFFFFFFFFFFFFFFFFFFFFFFFFFFFFFFFF AND DUP2 MSTORE PUSH1 0x20 ADD SWAP1 DUP2 MSTORE PUSH1 0x20 ADD PUSH1 0x0 KECCAK256 PUSH1 0x0 DUP5 PUSH20 0xFFFFFFFFFFFFFFFFFFFFFFFFFFFFFFFFFFFFFFFF AND PUSH20 0xFFFFFFFFFFFFFFFFFFFFFFFFFFFFFFFFFFFFFFFF AND DUP2 MSTORE PUSH1 0x20 ADD SWAP1 DUP2 MSTORE PUSH1 0x20 ADD PUSH1 0x0 KECCAK256 PUSH1 0x1 ADD SLOAD EQ PUSH2 0x455 JUMPI PUSH2 0x453 DUP3 PUSH2 0x7CA JUMP JUMPDEST POP JUMPDEST PUSH1 0x0 PUSH1 0x40 MLOAD DUP1 PUSH1 0x40 ADD PUSH1 0x40 MSTORE DUP1 DUP5 PUSH20 0xFFFFFFFFFFFFFFFFFFFFFFFFFFFFFFFFFFFFFFFF AND DUP2 MSTORE PUSH1 0x20 ADD TIMESTAMP DUP2 MSTORE POP SWAP1 POP DUP1 PUSH1 0x2 PUSH1 0x0 CALLER PUSH20 0xFFFFFFFFFFFFFFFFFFFFFFFFFFFFFFFFFFFFFFFF AND PUSH20 0xFFFFFFFFFFFFFFFFFFFFFFFFFFFFFFFFFFFFFFFF AND DUP2 MSTORE PUSH1 0x20 ADD SWAP1 DUP2 MSTORE PUSH1 0x20 ADD PUSH1 0x0 KECCAK256 PUSH1 0x0 DUP6 PUSH20 0xFFFFFFFFFFFFFFFFFFFFFFFFFFFFFFFFFFFFFFFF AND PUSH20 0xFFFFFFFFFFFFFFFFFFFFFFFFFFFFFFFFFFFFFFFF AND DUP2 MSTORE PUSH1 0x20 ADD SWAP1 DUP2 MSTORE PUSH1 0x20 ADD PUSH1 0x0 KECCAK256 PUSH1 0x0 DUP3 ADD MLOAD DUP2 PUSH1 0x0 ADD PUSH1 0x0 PUSH2 0x100 EXP DUP2 SLOAD DUP2 PUSH20 0xFFFFFFFFFFFFFFFFFFFFFFFFFFFFFFFFFFFFFFFF MUL NOT AND SWAP1 DUP4 PUSH20 0xFFFFFFFFFFFFFFFFFFFFFFFFFFFFFFFFFFFFFFFF AND MUL OR SWAP1 SSTORE POP PUSH1 0x20 DUP3 ADD MLOAD DUP2 PUSH1 0x1 ADD SSTORE SWAP1 POP POP PUSH1 0x3 PUSH1 0x0 CALLER PUSH20 0xFFFFFFFFFFFFFFFFFFFFFFFFFFFFFFFFFFFFFFFF AND PUSH20 0xFFFFFFFFFFFFFFFFFFFFFFFFFFFFFFFFFFFFFFFF AND DUP2 MSTORE PUSH1 0x20 ADD SWAP1 DUP2 MSTORE PUSH1 0x20 ADD PUSH1 0x0 KECCAK256 DUP4 SWAP1 DUP1 PUSH1 0x1 DUP2 SLOAD ADD DUP1 DUP3 SSTORE DUP1 SWAP2 POP POP PUSH1 0x1 SWAP1 SUB SWAP1 PUSH1 0x0 MSTORE PUSH1 0x20 PUSH1 0x0 KECCAK256 ADD PUSH1 0x0 SWAP1 SWAP2 SWAP1 SWAP2 SWAP1 SWAP2 PUSH2 0x100 EXP DUP2 SLOAD DUP2 PUSH20 0xFFFFFFFFFFFFFFFFFFFFFFFFFFFFFFFFFFFFFFFF MUL NOT AND SWAP1 DUP4 PUSH20 0xFFFFFFFFFFFFFFFFFFFFFFFFFFFFFFFFFFFFFFFF AND MUL OR SWAP1 SSTORE POP DUP3 PUSH20 0xFFFFFFFFFFFFFFFFFFFFFFFFFFFFFFFFFFFFFFFF AND CALLER PUSH20 0xFFFFFFFFFFFFFFFFFFFFFFFFFFFFFFFFFFFFFFFF AND PUSH32 0x389C4D1E49DA6F4F6564F4736C370E19D62CCF466D3BBD87E0495B44F89937D0 PUSH1 0x40 MLOAD PUSH1 0x40 MLOAD DUP1 SWAP2 SUB SWAP1 LOG3 PUSH1 0x1 SWAP2 POP POP SWAP2 SWAP1 POP JUMP JUMPDEST PUSH1 0x60 PUSH1 0x5 PUSH1 0x0 CALLER PUSH20 0xFFFFFFFFFFFFFFFFFFFFFFFFFFFFFFFFFFFFFFFF AND PUSH20 0xFFFFFFFFFFFFFFFFFFFFFFFFFFFFFFFFFFFFFFFF AND DUP2 MSTORE PUSH1 0x20 ADD SWAP1 DUP2 MSTORE PUSH1 0x20 ADD PUSH1 0x0 KECCAK256 DUP1 SLOAD DUP1 PUSH1 0x20 MUL PUSH1 0x20 ADD PUSH1 0x40 MLOAD SWAP1 DUP2 ADD PUSH1 0x40 MSTORE DUP1 SWAP3 SWAP2 SWAP1 DUP2 DUP2 MSTORE PUSH1 0x20 ADD DUP3 DUP1 SLOAD DUP1 ISZERO PUSH2 0x71A JUMPI PUSH1 0x20 MUL DUP3 ADD SWAP2 SWAP1 PUSH1 0x0 MSTORE PUSH1 0x20 PUSH1 0x0 KECCAK256 SWAP1 JUMPDEST DUP2 PUSH1 0x0 SWAP1 SLOAD SWAP1 PUSH2 0x100 EXP SWAP1 DIV PUSH20 0xFFFFFFFFFFFFFFFFFFFFFFFFFFFFFFFFFFFFFFFF AND PUSH20 0xFFFFFFFFFFFFFFFFFFFFFFFFFFFFFFFFFFFFFFFF AND DUP2 MSTORE PUSH1 0x20 ADD SWAP1 PUSH1 0x1 ADD SWAP1 DUP1 DUP4 GT PUSH2 0x6D0 JUMPI JUMPDEST POP POP POP POP POP SWAP1 POP SWAP1 JUMP JUMPDEST PUSH1 0x0 DUP2 PUSH1 0x1 PUSH1 0x0 CALLER PUSH20 0xFFFFFFFFFFFFFFFFFFFFFFFFFFFFFFFFFFFFFFFF AND PUSH20 0xFFFFFFFFFFFFFFFFFFFFFFFFFFFFFFFFFFFFFFFF AND DUP2 MSTORE PUSH1 0x20 ADD SWAP1 DUP2 MSTORE PUSH1 0x20 ADD PUSH1 0x0 KECCAK256 SWAP1 DUP2 PUSH2 0x772 SWAP2 SWAP1 PUSH2 0x1EEE JUMP JUMPDEST POP CALLER PUSH20 0xFFFFFFFFFFFFFFFFFFFFFFFFFFFFFFFFFFFFFFFF AND PUSH32 0x63560A6BA7EE6A7FD9C4F8DE1E3A8F80FE08B22AEE88FBACF030048BCC640B74 DUP4 PUSH1 0x40 MLOAD PUSH2 0x7B9 SWAP2 SWAP1 PUSH2 0x1A81 JUMP JUMPDEST PUSH1 0x40 MLOAD DUP1 SWAP2 SUB SWAP1 LOG2 PUSH1 0x1 SWAP1 POP SWAP2 SWAP1 POP JUMP JUMPDEST PUSH1 0x0 DUP1 PUSH1 0x4 PUSH1 0x0 CALLER PUSH20 0xFFFFFFFFFFFFFFFFFFFFFFFFFFFFFFFFFFFFFFFF AND PUSH20 0xFFFFFFFFFFFFFFFFFFFFFFFFFFFFFFFFFFFFFFFF AND DUP2 MSTORE PUSH1 0x20 ADD SWAP1 DUP2 MSTORE PUSH1 0x20 ADD PUSH1 0x0 KECCAK256 PUSH1 0x0 DUP5 PUSH20 0xFFFFFFFFFFFFFFFFFFFFFFFFFFFFFFFFFFFFFFFF AND PUSH20 0xFFFFFFFFFFFFFFFFFFFFFFFFFFFFFFFFFFFFFFFF AND DUP2 MSTORE PUSH1 0x20 ADD SWAP1 DUP2 MSTORE PUSH1 0x20 ADD PUSH1 0x0 KECCAK256 PUSH1 0x1 ADD SLOAD SUB PUSH2 0x88D JUMPI PUSH1 0x40 MLOAD PUSH32 0x8C379A000000000000000000000000000000000000000000000000000000000 DUP2 MSTORE PUSH1 0x4 ADD PUSH2 0x884 SWAP1 PUSH2 0x200C JUMP JUMPDEST PUSH1 0x40 MLOAD DUP1 SWAP2 SUB SWAP1 REVERT JUMPDEST PUSH1 0x4 PUSH1 0x0 CALLER PUSH20 0xFFFFFFFFFFFFFFFFFFFFFFFFFFFFFFFFFFFFFFFF AND PUSH20 0xFFFFFFFFFFFFFFFFFFFFFFFFFFFFFFFFFFFFFFFF AND DUP2 MSTORE PUSH1 0x20 ADD SWAP1 DUP2 MSTORE PUSH1 0x20 ADD PUSH1 0x0 KECCAK256 PUSH1 0x0 DUP4 PUSH20 0xFFFFFFFFFFFFFFFFFFFFFFFFFFFFFFFFFFFFFFFF AND PUSH20 0xFFFFFFFFFFFFFFFFFFFFFFFFFFFFFFFFFFFFFFFF AND DUP2 MSTORE PUSH1 0x20 ADD SWAP1 DUP2 MSTORE PUSH1 0x20 ADD PUSH1 0x0 KECCAK256 PUSH1 0x0 DUP1 DUP3 ADD PUSH1 0x0 PUSH2 0x100 EXP DUP2 SLOAD SWAP1 PUSH20 0xFFFFFFFFFFFFFFFFFFFFFFFFFFFFFFFFFFFFFFFF MUL NOT AND SWAP1 SSTORE PUSH1 0x1 DUP3 ADD PUSH1 0x0 SWAP1 SSTORE POP POP PUSH1 0x0 JUMPDEST PUSH1 0x5 PUSH1 0x0 CALLER PUSH20 0xFFFFFFFFFFFFFFFFFFFFFFFFFFFFFFFFFFFFFFFF AND PUSH20 0xFFFFFFFFFFFFFFFFFFFFFFFFFFFFFFFFFFFFFFFF AND DUP2 MSTORE PUSH1 0x20 ADD SWAP1 DUP2 MSTORE PUSH1 0x20 ADD PUSH1 0x0 KECCAK256 DUP1 SLOAD SWAP1 POP DUP2 LT ISZERO PUSH2 0xC94 JUMPI DUP3 PUSH20 0xFFFFFFFFFFFFFFFFFFFFFFFFFFFFFFFFFFFFFFFF AND PUSH1 0x5 PUSH1 0x0 CALLER PUSH20 0xFFFFFFFFFFFFFFFFFFFFFFFFFFFFFFFFFFFFFFFF AND PUSH20 0xFFFFFFFFFFFFFFFFFFFFFFFFFFFFFFFFFFFFFFFF AND DUP2 MSTORE PUSH1 0x20 ADD SWAP1 DUP2 MSTORE PUSH1 0x20 ADD PUSH1 0x0 KECCAK256 DUP3 DUP2 SLOAD DUP2 LT PUSH2 0x9F0 JUMPI PUSH2 0x9EF PUSH2 0x202C JUMP JUMPDEST JUMPDEST SWAP1 PUSH1 0x0 MSTORE PUSH1 0x20 PUSH1 0x0 KECCAK256 ADD PUSH1 0x0 SWAP1 SLOAD SWAP1 PUSH2 0x100 EXP SWAP1 DIV PUSH20 0xFFFFFFFFFFFFFFFFFFFFFFFFFFFFFFFFFFFFFFFF AND PUSH20 0xFFFFFFFFFFFFFFFFFFFFFFFFFFFFFFFFFFFFFFFF AND SUB PUSH2 0xC81 JUMPI PUSH1 0x5 PUSH1 0x0 CALLER PUSH20 0xFFFFFFFFFFFFFFFFFFFFFFFFFFFFFFFFFFFFFFFF AND PUSH20 0xFFFFFFFFFFFFFFFFFFFFFFFFFFFFFFFFFFFFFFFF AND DUP2 MSTORE PUSH1 0x20 ADD SWAP1 DUP2 MSTORE PUSH1 0x20 ADD PUSH1 0x0 KECCAK256 PUSH1 0x1 PUSH1 0x5 PUSH1 0x0 CALLER PUSH20 0xFFFFFFFFFFFFFFFFFFFFFFFFFFFFFFFFFFFFFFFF AND PUSH20 0xFFFFFFFFFFFFFFFFFFFFFFFFFFFFFFFFFFFFFFFF AND DUP2 MSTORE PUSH1 0x20 ADD SWAP1 DUP2 MSTORE PUSH1 0x20 ADD PUSH1 0x0 KECCAK256 DUP1 SLOAD SWAP1 POP PUSH2 0xAC4 SWAP2 SWAP1 PUSH2 0x208A JUMP JUMPDEST DUP2 SLOAD DUP2 LT PUSH2 0xAD5 JUMPI PUSH2 0xAD4 PUSH2 0x202C JUMP JUMPDEST JUMPDEST SWAP1 PUSH1 0x0 MSTORE PUSH1 0x20 PUSH1 0x0 KECCAK256 ADD PUSH1 0x0 SWAP1 SLOAD SWAP1 PUSH2 0x100 EXP SWAP1 DIV PUSH20 0xFFFFFFFFFFFFFFFFFFFFFFFFFFFFFFFFFFFFFFFF AND PUSH1 0x5 PUSH1 0x0 CALLER PUSH20 0xFFFFFFFFFFFFFFFFFFFFFFFFFFFFFFFFFFFFFFFF AND PUSH20 0xFFFFFFFFFFFFFFFFFFFFFFFFFFFFFFFFFFFFFFFF AND DUP2 MSTORE PUSH1 0x20 ADD SWAP1 DUP2 MSTORE PUSH1 0x20 ADD PUSH1 0x0 KECCAK256 DUP3 DUP2 SLOAD DUP2 LT PUSH2 0xB51 JUMPI PUSH2 0xB50 PUSH2 0x202C JUMP JUMPDEST JUMPDEST SWAP1 PUSH1 0x0 MSTORE PUSH1 0x20 PUSH1 0x0 KECCAK256 ADD PUSH1 0x0 PUSH2 0x100 EXP DUP2 SLOAD DUP2 PUSH20 0xFFFFFFFFFFFFFFFFFFFFFFFFFFFFFFFFFFFFFFFF MUL NOT AND SWAP1 DUP4 PUSH20 0xFFFFFFFFFFFFFFFFFFFFFFFFFFFFFFFFFFFFFFFF AND MUL OR SWAP1 SSTORE POP PUSH1 0x5 PUSH1 0x0 CALLER PUSH20 0xFFFFFFFFFFFFFFFFFFFFFFFFFFFFFFFFFFFFFFFF AND PUSH20 0xFFFFFFFFFFFFFFFFFFFFFFFFFFFFFFFFFFFFFFFF AND DUP2 MSTORE PUSH1 0x20 ADD SWAP1 DUP2 MSTORE PUSH1 0x20 ADD PUSH1 0x0 KECCAK256 DUP1 SLOAD DUP1 PUSH2 0xBE8 JUMPI PUSH2 0xBE7 PUSH2 0x20BE JUMP JUMPDEST JUMPDEST PUSH1 0x1 SWAP1 SUB DUP2 DUP2 SWAP1 PUSH1 0x0 MSTORE PUSH1 0x20 PUSH1 0x0 KECCAK256 ADD PUSH1 0x0 PUSH2 0x100 EXP DUP2 SLOAD SWAP1 PUSH20 0xFFFFFFFFFFFFFFFFFFFFFFFFFFFFFFFFFFFFFFFF MUL NOT AND SWAP1 SSTORE SWAP1 SSTORE DUP3 PUSH20 0xFFFFFFFFFFFFFFFFFFFFFFFFFFFFFFFFFFFFFFFF AND CALLER PUSH20 0xFFFFFFFFFFFFFFFFFFFFFFFFFFFFFFFFFFFFFFFF AND PUSH32 0xA70F45B93A0B9D5F3FE03B6F02530661342E6A7A57C8DA906F826230D2FDCA44 PUSH1 0x40 MLOAD PUSH1 0x40 MLOAD DUP1 SWAP2 SUB SWAP1 LOG3 PUSH1 0x1 SWAP2 POP POP PUSH2 0xC9A JUMP JUMPDEST DUP1 DUP1 PUSH2 0xC8C SWAP1 PUSH2 0x20ED JUMP JUMPDEST SWAP2 POP POP PUSH2 0x93E JUMP JUMPDEST POP PUSH1 0x0 SWAP1 POP JUMPDEST SWAP2 SWAP1 POP JUMP JUMPDEST PUSH1 0x60 PUSH1 0x1 PUSH1 0x0 DUP4 PUSH20 0xFFFFFFFFFFFFFFFFFFFFFFFFFFFFFFFFFFFFFFFF AND PUSH20 0xFFFFFFFFFFFFFFFFFFFFFFFFFFFFFFFFFFFFFFFF AND DUP2 MSTORE PUSH1 0x20 ADD SWAP1 DUP2 MSTORE PUSH1 0x20 ADD PUSH1 0x0 KECCAK256 DUP1 SLOAD PUSH2 0xCEB SWAP1 PUSH2 0x1B64 JUMP JUMPDEST DUP1 PUSH1 0x1F ADD PUSH1 0x20 DUP1 SWAP2 DIV MUL PUSH1 0x20 ADD PUSH1 0x40 MLOAD SWAP1 DUP2 ADD PUSH1 0x40 MSTORE DUP1 SWAP3 SWAP2 SWAP1 DUP2 DUP2 MSTORE PUSH1 0x20 ADD DUP3 DUP1 SLOAD PUSH2 0xD17 SWAP1 PUSH2 0x1B64 JUMP JUMPDEST DUP1 ISZERO PUSH2 0xD64 JUMPI DUP1 PUSH1 0x1F LT PUSH2 0xD39 JUMPI PUSH2 0x100 DUP1 DUP4 SLOAD DIV MUL DUP4 MSTORE SWAP2 PUSH1 0x20 ADD SWAP2 PUSH2 0xD64 JUMP JUMPDEST DUP3 ADD SWAP2 SWAP1 PUSH1 0x0 MSTORE PUSH1 0x20 PUSH1 0x0 KECCAK256 SWAP1 JUMPDEST DUP2 SLOAD DUP2 MSTORE SWAP1 PUSH1 0x1 ADD SWAP1 PUSH1 0x20 ADD DUP1 DUP4 GT PUSH2 0xD47 JUMPI DUP3 SWAP1 SUB PUSH1 0x1F AND DUP3 ADD SWAP2 JUMPDEST POP POP POP POP POP SWAP1 POP SWAP2 SWAP1 POP JUMP JUMPDEST PUSH1 0x60 PUSH1 0x3 PUSH1 0x0 CALLER PUSH20 0xFFFFFFFFFFFFFFFFFFFFFFFFFFFFFFFFFFFFFFFF AND PUSH20 0xFFFFFFFFFFFFFFFFFFFFFFFFFFFFFFFFFFFFFFFF AND DUP2 MSTORE PUSH1 0x20 ADD SWAP1 DUP2 MSTORE PUSH1 0x20 ADD PUSH1 0x0 KECCAK256 DUP1 SLOAD DUP1 PUSH1 0x20 MUL PUSH1 0x20 ADD PUSH1 0x40 MLOAD SWAP1 DUP2 ADD PUSH1 0x40 MSTORE DUP1 SWAP3 SWAP2 SWAP1 DUP2 DUP2 MSTORE PUSH1 0x20 ADD DUP3 DUP1 SLOAD DUP1 ISZERO PUSH2 0xE31 JUMPI PUSH1 0x20 MUL DUP3 ADD SWAP2 SWAP1 PUSH1 0x0 MSTORE PUSH1 0x20 PUSH1 0x0 KECCAK256 SWAP1 JUMPDEST DUP2 PUSH1 0x0 SWAP1 SLOAD SWAP1 PUSH2 0x100 EXP SWAP1 DIV PUSH20 0xFFFFFFFFFFFFFFFFFFFFFFFFFFFFFFFFFFFFFFFF AND PUSH20 0xFFFFFFFFFFFFFFFFFFFFFFFFFFFFFFFFFFFFFFFF AND DUP2 MSTORE PUSH1 0x20 ADD SWAP1 PUSH1 0x1 ADD SWAP1 DUP1 DUP4 GT PUSH2 0xDE7 JUMPI JUMPDEST POP POP POP POP POP SWAP1 POP SWAP1 JUMP JUMPDEST PUSH1 0x0 DUP1 PUSH1 0x2 PUSH1 0x0 CALLER PUSH20 0xFFFFFFFFFFFFFFFFFFFFFFFFFFFFFFFFFFFFFFFF AND PUSH20 0xFFFFFFFFFFFFFFFFFFFFFFFFFFFFFFFFFFFFFFFF AND DUP2 MSTORE PUSH1 0x20 ADD SWAP1 DUP2 MSTORE PUSH1 0x20 ADD PUSH1 0x0 KECCAK256 PUSH1 0x0 DUP5 PUSH20 0xFFFFFFFFFFFFFFFFFFFFFFFFFFFFFFFFFFFFFFFF AND PUSH20 0xFFFFFFFFFFFFFFFFFFFFFFFFFFFFFFFFFFFFFFFF AND DUP2 MSTORE PUSH1 0x20 ADD SWAP1 DUP2 MSTORE PUSH1 0x20 ADD PUSH1 0x0 KECCAK256 PUSH1 0x1 ADD SLOAD SUB PUSH2 0xEFE JUMPI PUSH1 0x40 MLOAD PUSH32 0x8C379A000000000000000000000000000000000000000000000000000000000 DUP2 MSTORE PUSH1 0x4 ADD PUSH2 0xEF5 SWAP1 PUSH2 0x2181 JUMP JUMPDEST PUSH1 0x40 MLOAD DUP1 SWAP2 SUB SWAP1 REVERT JUMPDEST PUSH1 0x2 PUSH1 0x0 CALLER PUSH20 0xFFFFFFFFFFFFFFFFFFFFFFFFFFFFFFFFFFFFFFFF AND PUSH20 0xFFFFFFFFFFFFFFFFFFFFFFFFFFFFFFFFFFFFFFFF AND DUP2 MSTORE PUSH1 0x20 ADD SWAP1 DUP2 MSTORE PUSH1 0x20 ADD PUSH1 0x0 KECCAK256 PUSH1 0x0 DUP4 PUSH20 0xFFFFFFFFFFFFFFFFFFFFFFFFFFFFFFFFFFFFFFFF AND PUSH20 0xFFFFFFFFFFFFFFFFFFFFFFFFFFFFFFFFFFFFFFFF AND DUP2 MSTORE PUSH1 0x20 ADD SWAP1 DUP2 MSTORE PUSH1 0x20 ADD PUSH1 0x0 KECCAK256 PUSH1 0x0 DUP1 DUP3 ADD PUSH1 0x0 PUSH2 0x100 EXP DUP2 SLOAD SWAP1 PUSH20 0xFFFFFFFFFFFFFFFFFFFFFFFFFFFFFFFFFFFFFFFF MUL NOT AND SWAP1 SSTORE PUSH1 0x1 DUP3 ADD PUSH1 0x0 SWAP1 SSTORE POP POP PUSH1 0x0 JUMPDEST PUSH1 0x3 PUSH1 0x0 CALLER PUSH20 0xFFFFFFFFFFFFFFFFFFFFFFFFFFFFFFFFFFFFFFFF AND PUSH20 0xFFFFFFFFFFFFFFFFFFFFFFFFFFFFFFFFFFFFFFFF AND DUP2 MSTORE PUSH1 0x20 ADD SWAP1 DUP2 MSTORE PUSH1 0x20 ADD PUSH1 0x0 KECCAK256 DUP1 SLOAD SWAP1 POP DUP2 LT ISZERO PUSH2 0x1305 JUMPI DUP3 PUSH20 0xFFFFFFFFFFFFFFFFFFFFFFFFFFFFFFFFFFFFFFFF AND PUSH1 0x3 PUSH1 0x0 CALLER PUSH20 0xFFFFFFFFFFFFFFFFFFFFFFFFFFFFFFFFFFFFFFFF AND PUSH20 0xFFFFFFFFFFFFFFFFFFFFFFFFFFFFFFFFFFFFFFFF AND DUP2 MSTORE PUSH1 0x20 ADD SWAP1 DUP2 MSTORE PUSH1 0x20 ADD PUSH1 0x0 KECCAK256 DUP3 DUP2 SLOAD DUP2 LT PUSH2 0x1061 JUMPI PUSH2 0x1060 PUSH2 0x202C JUMP JUMPDEST JUMPDEST SWAP1 PUSH1 0x0 MSTORE PUSH1 0x20 PUSH1 0x0 KECCAK256 ADD PUSH1 0x0 SWAP1 SLOAD SWAP1 PUSH2 0x100 EXP SWAP1 DIV PUSH20 0xFFFFFFFFFFFFFFFFFFFFFFFFFFFFFFFFFFFFFFFF AND PUSH20 0xFFFFFFFFFFFFFFFFFFFFFFFFFFFFFFFFFFFFFFFF AND SUB PUSH2 0x12F2 JUMPI PUSH1 0x3 PUSH1 0x0 CALLER PUSH20 0xFFFFFFFFFFFFFFFFFFFFFFFFFFFFFFFFFFFFFFFF AND PUSH20 0xFFFFFFFFFFFFFFFFFFFFFFFFFFFFFFFFFFFFFFFF AND DUP2 MSTORE PUSH1 0x20 ADD SWAP1 DUP2 MSTORE PUSH1 0x20 ADD PUSH1 0x0 KECCAK256 PUSH1 0x1 PUSH1 0x3 PUSH1 0x0 CALLER PUSH20 0xFFFFFFFFFFFFFFFFFFFFFFFFFFFFFFFFFFFFFFFF AND PUSH20 0xFFFFFFFFFFFFFFFFFFFFFFFFFFFFFFFFFFFFFFFF AND DUP2 MSTORE PUSH1 0x20 ADD SWAP1 DUP2 MSTORE PUSH1 0x20 ADD PUSH1 0x0 KECCAK256 DUP1 SLOAD SWAP1 POP PUSH2 0x1135 SWAP2 SWAP1 PUSH2 0x208A JUMP JUMPDEST DUP2 SLOAD DUP2 LT PUSH2 0x1146 JUMPI PUSH2 0x1145 PUSH2 0x202C JUMP JUMPDEST JUMPDEST SWAP1 PUSH1 0x0 MSTORE PUSH1 0x20 PUSH1 0x0 KECCAK256 ADD PUSH1 0x0 SWAP1 SLOAD SWAP1 PUSH2 0x100 EXP SWAP1 DIV PUSH20 0xFFFFFFFFFFFFFFFFFFFFFFFFFFFFFFFFFFFFFFFF AND PUSH1 0x3 PUSH1 0x0 CALLER PUSH20 0xFFFFFFFFFFFFFFFFFFFFFFFFFFFFFFFFFFFFFFFF AND PUSH20 0xFFFFFFFFFFFFFFFFFFFFFFFFFFFFFFFFFFFFFFFF AND DUP2 MSTORE PUSH1 0x20 ADD SWAP1 DUP2 MSTORE PUSH1 0x20 ADD PUSH1 0x0 KECCAK256 DUP3 DUP2 SLOAD DUP2 LT PUSH2 0x11C2 JUMPI PUSH2 0x11C1 PUSH2 0x202C JUMP JUMPDEST JUMPDEST SWAP1 PUSH1 0x0 MSTORE PUSH1 0x20 PUSH1 0x0 KECCAK256 ADD PUSH1 0x0 PUSH2 0x100 EXP DUP2 SLOAD DUP2 PUSH20 0xFFFFFFFFFFFFFFFFFFFFFFFFFFFFFFFFFFFFFFFF MUL NOT AND SWAP1 DUP4 PUSH20 0xFFFFFFFFFFFFFFFFFFFFFFFFFFFFFFFFFFFFFFFF AND MUL OR SWAP1 SSTORE POP PUSH1 0x3 PUSH1 0x0 CALLER PUSH20 0xFFFFFFFFFFFFFFFFFFFFFFFFFFFFFFFFFFFFFFFF AND PUSH20 0xFFFFFFFFFFFFFFFFFFFFFFFFFFFFFFFFFFFFFFFF AND DUP2 MSTORE PUSH1 0x20 ADD SWAP1 DUP2 MSTORE PUSH1 0x20 ADD PUSH1 0x0 KECCAK256 DUP1 SLOAD DUP1 PUSH2 0x1259 JUMPI PUSH2 0x1258 PUSH2 0x20BE JUMP JUMPDEST JUMPDEST PUSH1 0x1 SWAP1 SUB DUP2 DUP2 SWAP1 PUSH1 0x0 MSTORE PUSH1 0x20 PUSH1 0x0 KECCAK256 ADD PUSH1 0x0 PUSH2 0x100 EXP DUP2 SLOAD SWAP1 PUSH20 0xFFFFFFFFFFFFFFFFFFFFFFFFFFFFFFFFFFFFFFFF MUL NOT AND SWAP1 SSTORE SWAP1 SSTORE DUP3 PUSH20 0xFFFFFFFFFFFFFFFFFFFFFFFFFFFFFFFFFFFFFFFF AND CALLER PUSH20 0xFFFFFFFFFFFFFFFFFFFFFFFFFFFFFFFFFFFFFFFF AND PUSH32 0x11F4B134F60F4BD9F709B4EC296696385AFEECC64BD4EB3EA9DFAA89BBFBB4CF PUSH1 0x40 MLOAD PUSH1 0x40 MLOAD DUP1 SWAP2 SUB SWAP1 LOG3 PUSH1 0x1 SWAP2 POP POP PUSH2 0x130B JUMP JUMPDEST DUP1 DUP1 PUSH2 0x12FD SWAP1 PUSH2 0x20ED JUMP JUMPDEST SWAP2 POP POP PUSH2 0xFAF JUMP JUMPDEST POP PUSH1 0x0 SWAP1 POP JUMPDEST SWAP2 SWAP1 POP JUMP JUMPDEST PUSH1 0x0 CALLER PUSH20 0xFFFFFFFFFFFFFFFFFFFFFFFFFFFFFFFFFFFFFFFF AND DUP3 PUSH20 0xFFFFFFFFFFFFFFFFFFFFFFFFFFFFFFFFFFFFFFFF AND SUB PUSH2 0x1380 JUMPI PUSH1 0x40 MLOAD PUSH32 0x8C379A000000000000000000000000000000000000000000000000000000000 DUP2 MSTORE PUSH1 0x4 ADD PUSH2 0x1377 SWAP1 PUSH2 0x21ED JUMP JUMPDEST PUSH1 0x40 MLOAD DUP1 SWAP2 SUB SWAP1 REVERT JUMPDEST PUSH1 0x0 SLOAD PUSH1 0x1 PUSH1 0x0 DUP5 PUSH20 0xFFFFFFFFFFFFFFFFFFFFFFFFFFFFFFFFFFFFFFFF AND PUSH20 0xFFFFFFFFFFFFFFFFFFFFFFFFFFFFFFFFFFFFFFFF AND DUP2 MSTORE PUSH1 0x20 ADD SWAP1 DUP2 MSTORE PUSH1 0x20 ADD PUSH1 0x0 KECCAK256 PUSH1 0x40 MLOAD PUSH1 0x20 ADD PUSH2 0x13D2 SWAP2 SWAP1 PUSH2 0x1C38 JUMP JUMPDEST PUSH1 0x40 MLOAD PUSH1 0x20 DUP2 DUP4 SUB SUB DUP2 MSTORE SWAP1 PUSH1 0x40 MSTORE DUP1 MLOAD SWAP1 PUSH1 0x20 ADD KECCAK256 SUB PUSH2 0x1428 JUMPI PUSH1 0x40 MLOAD PUSH32 0x8C379A000000000000000000000000000000000000000000000000000000000 DUP2 MSTORE PUSH1 0x4 ADD PUSH2 0x141F SWAP1 PUSH2 0x227F JUMP JUMPDEST PUSH1 0x40 MLOAD DUP1 SWAP2 SUB SWAP1 REVERT JUMPDEST PUSH1 0x0 PUSH1 0x2 PUSH1 0x0 CALLER PUSH20 0xFFFFFFFFFFFFFFFFFFFFFFFFFFFFFFFFFFFFFFFF AND PUSH20 0xFFFFFFFFFFFFFFFFFFFFFFFFFFFFFFFFFFFFFFFF AND DUP2 MSTORE PUSH1 0x20 ADD SWAP1 DUP2 MSTORE PUSH1 0x20 ADD PUSH1 0x0 KECCAK256 PUSH1 0x0 DUP5 PUSH20 0xFFFFFFFFFFFFFFFFFFFFFFFFFFFFFFFFFFFFFFFF AND PUSH20 0xFFFFFFFFFFFFFFFFFFFFFFFFFFFFFFFFFFFFFFFF AND DUP2 MSTORE PUSH1 0x20 ADD SWAP1 DUP2 MSTORE PUSH1 0x20 ADD PUSH1 0x0 KECCAK256 PUSH1 0x1 ADD SLOAD EQ PUSH2 0x14BA JUMPI PUSH2 0x14B8 DUP3 PUSH2 0xE3B JUMP JUMPDEST POP JUMPDEST PUSH1 0x0 PUSH1 0x40 MLOAD DUP1 PUSH1 0x40 ADD PUSH1 0x40 MSTORE DUP1 DUP5 PUSH20 0xFFFFFFFFFFFFFFFFFFFFFFFFFFFFFFFFFFFFFFFF AND DUP2 MSTORE PUSH1 0x20 ADD TIMESTAMP DUP2 MSTORE POP SWAP1 POP DUP1 PUSH1 0x4 PUSH1 0x0 CALLER PUSH20 0xFFFFFFFFFFFFFFFFFFFFFFFFFFFFFFFFFFFFFFFF AND PUSH20 0xFFFFFFFFFFFFFFFFFFFFFFFFFFFFFFFFFFFFFFFF AND DUP2 MSTORE PUSH1 0x20 ADD SWAP1 DUP2 MSTORE PUSH1 0x20 ADD PUSH1 0x0 KECCAK256 PUSH1 0x0 DUP6 PUSH20 0xFFFFFFFFFFFFFFFFFFFFFFFFFFFFFFFFFFFFFFFF AND PUSH20 0xFFFFFFFFFFFFFFFFFFFFFFFFFFFFFFFFFFFFFFFF AND DUP2 MSTORE PUSH1 0x20 ADD SWAP1 DUP2 MSTORE PUSH1 0x20 ADD PUSH1 0x0 KECCAK256 PUSH1 0x0 DUP3 ADD MLOAD DUP2 PUSH1 0x0 ADD PUSH1 0x0 PUSH2 0x100 EXP DUP2 SLOAD DUP2 PUSH20 0xFFFFFFFFFFFFFFFFFFFFFFFFFFFFFFFFFFFFFFFF MUL NOT AND SWAP1 DUP4 PUSH20 0xFFFFFFFFFFFFFFFFFFFFFFFFFFFFFFFFFFFFFFFF AND MUL OR SWAP1 SSTORE POP PUSH1 0x20 DUP3 ADD MLOAD DUP2 PUSH1 0x1 ADD SSTORE SWAP1 POP POP PUSH1 0x5 PUSH1 0x0 CALLER PUSH20 0xFFFFFFFFFFFFFFFFFFFFFFFFFFFFFFFFFFFFFFFF AND PUSH20 0xFFFFFFFFFFFFFFFFFFFFFFFFFFFFFFFFFFFFFFFF AND DUP2 MSTORE PUSH1 0x20 ADD SWAP1 DUP2 MSTORE PUSH1 0x20 ADD PUSH1 0x0 KECCAK256 DUP4 SWAP1 DUP1 PUSH1 0x1 DUP2 SLOAD ADD DUP1 DUP3 SSTORE DUP1 SWAP2 POP POP PUSH1 0x1 SWAP1 SUB SWAP1 PUSH1 0x0 MSTORE PUSH1 0x20 PUSH1 0x0 KECCAK256 ADD PUSH1 0x0 SWAP1 SWAP2 SWAP1 SWAP2 SWAP1 SWAP2 PUSH2 0x100 EXP DUP2 SLOAD DUP2 PUSH20 0xFFFFFFFFFFFFFFFFFFFFFFFFFFFFFFFFFFFFFFFF MUL NOT AND SWAP1 DUP4 PUSH20 0xFFFFFFFFFFFFFFFFFFFFFFFFFFFFFFFFFFFFFFFF AND MUL OR SWAP1 SSTORE POP DUP3 PUSH20 0xFFFFFFFFFFFFFFFFFFFFFFFFFFFFFFFFFFFFFFFF AND CALLER PUSH20 0xFFFFFFFFFFFFFFFFFFFFFFFFFFFFFFFFFFFFFFFF AND PUSH32 0x43122FEE1265880A3328F07D7EC01B1485632605D0DF401FF2394FE731AC644E PUSH1 0x40 MLOAD PUSH1 0x40 MLOAD DUP1 SWAP2 SUB SWAP1 LOG3 PUSH1 0x1 SWAP2 POP POP SWAP2 SWAP1 POP JUMP JUMPDEST PUSH1 0x0 PUSH1 0x40 MLOAD SWAP1 POP SWAP1 JUMP JUMPDEST PUSH1 0x0 DUP1 REVERT JUMPDEST PUSH1 0x0 DUP1 REVERT JUMPDEST PUSH1 0x0 PUSH20 0xFFFFFFFFFFFFFFFFFFFFFFFFFFFFFFFFFFFFFFFF DUP3 AND SWAP1 POP SWAP2 SWAP1 POP JUMP JUMPDEST PUSH1 0x0 PUSH2 0x16FD DUP3 PUSH2 0x16D2 JUMP JUMPDEST SWAP1 POP SWAP2 SWAP1 POP JUMP JUMPDEST PUSH2 0x170D DUP2 PUSH2 0x16F2 JUMP JUMPDEST DUP2 EQ PUSH2 0x1718 JUMPI PUSH1 0x0 DUP1 REVERT JUMPDEST POP JUMP JUMPDEST PUSH1 0x0 DUP2 CALLDATALOAD SWAP1 POP PUSH2 0x172A DUP2 PUSH2 0x1704 JUMP JUMPDEST SWAP3 SWAP2 POP POP JUMP JUMPDEST PUSH1 0x0 PUSH1 0x20 DUP3 DUP5 SUB SLT ISZERO PUSH2 0x1746 JUMPI PUSH2 0x1745 PUSH2 0x16C8 JUMP JUMPDEST JUMPDEST PUSH1 0x0 PUSH2 0x1754 DUP5 DUP3 DUP6 ADD PUSH2 0x171B JUMP JUMPDEST SWAP2 POP POP SWAP3 SWAP2 POP POP JUMP JUMPDEST PUSH1 0x0 DUP2 ISZERO ISZERO SWAP1 POP SWAP2 SWAP1 POP JUMP JUMPDEST PUSH2 0x1772 DUP2 PUSH2 0x175D JUMP JUMPDEST DUP3 MSTORE POP POP JUMP JUMPDEST PUSH1 0x0 PUSH1 0x20 DUP3 ADD SWAP1 POP PUSH2 0x178D PUSH1 0x0 DUP4 ADD DUP5 PUSH2 0x1769 JUMP JUMPDEST SWAP3 SWAP2 POP POP JUMP JUMPDEST PUSH1 0x0 DUP2 MLOAD SWAP1 POP SWAP2 SWAP1 POP JUMP JUMPDEST PUSH1 0x0 DUP3 DUP3 MSTORE PUSH1 0x20 DUP3 ADD SWAP1 POP SWAP3 SWAP2 POP POP JUMP JUMPDEST PUSH1 0x0 DUP2 SWAP1 POP PUSH1 0x20 DUP3 ADD SWAP1 POP SWAP2 SWAP1 POP JUMP JUMPDEST PUSH2 0x17C8 DUP2 PUSH2 0x16F2 JUMP JUMPDEST DUP3 MSTORE POP POP JUMP JUMPDEST PUSH1 0x0 PUSH2 0x17DA DUP4 DUP4 PUSH2 0x17BF JUMP JUMPDEST PUSH1 0x20 DUP4 ADD SWAP1 POP SWAP3 SWAP2 POP POP JUMP JUMPDEST PUSH1 0x0 PUSH1 0x20 DUP3 ADD SWAP1 POP SWAP2 SWAP1 POP JUMP JUMPDEST PUSH1 0x0 PUSH2 0x17FE DUP3 PUSH2 0x1793 JUMP JUMPDEST PUSH2 0x1808 DUP2 DUP6 PUSH2 0x179E JUMP JUMPDEST SWAP4 POP PUSH2 0x1813 DUP4 PUSH2 0x17AF JUMP JUMPDEST DUP1 PUSH1 0x0 JUMPDEST DUP4 DUP2 LT ISZERO PUSH2 0x1844 JUMPI DUP2 MLOAD PUSH2 0x182B DUP9 DUP3 PUSH2 0x17CE JUMP JUMPDEST SWAP8 POP PUSH2 0x1836 DUP4 PUSH2 0x17E6 JUMP JUMPDEST SWAP3 POP POP PUSH1 0x1 DUP2 ADD SWAP1 POP PUSH2 0x1817 JUMP JUMPDEST POP DUP6 SWAP4 POP POP POP POP SWAP3 SWAP2 POP POP JUMP JUMPDEST PUSH1 0x0 PUSH1 0x20 DUP3 ADD SWAP1 POP DUP2 DUP2 SUB PUSH1 0x0 DUP4 ADD MSTORE PUSH2 0x186B DUP2 DUP5 PUSH2 0x17F3 JUMP JUMPDEST SWAP1 POP SWAP3 SWAP2 POP POP JUMP JUMPDEST PUSH1 0x0 DUP1 REVERT JUMPDEST PUSH1 0x0 DUP1 REVERT JUMPDEST PUSH1 0x0 PUSH1 0x1F NOT PUSH1 0x1F DUP4 ADD AND SWAP1 POP SWAP2 SWAP1 POP JUMP JUMPDEST PUSH32 0x4E487B7100000000000000000000000000000000000000000000000000000000 PUSH1 0x0 MSTORE PUSH1 0x41 PUSH1 0x4 MSTORE PUSH1 0x24 PUSH1 0x0 REVERT JUMPDEST PUSH2 0x18C6 DUP3 PUSH2 0x187D JUMP JUMPDEST DUP2 ADD DUP2 DUP2 LT PUSH8 0xFFFFFFFFFFFFFFFF DUP3 GT OR ISZERO PUSH2 0x18E5 JUMPI PUSH2 0x18E4 PUSH2 0x188E JUMP JUMPDEST JUMPDEST DUP1 PUSH1 0x40 MSTORE POP POP POP JUMP JUMPDEST PUSH1 0x0 PUSH2 0x18F8 PUSH2 0x16BE JUMP JUMPDEST SWAP1 POP PUSH2 0x1904 DUP3 DUP3 PUSH2 0x18BD JUMP JUMPDEST SWAP2 SWAP1 POP JUMP JUMPDEST PUSH1 0x0 PUSH8 0xFFFFFFFFFFFFFFFF DUP3 GT ISZERO PUSH2 0x1924 JUMPI PUSH2 0x1923 PUSH2 0x188E JUMP JUMPDEST JUMPDEST PUSH2 0x192D DUP3 PUSH2 0x187D JUMP JUMPDEST SWAP1 POP PUSH1 0x20 DUP2 ADD SWAP1 POP SWAP2 SWAP1 POP JUMP JUMPDEST DUP3 DUP2 DUP4 CALLDATACOPY PUSH1 0x0 DUP4 DUP4 ADD MSTORE POP POP POP JUMP JUMPDEST PUSH1 0x0 PUSH2 0x195C PUSH2 0x1957 DUP5 PUSH2 0x1909 JUMP JUMPDEST PUSH2 0x18EE JUMP JUMPDEST SWAP1 POP DUP3 DUP2 MSTORE PUSH1 0x20 DUP2 ADD DUP5 DUP5 DUP5 ADD GT ISZERO PUSH2 0x1978 JUMPI PUSH2 0x1977 PUSH2 0x1878 JUMP JUMPDEST JUMPDEST PUSH2 0x1983 DUP5 DUP3 DUP6 PUSH2 0x193A JUMP JUMPDEST POP SWAP4 SWAP3 POP POP POP JUMP JUMPDEST PUSH1 0x0 DUP3 PUSH1 0x1F DUP4 ADD SLT PUSH2 0x19A0 JUMPI PUSH2 0x199F PUSH2 0x1873 JUMP JUMPDEST JUMPDEST DUP2 CALLDATALOAD PUSH2 0x19B0 DUP5 DUP3 PUSH1 0x20 DUP7 ADD PUSH2 0x1949 JUMP JUMPDEST SWAP2 POP POP SWAP3 SWAP2 POP POP JUMP JUMPDEST PUSH1 0x0 PUSH1 0x20 DUP3 DUP5 SUB SLT ISZERO PUSH2 0x19CF JUMPI PUSH2 0x19CE PUSH2 0x16C8 JUMP JUMPDEST JUMPDEST PUSH1 0x0 DUP3 ADD CALLDATALOAD PUSH8 0xFFFFFFFFFFFFFFFF DUP2 GT ISZERO PUSH2 0x19ED JUMPI PUSH2 0x19EC PUSH2 0x16CD JUMP JUMPDEST JUMPDEST PUSH2 0x19F9 DUP5 DUP3 DUP6 ADD PUSH2 0x198B JUMP JUMPDEST SWAP2 POP POP SWAP3 SWAP2 POP POP JUMP JUMPDEST PUSH1 0x0 DUP2 MLOAD SWAP1 POP SWAP2 SWAP1 POP JUMP JUMPDEST PUSH1 0x0 DUP3 DUP3 MSTORE PUSH1 0x20 DUP3 ADD SWAP1 POP SWAP3 SWAP2 POP POP JUMP JUMPDEST PUSH1 0x0 JUMPDEST DUP4 DUP2 LT ISZERO PUSH2 0x1A3C JUMPI DUP1 DUP3 ADD MLOAD DUP2 DUP5 ADD MSTORE PUSH1 0x20 DUP2 ADD SWAP1 POP PUSH2 0x1A21 JUMP JUMPDEST PUSH1 0x0 DUP5 DUP5 ADD MSTORE POP POP POP POP JUMP JUMPDEST PUSH1 0x0 PUSH2 0x1A53 DUP3 PUSH2 0x1A02 JUMP JUMPDEST PUSH2 0x1A5D DUP2 DUP6 PUSH2 0x1A0D JUMP JUMPDEST SWAP4 POP PUSH2 0x1A6D DUP2 DUP6 PUSH1 0x20 DUP7 ADD PUSH2 0x1A1E JUMP JUMPDEST PUSH2 0x1A76 DUP2 PUSH2 0x187D JUMP JUMPDEST DUP5 ADD SWAP2 POP POP SWAP3 SWAP2 POP POP JUMP JUMPDEST PUSH1 0x0 PUSH1 0x20 DUP3 ADD SWAP1 POP DUP2 DUP2 SUB PUSH1 0x0 DUP4 ADD MSTORE PUSH2 0x1A9B DUP2 DUP5 PUSH2 0x1A48 JUMP JUMPDEST SWAP1 POP SWAP3 SWAP2 POP POP JUMP JUMPDEST PUSH32 0x796F752063616E206E6F742061646420796F757273656C662061732061206672 PUSH1 0x0 DUP3 ADD MSTORE PUSH32 0x69656E6400000000000000000000000000000000000000000000000000000000 PUSH1 0x20 DUP3 ADD MSTORE POP JUMP JUMPDEST PUSH1 0x0 PUSH2 0x1AFF PUSH1 0x24 DUP4 PUSH2 0x1A0D JUMP JUMPDEST SWAP2 POP PUSH2 0x1B0A DUP3 PUSH2 0x1AA3 JUMP JUMPDEST PUSH1 0x40 DUP3 ADD SWAP1 POP SWAP2 SWAP1 POP JUMP JUMPDEST PUSH1 0x0 PUSH1 0x20 DUP3 ADD SWAP1 POP DUP2 DUP2 SUB PUSH1 0x0 DUP4 ADD MSTORE PUSH2 0x1B2E DUP2 PUSH2 0x1AF2 JUMP JUMPDEST SWAP1 POP SWAP2 SWAP1 POP JUMP JUMPDEST PUSH32 0x4E487B7100000000000000000000000000000000000000000000000000000000 PUSH1 0x0 MSTORE PUSH1 0x22 PUSH1 0x4 MSTORE PUSH1 0x24 PUSH1 0x0 REVERT JUMPDEST PUSH1 0x0 PUSH1 0x2 DUP3 DIV SWAP1 POP PUSH1 0x1 DUP3 AND DUP1 PUSH2 0x1B7C JUMPI PUSH1 0x7F DUP3 AND SWAP2 POP JUMPDEST PUSH1 0x20 DUP3 LT DUP2 SUB PUSH2 0x1B8F JUMPI PUSH2 0x1B8E PUSH2 0x1B35 JUMP JUMPDEST JUMPDEST POP SWAP2 SWAP1 POP JUMP JUMPDEST PUSH1 0x0 DUP2 SWAP1 POP SWAP3 SWAP2 POP POP JUMP JUMPDEST PUSH1 0x0 DUP2 SWAP1 POP DUP2 PUSH1 0x0 MSTORE PUSH1 0x20 PUSH1 0x0 KECCAK256 SWAP1 POP SWAP2 SWAP1 POP JUMP JUMPDEST PUSH1 0x0 DUP2 SLOAD PUSH2 0x1BC2 DUP2 PUSH2 0x1B64 JUMP JUMPDEST PUSH2 0x1BCC DUP2 DUP7 PUSH2 0x1B95 JUMP JUMPDEST SWAP5 POP PUSH1 0x1 DUP3 AND PUSH1 0x0 DUP2 EQ PUSH2 0x1BE7 JUMPI PUSH1 0x1 DUP2 EQ PUSH2 0x1BFC JUMPI PUSH2 0x1C2F JUMP JUMPDEST PUSH1 0xFF NOT DUP4 AND DUP7 MSTORE DUP2 ISZERO ISZERO DUP3 MUL DUP7 ADD SWAP4 POP PUSH2 0x1C2F JUMP JUMPDEST PUSH2 0x1C05 DUP6 PUSH2 0x1BA0 JUMP JUMPDEST PUSH1 0x0 JUMPDEST DUP4 DUP2 LT ISZERO PUSH2 0x1C27 JUMPI DUP2 SLOAD DUP2 DUP10 ADD MSTORE PUSH1 0x1 DUP3 ADD SWAP2 POP PUSH1 0x20 DUP2 ADD SWAP1 POP PUSH2 0x1C08 JUMP JUMPDEST DUP4 DUP9 ADD SWAP6 POP POP POP JUMPDEST POP POP POP SWAP3 SWAP2 POP POP JUMP JUMPDEST PUSH1 0x0 PUSH2 0x1C44 DUP3 DUP5 PUSH2 0x1BB5 JUMP JUMPDEST SWAP2 POP DUP2 SWAP1 POP SWAP3 SWAP2 POP POP JUMP JUMPDEST PUSH32 0x796F752063616E206E6F74206164642061207573657220746861742068617320 PUSH1 0x0 DUP3 ADD MSTORE PUSH32 0x6E6F207075626B65790000000000000000000000000000000000000000000000 PUSH1 0x20 DUP3 ADD MSTORE POP JUMP JUMPDEST PUSH1 0x0 PUSH2 0x1CAB PUSH1 0x29 DUP4 PUSH2 0x1A0D JUMP JUMPDEST SWAP2 POP PUSH2 0x1CB6 DUP3 PUSH2 0x1C4F JUMP JUMPDEST PUSH1 0x40 DUP3 ADD SWAP1 POP SWAP2 SWAP1 POP JUMP JUMPDEST PUSH1 0x0 PUSH1 0x20 DUP3 ADD SWAP1 POP DUP2 DUP2 SUB PUSH1 0x0 DUP4 ADD MSTORE PUSH2 0x1CDA DUP2 PUSH2 0x1C9E JUMP JUMPDEST SWAP1 POP SWAP2 SWAP1 POP JUMP JUMPDEST PUSH32 0x68652F73686520697320796F757220667269656E6420616C7265616479000000 PUSH1 0x0 DUP3 ADD MSTORE POP JUMP JUMPDEST PUSH1 0x0 PUSH2 0x1D17 PUSH1 0x1D DUP4 PUSH2 0x1A0D JUMP JUMPDEST SWAP2 POP PUSH2 0x1D22 DUP3 PUSH2 0x1CE1 JUMP JUMPDEST PUSH1 0x20 DUP3 ADD SWAP1 POP SWAP2 SWAP1 POP JUMP JUMPDEST PUSH1 0x0 PUSH1 0x20 DUP3 ADD SWAP1 POP DUP2 DUP2 SUB PUSH1 0x0 DUP4 ADD MSTORE PUSH2 0x1D46 DUP2 PUSH2 0x1D0A JUMP JUMPDEST SWAP1 POP SWAP2 SWAP1 POP JUMP JUMPDEST PUSH1 0x0 PUSH1 0x20 PUSH1 0x1F DUP4 ADD DIV SWAP1 POP SWAP2 SWAP1 POP JUMP JUMPDEST PUSH1 0x0 DUP3 DUP3 SHL SWAP1 POP SWAP3 SWAP2 POP POP JUMP JUMPDEST PUSH1 0x0 PUSH1 0x8 DUP4 MUL PUSH2 0x1D9A PUSH32 0xFFFFFFFFFFFFFFFFFFFFFFFFFFFFFFFFFFFFFFFFFFFFFFFFFFFFFFFFFFFFFFFF DUP3 PUSH2 0x1D5D JUMP JUMPDEST PUSH2 0x1DA4 DUP7 DUP4 PUSH2 0x1D5D JUMP JUMPDEST SWAP6 POP DUP1 NOT DUP5 AND SWAP4 POP DUP1 DUP7 AND DUP5 OR SWAP3 POP POP POP SWAP4 SWAP3 POP POP POP JUMP JUMPDEST PUSH1 0x0 DUP2 SWAP1 POP SWAP2 SWAP1 POP JUMP JUMPDEST PUSH1 0x0 DUP2 SWAP1 POP SWAP2 SWAP1 POP JUMP JUMPDEST PUSH1 0x0 PUSH2 0x1DEB PUSH2 0x1DE6 PUSH2 0x1DE1 DUP5 PUSH2 0x1DBC JUMP JUMPDEST PUSH2 0x1DC6 JUMP JUMPDEST PUSH2 0x1DBC JUMP JUMPDEST SWAP1 POP SWAP2 SWAP1 POP JUMP JUMPDEST PUSH1 0x0 DUP2 SWAP1 POP SWAP2 SWAP1 POP JUMP JUMPDEST PUSH2 0x1E05 DUP4 PUSH2 0x1DD0 JUMP JUMPDEST PUSH2 0x1E19 PUSH2 0x1E11 DUP3 PUSH2 0x1DF2 JUMP JUMPDEST DUP5 DUP5 SLOAD PUSH2 0x1D6A JUMP JUMPDEST DUP3 SSTORE POP POP POP POP JUMP JUMPDEST PUSH1 0x0 SWAP1 JUMP JUMPDEST PUSH2 0x1E2E PUSH2 0x1E21 JUMP JUMPDEST PUSH2 0x1E39 DUP2 DUP5 DUP5 PUSH2 0x1DFC JUMP JUMPDEST POP POP POP JUMP JUMPDEST JUMPDEST DUP2 DUP2 LT ISZERO PUSH2 0x1E5D JUMPI PUSH2 0x1E52 PUSH1 0x0 DUP3 PUSH2 0x1E26 JUMP JUMPDEST PUSH1 0x1 DUP2 ADD SWAP1 POP PUSH2 0x1E3F JUMP JUMPDEST POP POP JUMP JUMPDEST PUSH1 0x1F DUP3 GT ISZERO PUSH2 0x1EA2 JUMPI PUSH2 0x1E73 DUP2 PUSH2 0x1BA0 JUMP JUMPDEST PUSH2 0x1E7C DUP5 PUSH2 0x1D4D JUMP JUMPDEST DUP2 ADD PUSH1 0x20 DUP6 LT ISZERO PUSH2 0x1E8B JUMPI DUP2 SWAP1 POP JUMPDEST PUSH2 0x1E9F PUSH2 0x1E97 DUP6 PUSH2 0x1D4D JUMP JUMPDEST DUP4 ADD DUP3 PUSH2 0x1E3E JUMP JUMPDEST POP POP JUMPDEST POP POP POP JUMP JUMPDEST PUSH1 0x0 DUP3 DUP3 SHR SWAP1 POP SWAP3 SWAP2 POP POP JUMP JUMPDEST PUSH1 0x0 PUSH2 0x1EC5 PUSH1 0x0 NOT DUP5 PUSH1 0x8 MUL PUSH2 0x1EA7 JUMP JUMPDEST NOT DUP1 DUP4 AND SWAP2 POP POP SWAP3 SWAP2 POP POP JUMP JUMPDEST PUSH1 0x0 PUSH2 0x1EDE DUP4 DUP4 PUSH2 0x1EB4 JUMP JUMPDEST SWAP2 POP DUP3 PUSH1 0x2 MUL DUP3 OR SWAP1 POP SWAP3 SWAP2 POP POP JUMP JUMPDEST PUSH2 0x1EF7 DUP3 PUSH2 0x1A02 JUMP JUMPDEST PUSH8 0xFFFFFFFFFFFFFFFF DUP2 GT ISZERO PUSH2 0x1F10 JUMPI PUSH2 0x1F0F PUSH2 0x188E JUMP JUMPDEST JUMPDEST PUSH2 0x1F1A DUP3 SLOAD PUSH2 0x1B64 JUMP JUMPDEST PUSH2 0x1F25 DUP3 DUP3 DUP6 PUSH2 0x1E61 JUMP JUMPDEST PUSH1 0x0 PUSH1 0x20 SWAP1 POP PUSH1 0x1F DUP4 GT PUSH1 0x1 DUP2 EQ PUSH2 0x1F58 JUMPI PUSH1 0x0 DUP5 ISZERO PUSH2 0x1F46 JUMPI DUP3 DUP8 ADD MLOAD SWAP1 POP JUMPDEST PUSH2 0x1F50 DUP6 DUP3 PUSH2 0x1ED2 JUMP JUMPDEST DUP7 SSTORE POP PUSH2 0x1FB8 JUMP JUMPDEST PUSH1 0x1F NOT DUP5 AND PUSH2 0x1F66 DUP7 PUSH2 0x1BA0 JUMP JUMPDEST PUSH1 0x0 JUMPDEST DUP3 DUP2 LT ISZERO PUSH2 0x1F8E JUMPI DUP5 DUP10 ADD MLOAD DUP3 SSTORE PUSH1 0x1 DUP3 ADD SWAP2 POP PUSH1 0x20 DUP6 ADD SWAP5 POP PUSH1 0x20 DUP2 ADD SWAP1 POP PUSH2 0x1F69 JUMP JUMPDEST DUP7 DUP4 LT ISZERO PUSH2 0x1FAB JUMPI DUP5 DUP10 ADD MLOAD PUSH2 0x1FA7 PUSH1 0x1F DUP10 AND DUP3 PUSH2 0x1EB4 JUMP JUMPDEST DUP4 SSTORE POP JUMPDEST PUSH1 0x1 PUSH1 0x2 DUP9 MUL ADD DUP9 SSTORE POP POP POP JUMPDEST POP POP POP POP POP POP JUMP JUMPDEST PUSH32 0x68652F736865206973206E6F7420796F757220626C6F636B206C697374000000 PUSH1 0x0 DUP3 ADD MSTORE POP JUMP JUMPDEST PUSH1 0x0 PUSH2 0x1FF6 PUSH1 0x1D DUP4 PUSH2 0x1A0D JUMP JUMPDEST SWAP2 POP PUSH2 0x2001 DUP3 PUSH2 0x1FC0 JUMP JUMPDEST PUSH1 0x20 DUP3 ADD SWAP1 POP SWAP2 SWAP1 POP JUMP JUMPDEST PUSH1 0x0 PUSH1 0x20 DUP3 ADD SWAP1 POP DUP2 DUP2 SUB PUSH1 0x0 DUP4 ADD MSTORE PUSH2 0x2025 DUP2 PUSH2 0x1FE9 JUMP JUMPDEST SWAP1 POP SWAP2 SWAP1 POP JUMP JUMPDEST PUSH32 0x4E487B7100000000000000000000000000000000000000000000000000000000 PUSH1 0x0 MSTORE PUSH1 0x32 PUSH1 0x4 MSTORE PUSH1 0x24 PUSH1 0x0 REVERT JUMPDEST PUSH32 0x4E487B7100000000000000000000000000000000000000000000000000000000 PUSH1 0x0 MSTORE PUSH1 0x11 PUSH1 0x4 MSTORE PUSH1 0x24 PUSH1 0x0 REVERT JUMPDEST PUSH1 0x0 PUSH2 0x2095 DUP3 PUSH2 0x1DBC JUMP JUMPDEST SWAP2 POP PUSH2 0x20A0 DUP4 PUSH2 0x1DBC JUMP JUMPDEST SWAP3 POP DUP3 DUP3 SUB SWAP1 POP DUP2 DUP2 GT ISZERO PUSH2 0x20B8 JUMPI PUSH2 0x20B7 PUSH2 0x205B JUMP JUMPDEST JUMPDEST SWAP3 SWAP2 POP POP JUMP JUMPDEST PUSH32 0x4E487B7100000000000000000000000000000000000000000000000000000000 PUSH1 0x0 MSTORE PUSH1 0x31 PUSH1 0x4 MSTORE PUSH1 0x24 PUSH1 0x0 REVERT JUMPDEST PUSH1 0x0 PUSH2 0x20F8 DUP3 PUSH2 0x1DBC JUMP JUMPDEST SWAP2 POP PUSH32 0xFFFFFFFFFFFFFFFFFFFFFFFFFFFFFFFFFFFFFFFFFFFFFFFFFFFFFFFFFFFFFFFF DUP3 SUB PUSH2 0x212A JUMPI PUSH2 0x2129 PUSH2 0x205B JUMP JUMPDEST JUMPDEST PUSH1 0x1 DUP3 ADD SWAP1 POP SWAP2 SWAP1 POP JUMP JUMPDEST PUSH32 0x68652F736865206973206E6F7420796F757220667269656E6400000000000000 PUSH1 0x0 DUP3 ADD MSTORE POP JUMP JUMPDEST PUSH1 0x0 PUSH2 0x216B PUSH1 0x19 DUP4 PUSH2 0x1A0D JUMP JUMPDEST SWAP2 POP PUSH2 0x2176 DUP3 PUSH2 0x2135 JUMP JUMPDEST PUSH1 0x20 DUP3 ADD SWAP1 POP SWAP2 SWAP1 POP JUMP JUMPDEST PUSH1 0x0 PUSH1 0x20 DUP3 ADD SWAP1 POP DUP2 DUP2 SUB PUSH1 0x0 DUP4 ADD MSTORE PUSH2 0x219A DUP2 PUSH2 0x215E JUMP JUMPDEST SWAP1 POP SWAP2 SWAP1 POP JUMP JUMPDEST PUSH32 0x796F752063616E206E6F7420626C6F636B20796F757273656C66000000000000 PUSH1 0x0 DUP3 ADD MSTORE POP JUMP JUMPDEST PUSH1 0x0 PUSH2 0x21D7 PUSH1 0x1A DUP4 PUSH2 0x1A0D JUMP JUMPDEST SWAP2 POP PUSH2 0x21E2 DUP3 PUSH2 0x21A1 JUMP JUMPDEST PUSH1 0x20 DUP3 ADD SWAP1 POP SWAP2 SWAP1 POP JUMP JUMPDEST PUSH1 0x0 PUSH1 0x20 DUP3 ADD SWAP1 POP DUP2 DUP2 SUB PUSH1 0x0 DUP4 ADD MSTORE PUSH2 0x2206 DUP2 PUSH2 0x21CA JUMP JUMPDEST SWAP1 POP SWAP2 SWAP1 POP JUMP JUMPDEST PUSH32 0x796F752063616E206E6F7420626C6F636B206120757365722074686174206E6F PUSH1 0x0 DUP3 ADD MSTORE PUSH32 0x7420657869737473000000000000000000000000000000000000000000000000 PUSH1 0x20 DUP3 ADD MSTORE POP JUMP JUMPDEST PUSH1 0x0 PUSH2 0x2269 PUSH1 0x28 DUP4 PUSH2 0x1A0D JUMP JUMPDEST SWAP2 POP PUSH2 0x2274 DUP3 PUSH2 0x220D JUMP JUMPDEST PUSH1 0x40 DUP3 ADD SWAP1 POP SWAP2 SWAP1 POP JUMP JUMPDEST PUSH1 0x0 PUSH1 0x20 DUP3 ADD SWAP1 POP DUP2 DUP2 SUB PUSH1 0x0 DUP4 ADD MSTORE PUSH2 0x2298 DUP2 PUSH2 0x225C JUMP JUMPDEST SWAP1 POP SWAP2 SWAP1 POP JUMP INVALID LOG2 PUSH5 0x6970667358 0x22 SLT KECCAK256 SAR 0xEE ORIGIN DUP3 0xCE 0x4C 0xAB SAR 0xD2 0xAB 0xA6 PUSH8 0xCE6A8D7582EB522 0x2A 0x4D 0xEE RETURNDATACOPY SELFBALANCE CALLER PUSH28 0x2D192A114E64736F6C63430008130033000000000000000000000000 "
				},
				"gasEstimates": {
					"creation": {
						"codeDepositCost": "1783400",
						"executionCost": "24273",
						"totalCost": "1807673"
					},
					"external": {
						"AddFriend(address)": "infinite",
						"BlockUser(address)": "infinite",
						"GetPubKey(address)": "infinite",
						"Register(string)": "infinite",
						"RemoveBlockedUser(address)": "infinite",
						"RemoveFriend(address)": "infinite",
						"ViewBlockedUsers()": "infinite",
						"ViewFriends()": "infinite"
					}
				},
				"methodIdentifiers": {
					"AddFriend(address)": "13962258",
					"BlockUser(address)": "e905af6c",
					"GetPubKey(address)": "7aafb9f2",
					"Register(string)": "40b2d3af",
					"RemoveBlockedUser(address)": "6c1a2728",
					"RemoveFriend(address)": "8cdae20a",
					"ViewBlockedUsers()": "3dcfd409",
					"ViewFriends()": "8be03f57"
				}
			},
			"storageLayout": {
				"storage": [
					{
						"astId": 17,
						"contract": "implement\\Social.sol:Social",
						"label": "EMPTYSTRING",
						"offset": 0,
						"slot": "0",
						"type": "t_bytes32"
					},
					{
						"astId": 21,
						"contract": "implement\\Social.sol:Social",
						"label": "Pubkeys",
						"offset": 0,
						"slot": "1",
						"type": "t_mapping(t_address,t_string_storage)"
					},
					{
						"astId": 28,
						"contract": "implement\\Social.sol:Social",
						"label": "FriendsMapping",
						"offset": 0,
						"slot": "2",
						"type": "t_mapping(t_address,t_mapping(t_address,t_struct(User)9_storage))"
					},
					{
						"astId": 33,
						"contract": "implement\\Social.sol:Social",
						"label": "FriendsList",
						"offset": 0,
						"slot": "3",
						"type": "t_mapping(t_address,t_array(t_address)dyn_storage)"
					},
					{
						"astId": 40,
						"contract": "implement\\Social.sol:Social",
						"label": "BlockedUserMapping",
						"offset": 0,
						"slot": "4",
						"type": "t_mapping(t_address,t_mapping(t_address,t_struct(User)9_storage))"
					},
					{
						"astId": 45,
						"contract": "implement\\Social.sol:Social",
						"label": "BlockList",
						"offset": 0,
						"slot": "5",
						"type": "t_mapping(t_address,t_array(t_address)dyn_storage)"
					}
				],
				"types": {
					"t_address": {
						"encoding": "inplace",
						"label": "address",
						"numberOfBytes": "20"
					},
					"t_array(t_address)dyn_storage": {
						"base": "t_address",
						"encoding": "dynamic_array",
						"label": "address[]",
						"numberOfBytes": "32"
					},
					"t_bytes32": {
						"encoding": "inplace",
						"label": "bytes32",
						"numberOfBytes": "32"
					},
					"t_mapping(t_address,t_array(t_address)dyn_storage)": {
						"encoding": "mapping",
						"key": "t_address",
						"label": "mapping(address => address[])",
						"numberOfBytes": "32",
						"value": "t_array(t_address)dyn_storage"
					},
					"t_mapping(t_address,t_mapping(t_address,t_struct(User)9_storage))": {
						"encoding": "mapping",
						"key": "t_address",
						"label": "mapping(address => mapping(address => struct Social.User))",
						"numberOfBytes": "32",
						"value": "t_mapping(t_address,t_struct(User)9_storage)"
					},
					"t_mapping(t_address,t_string_storage)": {
						"encoding": "mapping",
						"key": "t_address",
						"label": "mapping(address => string)",
						"numberOfBytes": "32",
						"value": "t_string_storage"
					},
					"t_mapping(t_address,t_struct(User)9_storage)": {
						"encoding": "mapping",
						"key": "t_address",
						"label": "mapping(address => struct Social.User)",
						"numberOfBytes": "32",
						"value": "t_struct(User)9_storage"
					},
					"t_string_storage": {
						"encoding": "bytes",
						"label": "string",
						"numberOfBytes": "32"
					},
					"t_struct(User)9_storage": {
						"encoding": "inplace",
						"label": "struct Social.User",
						"members": [
							{
								"astId": 6,
								"contract": "implement\\Social.sol:Social",
								"label": "user_address",
								"offset": 0,
								"slot": "0",
								"type": "t_address"
							},
							{
								"astId": 8,
								"contract": "implement\\Social.sol:Social",
								"label": "created_at",
								"offset": 0,
								"slot": "1",
								"type": "t_uint256"
							}
						],
						"numberOfBytes": "64"
					},
					"t_uint256": {
						"encoding": "inplace",
						"label": "uint256",
						"numberOfBytes": "32"
					}
				}
			},
			"userdoc": {
				"kind": "user",
				"methods": {},
				"version": 1
			}
		}
	}
}